{
  "contractName": "CryptoBoys",
  "abi": [
    {
      "inputs": [
        {
          "internalType": "address",
          "name": "admin",
          "type": "address"
        },
        {
          "internalType": "address",
          "name": "admin2",
          "type": "address"
        },
        {
          "internalType": "address",
          "name": "marketAddress",
          "type": "address"
        }
      ],
      "stateMutability": "nonpayable",
      "type": "constructor"
    },
    {
      "anonymous": false,
      "inputs": [
        {
          "indexed": true,
          "internalType": "address",
          "name": "owner",
          "type": "address"
        },
        {
          "indexed": true,
          "internalType": "address",
          "name": "approved",
          "type": "address"
        },
        {
          "indexed": true,
          "internalType": "uint256",
          "name": "tokenId",
          "type": "uint256"
        }
      ],
      "name": "Approval",
      "type": "event"
    },
    {
      "anonymous": false,
      "inputs": [
        {
          "indexed": true,
          "internalType": "address",
          "name": "owner",
          "type": "address"
        },
        {
          "indexed": true,
          "internalType": "address",
          "name": "operator",
          "type": "address"
        },
        {
          "indexed": false,
          "internalType": "bool",
          "name": "approved",
          "type": "bool"
        }
      ],
      "name": "ApprovalForAll",
      "type": "event"
    },
    {
      "anonymous": false,
      "inputs": [
        {
          "indexed": true,
          "internalType": "address",
          "name": "previousOwner",
          "type": "address"
        },
        {
          "indexed": true,
          "internalType": "address",
          "name": "newOwner",
          "type": "address"
        }
      ],
      "name": "OwnershipTransferred",
      "type": "event"
    },
    {
      "anonymous": false,
      "inputs": [
        {
          "indexed": true,
          "internalType": "address",
          "name": "from",
          "type": "address"
        },
        {
          "indexed": true,
          "internalType": "address",
          "name": "to",
          "type": "address"
        },
        {
          "indexed": true,
          "internalType": "uint256",
          "name": "tokenId",
          "type": "uint256"
        }
      ],
      "name": "Transfer",
      "type": "event"
    },
    {
      "inputs": [
        {
          "internalType": "address",
          "name": "to",
          "type": "address"
        },
        {
          "internalType": "uint256",
          "name": "tokenId",
          "type": "uint256"
        }
      ],
      "name": "approve",
      "outputs": [],
      "stateMutability": "nonpayable",
      "type": "function"
    },
    {
      "inputs": [
        {
          "internalType": "address",
          "name": "owner",
          "type": "address"
        }
      ],
      "name": "balanceOf",
      "outputs": [
        {
          "internalType": "uint256",
          "name": "",
          "type": "uint256"
        }
      ],
      "stateMutability": "view",
      "type": "function",
      "constant": true
    },
    {
      "inputs": [],
      "name": "collectionName",
      "outputs": [
        {
          "internalType": "string",
          "name": "",
          "type": "string"
        }
      ],
      "stateMutability": "view",
      "type": "function",
      "constant": true
    },
    {
      "inputs": [],
      "name": "collectionNameSymbol",
      "outputs": [
        {
          "internalType": "string",
          "name": "",
          "type": "string"
        }
      ],
      "stateMutability": "view",
      "type": "function",
      "constant": true
    },
    {
      "inputs": [
        {
          "internalType": "string",
          "name": "",
          "type": "string"
        }
      ],
      "name": "colorExists",
      "outputs": [
        {
          "internalType": "bool",
          "name": "",
          "type": "bool"
        }
      ],
      "stateMutability": "view",
      "type": "function",
      "constant": true
    },
    {
      "inputs": [],
      "name": "cryptoBoyCounter",
      "outputs": [
        {
          "internalType": "uint256",
          "name": "",
          "type": "uint256"
        }
      ],
      "stateMutability": "view",
      "type": "function",
      "constant": true
    },
    {
      "inputs": [
        {
          "internalType": "uint256",
          "name": "tokenId",
          "type": "uint256"
        }
      ],
      "name": "getApproved",
      "outputs": [
        {
          "internalType": "address",
          "name": "",
          "type": "address"
        }
      ],
      "stateMutability": "view",
      "type": "function",
      "constant": true
    },
    {
      "inputs": [
        {
          "internalType": "address",
          "name": "owner",
          "type": "address"
        },
        {
          "internalType": "address",
          "name": "operator",
          "type": "address"
        }
      ],
      "name": "isApprovedForAll",
      "outputs": [
        {
          "internalType": "bool",
          "name": "",
          "type": "bool"
        }
      ],
      "stateMutability": "view",
      "type": "function",
      "constant": true
    },
    {
      "inputs": [
        {
          "internalType": "uint256",
          "name": "",
          "type": "uint256"
        }
      ],
      "name": "lastDividendAt",
      "outputs": [
        {
          "internalType": "uint256",
          "name": "",
          "type": "uint256"
        }
      ],
      "stateMutability": "view",
      "type": "function",
      "constant": true
    },
    {
      "inputs": [],
      "name": "market",
      "outputs": [
        {
          "internalType": "contract Market",
          "name": "",
          "type": "address"
        }
      ],
      "stateMutability": "view",
      "type": "function",
      "constant": true
    },
    {
      "inputs": [],
      "name": "name",
      "outputs": [
        {
          "internalType": "string",
          "name": "",
          "type": "string"
        }
      ],
      "stateMutability": "view",
      "type": "function",
      "constant": true
    },
    {
      "inputs": [],
      "name": "owner",
      "outputs": [
        {
          "internalType": "address",
          "name": "",
          "type": "address"
        }
      ],
      "stateMutability": "view",
      "type": "function",
      "constant": true
    },
    {
      "inputs": [
        {
          "internalType": "uint256",
          "name": "tokenId",
          "type": "uint256"
        }
      ],
      "name": "ownerOf",
      "outputs": [
        {
          "internalType": "address",
          "name": "",
          "type": "address"
        }
      ],
      "stateMutability": "view",
      "type": "function",
      "constant": true
    },
    {
      "inputs": [],
      "name": "reflectionBalance",
      "outputs": [
        {
          "internalType": "uint256",
          "name": "",
          "type": "uint256"
        }
      ],
      "stateMutability": "view",
      "type": "function",
      "constant": true
    },
    {
      "inputs": [],
      "name": "renounceOwnership",
      "outputs": [],
      "stateMutability": "nonpayable",
      "type": "function"
    },
    {
      "inputs": [
        {
          "internalType": "address",
          "name": "from",
          "type": "address"
        },
        {
          "internalType": "address",
          "name": "to",
          "type": "address"
        },
        {
          "internalType": "uint256",
          "name": "tokenId",
          "type": "uint256"
        }
      ],
      "name": "safeTransferFrom",
      "outputs": [],
      "stateMutability": "nonpayable",
      "type": "function"
    },
    {
      "inputs": [
        {
          "internalType": "address",
          "name": "from",
          "type": "address"
        },
        {
          "internalType": "address",
          "name": "to",
          "type": "address"
        },
        {
          "internalType": "uint256",
          "name": "tokenId",
          "type": "uint256"
        },
        {
          "internalType": "bytes",
          "name": "_data",
          "type": "bytes"
        }
      ],
      "name": "safeTransferFrom",
      "outputs": [],
      "stateMutability": "nonpayable",
      "type": "function"
    },
    {
      "inputs": [
        {
          "internalType": "address",
          "name": "operator",
          "type": "address"
        },
        {
          "internalType": "bool",
          "name": "approved",
          "type": "bool"
        }
      ],
      "name": "setApprovalForAll",
      "outputs": [],
      "stateMutability": "nonpayable",
      "type": "function"
    },
    {
      "inputs": [
        {
          "internalType": "bytes4",
          "name": "interfaceId",
          "type": "bytes4"
        }
      ],
      "name": "supportsInterface",
      "outputs": [
        {
          "internalType": "bool",
          "name": "",
          "type": "bool"
        }
      ],
      "stateMutability": "view",
      "type": "function",
      "constant": true
    },
    {
      "inputs": [],
      "name": "symbol",
      "outputs": [
        {
          "internalType": "string",
          "name": "",
          "type": "string"
        }
      ],
      "stateMutability": "view",
      "type": "function",
      "constant": true
    },
    {
      "inputs": [
        {
          "internalType": "uint256",
          "name": "index",
          "type": "uint256"
        }
      ],
      "name": "tokenByIndex",
      "outputs": [
        {
          "internalType": "uint256",
          "name": "",
          "type": "uint256"
        }
      ],
      "stateMutability": "view",
      "type": "function",
      "constant": true
    },
    {
      "inputs": [
        {
          "internalType": "string",
          "name": "",
          "type": "string"
        }
      ],
      "name": "tokenNameExists",
      "outputs": [
        {
          "internalType": "bool",
          "name": "",
          "type": "bool"
        }
      ],
      "stateMutability": "view",
      "type": "function",
      "constant": true
    },
    {
      "inputs": [
        {
          "internalType": "address",
          "name": "owner",
          "type": "address"
        },
        {
          "internalType": "uint256",
          "name": "index",
          "type": "uint256"
        }
      ],
      "name": "tokenOfOwnerByIndex",
      "outputs": [
        {
          "internalType": "uint256",
          "name": "",
          "type": "uint256"
        }
      ],
      "stateMutability": "view",
      "type": "function",
      "constant": true
    },
    {
      "inputs": [
        {
          "internalType": "string",
          "name": "",
          "type": "string"
        }
      ],
      "name": "tokenURIExists",
      "outputs": [
        {
          "internalType": "bool",
          "name": "",
          "type": "bool"
        }
      ],
      "stateMutability": "view",
      "type": "function",
      "constant": true
    },
    {
      "inputs": [],
      "name": "totalDividend",
      "outputs": [
        {
          "internalType": "uint256",
          "name": "",
          "type": "uint256"
        }
      ],
      "stateMutability": "view",
      "type": "function",
      "constant": true
    },
    {
      "inputs": [],
      "name": "totalSupply",
      "outputs": [
        {
          "internalType": "uint256",
          "name": "",
          "type": "uint256"
        }
      ],
      "stateMutability": "view",
      "type": "function",
      "constant": true
    },
    {
      "inputs": [
        {
          "internalType": "address",
          "name": "from",
          "type": "address"
        },
        {
          "internalType": "address",
          "name": "to",
          "type": "address"
        },
        {
          "internalType": "uint256",
          "name": "tokenId",
          "type": "uint256"
        }
      ],
      "name": "transferFrom",
      "outputs": [],
      "stateMutability": "nonpayable",
      "type": "function"
    },
    {
      "inputs": [
        {
          "internalType": "address",
          "name": "newOwner",
          "type": "address"
        }
      ],
      "name": "transferOwnership",
      "outputs": [],
      "stateMutability": "nonpayable",
      "type": "function"
    },
    {
      "inputs": [
        {
          "internalType": "string",
          "name": "baseURI_",
          "type": "string"
        }
      ],
      "name": "setBaseURI",
      "outputs": [],
      "stateMutability": "nonpayable",
      "type": "function"
    },
    {
      "inputs": [
        {
          "internalType": "uint256",
          "name": "tokenId",
          "type": "uint256"
        }
      ],
      "name": "tokenURI",
      "outputs": [
        {
          "internalType": "string",
          "name": "",
          "type": "string"
        }
      ],
      "stateMutability": "view",
      "type": "function",
      "constant": true
    },
    {
      "inputs": [
        {
          "internalType": "string",
          "name": "_name",
          "type": "string"
        },
        {
          "internalType": "string",
          "name": "_tokenURI",
          "type": "string"
        },
        {
          "internalType": "string[]",
          "name": "_colors",
          "type": "string[]"
        }
      ],
      "name": "mintCryptoBoy",
      "outputs": [],
      "stateMutability": "payable",
      "type": "function",
      "payable": true
    },
    {
      "inputs": [
        {
          "internalType": "address",
          "name": "from",
          "type": "address"
        },
        {
          "internalType": "address",
          "name": "to",
          "type": "address"
        },
        {
          "internalType": "uint256",
          "name": "tokenId",
          "type": "uint256"
        }
      ],
      "name": "transferToken",
      "outputs": [],
      "stateMutability": "nonpayable",
      "type": "function"
    },
    {
      "inputs": [
        {
          "internalType": "uint256",
          "name": "_tokenId",
          "type": "uint256"
        }
      ],
      "name": "getTokenOwner",
      "outputs": [
        {
          "internalType": "address",
          "name": "",
          "type": "address"
        }
      ],
      "stateMutability": "view",
      "type": "function",
      "constant": true
    },
    {
      "inputs": [
        {
          "internalType": "uint256",
          "name": "_tokenId",
          "type": "uint256"
        }
      ],
      "name": "getTokenMetaData",
      "outputs": [
        {
          "internalType": "string",
          "name": "",
          "type": "string"
        }
      ],
      "stateMutability": "view",
      "type": "function",
      "constant": true
    },
    {
      "inputs": [],
      "name": "getNumberOfTokensMinted",
      "outputs": [
        {
          "internalType": "uint256",
          "name": "",
          "type": "uint256"
        }
      ],
      "stateMutability": "view",
      "type": "function",
      "constant": true
    },
    {
      "inputs": [
        {
          "internalType": "address",
          "name": "_owner",
          "type": "address"
        }
      ],
      "name": "getTotalNumberOfTokensOwnedByAnAddress",
      "outputs": [
        {
          "internalType": "uint256",
          "name": "",
          "type": "uint256"
        }
      ],
      "stateMutability": "view",
      "type": "function",
      "constant": true
    },
    {
      "inputs": [
        {
          "internalType": "uint256",
          "name": "_tokenId",
          "type": "uint256"
        }
      ],
      "name": "getTokenExists",
      "outputs": [
        {
          "internalType": "bool",
          "name": "",
          "type": "bool"
        }
      ],
      "stateMutability": "view",
      "type": "function",
      "constant": true
    },
    {
      "inputs": [],
      "name": "claimRewards",
      "outputs": [],
      "stateMutability": "nonpayable",
      "type": "function"
    },
    {
      "inputs": [
        {
          "internalType": "uint256",
          "name": "tokenId",
          "type": "uint256"
        }
      ],
      "name": "claimReward",
      "outputs": [],
      "stateMutability": "nonpayable",
      "type": "function"
    },
    {
      "inputs": [
        {
          "internalType": "uint256",
          "name": "tokenId",
          "type": "uint256"
        }
      ],
      "name": "getReflectionBalance",
      "outputs": [
        {
          "internalType": "uint256",
          "name": "",
          "type": "uint256"
        }
      ],
      "stateMutability": "view",
      "type": "function",
      "constant": true
    },
    {
      "inputs": [],
      "name": "reflectToOwners",
      "outputs": [],
      "stateMutability": "payable",
      "type": "function",
      "payable": true
    }
  ],
  "bytecode": "0x608060405267016345785d8a00006016553480156200001d57600080fd5b5060405162004fca38038062004fca833981810160405281019062000043919062000539565b6040518060400160405280601881526020017f54616977616e2043727970746f20436f6c6c656374696f6e00000000000000008152506040518060400160405280600281526020017f5443000000000000000000000000000000000000000000000000000000000000815250620000cf620000c36200021f60201b60201c565b6200022760201b60201c565b8160019080519060200190620000e79291906200041f565b508060029080519060200190620001009291906200041f565b50505062000113620002eb60201b60201c565b600c90805190602001906200012a9291906200041f565b506200013b6200038560201b60201c565b600d9080519060200190620001529291906200041f565b5082601460006101000a81548173ffffffffffffffffffffffffffffffffffffffff021916908373ffffffffffffffffffffffffffffffffffffffff16021790555081601560006101000a81548173ffffffffffffffffffffffffffffffffffffffff021916908373ffffffffffffffffffffffffffffffffffffffff16021790555080600b60006101000a81548173ffffffffffffffffffffffffffffffffffffffff021916908373ffffffffffffffffffffffffffffffffffffffff160217905550505050620005fa565b600033905090565b60008060009054906101000a900473ffffffffffffffffffffffffffffffffffffffff169050816000806101000a81548173ffffffffffffffffffffffffffffffffffffffff021916908373ffffffffffffffffffffffffffffffffffffffff1602179055508173ffffffffffffffffffffffffffffffffffffffff168173ffffffffffffffffffffffffffffffffffffffff167f8be0079c531659141344cd1fd0a4f28419497f9722a3daafe3b4186f6b6457e060405160405180910390a35050565b606060018054620002fc90620005c4565b80601f01602080910402602001604051908101604052809291908181526020018280546200032a90620005c4565b80156200037b5780601f106200034f576101008083540402835291602001916200037b565b820191906000526020600020905b8154815290600101906020018083116200035d57829003601f168201915b5050505050905090565b6060600280546200039690620005c4565b80601f0160208091040260200160405190810160405280929190818152602001828054620003c490620005c4565b8015620004155780601f10620003e95761010080835404028352916020019162000415565b820191906000526020600020905b815481529060010190602001808311620003f757829003601f168201915b5050505050905090565b8280546200042d90620005c4565b90600052602060002090601f0160209004810192826200045157600085556200049d565b82601f106200046c57805160ff19168380011785556200049d565b828001600101855582156200049d579182015b828111156200049c5782518255916020019190600101906200047f565b5b509050620004ac9190620004b0565b5090565b5b80821115620004cb576000816000905550600101620004b1565b5090565b600080fd5b600073ffffffffffffffffffffffffffffffffffffffff82169050919050565b60006200050182620004d4565b9050919050565b6200051381620004f4565b81146200051f57600080fd5b50565b600081519050620005338162000508565b92915050565b600080600060608486031215620005555762000554620004cf565b5b6000620005658682870162000522565b9350506020620005788682870162000522565b92505060406200058b8682870162000522565b9150509250925092565b7f4e487b7100000000000000000000000000000000000000000000000000000000600052602260045260246000fd5b60006002820490506001821680620005dd57607f821691505b60208210811415620005f457620005f362000595565b5b50919050565b6149c0806200060a6000396000f3fe6080604052600436106102455760003560e01c80636d6daf6511610139578063a5cd761f116100b6578063cc151f3a1161007a578063cc151f3a146108d3578063d2068857146108fe578063e5326ab11461093b578063e985e9c514610966578063f2fde38b146109a3578063f5537ede146109cc57610245565b8063a5cd761f146107dc578063ae169a5014610819578063b88d4fde14610842578063bffec2021461086b578063c87b56dd1461089657610245565b80638d44807c116100fd5780638d44807c146106e35780638da5cb5b1461072057806395d89b411461074b578063a22cb46514610776578063a46b1fac1461079f57610245565b80636d6daf651461061d5780636f9507f91461063957806370a0823114610664578063715018a6146106a157806380f55605146106b857610245565b8063372500ab116101c75780634b6acafb1161018b5780634b6acafb146105125780634f6ccce71461053d57806355f804b31461057a5780636352211e146105a357806367c623cf146105e057610245565b8063372500ab1461042d5780634131ff991461044457806342842e0e1461046f578063439028501461049857806343d32ae7146104d557610245565b8063095ea7b31161020e578063095ea7b314610336578063142687f31461035f57806318160ddd1461039c57806323b872dd146103c75780632f745c59146103f057610245565b8062fe50c61461024a57806301ffc9a714610287578063047d5e80146102c457806306fdde03146102ce578063081812fc146102f9575b600080fd5b34801561025657600080fd5b50610271600480360381019061026c9190613089565b6109f5565b60405161027e91906130c5565b60405180910390f35b34801561029357600080fd5b506102ae60048036038101906102a99190613138565b610a1f565b6040516102bb9190613180565b60405180910390f35b6102cc610a99565b005b3480156102da57600080fd5b506102e3610aa4565b6040516102f09190613234565b60405180910390f35b34801561030557600080fd5b50610320600480360381019061031b9190613089565b610b36565b60405161032d9190613297565b60405180910390f35b34801561034257600080fd5b5061035d600480360381019061035891906132de565b610bbb565b005b34801561036b57600080fd5b5061038660048036038101906103819190613089565b610cd3565b6040516103939190613180565b60405180910390f35b3480156103a857600080fd5b506103b1610cea565b6040516103be91906130c5565b60405180910390f35b3480156103d357600080fd5b506103ee60048036038101906103e9919061331e565b610cf7565b005b3480156103fc57600080fd5b50610417600480360381019061041291906132de565b610d57565b60405161042491906130c5565b60405180910390f35b34801561043957600080fd5b50610442610dfc565b005b34801561045057600080fd5b50610459610eb3565b60405161046691906130c5565b60405180910390f35b34801561047b57600080fd5b506104966004803603810190610491919061331e565b610eb9565b005b3480156104a457600080fd5b506104bf60048036038101906104ba9190613371565b610ed9565b6040516104cc91906130c5565b60405180910390f35b3480156104e157600080fd5b506104fc60048036038101906104f791906134d3565b610ef0565b6040516105099190613180565b60405180910390f35b34801561051e57600080fd5b50610527610f26565b60405161053491906130c5565b60405180910390f35b34801561054957600080fd5b50610564600480360381019061055f9190613089565b610f2c565b60405161057191906130c5565b60405180910390f35b34801561058657600080fd5b506105a1600480360381019061059c91906134d3565b610f9d565b005b3480156105af57600080fd5b506105ca60048036038101906105c59190613089565b611033565b6040516105d79190613297565b60405180910390f35b3480156105ec57600080fd5b5061060760048036038101906106029190613089565b6110e5565b6040516106149190613234565b60405180910390f35b6106376004803603810190610632919061357c565b6110fd565b005b34801561064557600080fd5b5061064e6114ab565b60405161065b9190613234565b60405180910390f35b34801561067057600080fd5b5061068b60048036038101906106869190613371565b611539565b60405161069891906130c5565b60405180910390f35b3480156106ad57600080fd5b506106b66115f1565b005b3480156106c457600080fd5b506106cd611679565b6040516106da9190613687565b60405180910390f35b3480156106ef57600080fd5b5061070a600480360381019061070591906134d3565b61169f565b6040516107179190613180565b60405180910390f35b34801561072c57600080fd5b506107356116d5565b6040516107429190613297565b60405180910390f35b34801561075757600080fd5b506107606116fe565b60405161076d9190613234565b60405180910390f35b34801561078257600080fd5b5061079d600480360381019061079891906136ce565b611790565b005b3480156107ab57600080fd5b506107c660048036038101906107c191906134d3565b6117a6565b6040516107d39190613180565b60405180910390f35b3480156107e857600080fd5b5061080360048036038101906107fe9190613089565b6117dc565b6040516108109190613297565b60405180910390f35b34801561082557600080fd5b50610840600480360381019061083b9190613089565b6117f3565b005b34801561084e57600080fd5b50610869600480360381019061086491906137af565b61192f565b005b34801561087757600080fd5b50610880611991565b60405161088d91906130c5565b60405180910390f35b3480156108a257600080fd5b506108bd60048036038101906108b89190613089565b611997565b6040516108ca9190613234565b60405180910390f35b3480156108df57600080fd5b506108e8611b02565b6040516108f591906130c5565b60405180910390f35b34801561090a57600080fd5b5061092560048036038101906109209190613089565b611b16565b60405161093291906130c5565b60405180910390f35b34801561094757600080fd5b50610950611b2e565b60405161095d9190613234565b60405180910390f35b34801561097257600080fd5b5061098d60048036038101906109889190613832565b611bbc565b60405161099a9190613180565b60405180910390f35b3480156109af57600080fd5b506109ca60048036038101906109c59190613371565b611c50565b005b3480156109d857600080fd5b506109f360048036038101906109ee919061331e565b611d48565b005b60006019600083815260200190815260200160002054601854610a1891906138a1565b9050919050565b60007f780e9d63000000000000000000000000000000000000000000000000000000007bffffffffffffffffffffffffffffffffffffffffffffffffffffffff1916827bffffffffffffffffffffffffffffffffffffffffffffffffffffffff19161480610a925750610a9182611d58565b5b9050919050565b610aa234611e3a565b565b606060018054610ab390613904565b80601f0160208091040260200160405190810160405280929190818152602001828054610adf90613904565b8015610b2c5780601f10610b0157610100808354040283529160200191610b2c565b820191906000526020600020905b815481529060010190602001808311610b0f57829003601f168201915b5050505050905090565b6000610b4182611e77565b610b80576040517f08c379a0000000000000000000000000000000000000000000000000000000008152600401610b77906139a8565b60405180910390fd5b6005600083815260200190815260200160002060009054906101000a900473ffffffffffffffffffffffffffffffffffffffff169050919050565b6000610bc682611033565b90508073ffffffffffffffffffffffffffffffffffffffff168373ffffffffffffffffffffffffffffffffffffffff161415610c37576040517f08c379a0000000000000000000000000000000000000000000000000000000008152600401610c2e90613a3a565b60405180910390fd5b8073ffffffffffffffffffffffffffffffffffffffff16610c56611ee3565b73ffffffffffffffffffffffffffffffffffffffff161480610c855750610c8481610c7f611ee3565b611bbc565b5b610cc4576040517f08c379a0000000000000000000000000000000000000000000000000000000008152600401610cbb90613acc565b60405180910390fd5b610cce8383611eeb565b505050565b600080610cdf83611e77565b905080915050919050565b6000600980549050905090565b610d08610d02611ee3565b82611fa4565b610d47576040517f08c379a0000000000000000000000000000000000000000000000000000000008152600401610d3e90613b5e565b60405180910390fd5b610d52838383612082565b505050565b6000610d6283611539565b8210610da3576040517f08c379a0000000000000000000000000000000000000000000000000000000008152600401610d9a90613bf0565b60405180910390fd5b600760008473ffffffffffffffffffffffffffffffffffffffff1673ffffffffffffffffffffffffffffffffffffffff168152602001908152602001600020600083815260200190815260200160002054905092915050565b6000610e0733611539565b90506000805b82811015610e67576000610e213383610d57565b9050610e2c816109f5565b83610e379190613c10565b92506018546019600083815260200190815260200160002081905550508080610e5f90613c66565b915050610e0d565b503373ffffffffffffffffffffffffffffffffffffffff166108fc829081150290604051600060405180830381858888f19350505050158015610eae573d6000803e3d6000fd5b505050565b60175481565b610ed48383836040518060200160405280600081525061192f565b505050565b600080610ee583611539565b905080915050919050565b6013818051602081018201805184825260208301602085012081835280955050505050506000915054906101000a900460ff1681565b60185481565b6000610f36610cea565b8210610f77576040517f08c379a0000000000000000000000000000000000000000000000000000000008152600401610f6e90613d21565b60405180910390fd5b60098281548110610f8b57610f8a613d41565b5b90600052602060002001549050919050565b610fa5611ee3565b73ffffffffffffffffffffffffffffffffffffffff16610fc36116d5565b73ffffffffffffffffffffffffffffffffffffffff1614611019576040517f08c379a000000000000000000000000000000000000000000000000000000000815260040161101090613dbc565b60405180910390fd5b80600f908051906020019061102f929190612f9c565b5050565b6000806003600084815260200190815260200160002060009054906101000a900473ffffffffffffffffffffffffffffffffffffffff169050600073ffffffffffffffffffffffffffffffffffffffff168173ffffffffffffffffffffffffffffffffffffffff1614156110dc576040517f08c379a00000000000000000000000000000000000000000000000000000000081526004016110d390613e4e565b60405180910390fd5b80915050919050565b606060006110f283611997565b905080915050919050565b600073ffffffffffffffffffffffffffffffffffffffff163373ffffffffffffffffffffffffffffffffffffffff16141561113757600080fd5b600e600081548092919061114a90613c66565b919050555061115a600e54611e77565b1561116457600080fd5b60165434146111a8576040517f08c379a000000000000000000000000000000000000000000000000000000000815260040161119f90613eba565b60405180910390fd5b612710600e5411156111ef576040517f08c379a00000000000000000000000000000000000000000000000000000000081526004016111e690613f4c565b60405180910390fd5b60005b8282905081101561126b57601283838381811061121257611211613d41565b5b90506020028101906112249190613f7b565b60405161123292919061400e565b908152602001604051809103902060009054906101000a900460ff161561125857600080fd5b808061126390613c66565b9150506111f2565b5060138360405161127c9190614058565b908152602001604051809103902060009054906101000a900460ff16156112a257600080fd5b6011846040516112b29190614058565b908152602001604051809103902060009054906101000a900460ff16156112d857600080fd5b6112e433600e546122e9565b6112f0600e54846124c3565b60005b8282905081101561136d576001601284848481811061131557611314613d41565b5b90506020028101906113279190613f7b565b60405161133592919061400e565b908152602001604051809103902060006101000a81548160ff021916908315150217905550808061136590613c66565b9150506112f3565b5060016013846040516113809190614058565b908152602001604051809103902060006101000a81548160ff02191690831515021790555060016011856040516113b79190614058565b908152602001604051809103902060006101000a81548160ff021916908315150217905550600b60009054906101000a900473ffffffffffffffffffffffffffffffffffffffff1673ffffffffffffffffffffffffffffffffffffffff1663856e96b3600e54868633336000601654600060016040518a63ffffffff1660e01b815260040161144e999897969594939291906140aa565b600060405180830381600087803b15801561146857600080fd5b505af115801561147c573d6000803e3d6000fd5b5050505060185460196000600e548152602001908152602001600020819055506114a534612537565b50505050565b600d80546114b890613904565b80601f01602080910402602001604051908101604052809291908181526020018280546114e490613904565b80156115315780601f1061150657610100808354040283529160200191611531565b820191906000526020600020905b81548152906001019060200180831161151457829003601f168201915b505050505081565b60008073ffffffffffffffffffffffffffffffffffffffff168273ffffffffffffffffffffffffffffffffffffffff1614156115aa576040517f08c379a00000000000000000000000000000000000000000000000000000000081526004016115a1906141b7565b60405180910390fd5b600460008373ffffffffffffffffffffffffffffffffffffffff1673ffffffffffffffffffffffffffffffffffffffff168152602001908152602001600020549050919050565b6115f9611ee3565b73ffffffffffffffffffffffffffffffffffffffff166116176116d5565b73ffffffffffffffffffffffffffffffffffffffff161461166d576040517f08c379a000000000000000000000000000000000000000000000000000000000815260040161166490613dbc565b60405180910390fd5b6116776000612644565b565b600b60009054906101000a900473ffffffffffffffffffffffffffffffffffffffff1681565b6012818051602081018201805184825260208301602085012081835280955050505050506000915054906101000a900460ff1681565b60008060009054906101000a900473ffffffffffffffffffffffffffffffffffffffff16905090565b60606002805461170d90613904565b80601f016020809104026020016040519081016040528092919081815260200182805461173990613904565b80156117865780601f1061175b57610100808354040283529160200191611786565b820191906000526020600020905b81548152906001019060200180831161176957829003601f168201915b5050505050905090565b6117a261179b611ee3565b8383612708565b5050565b6011818051602081018201805184825260208301602085012081835280955050505050506000915054906101000a900460ff1681565b6000806117e883611033565b905080915050919050565b6117fb611ee3565b73ffffffffffffffffffffffffffffffffffffffff1661181a82611033565b73ffffffffffffffffffffffffffffffffffffffff161480611876575061183f611ee3565b73ffffffffffffffffffffffffffffffffffffffff1661185e82610b36565b73ffffffffffffffffffffffffffffffffffffffff16145b6118b5576040517f08c379a00000000000000000000000000000000000000000000000000000000081526004016118ac90614249565b60405180910390fd5b60006118c0826109f5565b90506118cb82611033565b73ffffffffffffffffffffffffffffffffffffffff166108fc829081150290604051600060405180830381858888f19350505050158015611910573d6000803e3d6000fd5b5060185460196000848152602001908152602001600020819055505050565b61194061193a611ee3565b83611fa4565b61197f576040517f08c379a000000000000000000000000000000000000000000000000000000000815260040161197690613b5e565b60405180910390fd5b61198b84848484612875565b50505050565b600e5481565b60606119a282611e77565b6119e1576040517f08c379a00000000000000000000000000000000000000000000000000000000081526004016119d8906142db565b60405180910390fd5b6000601060008481526020019081526020016000208054611a0190613904565b80601f0160208091040260200160405190810160405280929190818152602001828054611a2d90613904565b8015611a7a5780601f10611a4f57610100808354040283529160200191611a7a565b820191906000526020600020905b815481529060010190602001808311611a5d57829003601f168201915b505050505090506000611a8b6128d1565b9050600081511415611aa1578192505050611afd565b600082511115611ad6578082604051602001611abe9291906142fb565b60405160208183030381529060405292505050611afd565b8084604051602001611ae9929190614340565b604051602081830303815290604052925050505b919050565b600080611b0d610cea565b90508091505090565b60196020528060005260406000206000915090505481565b600c8054611b3b90613904565b80601f0160208091040260200160405190810160405280929190818152602001828054611b6790613904565b8015611bb45780601f10611b8957610100808354040283529160200191611bb4565b820191906000526020600020905b815481529060010190602001808311611b9757829003601f168201915b505050505081565b6000600660008473ffffffffffffffffffffffffffffffffffffffff1673ffffffffffffffffffffffffffffffffffffffff16815260200190815260200160002060008373ffffffffffffffffffffffffffffffffffffffff1673ffffffffffffffffffffffffffffffffffffffff16815260200190815260200160002060009054906101000a900460ff16905092915050565b611c58611ee3565b73ffffffffffffffffffffffffffffffffffffffff16611c766116d5565b73ffffffffffffffffffffffffffffffffffffffff1614611ccc576040517f08c379a0000000000000000000000000000000000000000000000000000000008152600401611cc390613dbc565b60405180910390fd5b600073ffffffffffffffffffffffffffffffffffffffff168173ffffffffffffffffffffffffffffffffffffffff161415611d3c576040517f08c379a0000000000000000000000000000000000000000000000000000000008152600401611d33906143da565b60405180910390fd5b611d4581612644565b50565b611d53838383612082565b505050565b60007f80ac58cd000000000000000000000000000000000000000000000000000000007bffffffffffffffffffffffffffffffffffffffffffffffffffffffff1916827bffffffffffffffffffffffffffffffffffffffffffffffffffffffff19161480611e2357507f5b5e139f000000000000000000000000000000000000000000000000000000007bffffffffffffffffffffffffffffffffffffffffffffffffffffffff1916827bffffffffffffffffffffffffffffffffffffffffffffffffffffffff1916145b80611e335750611e3282612963565b5b9050919050565b80601754611e489190613c10565b601781905550611e56610cea565b81611e619190614429565b601854611e6e9190613c10565b60188190555050565b60008073ffffffffffffffffffffffffffffffffffffffff166003600084815260200190815260200160002060009054906101000a900473ffffffffffffffffffffffffffffffffffffffff1673ffffffffffffffffffffffffffffffffffffffff1614159050919050565b600033905090565b816005600083815260200190815260200160002060006101000a81548173ffffffffffffffffffffffffffffffffffffffff021916908373ffffffffffffffffffffffffffffffffffffffff160217905550808273ffffffffffffffffffffffffffffffffffffffff16611f5e83611033565b73ffffffffffffffffffffffffffffffffffffffff167f8c5be1e5ebec7d5bd14f71427d1e84f3dd0314c0f7b2291e5b200ac8c7c3b92560405160405180910390a45050565b6000611faf82611e77565b611fee576040517f08c379a0000000000000000000000000000000000000000000000000000000008152600401611fe5906144cc565b60405180910390fd5b6000611ff983611033565b90508073ffffffffffffffffffffffffffffffffffffffff168473ffffffffffffffffffffffffffffffffffffffff16148061206857508373ffffffffffffffffffffffffffffffffffffffff1661205084610b36565b73ffffffffffffffffffffffffffffffffffffffff16145b8061207957506120788185611bbc565b5b91505092915050565b8273ffffffffffffffffffffffffffffffffffffffff166120a282611033565b73ffffffffffffffffffffffffffffffffffffffff16146120f8576040517f08c379a00000000000000000000000000000000000000000000000000000000081526004016120ef9061455e565b60405180910390fd5b600073ffffffffffffffffffffffffffffffffffffffff168273ffffffffffffffffffffffffffffffffffffffff161415612168576040517f08c379a000000000000000000000000000000000000000000000000000000000815260040161215f906145f0565b60405180910390fd5b6121738383836129cd565b61217e600082611eeb565b6001600460008573ffffffffffffffffffffffffffffffffffffffff1673ffffffffffffffffffffffffffffffffffffffff16815260200190815260200160002060008282546121ce91906138a1565b925050819055506001600460008473ffffffffffffffffffffffffffffffffffffffff1673ffffffffffffffffffffffffffffffffffffffff16815260200190815260200160002060008282546122259190613c10565b92505081905550816003600083815260200190815260200160002060006101000a81548173ffffffffffffffffffffffffffffffffffffffff021916908373ffffffffffffffffffffffffffffffffffffffff160217905550808273ffffffffffffffffffffffffffffffffffffffff168473ffffffffffffffffffffffffffffffffffffffff167fddf252ad1be2c89b69c2b068fc378daa952ba7f163c4a11628f55a4df523b3ef60405160405180910390a46122e4838383612ae1565b505050565b600073ffffffffffffffffffffffffffffffffffffffff168273ffffffffffffffffffffffffffffffffffffffff161415612359576040517f08c379a00000000000000000000000000000000000000000000000000000000081526004016123509061465c565b60405180910390fd5b61236281611e77565b156123a2576040517f08c379a0000000000000000000000000000000000000000000000000000000008152600401612399906146c8565b60405180910390fd5b6123ae600083836129cd565b6001600460008473ffffffffffffffffffffffffffffffffffffffff1673ffffffffffffffffffffffffffffffffffffffff16815260200190815260200160002060008282546123fe9190613c10565b92505081905550816003600083815260200190815260200160002060006101000a81548173ffffffffffffffffffffffffffffffffffffffff021916908373ffffffffffffffffffffffffffffffffffffffff160217905550808273ffffffffffffffffffffffffffffffffffffffff16600073ffffffffffffffffffffffffffffffffffffffff167fddf252ad1be2c89b69c2b068fc378daa952ba7f163c4a11628f55a4df523b3ef60405160405180910390a46124bf60008383612ae1565b5050565b6124cc82611e77565b61250b576040517f08c379a00000000000000000000000000000000000000000000000000000000081526004016125029061475a565b60405180910390fd5b80601060008481526020019081526020016000209080519060200190612532929190612f9c565b505050565b6000600a826125469190614429565b905060006002828461255891906138a1565b6125629190614429565b905061256d82611e3a565b601460009054906101000a900473ffffffffffffffffffffffffffffffffffffffff1673ffffffffffffffffffffffffffffffffffffffff166108fc829081150290604051600060405180830381858888f193505050501580156125d5573d6000803e3d6000fd5b50601560009054906101000a900473ffffffffffffffffffffffffffffffffffffffff1673ffffffffffffffffffffffffffffffffffffffff166108fc829081150290604051600060405180830381858888f1935050505015801561263e573d6000803e3d6000fd5b50505050565b60008060009054906101000a900473ffffffffffffffffffffffffffffffffffffffff169050816000806101000a81548173ffffffffffffffffffffffffffffffffffffffff021916908373ffffffffffffffffffffffffffffffffffffffff1602179055508173ffffffffffffffffffffffffffffffffffffffff168173ffffffffffffffffffffffffffffffffffffffff167f8be0079c531659141344cd1fd0a4f28419497f9722a3daafe3b4186f6b6457e060405160405180910390a35050565b8173ffffffffffffffffffffffffffffffffffffffff168373ffffffffffffffffffffffffffffffffffffffff161415612777576040517f08c379a000000000000000000000000000000000000000000000000000000000815260040161276e906147c6565b60405180910390fd5b80600660008573ffffffffffffffffffffffffffffffffffffffff1673ffffffffffffffffffffffffffffffffffffffff16815260200190815260200160002060008473ffffffffffffffffffffffffffffffffffffffff1673ffffffffffffffffffffffffffffffffffffffff16815260200190815260200160002060006101000a81548160ff0219169083151502179055508173ffffffffffffffffffffffffffffffffffffffff168373ffffffffffffffffffffffffffffffffffffffff167f17307eab39ab6107e8899845ad3d59bd9653f200f220920489ca2b5937696c31836040516128689190613180565b60405180910390a3505050565b612880848484612082565b61288c84848484612ae6565b6128cb576040517f08c379a00000000000000000000000000000000000000000000000000000000081526004016128c290614858565b60405180910390fd5b50505050565b6060600f80546128e090613904565b80601f016020809104026020016040519081016040528092919081815260200182805461290c90613904565b80156129595780601f1061292e57610100808354040283529160200191612959565b820191906000526020600020905b81548152906001019060200180831161293c57829003601f168201915b5050505050905090565b60007f01ffc9a7000000000000000000000000000000000000000000000000000000007bffffffffffffffffffffffffffffffffffffffffffffffffffffffff1916827bffffffffffffffffffffffffffffffffffffffffffffffffffffffff1916149050919050565b6129d8838383612c6e565b600073ffffffffffffffffffffffffffffffffffffffff168373ffffffffffffffffffffffffffffffffffffffff161415612a1b57612a1681612c73565b612a5a565b8173ffffffffffffffffffffffffffffffffffffffff168373ffffffffffffffffffffffffffffffffffffffff1614612a5957612a588382612cbc565b5b5b600073ffffffffffffffffffffffffffffffffffffffff168273ffffffffffffffffffffffffffffffffffffffff161415612a9d57612a9881612e29565b612adc565b8273ffffffffffffffffffffffffffffffffffffffff168273ffffffffffffffffffffffffffffffffffffffff1614612adb57612ada8282612efa565b5b5b505050565b505050565b6000612b078473ffffffffffffffffffffffffffffffffffffffff16612f79565b15612c61578373ffffffffffffffffffffffffffffffffffffffff1663150b7a02612b30611ee3565b8786866040518563ffffffff1660e01b8152600401612b5294939291906148cd565b6020604051808303816000875af1925050508015612b8e57506040513d601f19601f82011682018060405250810190612b8b919061492e565b60015b612c11573d8060008114612bbe576040519150601f19603f3d011682016040523d82523d6000602084013e612bc3565b606091505b50600081511415612c09576040517f08c379a0000000000000000000000000000000000000000000000000000000008152600401612c0090614858565b60405180910390fd5b805181602001fd5b63150b7a0260e01b7bffffffffffffffffffffffffffffffffffffffffffffffffffffffff1916817bffffffffffffffffffffffffffffffffffffffffffffffffffffffff191614915050612c66565b600190505b949350505050565b505050565b600980549050600a600083815260200190815260200160002081905550600981908060018154018082558091505060019003906000526020600020016000909190919091505550565b60006001612cc984611539565b612cd391906138a1565b9050600060086000848152602001908152602001600020549050818114612db8576000600760008673ffffffffffffffffffffffffffffffffffffffff1673ffffffffffffffffffffffffffffffffffffffff168152602001908152602001600020600084815260200190815260200160002054905080600760008773ffffffffffffffffffffffffffffffffffffffff1673ffffffffffffffffffffffffffffffffffffffff168152602001908152602001600020600084815260200190815260200160002081905550816008600083815260200190815260200160002081905550505b6008600084815260200190815260200160002060009055600760008573ffffffffffffffffffffffffffffffffffffffff1673ffffffffffffffffffffffffffffffffffffffff16815260200190815260200160002060008381526020019081526020016000206000905550505050565b60006001600980549050612e3d91906138a1565b90506000600a6000848152602001908152602001600020549050600060098381548110612e6d57612e6c613d41565b5b906000526020600020015490508060098381548110612e8f57612e8e613d41565b5b906000526020600020018190555081600a600083815260200190815260200160002081905550600a6000858152602001908152602001600020600090556009805480612ede57612edd61495b565b5b6001900381819060005260206000200160009055905550505050565b6000612f0583611539565b905081600760008573ffffffffffffffffffffffffffffffffffffffff1673ffffffffffffffffffffffffffffffffffffffff168152602001908152602001600020600083815260200190815260200160002081905550806008600084815260200190815260200160002081905550505050565b6000808273ffffffffffffffffffffffffffffffffffffffff163b119050919050565b828054612fa890613904565b90600052602060002090601f016020900481019282612fca5760008555613011565b82601f10612fe357805160ff1916838001178555613011565b82800160010185558215613011579182015b82811115613010578251825591602001919060010190612ff5565b5b50905061301e9190613022565b5090565b5b8082111561303b576000816000905550600101613023565b5090565b6000604051905090565b600080fd5b600080fd5b6000819050919050565b61306681613053565b811461307157600080fd5b50565b6000813590506130838161305d565b92915050565b60006020828403121561309f5761309e613049565b5b60006130ad84828501613074565b91505092915050565b6130bf81613053565b82525050565b60006020820190506130da60008301846130b6565b92915050565b60007fffffffff0000000000000000000000000000000000000000000000000000000082169050919050565b613115816130e0565b811461312057600080fd5b50565b6000813590506131328161310c565b92915050565b60006020828403121561314e5761314d613049565b5b600061315c84828501613123565b91505092915050565b60008115159050919050565b61317a81613165565b82525050565b60006020820190506131956000830184613171565b92915050565b600081519050919050565b600082825260208201905092915050565b60005b838110156131d55780820151818401526020810190506131ba565b838111156131e4576000848401525b50505050565b6000601f19601f8301169050919050565b60006132068261319b565b61321081856131a6565b93506132208185602086016131b7565b613229816131ea565b840191505092915050565b6000602082019050818103600083015261324e81846131fb565b905092915050565b600073ffffffffffffffffffffffffffffffffffffffff82169050919050565b600061328182613256565b9050919050565b61329181613276565b82525050565b60006020820190506132ac6000830184613288565b92915050565b6132bb81613276565b81146132c657600080fd5b50565b6000813590506132d8816132b2565b92915050565b600080604083850312156132f5576132f4613049565b5b6000613303858286016132c9565b925050602061331485828601613074565b9150509250929050565b60008060006060848603121561333757613336613049565b5b6000613345868287016132c9565b9350506020613356868287016132c9565b925050604061336786828701613074565b9150509250925092565b60006020828403121561338757613386613049565b5b6000613395848285016132c9565b91505092915050565b600080fd5b600080fd5b7f4e487b7100000000000000000000000000000000000000000000000000000000600052604160045260246000fd5b6133e0826131ea565b810181811067ffffffffffffffff821117156133ff576133fe6133a8565b5b80604052505050565b600061341261303f565b905061341e82826133d7565b919050565b600067ffffffffffffffff82111561343e5761343d6133a8565b5b613447826131ea565b9050602081019050919050565b82818337600083830152505050565b600061347661347184613423565b613408565b905082815260208101848484011115613492576134916133a3565b5b61349d848285613454565b509392505050565b600082601f8301126134ba576134b961339e565b5b81356134ca848260208601613463565b91505092915050565b6000602082840312156134e9576134e8613049565b5b600082013567ffffffffffffffff8111156135075761350661304e565b5b613513848285016134a5565b91505092915050565b600080fd5b600080fd5b60008083601f84011261353c5761353b61339e565b5b8235905067ffffffffffffffff8111156135595761355861351c565b5b60208301915083602082028301111561357557613574613521565b5b9250929050565b6000806000806060858703121561359657613595613049565b5b600085013567ffffffffffffffff8111156135b4576135b361304e565b5b6135c0878288016134a5565b945050602085013567ffffffffffffffff8111156135e1576135e061304e565b5b6135ed878288016134a5565b935050604085013567ffffffffffffffff81111561360e5761360d61304e565b5b61361a87828801613526565b925092505092959194509250565b6000819050919050565b600061364d61364861364384613256565b613628565b613256565b9050919050565b600061365f82613632565b9050919050565b600061367182613654565b9050919050565b61368181613666565b82525050565b600060208201905061369c6000830184613678565b92915050565b6136ab81613165565b81146136b657600080fd5b50565b6000813590506136c8816136a2565b92915050565b600080604083850312156136e5576136e4613049565b5b60006136f3858286016132c9565b9250506020613704858286016136b9565b9150509250929050565b600067ffffffffffffffff821115613729576137286133a8565b5b613732826131ea565b9050602081019050919050565b600061375261374d8461370e565b613408565b90508281526020810184848401111561376e5761376d6133a3565b5b613779848285613454565b509392505050565b600082601f8301126137965761379561339e565b5b81356137a684826020860161373f565b91505092915050565b600080600080608085870312156137c9576137c8613049565b5b60006137d7878288016132c9565b94505060206137e8878288016132c9565b93505060406137f987828801613074565b925050606085013567ffffffffffffffff81111561381a5761381961304e565b5b61382687828801613781565b91505092959194509250565b6000806040838503121561384957613848613049565b5b6000613857858286016132c9565b9250506020613868858286016132c9565b9150509250929050565b7f4e487b7100000000000000000000000000000000000000000000000000000000600052601160045260246000fd5b60006138ac82613053565b91506138b783613053565b9250828210156138ca576138c9613872565b5b828203905092915050565b7f4e487b7100000000000000000000000000000000000000000000000000000000600052602260045260246000fd5b6000600282049050600182168061391c57607f821691505b602082108114156139305761392f6138d5565b5b50919050565b7f4552433732313a20617070726f76656420717565727920666f72206e6f6e657860008201527f697374656e7420746f6b656e0000000000000000000000000000000000000000602082015250565b6000613992602c836131a6565b915061399d82613936565b604082019050919050565b600060208201905081810360008301526139c181613985565b9050919050565b7f4552433732313a20617070726f76616c20746f2063757272656e74206f776e6560008201527f7200000000000000000000000000000000000000000000000000000000000000602082015250565b6000613a246021836131a6565b9150613a2f826139c8565b604082019050919050565b60006020820190508181036000830152613a5381613a17565b9050919050565b7f4552433732313a20617070726f76652063616c6c6572206973206e6f74206f7760008201527f6e6572206e6f7220617070726f76656420666f7220616c6c0000000000000000602082015250565b6000613ab66038836131a6565b9150613ac182613a5a565b604082019050919050565b60006020820190508181036000830152613ae581613aa9565b9050919050565b7f4552433732313a207472616e736665722063616c6c6572206973206e6f74206f60008201527f776e6572206e6f7220617070726f766564000000000000000000000000000000602082015250565b6000613b486031836131a6565b9150613b5382613aec565b604082019050919050565b60006020820190508181036000830152613b7781613b3b565b9050919050565b7f455243373231456e756d657261626c653a206f776e657220696e646578206f7560008201527f74206f6620626f756e6473000000000000000000000000000000000000000000602082015250565b6000613bda602b836131a6565b9150613be582613b7e565b604082019050919050565b60006020820190508181036000830152613c0981613bcd565b9050919050565b6000613c1b82613053565b9150613c2683613053565b9250827fffffffffffffffffffffffffffffffffffffffffffffffffffffffffffffffff03821115613c5b57613c5a613872565b5b828201905092915050565b6000613c7182613053565b91507fffffffffffffffffffffffffffffffffffffffffffffffffffffffffffffffff821415613ca457613ca3613872565b5b600182019050919050565b7f455243373231456e756d657261626c653a20676c6f62616c20696e646578206f60008201527f7574206f6620626f756e64730000000000000000000000000000000000000000602082015250565b6000613d0b602c836131a6565b9150613d1682613caf565b604082019050919050565b60006020820190508181036000830152613d3a81613cfe565b9050919050565b7f4e487b7100000000000000000000000000000000000000000000000000000000600052603260045260246000fd5b7f4f776e61626c653a2063616c6c6572206973206e6f7420746865206f776e6572600082015250565b6000613da66020836131a6565b9150613db182613d70565b602082019050919050565b60006020820190508181036000830152613dd581613d99565b9050919050565b7f4552433732313a206f776e657220717565727920666f72206e6f6e657869737460008201527f656e7420746f6b656e0000000000000000000000000000000000000000000000602082015250565b6000613e386029836131a6565b9150613e4382613ddc565b604082019050919050565b60006020820190508181036000830152613e6781613e2b565b9050919050565b7f6d7573742073656e6420636f7272656374207072696365000000000000000000600082015250565b6000613ea46017836131a6565b9150613eaf82613e6e565b602082019050919050565b60006020820190508181036000830152613ed381613e97565b9050919050565b7f6e6f7420656e6f75676820617661782061706573206c65667420746f206d696e60008201527f7420616d6f756e74000000000000000000000000000000000000000000000000602082015250565b6000613f366028836131a6565b9150613f4182613eda565b604082019050919050565b60006020820190508181036000830152613f6581613f29565b9050919050565b600080fd5b600080fd5b600080fd5b60008083356001602003843603038112613f9857613f97613f6c565b5b80840192508235915067ffffffffffffffff821115613fba57613fb9613f71565b5b602083019250600182023603831315613fd657613fd5613f76565b5b509250929050565b600081905092915050565b6000613ff58385613fde565b9350614002838584613454565b82840190509392505050565b600061401b828486613fe9565b91508190509392505050565b60006140328261319b565b61403c8185613fde565b935061404c8185602086016131b7565b80840191505092915050565b60006140648284614027565b915081905092915050565b6000819050919050565b600061409461408f61408a8461406f565b613628565b613053565b9050919050565b6140a481614079565b82525050565b6000610120820190506140c0600083018c6130b6565b81810360208301526140d2818b6131fb565b905081810360408301526140e6818a6131fb565b90506140f56060830189613288565b6141026080830188613288565b61410f60a0830187613288565b61411c60c08301866130b6565b61412960e083018561409b565b614137610100830184613171565b9a9950505050505050505050565b7f4552433732313a2062616c616e636520717565727920666f7220746865207a6560008201527f726f206164647265737300000000000000000000000000000000000000000000602082015250565b60006141a1602a836131a6565b91506141ac82614145565b604082019050919050565b600060208201905081810360008301526141d081614194565b9050919050565b7f41766178436f6b653a204f6e6c79206f776e6572206f7220617070726f76656460008201527f2063616e20636c61696d20726577617264730000000000000000000000000000602082015250565b60006142336032836131a6565b915061423e826141d7565b604082019050919050565b6000602082019050818103600083015261426281614226565b9050919050565b7f4552433732314d657461646174613a2055524920717565727920666f72206e6f60008201527f6e6578697374656e7420746f6b656e0000000000000000000000000000000000602082015250565b60006142c5602f836131a6565b91506142d082614269565b604082019050919050565b600060208201905081810360008301526142f4816142b8565b9050919050565b60006143078285614027565b91506143138284614027565b91508190509392505050565b6000819050919050565b61433a61433582613053565b61431f565b82525050565b600061434c8285614027565b91506143588284614329565b6020820191508190509392505050565b7f4f776e61626c653a206e6577206f776e657220697320746865207a65726f206160008201527f6464726573730000000000000000000000000000000000000000000000000000602082015250565b60006143c46026836131a6565b91506143cf82614368565b604082019050919050565b600060208201905081810360008301526143f3816143b7565b9050919050565b7f4e487b7100000000000000000000000000000000000000000000000000000000600052601260045260246000fd5b600061443482613053565b915061443f83613053565b92508261444f5761444e6143fa565b5b828204905092915050565b7f4552433732313a206f70657261746f7220717565727920666f72206e6f6e657860008201527f697374656e7420746f6b656e0000000000000000000000000000000000000000602082015250565b60006144b6602c836131a6565b91506144c18261445a565b604082019050919050565b600060208201905081810360008301526144e5816144a9565b9050919050565b7f4552433732313a207472616e736665722066726f6d20696e636f72726563742060008201527f6f776e6572000000000000000000000000000000000000000000000000000000602082015250565b60006145486025836131a6565b9150614553826144ec565b604082019050919050565b600060208201905081810360008301526145778161453b565b9050919050565b7f4552433732313a207472616e7366657220746f20746865207a65726f2061646460008201527f7265737300000000000000000000000000000000000000000000000000000000602082015250565b60006145da6024836131a6565b91506145e58261457e565b604082019050919050565b60006020820190508181036000830152614609816145cd565b9050919050565b7f4552433732313a206d696e7420746f20746865207a65726f2061646472657373600082015250565b60006146466020836131a6565b915061465182614610565b602082019050919050565b6000602082019050818103600083015261467581614639565b9050919050565b7f4552433732313a20746f6b656e20616c7265616479206d696e74656400000000600082015250565b60006146b2601c836131a6565b91506146bd8261467c565b602082019050919050565b600060208201905081810360008301526146e1816146a5565b9050919050565b7f4552433732314d657461646174613a2055524920736574206f66206e6f6e657860008201527f697374656e7420746f6b656e0000000000000000000000000000000000000000602082015250565b6000614744602c836131a6565b915061474f826146e8565b604082019050919050565b6000602082019050818103600083015261477381614737565b9050919050565b7f4552433732313a20617070726f766520746f2063616c6c657200000000000000600082015250565b60006147b06019836131a6565b91506147bb8261477a565b602082019050919050565b600060208201905081810360008301526147df816147a3565b9050919050565b7f4552433732313a207472616e7366657220746f206e6f6e20455243373231526560008201527f63656976657220696d706c656d656e7465720000000000000000000000000000602082015250565b60006148426032836131a6565b915061484d826147e6565b604082019050919050565b6000602082019050818103600083015261487181614835565b9050919050565b600081519050919050565b600082825260208201905092915050565b600061489f82614878565b6148a98185614883565b93506148b98185602086016131b7565b6148c2816131ea565b840191505092915050565b60006080820190506148e26000830187613288565b6148ef6020830186613288565b6148fc60408301856130b6565b818103606083015261490e8184614894565b905095945050505050565b6000815190506149288161310c565b92915050565b60006020828403121561494457614943613049565b5b600061495284828501614919565b91505092915050565b7f4e487b7100000000000000000000000000000000000000000000000000000000600052603160045260246000fdfea2646970667358221220f2b1740e9560184ffef4e1d179bca495c863da0b49d5bbc9dd5045ba87ebb4e964736f6c634300080c0033",
  "immutableReferences": {},
  "source": "// SPDX-License-Identifier: MIT\npragma solidity >=0.8.0 <0.9.0;\npragma abicoder v2;\n\nimport \"./Market.sol\";\n\n// CryptoBoys smart contract inherits ERC721 interface\ncontract CryptoBoys is Ownable, ERC721Enumerable {\n\n    Market public market;\n\n    // this contract's token collection name\n    string public collectionName;\n    // this contract's token symbol\n    string public collectionNameSymbol;\n    // total number of crypto boys minted\n    uint256 public cryptoBoyCounter;\n    // Base URI\n    string private _baseURIextended;\n    // Optional mapping for token URIs\n    mapping (uint256 => string) private _tokenURIs;\n\n    // check if token name exists\n    mapping(string => bool) public tokenNameExists;\n    // check if color exists\n    mapping(string => bool) public colorExists;\n    // check if token URI exists\n    mapping(string => bool) public tokenURIExists;\n\n    // avaxToken \n    uint256 constant TOTAL_NFTS_COUNT = 10000;\n    address private _admin;\n    address private _admin2;\n    uint256 private _price = 0.1 ether;\n\n    uint256 public reflectionBalance;\n    uint256 public totalDividend;\n    mapping (uint256 => uint256) public lastDividendAt;\n\n    // initialize contract while deployment with contract's collection name and token\n    constructor(address admin, address admin2, address marketAddress) ERC721(\"Taiwan Crypto Collection\", \"TC\") {\n        collectionName = name();\n        collectionNameSymbol = symbol();\n\n        _admin = admin;\n        _admin2 = admin2;\n\n        market = Market(marketAddress);\n    }\n\n    function setBaseURI(string memory baseURI_) external onlyOwner() {\n        _baseURIextended = baseURI_;\n    }\n\n    function _setTokenURI(uint256 tokenId, string memory _tokenURI) internal virtual {\n        require(_exists(tokenId), \"ERC721Metadata: URI set of nonexistent token\");\n        _tokenURIs[tokenId] = _tokenURI;\n    }\n\n    function _baseURI() internal view virtual override returns (string memory) {\n        return _baseURIextended;\n    }\n\n    function tokenURI(uint256 tokenId) public view virtual override returns (string memory) {\n        require(_exists(tokenId), \"ERC721Metadata: URI query for nonexistent token\");\n\n        string memory _tokenURI = _tokenURIs[tokenId];\n        string memory base = _baseURI();\n        \n        // If there is no base URI, return the token URI.\n        if (bytes(base).length == 0) {\n            return _tokenURI;\n        }\n        // If both are set, concatenate the baseURI and tokenURI (via abi.encodePacked).\n        if (bytes(_tokenURI).length > 0) {\n            return string(abi.encodePacked(base, _tokenURI));\n        }\n        // If there is a baseURI but no tokenURI, concatenate the tokenID to the baseURI.\n        return string(abi.encodePacked(base, tokenId));\n    }\n\n    // mint a new crypto boy\n    function mintCryptoBoy(string memory _name, string memory _tokenURI, string[] calldata _colors) external payable {\n        // check if thic fucntion caller is not an zero address account\n        require(msg.sender != address(0));\n        // increment counter\n        cryptoBoyCounter ++;\n        // check if a token exists with the above token id => incremented counter\n        require(!_exists(cryptoBoyCounter));\n\n        require(msg.value == _price, \"must send correct price\");\n        require(cryptoBoyCounter <= TOTAL_NFTS_COUNT, \"not enough avax apes left to mint amount\");\n\n        // loop through the colors passed and check if each colors already exists or not\n        for(uint i=0; i<_colors.length; i++) {\n            require(!colorExists[_colors[i]]);\n        }\n        // check if the token URI already exists or not\n        require(!tokenURIExists[_tokenURI]);\n        // check if the token name already exists or not\n        require(!tokenNameExists[_name]);\n\n        // mint the token\n        _mint(msg.sender, cryptoBoyCounter);\n        // solidy version 0.8 is gone\n        // set token URI (bind token id with the passed in token URI)\n        // _setTokenURI(cryptoBoyCounter, _tokenURI);\n        _setTokenURI(cryptoBoyCounter, _tokenURI);\n\n        // loop through the colors passed and make each of the colors as exists since the token is already minted\n        for (uint i=0; i<_colors.length; i++) {\n            colorExists[_colors[i]] = true;\n        }\n        // make passed token URI as exists\n        tokenURIExists[_tokenURI] = true;\n        // make token name passed as exists\n        tokenNameExists[_name] = true;\n\n        // add the token id and it's crypto boy to all crypto boys mapping\n        market.appendCryptoBoy(cryptoBoyCounter, _name, _tokenURI, msg.sender, msg.sender, address(0), _price, 0, true);\n\n        lastDividendAt[cryptoBoyCounter] = totalDividend;\n        splitBalance(msg.value);\n    }\n\n    function transferToken(address from, address to, uint256 tokenId) public {\n        _transfer(from, to, tokenId);\n    }\n\n    // get owner of the token\n    function getTokenOwner(uint256 _tokenId) public view returns(address) {\n        address _tokenOwner = ownerOf(_tokenId);\n        return _tokenOwner;\n    }\n\n    // get metadata of the token\n    function getTokenMetaData(uint _tokenId) public view returns(string memory) {\n        string memory tokenMetaData = tokenURI(_tokenId);\n        return tokenMetaData;\n    }\n\n    // get total number of tokens minted so far\n    function getNumberOfTokensMinted() public view returns(uint256) {\n        uint256 totalNumberOfTokensMinted = totalSupply();\n        return totalNumberOfTokensMinted;\n    }\n\n    // get total number of tokens owned by an address\n    function getTotalNumberOfTokensOwnedByAnAddress(address _owner) public view returns(uint256) {\n        uint256 totalNumberOfTokensOwned = balanceOf(_owner);\n        return totalNumberOfTokensOwned;\n    }\n\n    // check if the token already exists\n    function getTokenExists(uint256 _tokenId) public view returns(bool) {\n        bool tokenExists = _exists(_tokenId);\n        return tokenExists;\n    }\n\n    function claimRewards() public {\n        uint count = balanceOf(msg.sender);\n        uint256 balance = 0;\n        for(uint i=0; i < count; i++){\n            uint tokenId = tokenOfOwnerByIndex(msg.sender, i);\n            balance += getReflectionBalance(tokenId);\n            lastDividendAt[tokenId] = totalDividend;\n        }\n        payable(msg.sender).transfer(balance);\n    }\n\n    function claimReward(uint256 tokenId) public {\n        require(ownerOf(tokenId) == _msgSender() || getApproved(tokenId) == _msgSender(), \"AvaxCoke: Only owner or approved can claim rewards\");\n        uint256 balance = getReflectionBalance(tokenId);\n        payable(ownerOf(tokenId)).transfer(balance);\n        lastDividendAt[tokenId] = totalDividend;\n    }\n\n    function getReflectionBalance(uint256 tokenId) public view returns (uint256){\n        return totalDividend - lastDividendAt[tokenId];\n    }\n\n    function splitBalance(uint256 amount) private {\n        uint256 reflectionShare = amount/10;\n        uint256 mintingShare  = (amount - reflectionShare)/2;\n        reflectDividend(reflectionShare);\n        payable(_admin).transfer(mintingShare);\n        payable(_admin2).transfer(mintingShare);\n    }\n\n    function reflectDividend(uint256 amount) private {\n        reflectionBalance  = reflectionBalance + amount;\n        totalDividend = totalDividend + (amount/totalSupply());\n    }\n\n    function reflectToOwners() public payable {\n        reflectDividend(msg.value);\n    }\n}",
  "sourcePath": "/Users/shirui/nft-dapp/nft-demo-dapp/src/contracts/CryptoBoys.sol",
  "compiler": {
    "name": "solc",
    "version": "0.8.12+commit.f00d7308.Emscripten.clang"
  },
  "schemaVersion": "3.4.6",
  "updatedAt": "2022-03-23T07:02:19.158Z",
  "networkType": "ethereum",
  "devdoc": {
    "kind": "dev",
    "methods": {
      "approve(address,uint256)": {
        "details": "See {IERC721-approve}."
      },
      "balanceOf(address)": {
        "details": "See {IERC721-balanceOf}."
      },
      "getApproved(uint256)": {
        "details": "See {IERC721-getApproved}."
      },
      "isApprovedForAll(address,address)": {
        "details": "See {IERC721-isApprovedForAll}."
      },
      "name()": {
        "details": "See {IERC721Metadata-name}."
      },
      "owner()": {
        "details": "Returns the address of the current owner."
      },
      "ownerOf(uint256)": {
        "details": "See {IERC721-ownerOf}."
      },
      "renounceOwnership()": {
        "details": "Leaves the contract without owner. It will not be possible to call `onlyOwner` functions anymore. Can only be called by the current owner. NOTE: Renouncing ownership will leave the contract without an owner, thereby removing any functionality that is only available to the owner."
      },
      "safeTransferFrom(address,address,uint256)": {
        "details": "See {IERC721-safeTransferFrom}."
      },
      "safeTransferFrom(address,address,uint256,bytes)": {
        "details": "See {IERC721-safeTransferFrom}."
      },
      "setApprovalForAll(address,bool)": {
        "details": "See {IERC721-setApprovalForAll}."
      },
      "supportsInterface(bytes4)": {
        "details": "See {IERC165-supportsInterface}."
      },
      "symbol()": {
        "details": "See {IERC721Metadata-symbol}."
      },
      "tokenByIndex(uint256)": {
        "details": "See {IERC721Enumerable-tokenByIndex}."
      },
      "tokenOfOwnerByIndex(address,uint256)": {
        "details": "See {IERC721Enumerable-tokenOfOwnerByIndex}."
      },
      "tokenURI(uint256)": {
        "details": "See {IERC721Metadata-tokenURI}."
      },
      "totalSupply()": {
        "details": "See {IERC721Enumerable-totalSupply}."
      },
      "transferFrom(address,address,uint256)": {
        "details": "See {IERC721-transferFrom}."
      },
      "transferOwnership(address)": {
        "details": "Transfers ownership of the contract to a new account (`newOwner`). Can only be called by the current owner."
      }
    },
    "version": 1
  },
  "userdoc": {
    "kind": "user",
    "methods": {},
    "version": 1
  }
}