{
  "contractName": "CryptoBoys",
  "abi": [
    {
      "inputs": [
        {
          "internalType": "string",
          "name": "baseTokenURI",
          "type": "string"
        },
        {
          "internalType": "uint256",
          "name": "max",
          "type": "uint256"
        },
        {
          "internalType": "address",
          "name": "admin",
          "type": "address"
        },
        {
          "internalType": "address",
          "name": "admin2",
          "type": "address"
        }
      ],
      "stateMutability": "nonpayable",
      "type": "constructor"
    },
    {
      "anonymous": false,
      "inputs": [
        {
          "indexed": true,
          "internalType": "address",
          "name": "owner",
          "type": "address"
        },
        {
          "indexed": true,
          "internalType": "address",
          "name": "approved",
          "type": "address"
        },
        {
          "indexed": true,
          "internalType": "uint256",
          "name": "tokenId",
          "type": "uint256"
        }
      ],
      "name": "Approval",
      "type": "event"
    },
    {
      "anonymous": false,
      "inputs": [
        {
          "indexed": true,
          "internalType": "address",
          "name": "owner",
          "type": "address"
        },
        {
          "indexed": true,
          "internalType": "address",
          "name": "operator",
          "type": "address"
        },
        {
          "indexed": false,
          "internalType": "bool",
          "name": "approved",
          "type": "bool"
        }
      ],
      "name": "ApprovalForAll",
      "type": "event"
    },
    {
      "anonymous": false,
      "inputs": [
        {
          "indexed": true,
          "internalType": "bytes32",
          "name": "role",
          "type": "bytes32"
        },
        {
          "indexed": true,
          "internalType": "bytes32",
          "name": "previousAdminRole",
          "type": "bytes32"
        },
        {
          "indexed": true,
          "internalType": "bytes32",
          "name": "newAdminRole",
          "type": "bytes32"
        }
      ],
      "name": "RoleAdminChanged",
      "type": "event"
    },
    {
      "anonymous": false,
      "inputs": [
        {
          "indexed": true,
          "internalType": "bytes32",
          "name": "role",
          "type": "bytes32"
        },
        {
          "indexed": true,
          "internalType": "address",
          "name": "account",
          "type": "address"
        },
        {
          "indexed": true,
          "internalType": "address",
          "name": "sender",
          "type": "address"
        }
      ],
      "name": "RoleGranted",
      "type": "event"
    },
    {
      "anonymous": false,
      "inputs": [
        {
          "indexed": true,
          "internalType": "bytes32",
          "name": "role",
          "type": "bytes32"
        },
        {
          "indexed": true,
          "internalType": "address",
          "name": "account",
          "type": "address"
        },
        {
          "indexed": true,
          "internalType": "address",
          "name": "sender",
          "type": "address"
        }
      ],
      "name": "RoleRevoked",
      "type": "event"
    },
    {
      "anonymous": false,
      "inputs": [
        {
          "indexed": true,
          "internalType": "address",
          "name": "from",
          "type": "address"
        },
        {
          "indexed": true,
          "internalType": "address",
          "name": "to",
          "type": "address"
        },
        {
          "indexed": true,
          "internalType": "uint256",
          "name": "tokenId",
          "type": "uint256"
        }
      ],
      "name": "Transfer",
      "type": "event"
    },
    {
      "inputs": [],
      "name": "DEFAULT_ADMIN_ROLE",
      "outputs": [
        {
          "internalType": "bytes32",
          "name": "",
          "type": "bytes32"
        }
      ],
      "stateMutability": "view",
      "type": "function",
      "constant": true
    },
    {
      "inputs": [],
      "name": "_tokenIdTracker",
      "outputs": [
        {
          "internalType": "uint256",
          "name": "_value",
          "type": "uint256"
        }
      ],
      "stateMutability": "view",
      "type": "function",
      "constant": true
    },
    {
      "inputs": [
        {
          "internalType": "address",
          "name": "to",
          "type": "address"
        },
        {
          "internalType": "uint256",
          "name": "tokenId",
          "type": "uint256"
        }
      ],
      "name": "approve",
      "outputs": [],
      "stateMutability": "nonpayable",
      "type": "function"
    },
    {
      "inputs": [
        {
          "internalType": "address",
          "name": "owner",
          "type": "address"
        }
      ],
      "name": "balanceOf",
      "outputs": [
        {
          "internalType": "uint256",
          "name": "",
          "type": "uint256"
        }
      ],
      "stateMutability": "view",
      "type": "function",
      "constant": true
    },
    {
      "inputs": [
        {
          "internalType": "uint256",
          "name": "tokenId",
          "type": "uint256"
        }
      ],
      "name": "getApproved",
      "outputs": [
        {
          "internalType": "address",
          "name": "",
          "type": "address"
        }
      ],
      "stateMutability": "view",
      "type": "function",
      "constant": true
    },
    {
      "inputs": [
        {
          "internalType": "bytes32",
          "name": "role",
          "type": "bytes32"
        }
      ],
      "name": "getRoleAdmin",
      "outputs": [
        {
          "internalType": "bytes32",
          "name": "",
          "type": "bytes32"
        }
      ],
      "stateMutability": "view",
      "type": "function",
      "constant": true
    },
    {
      "inputs": [
        {
          "internalType": "bytes32",
          "name": "role",
          "type": "bytes32"
        },
        {
          "internalType": "uint256",
          "name": "index",
          "type": "uint256"
        }
      ],
      "name": "getRoleMember",
      "outputs": [
        {
          "internalType": "address",
          "name": "",
          "type": "address"
        }
      ],
      "stateMutability": "view",
      "type": "function",
      "constant": true
    },
    {
      "inputs": [
        {
          "internalType": "bytes32",
          "name": "role",
          "type": "bytes32"
        }
      ],
      "name": "getRoleMemberCount",
      "outputs": [
        {
          "internalType": "uint256",
          "name": "",
          "type": "uint256"
        }
      ],
      "stateMutability": "view",
      "type": "function",
      "constant": true
    },
    {
      "inputs": [
        {
          "internalType": "bytes32",
          "name": "role",
          "type": "bytes32"
        },
        {
          "internalType": "address",
          "name": "account",
          "type": "address"
        }
      ],
      "name": "grantRole",
      "outputs": [],
      "stateMutability": "nonpayable",
      "type": "function"
    },
    {
      "inputs": [
        {
          "internalType": "bytes32",
          "name": "role",
          "type": "bytes32"
        },
        {
          "internalType": "address",
          "name": "account",
          "type": "address"
        }
      ],
      "name": "hasRole",
      "outputs": [
        {
          "internalType": "bool",
          "name": "",
          "type": "bool"
        }
      ],
      "stateMutability": "view",
      "type": "function",
      "constant": true
    },
    {
      "inputs": [
        {
          "internalType": "address",
          "name": "owner",
          "type": "address"
        },
        {
          "internalType": "address",
          "name": "operator",
          "type": "address"
        }
      ],
      "name": "isApprovedForAll",
      "outputs": [
        {
          "internalType": "bool",
          "name": "",
          "type": "bool"
        }
      ],
      "stateMutability": "view",
      "type": "function",
      "constant": true
    },
    {
      "inputs": [
        {
          "internalType": "uint256",
          "name": "",
          "type": "uint256"
        }
      ],
      "name": "lastDividendAt",
      "outputs": [
        {
          "internalType": "uint256",
          "name": "",
          "type": "uint256"
        }
      ],
      "stateMutability": "view",
      "type": "function",
      "constant": true
    },
    {
      "inputs": [
        {
          "internalType": "uint256",
          "name": "",
          "type": "uint256"
        }
      ],
      "name": "minter",
      "outputs": [
        {
          "internalType": "address",
          "name": "",
          "type": "address"
        }
      ],
      "stateMutability": "view",
      "type": "function",
      "constant": true
    },
    {
      "inputs": [],
      "name": "name",
      "outputs": [
        {
          "internalType": "string",
          "name": "",
          "type": "string"
        }
      ],
      "stateMutability": "view",
      "type": "function",
      "constant": true
    },
    {
      "inputs": [
        {
          "internalType": "uint256",
          "name": "tokenId",
          "type": "uint256"
        }
      ],
      "name": "ownerOf",
      "outputs": [
        {
          "internalType": "address",
          "name": "",
          "type": "address"
        }
      ],
      "stateMutability": "view",
      "type": "function",
      "constant": true
    },
    {
      "inputs": [],
      "name": "reflectionBalance",
      "outputs": [
        {
          "internalType": "uint256",
          "name": "",
          "type": "uint256"
        }
      ],
      "stateMutability": "view",
      "type": "function",
      "constant": true
    },
    {
      "inputs": [
        {
          "internalType": "bytes32",
          "name": "role",
          "type": "bytes32"
        },
        {
          "internalType": "address",
          "name": "account",
          "type": "address"
        }
      ],
      "name": "renounceRole",
      "outputs": [],
      "stateMutability": "nonpayable",
      "type": "function"
    },
    {
      "inputs": [
        {
          "internalType": "bytes32",
          "name": "role",
          "type": "bytes32"
        },
        {
          "internalType": "address",
          "name": "account",
          "type": "address"
        }
      ],
      "name": "revokeRole",
      "outputs": [],
      "stateMutability": "nonpayable",
      "type": "function"
    },
    {
      "inputs": [
        {
          "internalType": "address",
          "name": "from",
          "type": "address"
        },
        {
          "internalType": "address",
          "name": "to",
          "type": "address"
        },
        {
          "internalType": "uint256",
          "name": "tokenId",
          "type": "uint256"
        }
      ],
      "name": "safeTransferFrom",
      "outputs": [],
      "stateMutability": "nonpayable",
      "type": "function"
    },
    {
      "inputs": [
        {
          "internalType": "address",
          "name": "from",
          "type": "address"
        },
        {
          "internalType": "address",
          "name": "to",
          "type": "address"
        },
        {
          "internalType": "uint256",
          "name": "tokenId",
          "type": "uint256"
        },
        {
          "internalType": "bytes",
          "name": "_data",
          "type": "bytes"
        }
      ],
      "name": "safeTransferFrom",
      "outputs": [],
      "stateMutability": "nonpayable",
      "type": "function"
    },
    {
      "inputs": [
        {
          "internalType": "address",
          "name": "operator",
          "type": "address"
        },
        {
          "internalType": "bool",
          "name": "approved",
          "type": "bool"
        }
      ],
      "name": "setApprovalForAll",
      "outputs": [],
      "stateMutability": "nonpayable",
      "type": "function"
    },
    {
      "inputs": [],
      "name": "symbol",
      "outputs": [
        {
          "internalType": "string",
          "name": "",
          "type": "string"
        }
      ],
      "stateMutability": "view",
      "type": "function",
      "constant": true
    },
    {
      "inputs": [
        {
          "internalType": "uint256",
          "name": "index",
          "type": "uint256"
        }
      ],
      "name": "tokenByIndex",
      "outputs": [
        {
          "internalType": "uint256",
          "name": "",
          "type": "uint256"
        }
      ],
      "stateMutability": "view",
      "type": "function",
      "constant": true
    },
    {
      "inputs": [
        {
          "internalType": "address",
          "name": "owner",
          "type": "address"
        },
        {
          "internalType": "uint256",
          "name": "index",
          "type": "uint256"
        }
      ],
      "name": "tokenOfOwnerByIndex",
      "outputs": [
        {
          "internalType": "uint256",
          "name": "",
          "type": "uint256"
        }
      ],
      "stateMutability": "view",
      "type": "function",
      "constant": true
    },
    {
      "inputs": [],
      "name": "totalDividend",
      "outputs": [
        {
          "internalType": "uint256",
          "name": "",
          "type": "uint256"
        }
      ],
      "stateMutability": "view",
      "type": "function",
      "constant": true
    },
    {
      "inputs": [],
      "name": "totalSupply",
      "outputs": [
        {
          "internalType": "uint256",
          "name": "",
          "type": "uint256"
        }
      ],
      "stateMutability": "view",
      "type": "function",
      "constant": true
    },
    {
      "inputs": [
        {
          "internalType": "address",
          "name": "from",
          "type": "address"
        },
        {
          "internalType": "address",
          "name": "to",
          "type": "address"
        },
        {
          "internalType": "uint256",
          "name": "tokenId",
          "type": "uint256"
        }
      ],
      "name": "transferFrom",
      "outputs": [],
      "stateMutability": "nonpayable",
      "type": "function"
    },
    {
      "inputs": [
        {
          "internalType": "string",
          "name": "baseURI",
          "type": "string"
        }
      ],
      "name": "setBaseURI",
      "outputs": [],
      "stateMutability": "nonpayable",
      "type": "function"
    },
    {
      "inputs": [
        {
          "internalType": "uint256",
          "name": "tokenId",
          "type": "uint256"
        },
        {
          "internalType": "string",
          "name": "_tokenURI",
          "type": "string"
        }
      ],
      "name": "setTokenURI",
      "outputs": [],
      "stateMutability": "nonpayable",
      "type": "function"
    },
    {
      "inputs": [
        {
          "internalType": "uint256",
          "name": "mintPrice",
          "type": "uint256"
        }
      ],
      "name": "setPrice",
      "outputs": [],
      "stateMutability": "nonpayable",
      "type": "function"
    },
    {
      "inputs": [],
      "name": "price",
      "outputs": [
        {
          "internalType": "uint256",
          "name": "",
          "type": "uint256"
        }
      ],
      "stateMutability": "view",
      "type": "function",
      "constant": true
    },
    {
      "inputs": [],
      "name": "cryptoBoyCounter",
      "outputs": [
        {
          "internalType": "uint256",
          "name": "",
          "type": "uint256"
        }
      ],
      "stateMutability": "view",
      "type": "function",
      "constant": true
    },
    {
      "inputs": [],
      "name": "mint",
      "outputs": [],
      "stateMutability": "payable",
      "type": "function",
      "payable": true
    },
    {
      "inputs": [
        {
          "internalType": "uint256",
          "name": "tokenId",
          "type": "uint256"
        }
      ],
      "name": "tokenMinter",
      "outputs": [
        {
          "internalType": "address",
          "name": "",
          "type": "address"
        }
      ],
      "stateMutability": "view",
      "type": "function",
      "constant": true
    },
    {
      "inputs": [
        {
          "internalType": "uint256",
          "name": "tokenId",
          "type": "uint256"
        }
      ],
      "name": "tokenURI",
      "outputs": [
        {
          "internalType": "string",
          "name": "",
          "type": "string"
        }
      ],
      "stateMutability": "view",
      "type": "function",
      "constant": true
    },
    {
      "inputs": [
        {
          "internalType": "bytes4",
          "name": "interfaceId",
          "type": "bytes4"
        }
      ],
      "name": "supportsInterface",
      "outputs": [
        {
          "internalType": "bool",
          "name": "",
          "type": "bool"
        }
      ],
      "stateMutability": "view",
      "type": "function",
      "constant": true
    },
    {
      "inputs": [],
      "name": "currentRate",
      "outputs": [
        {
          "internalType": "uint256",
          "name": "",
          "type": "uint256"
        }
      ],
      "stateMutability": "view",
      "type": "function",
      "constant": true
    },
    {
      "inputs": [],
      "name": "claimRewards",
      "outputs": [],
      "stateMutability": "nonpayable",
      "type": "function"
    },
    {
      "inputs": [],
      "name": "getReflectionBalances",
      "outputs": [
        {
          "internalType": "uint256",
          "name": "",
          "type": "uint256"
        }
      ],
      "stateMutability": "view",
      "type": "function",
      "constant": true
    },
    {
      "inputs": [
        {
          "internalType": "uint256",
          "name": "tokenId",
          "type": "uint256"
        }
      ],
      "name": "claimReward",
      "outputs": [],
      "stateMutability": "nonpayable",
      "type": "function"
    },
    {
      "inputs": [
        {
          "internalType": "uint256",
          "name": "tokenId",
          "type": "uint256"
        }
      ],
      "name": "getReflectionBalance",
      "outputs": [
        {
          "internalType": "uint256",
          "name": "",
          "type": "uint256"
        }
      ],
      "stateMutability": "view",
      "type": "function",
      "constant": true
    },
    {
      "inputs": [],
      "name": "reflectToOwners",
      "outputs": [],
      "stateMutability": "payable",
      "type": "function",
      "payable": true
    }
  ],
  "bytecode": "0x60806040526658d15e17628000600f553480156200001c57600080fd5b5060405162005ad738038062005ad7833981810160405281019062000042919062000726565b6040518060400160405280601181526020017f43727970746f426f797320546f6b656e730000000000000000000000000000008152506040518060400160405280600381526020017f41435400000000000000000000000000000000000000000000000000000000008152508160029080519060200190620000c692919062000439565b508060039080519060200190620000df92919062000439565b50505083600e9080519060200190620000fa92919062000439565b508260108190555081601160006101000a81548173ffffffffffffffffffffffffffffffffffffffff021916908373ffffffffffffffffffffffffffffffffffffffff16021790555080601260006101000a81548173ffffffffffffffffffffffffffffffffffffffff021916908373ffffffffffffffffffffffffffffffffffffffff160217905550620001996000801b83620001a360201b60201c565b505050506200081c565b620001b58282620001b960201b60201c565b5050565b620001d082826200020160201b6200188c1760201c565b620001fc8160016000858152602001908152602001600020620002f260201b6200196c1790919060201c565b505050565b6200021382826200032a60201b60201c565b620002ee57600160008084815260200190815260200160002060000160008373ffffffffffffffffffffffffffffffffffffffff1673ffffffffffffffffffffffffffffffffffffffff16815260200190815260200160002060006101000a81548160ff021916908315150217905550620002936200039460201b60201c565b73ffffffffffffffffffffffffffffffffffffffff168173ffffffffffffffffffffffffffffffffffffffff16837f2f8788117e7eff1d82e926ec794901d17c78024a50270940304540a733656f0d60405160405180910390a45b5050565b600062000322836000018373ffffffffffffffffffffffffffffffffffffffff1660001b6200039c60201b60201c565b905092915050565b600080600084815260200190815260200160002060000160008373ffffffffffffffffffffffffffffffffffffffff1673ffffffffffffffffffffffffffffffffffffffff16815260200190815260200160002060009054906101000a900460ff16905092915050565b600033905090565b6000620003b083836200041660201b60201c565b6200040b57826000018290806001815401808255809150506001900390600052602060002001600090919091909150558260000180549050836001016000848152602001908152602001600020819055506001905062000410565b600090505b92915050565b600080836001016000848152602001908152602001600020541415905092915050565b8280546200044790620007e6565b90600052602060002090601f0160209004810192826200046b5760008555620004b7565b82601f106200048657805160ff1916838001178555620004b7565b82800160010185558215620004b7579182015b82811115620004b657825182559160200191906001019062000499565b5b509050620004c69190620004ca565b5090565b5b80821115620004e5576000816000905550600101620004cb565b5090565b6000604051905090565b600080fd5b600080fd5b600080fd5b600080fd5b6000601f19601f8301169050919050565b7f4e487b7100000000000000000000000000000000000000000000000000000000600052604160045260246000fd5b620005528262000507565b810181811067ffffffffffffffff8211171562000574576200057362000518565b5b80604052505050565b600062000589620004e9565b905062000597828262000547565b919050565b600067ffffffffffffffff821115620005ba57620005b962000518565b5b620005c58262000507565b9050602081019050919050565b60005b83811015620005f2578082015181840152602081019050620005d5565b8381111562000602576000848401525b50505050565b60006200061f62000619846200059c565b6200057d565b9050828152602081018484840111156200063e576200063d62000502565b5b6200064b848285620005d2565b509392505050565b600082601f8301126200066b576200066a620004fd565b5b81516200067d84826020860162000608565b91505092915050565b6000819050919050565b6200069b8162000686565b8114620006a757600080fd5b50565b600081519050620006bb8162000690565b92915050565b600073ffffffffffffffffffffffffffffffffffffffff82169050919050565b6000620006ee82620006c1565b9050919050565b6200070081620006e1565b81146200070c57600080fd5b50565b6000815190506200072081620006f5565b92915050565b60008060008060808587031215620007435762000742620004f3565b5b600085015167ffffffffffffffff811115620007645762000763620004f8565b5b620007728782880162000653565b94505060206200078587828801620006aa565b935050604062000798878288016200070f565b9250506060620007ab878288016200070f565b91505092959194509250565b7f4e487b7100000000000000000000000000000000000000000000000000000000600052602260045260246000fd5b60006002820490506001821680620007ff57607f821691505b60208210811415620008165762000815620007b7565b5b50919050565b6152ab806200082c6000396000f3fe6080604052600436106102505760003560e01c80636352211e11610139578063a22cb465116100b6578063c87b56dd1161007a578063c87b56dd146108cd578063ca15c8731461090a578063d206885714610947578063d547741f14610984578063e985e9c5146109ad578063f9f8bdb7146109ea57610250565b8063a22cb465146107ea578063ac8d856c14610813578063ae169a5014610850578063b88d4fde14610879578063bffec202146108a257610250565b806391d14854116100fd57806391d148541461070157806395d89b411461073e57806398bcede914610769578063a035b1fe14610794578063a217fddf146107bf57610250565b80636352211e146105e457806370a08231146106215780637c57d9471461065e5780639010d07c1461069b57806391b7f5ed146106d857610250565b806323b872dd116101d2578063372500ab11610196578063372500ab146104e85780634131ff99146104ff57806342842e0e1461052a5780634b6acafb146105535780634f6ccce71461057e57806355f804b3146105bb57610250565b806323b872dd146103f3578063248a9ca31461041c5780632f2ff15d146104595780632f745c591461048257806336568abe146104bf57610250565b8063081812fc11610219578063081812fc1461032f578063095ea7b31461036c5780631249c58b14610395578063162094c41461039f57806318160ddd146103c857610250565b8062fe50c61461025557806301eb99ec1461029257806301ffc9a7146102bd578063047d5e80146102fa57806306fdde0314610304575b600080fd5b34801561026157600080fd5b5061027c60048036038101906102779190613782565b610a15565b60405161028991906137be565b60405180910390f35b34801561029e57600080fd5b506102a7610a3f565b6040516102b491906137be565b60405180910390f35b3480156102c957600080fd5b506102e460048036038101906102df9190613831565b610a9a565b6040516102f19190613879565b60405180910390f35b610302610aac565b005b34801561031057600080fd5b50610319610ab7565b604051610326919061392d565b60405180910390f35b34801561033b57600080fd5b5061035660048036038101906103519190613782565b610b49565b6040516103639190613990565b60405180910390f35b34801561037857600080fd5b50610393600480360381019061038e91906139d7565b610bce565b005b61039d610ce6565b005b3480156103ab57600080fd5b506103c660048036038101906103c19190613b4c565b610e09565b005b3480156103d457600080fd5b506103dd610e6a565b6040516103ea91906137be565b60405180910390f35b3480156103ff57600080fd5b5061041a60048036038101906104159190613ba8565b610e77565b005b34801561042857600080fd5b50610443600480360381019061043e9190613c31565b610ed7565b6040516104509190613c6d565b60405180910390f35b34801561046557600080fd5b50610480600480360381019061047b9190613c88565b610ef6565b005b34801561048e57600080fd5b506104a960048036038101906104a491906139d7565b610f1f565b6040516104b691906137be565b60405180910390f35b3480156104cb57600080fd5b506104e660048036038101906104e19190613c88565b610fc4565b005b3480156104f457600080fd5b506104fd611047565b005b34801561050b57600080fd5b506105146110fe565b60405161052191906137be565b60405180910390f35b34801561053657600080fd5b50610551600480360381019061054c9190613ba8565b611104565b005b34801561055f57600080fd5b50610568611124565b60405161057591906137be565b60405180910390f35b34801561058a57600080fd5b506105a560048036038101906105a09190613782565b61112a565b6040516105b291906137be565b60405180910390f35b3480156105c757600080fd5b506105e260048036038101906105dd9190613cc8565b61119b565b005b3480156105f057600080fd5b5061060b60048036038101906106069190613782565b611208565b6040516106189190613990565b60405180910390f35b34801561062d57600080fd5b5061064860048036038101906106439190613d11565b6112ba565b60405161065591906137be565b60405180910390f35b34801561066a57600080fd5b5061068560048036038101906106809190613782565b611372565b6040516106929190613990565b60405180910390f35b3480156106a757600080fd5b506106c260048036038101906106bd9190613d3e565b6113af565b6040516106cf9190613990565b60405180910390f35b3480156106e457600080fd5b506106ff60048036038101906106fa9190613782565b6113de565b005b34801561070d57600080fd5b5061072860048036038101906107239190613c88565b61143b565b6040516107359190613879565b60405180910390f35b34801561074a57600080fd5b506107536114a5565b604051610760919061392d565b60405180910390f35b34801561077557600080fd5b5061077e611537565b60405161078b91906137be565b60405180910390f35b3480156107a057600080fd5b506107a9611543565b6040516107b691906137be565b60405180910390f35b3480156107cb57600080fd5b506107d461154d565b6040516107e19190613c6d565b60405180910390f35b3480156107f657600080fd5b50610811600480360381019061080c9190613daa565b611554565b005b34801561081f57600080fd5b5061083a60048036038101906108359190613782565b61156a565b6040516108479190613990565b60405180910390f35b34801561085c57600080fd5b5061087760048036038101906108729190613782565b61159d565b005b34801561088557600080fd5b506108a0600480360381019061089b9190613e8b565b6116d9565b005b3480156108ae57600080fd5b506108b761173b565b6040516108c491906137be565b60405180910390f35b3480156108d957600080fd5b506108f460048036038101906108ef9190613782565b61174c565b604051610901919061392d565b60405180910390f35b34801561091657600080fd5b50610931600480360381019061092c9190613c31565b61175e565b60405161093e91906137be565b60405180910390f35b34801561095357600080fd5b5061096e60048036038101906109699190613782565b611782565b60405161097b91906137be565b60405180910390f35b34801561099057600080fd5b506109ab60048036038101906109a69190613c88565b61179a565b005b3480156109b957600080fd5b506109d460048036038101906109cf9190613f0e565b6117c3565b6040516109e19190613879565b60405180910390f35b3480156109f657600080fd5b506109ff611857565b604051610a0c91906137be565b60405180910390f35b60006015600083815260200190815260200160002054601454610a389190613f7d565b9050919050565b600080610a4b336112ba565b90506000805b82811015610a91576000610a653383610f1f565b9050610a7081610a15565b83610a7b9190613fb1565b9250508080610a8990614007565b915050610a51565b50809250505090565b6000610aa58261199c565b9050919050565b610ab534611a16565b565b606060028054610ac69061407f565b80601f0160208091040260200160405190810160405280929190818152602001828054610af29061407f565b8015610b3f5780601f10610b1457610100808354040283529160200191610b3f565b820191906000526020600020905b815481529060010190602001808311610b2257829003601f168201915b5050505050905090565b6000610b5482611a53565b610b93576040517f08c379a0000000000000000000000000000000000000000000000000000000008152600401610b8a90614123565b60405180910390fd5b6006600083815260200190815260200160002060009054906101000a900473ffffffffffffffffffffffffffffffffffffffff169050919050565b6000610bd982611208565b90508073ffffffffffffffffffffffffffffffffffffffff168373ffffffffffffffffffffffffffffffffffffffff161415610c4a576040517f08c379a0000000000000000000000000000000000000000000000000000000008152600401610c41906141b5565b60405180910390fd5b8073ffffffffffffffffffffffffffffffffffffffff16610c69611abf565b73ffffffffffffffffffffffffffffffffffffffff161480610c985750610c9781610c92611abf565b6117c3565b5b610cd7576040517f08c379a0000000000000000000000000000000000000000000000000000000008152600401610cce90614247565b60405180910390fd5b610ce18383611ac7565b505050565b6000610cf2600d611b80565b9050600f543414610d38576040517f08c379a0000000000000000000000000000000000000000000000000000000008152600401610d2f906142d9565b60405180910390fd5b601054811115610d7d576040517f08c379a0000000000000000000000000000000000000000000000000000000008152600401610d749061436b565b60405180910390fd5b610d873382611b8e565b336016600083815260200190815260200160002060006101000a81548173ffffffffffffffffffffffffffffffffffffffff021916908373ffffffffffffffffffffffffffffffffffffffff1602179055506014546015600083815260200190815260200160002081905550610dfd600d611d68565b610e0634611d7e565b50565b610e1d6000801b610e18611abf565b61143b565b610e5c576040517f08c379a0000000000000000000000000000000000000000000000000000000008152600401610e53906143fd565b60405180910390fd5b610e668282611e8b565b5050565b6000600a80549050905090565b610e88610e82611abf565b82611eff565b610ec7576040517f08c379a0000000000000000000000000000000000000000000000000000000008152600401610ebe9061448f565b60405180910390fd5b610ed2838383611fdd565b505050565b6000806000838152602001908152602001600020600101549050919050565b610eff82610ed7565b610f1081610f0b611abf565b612244565b610f1a83836122e1565b505050565b6000610f2a836112ba565b8210610f6b576040517f08c379a0000000000000000000000000000000000000000000000000000000008152600401610f6290614521565b60405180910390fd5b600860008473ffffffffffffffffffffffffffffffffffffffff1673ffffffffffffffffffffffffffffffffffffffff168152602001908152602001600020600083815260200190815260200160002054905092915050565b610fcc611abf565b73ffffffffffffffffffffffffffffffffffffffff168173ffffffffffffffffffffffffffffffffffffffff1614611039576040517f08c379a0000000000000000000000000000000000000000000000000000000008152600401611030906145b3565b60405180910390fd5b6110438282612315565b5050565b6000611052336112ba565b90506000805b828110156110b257600061106c3383610f1f565b905061107781610a15565b836110829190613fb1565b925060145460156000838152602001908152602001600020819055505080806110aa90614007565b915050611058565b503373ffffffffffffffffffffffffffffffffffffffff166108fc829081150290604051600060405180830381858888f193505050501580156110f9573d6000803e3d6000fd5b505050565b60135481565b61111f838383604051806020016040528060008152506116d9565b505050565b60145481565b6000611134610e6a565b8210611175576040517f08c379a000000000000000000000000000000000000000000000000000000000815260040161116c90614645565b60405180910390fd5b600a828154811061118957611188614665565b5b90600052602060002001549050919050565b6111af6000801b6111aa611abf565b61143b565b6111ee576040517f08c379a00000000000000000000000000000000000000000000000000000000081526004016111e590614706565b60405180910390fd5b80600e9080519060200190611204929190613695565b5050565b6000806004600084815260200190815260200160002060009054906101000a900473ffffffffffffffffffffffffffffffffffffffff169050600073ffffffffffffffffffffffffffffffffffffffff168173ffffffffffffffffffffffffffffffffffffffff1614156112b1576040517f08c379a00000000000000000000000000000000000000000000000000000000081526004016112a890614798565b60405180910390fd5b80915050919050565b60008073ffffffffffffffffffffffffffffffffffffffff168273ffffffffffffffffffffffffffffffffffffffff16141561132b576040517f08c379a00000000000000000000000000000000000000000000000000000000081526004016113229061482a565b60405180910390fd5b600560008373ffffffffffffffffffffffffffffffffffffffff1673ffffffffffffffffffffffffffffffffffffffff168152602001908152602001600020549050919050565b60006016600083815260200190815260200160002060009054906101000a900473ffffffffffffffffffffffffffffffffffffffff169050919050565b60006113d6826001600086815260200190815260200160002061234990919063ffffffff16565b905092915050565b6113f26000801b6113ed611abf565b61143b565b611431576040517f08c379a0000000000000000000000000000000000000000000000000000000008152600401611428906148bc565b60405180910390fd5b80600f8190555050565b600080600084815260200190815260200160002060000160008373ffffffffffffffffffffffffffffffffffffffff1673ffffffffffffffffffffffffffffffffffffffff16815260200190815260200160002060009054906101000a900460ff16905092915050565b6060600380546114b49061407f565b80601f01602080910402602001604051908101604052809291908181526020018280546114e09061407f565b801561152d5780601f106115025761010080835404028352916020019161152d565b820191906000526020600020905b81548152906001019060200180831161151057829003601f168201915b5050505050905090565b600d8060000154905081565b6000600f54905090565b6000801b81565b61156661155f611abf565b8383612363565b5050565b60166020528060005260406000206000915054906101000a900473ffffffffffffffffffffffffffffffffffffffff1681565b6115a5611abf565b73ffffffffffffffffffffffffffffffffffffffff166115c482611208565b73ffffffffffffffffffffffffffffffffffffffff16148061162057506115e9611abf565b73ffffffffffffffffffffffffffffffffffffffff1661160882610b49565b73ffffffffffffffffffffffffffffffffffffffff16145b61165f576040517f08c379a00000000000000000000000000000000000000000000000000000000081526004016116569061494e565b60405180910390fd5b600061166a82610a15565b905061167582611208565b73ffffffffffffffffffffffffffffffffffffffff166108fc829081150290604051600060405180830381858888f193505050501580156116ba573d6000803e3d6000fd5b5060145460156000848152602001908152602001600020819055505050565b6116ea6116e4611abf565b83611eff565b611729576040517f08c379a00000000000000000000000000000000000000000000000000000000081526004016117209061448f565b60405180910390fd5b611735848484846124d0565b50505050565b6000611747600d611b80565b905090565b60606117578261252c565b9050919050565b600061177b6001600084815260200190815260200160002061267e565b9050919050565b60156020528060005260406000206000915090505481565b6117a382610ed7565b6117b4816117af611abf565b612244565b6117be8383612315565b505050565b6000600760008473ffffffffffffffffffffffffffffffffffffffff1673ffffffffffffffffffffffffffffffffffffffff16815260200190815260200160002060008373ffffffffffffffffffffffffffffffffffffffff1673ffffffffffffffffffffffffffffffffffffffff16815260200190815260200160002060009054906101000a900460ff16905092915050565b600080611862610e6a565b14156118715760009050611889565b611879610e6a565b601354611886919061499d565b90505b90565b611896828261143b565b61196857600160008084815260200190815260200160002060000160008373ffffffffffffffffffffffffffffffffffffffff1673ffffffffffffffffffffffffffffffffffffffff16815260200190815260200160002060006101000a81548160ff02191690831515021790555061190d611abf565b73ffffffffffffffffffffffffffffffffffffffff168173ffffffffffffffffffffffffffffffffffffffff16837f2f8788117e7eff1d82e926ec794901d17c78024a50270940304540a733656f0d60405160405180910390a45b5050565b6000611994836000018373ffffffffffffffffffffffffffffffffffffffff1660001b612693565b905092915050565b60007f780e9d63000000000000000000000000000000000000000000000000000000007bffffffffffffffffffffffffffffffffffffffffffffffffffffffff1916827bffffffffffffffffffffffffffffffffffffffffffffffffffffffff19161480611a0f5750611a0e82612703565b5b9050919050565b80601354611a249190613fb1565b601381905550611a32610e6a565b81611a3d919061499d565b601454611a4a9190613fb1565b60148190555050565b60008073ffffffffffffffffffffffffffffffffffffffff166004600084815260200190815260200160002060009054906101000a900473ffffffffffffffffffffffffffffffffffffffff1673ffffffffffffffffffffffffffffffffffffffff1614159050919050565b600033905090565b816006600083815260200190815260200160002060006101000a81548173ffffffffffffffffffffffffffffffffffffffff021916908373ffffffffffffffffffffffffffffffffffffffff160217905550808273ffffffffffffffffffffffffffffffffffffffff16611b3a83611208565b73ffffffffffffffffffffffffffffffffffffffff167f8c5be1e5ebec7d5bd14f71427d1e84f3dd0314c0f7b2291e5b200ac8c7c3b92560405160405180910390a45050565b600081600001549050919050565b600073ffffffffffffffffffffffffffffffffffffffff168273ffffffffffffffffffffffffffffffffffffffff161415611bfe576040517f08c379a0000000000000000000000000000000000000000000000000000000008152600401611bf590614a1a565b60405180910390fd5b611c0781611a53565b15611c47576040517f08c379a0000000000000000000000000000000000000000000000000000000008152600401611c3e90614a86565b60405180910390fd5b611c53600083836127e5565b6001600560008473ffffffffffffffffffffffffffffffffffffffff1673ffffffffffffffffffffffffffffffffffffffff1681526020019081526020016000206000828254611ca39190613fb1565b92505081905550816004600083815260200190815260200160002060006101000a81548173ffffffffffffffffffffffffffffffffffffffff021916908373ffffffffffffffffffffffffffffffffffffffff160217905550808273ffffffffffffffffffffffffffffffffffffffff16600073ffffffffffffffffffffffffffffffffffffffff167fddf252ad1be2c89b69c2b068fc378daa952ba7f163c4a11628f55a4df523b3ef60405160405180910390a4611d646000838361280e565b5050565b6001816000016000828254019250508190555050565b6000600a82611d8d919061499d565b9050600060028284611d9f9190613f7d565b611da9919061499d565b9050611db482611a16565b601160009054906101000a900473ffffffffffffffffffffffffffffffffffffffff1673ffffffffffffffffffffffffffffffffffffffff166108fc829081150290604051600060405180830381858888f19350505050158015611e1c573d6000803e3d6000fd5b50601260009054906101000a900473ffffffffffffffffffffffffffffffffffffffff1673ffffffffffffffffffffffffffffffffffffffff166108fc829081150290604051600060405180830381858888f19350505050158015611e85573d6000803e3d6000fd5b50505050565b611e9482611a53565b611ed3576040517f08c379a0000000000000000000000000000000000000000000000000000000008152600401611eca90614b18565b60405180910390fd5b80600c60008481526020019081526020016000209080519060200190611efa929190613695565b505050565b6000611f0a82611a53565b611f49576040517f08c379a0000000000000000000000000000000000000000000000000000000008152600401611f4090614baa565b60405180910390fd5b6000611f5483611208565b90508073ffffffffffffffffffffffffffffffffffffffff168473ffffffffffffffffffffffffffffffffffffffff161480611fc357508373ffffffffffffffffffffffffffffffffffffffff16611fab84610b49565b73ffffffffffffffffffffffffffffffffffffffff16145b80611fd45750611fd381856117c3565b5b91505092915050565b8273ffffffffffffffffffffffffffffffffffffffff16611ffd82611208565b73ffffffffffffffffffffffffffffffffffffffff1614612053576040517f08c379a000000000000000000000000000000000000000000000000000000000815260040161204a90614c3c565b60405180910390fd5b600073ffffffffffffffffffffffffffffffffffffffff168273ffffffffffffffffffffffffffffffffffffffff1614156120c3576040517f08c379a00000000000000000000000000000000000000000000000000000000081526004016120ba90614cce565b60405180910390fd5b6120ce8383836127e5565b6120d9600082611ac7565b6001600560008573ffffffffffffffffffffffffffffffffffffffff1673ffffffffffffffffffffffffffffffffffffffff16815260200190815260200160002060008282546121299190613f7d565b925050819055506001600560008473ffffffffffffffffffffffffffffffffffffffff1673ffffffffffffffffffffffffffffffffffffffff16815260200190815260200160002060008282546121809190613fb1565b92505081905550816004600083815260200190815260200160002060006101000a81548173ffffffffffffffffffffffffffffffffffffffff021916908373ffffffffffffffffffffffffffffffffffffffff160217905550808273ffffffffffffffffffffffffffffffffffffffff168473ffffffffffffffffffffffffffffffffffffffff167fddf252ad1be2c89b69c2b068fc378daa952ba7f163c4a11628f55a4df523b3ef60405160405180910390a461223f83838361280e565b505050565b61224e828261143b565b6122dd576122738173ffffffffffffffffffffffffffffffffffffffff166014612813565b6122818360001c6020612813565b604051602001612292929190614dc2565b6040516020818303038152906040526040517f08c379a00000000000000000000000000000000000000000000000000000000081526004016122d4919061392d565b60405180910390fd5b5050565b6122eb828261188c565b612310816001600085815260200190815260200160002061196c90919063ffffffff16565b505050565b61231f8282612a4f565b6123448160016000858152602001908152602001600020612b3090919063ffffffff16565b505050565b60006123588360000183612b60565b60001c905092915050565b8173ffffffffffffffffffffffffffffffffffffffff168373ffffffffffffffffffffffffffffffffffffffff1614156123d2576040517f08c379a00000000000000000000000000000000000000000000000000000000081526004016123c990614e48565b60405180910390fd5b80600760008573ffffffffffffffffffffffffffffffffffffffff1673ffffffffffffffffffffffffffffffffffffffff16815260200190815260200160002060008473ffffffffffffffffffffffffffffffffffffffff1673ffffffffffffffffffffffffffffffffffffffff16815260200190815260200160002060006101000a81548160ff0219169083151502179055508173ffffffffffffffffffffffffffffffffffffffff168373ffffffffffffffffffffffffffffffffffffffff167f17307eab39ab6107e8899845ad3d59bd9653f200f220920489ca2b5937696c31836040516124c39190613879565b60405180910390a3505050565b6124db848484611fdd565b6124e784848484612b8b565b612526576040517f08c379a000000000000000000000000000000000000000000000000000000000815260040161251d90614eda565b60405180910390fd5b50505050565b606061253782611a53565b612576576040517f08c379a000000000000000000000000000000000000000000000000000000000815260040161256d90614f6c565b60405180910390fd5b6000600c600084815260200190815260200160002080546125969061407f565b80601f01602080910402602001604051908101604052809291908181526020018280546125c29061407f565b801561260f5780601f106125e45761010080835404028352916020019161260f565b820191906000526020600020905b8154815290600101906020018083116125f257829003601f168201915b505050505090506000612620612d13565b9050600081511415612636578192505050612679565b60008251111561266b578082604051602001612653929190614f8c565b60405160208183030381529060405292505050612679565b61267484612da5565b925050505b919050565b600061268c82600001612e4c565b9050919050565b600061269f8383612e5d565b6126f85782600001829080600181540180825580915050600190039060005260206000200160009091909190915055826000018054905083600101600084815260200190815260200160002081905550600190506126fd565b600090505b92915050565b60007f80ac58cd000000000000000000000000000000000000000000000000000000007bffffffffffffffffffffffffffffffffffffffffffffffffffffffff1916827bffffffffffffffffffffffffffffffffffffffffffffffffffffffff191614806127ce57507f5b5e139f000000000000000000000000000000000000000000000000000000007bffffffffffffffffffffffffffffffffffffffffffffffffffffffff1916827bffffffffffffffffffffffffffffffffffffffffffffffffffffffff1916145b806127de57506127dd82612e80565b5b9050919050565b806127ee610e6a565b11156127fe576127fd8161159d565b5b612809838383612efa565b505050565b505050565b6060600060028360026128269190614fb0565b6128309190613fb1565b67ffffffffffffffff81111561284957612848613a21565b5b6040519080825280601f01601f19166020018201604052801561287b5781602001600182028036833780820191505090505b5090507f3000000000000000000000000000000000000000000000000000000000000000816000815181106128b3576128b2614665565b5b60200101907effffffffffffffffffffffffffffffffffffffffffffffffffffffffffffff1916908160001a9053507f78000000000000000000000000000000000000000000000000000000000000008160018151811061291757612916614665565b5b60200101907effffffffffffffffffffffffffffffffffffffffffffffffffffffffffffff1916908160001a905350600060018460026129579190614fb0565b6129619190613fb1565b90505b6001811115612a01577f3031323334353637383961626364656600000000000000000000000000000000600f8616601081106129a3576129a2614665565b5b1a60f81b8282815181106129ba576129b9614665565b5b60200101907effffffffffffffffffffffffffffffffffffffffffffffffffffffffffffff1916908160001a905350600485901c9450806129fa9061500a565b9050612964565b5060008414612a45576040517f08c379a0000000000000000000000000000000000000000000000000000000008152600401612a3c90615080565b60405180910390fd5b8091505092915050565b612a59828261143b565b15612b2c57600080600084815260200190815260200160002060000160008373ffffffffffffffffffffffffffffffffffffffff1673ffffffffffffffffffffffffffffffffffffffff16815260200190815260200160002060006101000a81548160ff021916908315150217905550612ad1611abf565b73ffffffffffffffffffffffffffffffffffffffff168173ffffffffffffffffffffffffffffffffffffffff16837ff6391f5c32d9c69d2a47ea670b442974b53935d1edc7fd64eb21e047a839171b60405160405180910390a45b5050565b6000612b58836000018373ffffffffffffffffffffffffffffffffffffffff1660001b61300e565b905092915050565b6000826000018281548110612b7857612b77614665565b5b9060005260206000200154905092915050565b6000612bac8473ffffffffffffffffffffffffffffffffffffffff16613122565b15612d06578373ffffffffffffffffffffffffffffffffffffffff1663150b7a02612bd5611abf565b8786866040518563ffffffff1660e01b8152600401612bf794939291906150f5565b6020604051808303816000875af1925050508015612c3357506040513d601f19601f82011682018060405250810190612c309190615156565b60015b612cb6573d8060008114612c63576040519150601f19603f3d011682016040523d82523d6000602084013e612c68565b606091505b50600081511415612cae576040517f08c379a0000000000000000000000000000000000000000000000000000000008152600401612ca590614eda565b60405180910390fd5b805181602001fd5b63150b7a0260e01b7bffffffffffffffffffffffffffffffffffffffffffffffffffffffff1916817bffffffffffffffffffffffffffffffffffffffffffffffffffffffff191614915050612d0b565b600190505b949350505050565b6060600e8054612d229061407f565b80601f0160208091040260200160405190810160405280929190818152602001828054612d4e9061407f565b8015612d9b5780601f10612d7057610100808354040283529160200191612d9b565b820191906000526020600020905b815481529060010190602001808311612d7e57829003601f168201915b5050505050905090565b6060612db082611a53565b612def576040517f08c379a0000000000000000000000000000000000000000000000000000000008152600401612de6906151f5565b60405180910390fd5b6000612df9612d13565b90506000815111612e195760405180602001604052806000815250612e44565b80612e2384613145565b604051602001612e34929190614f8c565b6040516020818303038152906040525b915050919050565b600081600001805490509050919050565b600080836001016000848152602001908152602001600020541415905092915050565b60007f5a05180f000000000000000000000000000000000000000000000000000000007bffffffffffffffffffffffffffffffffffffffffffffffffffffffff1916827bffffffffffffffffffffffffffffffffffffffffffffffffffffffff19161480612ef35750612ef2826132a6565b5b9050919050565b612f05838383613320565b600073ffffffffffffffffffffffffffffffffffffffff168373ffffffffffffffffffffffffffffffffffffffff161415612f4857612f4381613325565b612f87565b8173ffffffffffffffffffffffffffffffffffffffff168373ffffffffffffffffffffffffffffffffffffffff1614612f8657612f85838261336e565b5b5b600073ffffffffffffffffffffffffffffffffffffffff168273ffffffffffffffffffffffffffffffffffffffff161415612fca57612fc5816134db565b613009565b8273ffffffffffffffffffffffffffffffffffffffff168273ffffffffffffffffffffffffffffffffffffffff16146130085761300782826135ac565b5b5b505050565b600080836001016000848152602001908152602001600020549050600081146131165760006001826130409190613f7d565b90506000600186600001805490506130589190613f7d565b90508181146130c757600086600001828154811061307957613078614665565b5b906000526020600020015490508087600001848154811061309d5761309c614665565b5b90600052602060002001819055508387600101600083815260200190815260200160002081905550505b856000018054806130db576130da615215565b5b60019003818190600052602060002001600090559055856001016000868152602001908152602001600020600090556001935050505061311c565b60009150505b92915050565b6000808273ffffffffffffffffffffffffffffffffffffffff163b119050919050565b6060600082141561318d576040518060400160405280600181526020017f300000000000000000000000000000000000000000000000000000000000000081525090506132a1565b600082905060005b600082146131bf5780806131a890614007565b915050600a826131b8919061499d565b9150613195565b60008167ffffffffffffffff8111156131db576131da613a21565b5b6040519080825280601f01601f19166020018201604052801561320d5781602001600182028036833780820191505090505b5090505b6000851461329a576001826132269190613f7d565b9150600a856132359190615244565b60306132419190613fb1565b60f81b81838151811061325757613256614665565b5b60200101907effffffffffffffffffffffffffffffffffffffffffffffffffffffffffffff1916908160001a905350600a85613293919061499d565b9450613211565b8093505050505b919050565b60007f7965db0b000000000000000000000000000000000000000000000000000000007bffffffffffffffffffffffffffffffffffffffffffffffffffffffff1916827bffffffffffffffffffffffffffffffffffffffffffffffffffffffff1916148061331957506133188261362b565b5b9050919050565b505050565b600a80549050600b600083815260200190815260200160002081905550600a81908060018154018082558091505060019003906000526020600020016000909190919091505550565b6000600161337b846112ba565b6133859190613f7d565b905060006009600084815260200190815260200160002054905081811461346a576000600860008673ffffffffffffffffffffffffffffffffffffffff1673ffffffffffffffffffffffffffffffffffffffff168152602001908152602001600020600084815260200190815260200160002054905080600860008773ffffffffffffffffffffffffffffffffffffffff1673ffffffffffffffffffffffffffffffffffffffff168152602001908152602001600020600084815260200190815260200160002081905550816009600083815260200190815260200160002081905550505b6009600084815260200190815260200160002060009055600860008573ffffffffffffffffffffffffffffffffffffffff1673ffffffffffffffffffffffffffffffffffffffff16815260200190815260200160002060008381526020019081526020016000206000905550505050565b60006001600a805490506134ef9190613f7d565b90506000600b60008481526020019081526020016000205490506000600a838154811061351f5761351e614665565b5b9060005260206000200154905080600a838154811061354157613540614665565b5b906000526020600020018190555081600b600083815260200190815260200160002081905550600b600085815260200190815260200160002060009055600a8054806135905761358f615215565b5b6001900381819060005260206000200160009055905550505050565b60006135b7836112ba565b905081600860008573ffffffffffffffffffffffffffffffffffffffff1673ffffffffffffffffffffffffffffffffffffffff168152602001908152602001600020600083815260200190815260200160002081905550806009600084815260200190815260200160002081905550505050565b60007f01ffc9a7000000000000000000000000000000000000000000000000000000007bffffffffffffffffffffffffffffffffffffffffffffffffffffffff1916827bffffffffffffffffffffffffffffffffffffffffffffffffffffffff1916149050919050565b8280546136a19061407f565b90600052602060002090601f0160209004810192826136c3576000855561370a565b82601f106136dc57805160ff191683800117855561370a565b8280016001018555821561370a579182015b828111156137095782518255916020019190600101906136ee565b5b509050613717919061371b565b5090565b5b8082111561373457600081600090555060010161371c565b5090565b6000604051905090565b600080fd5b600080fd5b6000819050919050565b61375f8161374c565b811461376a57600080fd5b50565b60008135905061377c81613756565b92915050565b60006020828403121561379857613797613742565b5b60006137a68482850161376d565b91505092915050565b6137b88161374c565b82525050565b60006020820190506137d360008301846137af565b92915050565b60007fffffffff0000000000000000000000000000000000000000000000000000000082169050919050565b61380e816137d9565b811461381957600080fd5b50565b60008135905061382b81613805565b92915050565b60006020828403121561384757613846613742565b5b60006138558482850161381c565b91505092915050565b60008115159050919050565b6138738161385e565b82525050565b600060208201905061388e600083018461386a565b92915050565b600081519050919050565b600082825260208201905092915050565b60005b838110156138ce5780820151818401526020810190506138b3565b838111156138dd576000848401525b50505050565b6000601f19601f8301169050919050565b60006138ff82613894565b613909818561389f565b93506139198185602086016138b0565b613922816138e3565b840191505092915050565b6000602082019050818103600083015261394781846138f4565b905092915050565b600073ffffffffffffffffffffffffffffffffffffffff82169050919050565b600061397a8261394f565b9050919050565b61398a8161396f565b82525050565b60006020820190506139a56000830184613981565b92915050565b6139b48161396f565b81146139bf57600080fd5b50565b6000813590506139d1816139ab565b92915050565b600080604083850312156139ee576139ed613742565b5b60006139fc858286016139c2565b9250506020613a0d8582860161376d565b9150509250929050565b600080fd5b600080fd5b7f4e487b7100000000000000000000000000000000000000000000000000000000600052604160045260246000fd5b613a59826138e3565b810181811067ffffffffffffffff82111715613a7857613a77613a21565b5b80604052505050565b6000613a8b613738565b9050613a978282613a50565b919050565b600067ffffffffffffffff821115613ab757613ab6613a21565b5b613ac0826138e3565b9050602081019050919050565b82818337600083830152505050565b6000613aef613aea84613a9c565b613a81565b905082815260208101848484011115613b0b57613b0a613a1c565b5b613b16848285613acd565b509392505050565b600082601f830112613b3357613b32613a17565b5b8135613b43848260208601613adc565b91505092915050565b60008060408385031215613b6357613b62613742565b5b6000613b718582860161376d565b925050602083013567ffffffffffffffff811115613b9257613b91613747565b5b613b9e85828601613b1e565b9150509250929050565b600080600060608486031215613bc157613bc0613742565b5b6000613bcf868287016139c2565b9350506020613be0868287016139c2565b9250506040613bf18682870161376d565b9150509250925092565b6000819050919050565b613c0e81613bfb565b8114613c1957600080fd5b50565b600081359050613c2b81613c05565b92915050565b600060208284031215613c4757613c46613742565b5b6000613c5584828501613c1c565b91505092915050565b613c6781613bfb565b82525050565b6000602082019050613c826000830184613c5e565b92915050565b60008060408385031215613c9f57613c9e613742565b5b6000613cad85828601613c1c565b9250506020613cbe858286016139c2565b9150509250929050565b600060208284031215613cde57613cdd613742565b5b600082013567ffffffffffffffff811115613cfc57613cfb613747565b5b613d0884828501613b1e565b91505092915050565b600060208284031215613d2757613d26613742565b5b6000613d35848285016139c2565b91505092915050565b60008060408385031215613d5557613d54613742565b5b6000613d6385828601613c1c565b9250506020613d748582860161376d565b9150509250929050565b613d878161385e565b8114613d9257600080fd5b50565b600081359050613da481613d7e565b92915050565b60008060408385031215613dc157613dc0613742565b5b6000613dcf858286016139c2565b9250506020613de085828601613d95565b9150509250929050565b600067ffffffffffffffff821115613e0557613e04613a21565b5b613e0e826138e3565b9050602081019050919050565b6000613e2e613e2984613dea565b613a81565b905082815260208101848484011115613e4a57613e49613a1c565b5b613e55848285613acd565b509392505050565b600082601f830112613e7257613e71613a17565b5b8135613e82848260208601613e1b565b91505092915050565b60008060008060808587031215613ea557613ea4613742565b5b6000613eb3878288016139c2565b9450506020613ec4878288016139c2565b9350506040613ed58782880161376d565b925050606085013567ffffffffffffffff811115613ef657613ef5613747565b5b613f0287828801613e5d565b91505092959194509250565b60008060408385031215613f2557613f24613742565b5b6000613f33858286016139c2565b9250506020613f44858286016139c2565b9150509250929050565b7f4e487b7100000000000000000000000000000000000000000000000000000000600052601160045260246000fd5b6000613f888261374c565b9150613f938361374c565b925082821015613fa657613fa5613f4e565b5b828203905092915050565b6000613fbc8261374c565b9150613fc78361374c565b9250827fffffffffffffffffffffffffffffffffffffffffffffffffffffffffffffffff03821115613ffc57613ffb613f4e565b5b828201905092915050565b60006140128261374c565b91507fffffffffffffffffffffffffffffffffffffffffffffffffffffffffffffffff82141561404557614044613f4e565b5b600182019050919050565b7f4e487b7100000000000000000000000000000000000000000000000000000000600052602260045260246000fd5b6000600282049050600182168061409757607f821691505b602082108114156140ab576140aa614050565b5b50919050565b7f4552433732313a20617070726f76656420717565727920666f72206e6f6e657860008201527f697374656e7420746f6b656e0000000000000000000000000000000000000000602082015250565b600061410d602c8361389f565b9150614118826140b1565b604082019050919050565b6000602082019050818103600083015261413c81614100565b9050919050565b7f4552433732313a20617070726f76616c20746f2063757272656e74206f776e6560008201527f7200000000000000000000000000000000000000000000000000000000000000602082015250565b600061419f60218361389f565b91506141aa82614143565b604082019050919050565b600060208201905081810360008301526141ce81614192565b9050919050565b7f4552433732313a20617070726f76652063616c6c6572206973206e6f74206f7760008201527f6e6572206e6f7220617070726f76656420666f7220616c6c0000000000000000602082015250565b600061423160388361389f565b915061423c826141d5565b604082019050919050565b6000602082019050818103600083015261426081614224565b9050919050565b7f43727970746f426f79733a206d7573742073656e6420636f727265637420707260008201527f6963650000000000000000000000000000000000000000000000000000000000602082015250565b60006142c360238361389f565b91506142ce82614267565b604082019050919050565b600060208201905081810360008301526142f2816142b6565b9050919050565b7f43727970746f426f79733a206e6f7420656e6f7567682061766178206170657360008201527f206c65667420746f206d696e7420616d6f756e74000000000000000000000000602082015250565b600061435560348361389f565b9150614360826142f9565b604082019050919050565b6000602082019050818103600083015261438481614348565b9050919050565b7f43727970746f426f79733a206d75737420686176652061646d696e20726f6c6560008201527f20746f206368616e676520746f6b656e20555249000000000000000000000000602082015250565b60006143e760348361389f565b91506143f28261438b565b604082019050919050565b60006020820190508181036000830152614416816143da565b9050919050565b7f4552433732313a207472616e736665722063616c6c6572206973206e6f74206f60008201527f776e6572206e6f7220617070726f766564000000000000000000000000000000602082015250565b600061447960318361389f565b91506144848261441d565b604082019050919050565b600060208201905081810360008301526144a88161446c565b9050919050565b7f455243373231456e756d657261626c653a206f776e657220696e646578206f7560008201527f74206f6620626f756e6473000000000000000000000000000000000000000000602082015250565b600061450b602b8361389f565b9150614516826144af565b604082019050919050565b6000602082019050818103600083015261453a816144fe565b9050919050565b7f416363657373436f6e74726f6c3a2063616e206f6e6c792072656e6f756e636560008201527f20726f6c657320666f722073656c660000000000000000000000000000000000602082015250565b600061459d602f8361389f565b91506145a882614541565b604082019050919050565b600060208201905081810360008301526145cc81614590565b9050919050565b7f455243373231456e756d657261626c653a20676c6f62616c20696e646578206f60008201527f7574206f6620626f756e64730000000000000000000000000000000000000000602082015250565b600061462f602c8361389f565b915061463a826145d3565b604082019050919050565b6000602082019050818103600083015261465e81614622565b9050919050565b7f4e487b7100000000000000000000000000000000000000000000000000000000600052603260045260246000fd5b7f43727970746f426f79733a206d75737420686176652061646d696e20726f6c6560008201527f20746f206368616e676520626173652055524900000000000000000000000000602082015250565b60006146f060338361389f565b91506146fb82614694565b604082019050919050565b6000602082019050818103600083015261471f816146e3565b9050919050565b7f4552433732313a206f776e657220717565727920666f72206e6f6e657869737460008201527f656e7420746f6b656e0000000000000000000000000000000000000000000000602082015250565b600061478260298361389f565b915061478d82614726565b604082019050919050565b600060208201905081810360008301526147b181614775565b9050919050565b7f4552433732313a2062616c616e636520717565727920666f7220746865207a6560008201527f726f206164647265737300000000000000000000000000000000000000000000602082015250565b6000614814602a8361389f565b915061481f826147b8565b604082019050919050565b6000602082019050818103600083015261484381614807565b9050919050565b7f43727970746f426f79733a206d75737420686176652061646d696e20726f6c6560008201527f20746f206368616e676520707269636500000000000000000000000000000000602082015250565b60006148a660308361389f565b91506148b18261484a565b604082019050919050565b600060208201905081810360008301526148d581614899565b9050919050565b7f43727970746f426f79733a204f6e6c79206f776e6572206f7220617070726f7660008201527f65642063616e20636c61696d2072657761726473000000000000000000000000602082015250565b600061493860348361389f565b9150614943826148dc565b604082019050919050565b600060208201905081810360008301526149678161492b565b9050919050565b7f4e487b7100000000000000000000000000000000000000000000000000000000600052601260045260246000fd5b60006149a88261374c565b91506149b38361374c565b9250826149c3576149c261496e565b5b828204905092915050565b7f4552433732313a206d696e7420746f20746865207a65726f2061646472657373600082015250565b6000614a0460208361389f565b9150614a0f826149ce565b602082019050919050565b60006020820190508181036000830152614a33816149f7565b9050919050565b7f4552433732313a20746f6b656e20616c7265616479206d696e74656400000000600082015250565b6000614a70601c8361389f565b9150614a7b82614a3a565b602082019050919050565b60006020820190508181036000830152614a9f81614a63565b9050919050565b7f45524337323155524953746f726167653a2055524920736574206f66206e6f6e60008201527f6578697374656e7420746f6b656e000000000000000000000000000000000000602082015250565b6000614b02602e8361389f565b9150614b0d82614aa6565b604082019050919050565b60006020820190508181036000830152614b3181614af5565b9050919050565b7f4552433732313a206f70657261746f7220717565727920666f72206e6f6e657860008201527f697374656e7420746f6b656e0000000000000000000000000000000000000000602082015250565b6000614b94602c8361389f565b9150614b9f82614b38565b604082019050919050565b60006020820190508181036000830152614bc381614b87565b9050919050565b7f4552433732313a207472616e736665722066726f6d20696e636f72726563742060008201527f6f776e6572000000000000000000000000000000000000000000000000000000602082015250565b6000614c2660258361389f565b9150614c3182614bca565b604082019050919050565b60006020820190508181036000830152614c5581614c19565b9050919050565b7f4552433732313a207472616e7366657220746f20746865207a65726f2061646460008201527f7265737300000000000000000000000000000000000000000000000000000000602082015250565b6000614cb860248361389f565b9150614cc382614c5c565b604082019050919050565b60006020820190508181036000830152614ce781614cab565b9050919050565b600081905092915050565b7f416363657373436f6e74726f6c3a206163636f756e7420000000000000000000600082015250565b6000614d2f601783614cee565b9150614d3a82614cf9565b601782019050919050565b6000614d5082613894565b614d5a8185614cee565b9350614d6a8185602086016138b0565b80840191505092915050565b7f206973206d697373696e6720726f6c6520000000000000000000000000000000600082015250565b6000614dac601183614cee565b9150614db782614d76565b601182019050919050565b6000614dcd82614d22565b9150614dd98285614d45565b9150614de482614d9f565b9150614df08284614d45565b91508190509392505050565b7f4552433732313a20617070726f766520746f2063616c6c657200000000000000600082015250565b6000614e3260198361389f565b9150614e3d82614dfc565b602082019050919050565b60006020820190508181036000830152614e6181614e25565b9050919050565b7f4552433732313a207472616e7366657220746f206e6f6e20455243373231526560008201527f63656976657220696d706c656d656e7465720000000000000000000000000000602082015250565b6000614ec460328361389f565b9150614ecf82614e68565b604082019050919050565b60006020820190508181036000830152614ef381614eb7565b9050919050565b7f45524337323155524953746f726167653a2055524920717565727920666f722060008201527f6e6f6e6578697374656e7420746f6b656e000000000000000000000000000000602082015250565b6000614f5660318361389f565b9150614f6182614efa565b604082019050919050565b60006020820190508181036000830152614f8581614f49565b9050919050565b6000614f988285614d45565b9150614fa48284614d45565b91508190509392505050565b6000614fbb8261374c565b9150614fc68361374c565b9250817fffffffffffffffffffffffffffffffffffffffffffffffffffffffffffffffff0483118215151615614fff57614ffe613f4e565b5b828202905092915050565b60006150158261374c565b9150600082141561502957615028613f4e565b5b600182039050919050565b7f537472696e67733a20686578206c656e67746820696e73756666696369656e74600082015250565b600061506a60208361389f565b915061507582615034565b602082019050919050565b600060208201905081810360008301526150998161505d565b9050919050565b600081519050919050565b600082825260208201905092915050565b60006150c7826150a0565b6150d181856150ab565b93506150e18185602086016138b0565b6150ea816138e3565b840191505092915050565b600060808201905061510a6000830187613981565b6151176020830186613981565b61512460408301856137af565b818103606083015261513681846150bc565b905095945050505050565b60008151905061515081613805565b92915050565b60006020828403121561516c5761516b613742565b5b600061517a84828501615141565b91505092915050565b7f4552433732314d657461646174613a2055524920717565727920666f72206e6f60008201527f6e6578697374656e7420746f6b656e0000000000000000000000000000000000602082015250565b60006151df602f8361389f565b91506151ea82615183565b604082019050919050565b6000602082019050818103600083015261520e816151d2565b9050919050565b7f4e487b7100000000000000000000000000000000000000000000000000000000600052603160045260246000fd5b600061524f8261374c565b915061525a8361374c565b92508261526a5761526961496e565b5b82820690509291505056fea26469706673582212209ce6141c4f55339b7bf53c4e50c5a13f4a14dd0fde2328b25ed0f0fe281f600464736f6c634300080c0033",
  "immutableReferences": {},
  "source": "// SPDX-License-Identifier: MIT\npragma solidity >=0.8.0 <0.9.0;\n\nimport \"@openzeppelin/contracts/utils/Context.sol\";\nimport \"@openzeppelin/contracts/utils/Counters.sol\";\nimport \"@openzeppelin/contracts/token/ERC721/ERC721.sol\";\nimport \"@openzeppelin/contracts/token/ERC721/extensions/ERC721Enumerable.sol\";\nimport \"@openzeppelin/contracts/token/ERC721/extensions/ERC721URIStorage.sol\";\nimport \"@openzeppelin/contracts/access/AccessControlEnumerable.sol\";\n\ncontract CryptoBoys is Context,  AccessControlEnumerable, ERC721Enumerable, ERC721URIStorage{\n    using Counters for Counters.Counter;\n    Counters.Counter public _tokenIdTracker;\n\n    string private _baseTokenURI;\n    uint256 private _price = 0.025 ether;\n    uint private _max;\n    address private _admin;\n    address private _admin2;\n\n    uint256 public reflectionBalance;\n    uint256 public totalDividend;\n    mapping (uint256 => uint256) public lastDividendAt;\n    mapping (uint256 => address ) public minter;\n\n    constructor(string memory baseTokenURI, uint max, address admin, address admin2) ERC721(\"CryptoBoys Tokens\", \"ACT\") {\n        _baseTokenURI = baseTokenURI;\n        _max = max;\n        _admin = admin;\n        _admin2 = admin2;\n\n        _setupRole(DEFAULT_ADMIN_ROLE, admin);\n    }\n\n    function _baseURI() internal view virtual override returns (string memory) {\n        return _baseTokenURI;\n    }\n\n    function setBaseURI(string memory baseURI) external {\n        require(hasRole(DEFAULT_ADMIN_ROLE, _msgSender()), \"CryptoBoys: must have admin role to change base URI\");\n        _baseTokenURI = baseURI;\n    }\n\n    function setTokenURI(uint256 tokenId, string memory _tokenURI) external {\n        require(hasRole(DEFAULT_ADMIN_ROLE, _msgSender()), \"CryptoBoys: must have admin role to change token URI\");\n        _setTokenURI(tokenId, _tokenURI);\n    }\n\n    function setPrice(uint mintPrice) external {\n        require(hasRole(DEFAULT_ADMIN_ROLE, _msgSender()), \"CryptoBoys: must have admin role to change price\");\n        _price = mintPrice;\n    }\n\n    function price() public view returns (uint256) {\n        return _price;\n    }\n\n    function cryptoBoyCounter() public view returns (uint256) {\n        return _tokenIdTracker.current();\n    }\n\n    function mint() public payable {\n\n        uint256 currIndex = _tokenIdTracker.current();\n\n        require(msg.value == _price, \"CryptoBoys: must send correct price\");\n        require(currIndex <= _max, \"CryptoBoys: not enough avax apes left to mint amount\");\n        _mint(msg.sender, currIndex);\n        minter[currIndex] = msg.sender;\n        lastDividendAt[currIndex] = totalDividend;\n        _tokenIdTracker.increment();\n        splitBalance(msg.value);\n    }\n\n    function tokenMinter(uint256 tokenId) public view returns(address){\n        return minter[tokenId];\n    }\n\n    function _burn(uint256 tokenId) internal virtual override(ERC721, ERC721URIStorage) {\n        return ERC721URIStorage._burn(tokenId);\n    }\n\n    function tokenURI(uint256 tokenId) public view override(ERC721, ERC721URIStorage) returns (string memory) {\n        return ERC721URIStorage.tokenURI(tokenId);\n    }\n\n    function _beforeTokenTransfer(address from, address to, uint256 tokenId) internal virtual override(ERC721, ERC721Enumerable) {\n        if (totalSupply() > tokenId) claimReward(tokenId);\n        super._beforeTokenTransfer(from, to, tokenId);\n    }\n\n    /**\n    * @dev See {IERC165-supportsInterface}.\n    */\n    function supportsInterface(bytes4 interfaceId) public view virtual override(AccessControlEnumerable, ERC721, ERC721Enumerable) returns (bool) {\n        return super.supportsInterface(interfaceId);\n    }\n\n    function currentRate() public view returns (uint256){\n        if(totalSupply() == 0) return 0;\n        return reflectionBalance/totalSupply();\n    }\n\n    function claimRewards() public {\n        uint count = balanceOf(msg.sender);\n        uint256 balance = 0;\n        for(uint i=0; i < count; i++){\n            uint tokenId = tokenOfOwnerByIndex(msg.sender, i);\n            balance += getReflectionBalance(tokenId);\n            lastDividendAt[tokenId] = totalDividend;\n        }\n        payable(msg.sender).transfer(balance);\n    }\n\n    function getReflectionBalances() public view returns(uint256) {\n        uint count = balanceOf(msg.sender);\n        uint256 total = 0;\n        for(uint i=0; i < count; i++){\n            uint tokenId = tokenOfOwnerByIndex(msg.sender, i);\n            total += getReflectionBalance(tokenId);\n        }\n        return total;\n    }\n\n    function claimReward(uint256 tokenId) public {\n        require(ownerOf(tokenId) == _msgSender() || getApproved(tokenId) == _msgSender(), \"CryptoBoys: Only owner or approved can claim rewards\");\n        uint256 balance = getReflectionBalance(tokenId);\n        payable(ownerOf(tokenId)).transfer(balance);\n        lastDividendAt[tokenId] = totalDividend;\n    }\n\n    function getReflectionBalance(uint256 tokenId) public view returns (uint256){\n        return totalDividend - lastDividendAt[tokenId];\n    }\n\n    function splitBalance(uint256 amount) private {\n        uint256 reflectionShare = amount/10;\n        uint256 mintingShare  = (amount - reflectionShare)/2;\n        reflectDividend(reflectionShare);\n        payable(_admin).transfer(mintingShare);\n        payable(_admin2).transfer(mintingShare);\n    }\n\n    function reflectDividend(uint256 amount) private {\n        reflectionBalance  = reflectionBalance + amount;\n        totalDividend = totalDividend + (amount/totalSupply());\n    }\n\n    function reflectToOwners() public payable {\n        reflectDividend(msg.value);\n    }\n}",
  "sourcePath": "/Users/shirui/nft-dapp/nft-demo-dapp/src/contracts/CryptoBoys.sol",
  "compiler": {
    "name": "solc",
    "version": "0.8.12+commit.f00d7308.Emscripten.clang"
  },
  "schemaVersion": "3.4.6",
  "updatedAt": "2022-03-25T09:13:18.145Z",
  "networkType": "ethereum",
  "devdoc": {
    "kind": "dev",
    "methods": {
      "approve(address,uint256)": {
        "details": "See {IERC721-approve}."
      },
      "balanceOf(address)": {
        "details": "See {IERC721-balanceOf}."
      },
      "getApproved(uint256)": {
        "details": "See {IERC721-getApproved}."
      },
      "getRoleAdmin(bytes32)": {
        "details": "Returns the admin role that controls `role`. See {grantRole} and {revokeRole}. To change a role's admin, use {_setRoleAdmin}."
      },
      "getRoleMember(bytes32,uint256)": {
        "details": "Returns one of the accounts that have `role`. `index` must be a value between 0 and {getRoleMemberCount}, non-inclusive. Role bearers are not sorted in any particular way, and their ordering may change at any point. WARNING: When using {getRoleMember} and {getRoleMemberCount}, make sure you perform all queries on the same block. See the following https://forum.openzeppelin.com/t/iterating-over-elements-on-enumerableset-in-openzeppelin-contracts/2296[forum post] for more information."
      },
      "getRoleMemberCount(bytes32)": {
        "details": "Returns the number of accounts that have `role`. Can be used together with {getRoleMember} to enumerate all bearers of a role."
      },
      "grantRole(bytes32,address)": {
        "details": "Grants `role` to `account`. If `account` had not been already granted `role`, emits a {RoleGranted} event. Requirements: - the caller must have ``role``'s admin role."
      },
      "hasRole(bytes32,address)": {
        "details": "Returns `true` if `account` has been granted `role`."
      },
      "isApprovedForAll(address,address)": {
        "details": "See {IERC721-isApprovedForAll}."
      },
      "name()": {
        "details": "See {IERC721Metadata-name}."
      },
      "ownerOf(uint256)": {
        "details": "See {IERC721-ownerOf}."
      },
      "renounceRole(bytes32,address)": {
        "details": "Revokes `role` from the calling account. Roles are often managed via {grantRole} and {revokeRole}: this function's purpose is to provide a mechanism for accounts to lose their privileges if they are compromised (such as when a trusted device is misplaced). If the calling account had been revoked `role`, emits a {RoleRevoked} event. Requirements: - the caller must be `account`."
      },
      "revokeRole(bytes32,address)": {
        "details": "Revokes `role` from `account`. If `account` had been granted `role`, emits a {RoleRevoked} event. Requirements: - the caller must have ``role``'s admin role."
      },
      "safeTransferFrom(address,address,uint256)": {
        "details": "See {IERC721-safeTransferFrom}."
      },
      "safeTransferFrom(address,address,uint256,bytes)": {
        "details": "See {IERC721-safeTransferFrom}."
      },
      "setApprovalForAll(address,bool)": {
        "details": "See {IERC721-setApprovalForAll}."
      },
      "supportsInterface(bytes4)": {
        "details": "See {IERC165-supportsInterface}."
      },
      "symbol()": {
        "details": "See {IERC721Metadata-symbol}."
      },
      "tokenByIndex(uint256)": {
        "details": "See {IERC721Enumerable-tokenByIndex}."
      },
      "tokenOfOwnerByIndex(address,uint256)": {
        "details": "See {IERC721Enumerable-tokenOfOwnerByIndex}."
      },
      "totalSupply()": {
        "details": "See {IERC721Enumerable-totalSupply}."
      },
      "transferFrom(address,address,uint256)": {
        "details": "See {IERC721-transferFrom}."
      }
    },
    "version": 1
  },
  "userdoc": {
    "kind": "user",
    "methods": {},
    "version": 1
  }
}