{
  "contractName": "Market",
  "abi": [
    {
      "inputs": [
        {
          "internalType": "address",
          "name": "nft_address",
          "type": "address"
        },
        {
          "internalType": "uint256",
          "name": "dist_fee",
          "type": "uint256"
        },
        {
          "internalType": "uint256",
          "name": "market_fee",
          "type": "uint256"
        }
      ],
      "stateMutability": "nonpayable",
      "type": "constructor"
    },
    {
      "anonymous": false,
      "inputs": [
        {
          "components": [
            {
              "internalType": "bool",
              "name": "active",
              "type": "bool"
            },
            {
              "internalType": "uint256",
              "name": "id",
              "type": "uint256"
            },
            {
              "internalType": "uint256",
              "name": "tokenId",
              "type": "uint256"
            },
            {
              "internalType": "uint256",
              "name": "price",
              "type": "uint256"
            },
            {
              "internalType": "uint256",
              "name": "activeIndex",
              "type": "uint256"
            },
            {
              "internalType": "uint256",
              "name": "userActiveIndex",
              "type": "uint256"
            },
            {
              "internalType": "address",
              "name": "owner",
              "type": "address"
            },
            {
              "internalType": "string",
              "name": "tokenURI",
              "type": "string"
            }
          ],
          "indexed": false,
          "internalType": "struct Market.Listing",
          "name": "listing",
          "type": "tuple"
        }
      ],
      "name": "AddedListing",
      "type": "event"
    },
    {
      "anonymous": false,
      "inputs": [
        {
          "components": [
            {
              "internalType": "bool",
              "name": "active",
              "type": "bool"
            },
            {
              "internalType": "uint256",
              "name": "id",
              "type": "uint256"
            },
            {
              "internalType": "uint256",
              "name": "tokenId",
              "type": "uint256"
            },
            {
              "internalType": "uint256",
              "name": "price",
              "type": "uint256"
            },
            {
              "internalType": "uint256",
              "name": "activeIndex",
              "type": "uint256"
            },
            {
              "internalType": "uint256",
              "name": "userActiveIndex",
              "type": "uint256"
            },
            {
              "internalType": "address",
              "name": "owner",
              "type": "address"
            },
            {
              "internalType": "string",
              "name": "tokenURI",
              "type": "string"
            }
          ],
          "indexed": false,
          "internalType": "struct Market.Listing",
          "name": "listing",
          "type": "tuple"
        }
      ],
      "name": "CanceledListing",
      "type": "event"
    },
    {
      "anonymous": false,
      "inputs": [
        {
          "components": [
            {
              "components": [
                {
                  "internalType": "bool",
                  "name": "active",
                  "type": "bool"
                },
                {
                  "internalType": "uint256",
                  "name": "id",
                  "type": "uint256"
                },
                {
                  "internalType": "uint256",
                  "name": "tokenId",
                  "type": "uint256"
                },
                {
                  "internalType": "uint256",
                  "name": "price",
                  "type": "uint256"
                },
                {
                  "internalType": "uint256",
                  "name": "activeIndex",
                  "type": "uint256"
                },
                {
                  "internalType": "uint256",
                  "name": "userActiveIndex",
                  "type": "uint256"
                },
                {
                  "internalType": "address",
                  "name": "owner",
                  "type": "address"
                },
                {
                  "internalType": "string",
                  "name": "tokenURI",
                  "type": "string"
                }
              ],
              "internalType": "struct Market.Listing",
              "name": "listing",
              "type": "tuple"
            },
            {
              "internalType": "address",
              "name": "buyer",
              "type": "address"
            }
          ],
          "indexed": false,
          "internalType": "struct Market.Purchase",
          "name": "listing",
          "type": "tuple"
        }
      ],
      "name": "FilledListing",
      "type": "event"
    },
    {
      "anonymous": false,
      "inputs": [
        {
          "indexed": true,
          "internalType": "address",
          "name": "previousOwner",
          "type": "address"
        },
        {
          "indexed": true,
          "internalType": "address",
          "name": "newOwner",
          "type": "address"
        }
      ],
      "name": "OwnershipTransferred",
      "type": "event"
    },
    {
      "anonymous": false,
      "inputs": [
        {
          "components": [
            {
              "internalType": "bool",
              "name": "active",
              "type": "bool"
            },
            {
              "internalType": "uint256",
              "name": "id",
              "type": "uint256"
            },
            {
              "internalType": "uint256",
              "name": "tokenId",
              "type": "uint256"
            },
            {
              "internalType": "uint256",
              "name": "price",
              "type": "uint256"
            },
            {
              "internalType": "uint256",
              "name": "activeIndex",
              "type": "uint256"
            },
            {
              "internalType": "uint256",
              "name": "userActiveIndex",
              "type": "uint256"
            },
            {
              "internalType": "address",
              "name": "owner",
              "type": "address"
            },
            {
              "internalType": "string",
              "name": "tokenURI",
              "type": "string"
            }
          ],
          "indexed": false,
          "internalType": "struct Market.Listing",
          "name": "listing",
          "type": "tuple"
        }
      ],
      "name": "UpdateListing",
      "type": "event"
    },
    {
      "inputs": [
        {
          "internalType": "uint256",
          "name": "",
          "type": "uint256"
        }
      ],
      "name": "activeListings",
      "outputs": [
        {
          "internalType": "uint256",
          "name": "",
          "type": "uint256"
        }
      ],
      "stateMutability": "view",
      "type": "function",
      "constant": true
    },
    {
      "inputs": [],
      "name": "communityFeePercent",
      "outputs": [
        {
          "internalType": "uint256",
          "name": "",
          "type": "uint256"
        }
      ],
      "stateMutability": "view",
      "type": "function",
      "constant": true
    },
    {
      "inputs": [],
      "name": "communityHoldings",
      "outputs": [
        {
          "internalType": "uint256",
          "name": "",
          "type": "uint256"
        }
      ],
      "stateMutability": "view",
      "type": "function",
      "constant": true
    },
    {
      "inputs": [
        {
          "internalType": "uint256",
          "name": "",
          "type": "uint256"
        }
      ],
      "name": "communityRewards",
      "outputs": [
        {
          "internalType": "uint256",
          "name": "",
          "type": "uint256"
        }
      ],
      "stateMutability": "view",
      "type": "function",
      "constant": true
    },
    {
      "inputs": [],
      "name": "emergencyDelisting",
      "outputs": [
        {
          "internalType": "bool",
          "name": "",
          "type": "bool"
        }
      ],
      "stateMutability": "view",
      "type": "function",
      "constant": true
    },
    {
      "inputs": [],
      "name": "highestSalePrice",
      "outputs": [
        {
          "internalType": "uint256",
          "name": "",
          "type": "uint256"
        }
      ],
      "stateMutability": "view",
      "type": "function",
      "constant": true
    },
    {
      "inputs": [],
      "name": "isMarketOpen",
      "outputs": [
        {
          "internalType": "bool",
          "name": "",
          "type": "bool"
        }
      ],
      "stateMutability": "view",
      "type": "function",
      "constant": true
    },
    {
      "inputs": [
        {
          "internalType": "uint256",
          "name": "",
          "type": "uint256"
        }
      ],
      "name": "listings",
      "outputs": [
        {
          "internalType": "bool",
          "name": "active",
          "type": "bool"
        },
        {
          "internalType": "uint256",
          "name": "id",
          "type": "uint256"
        },
        {
          "internalType": "uint256",
          "name": "tokenId",
          "type": "uint256"
        },
        {
          "internalType": "uint256",
          "name": "price",
          "type": "uint256"
        },
        {
          "internalType": "uint256",
          "name": "activeIndex",
          "type": "uint256"
        },
        {
          "internalType": "uint256",
          "name": "userActiveIndex",
          "type": "uint256"
        },
        {
          "internalType": "address",
          "name": "owner",
          "type": "address"
        },
        {
          "internalType": "string",
          "name": "tokenURI",
          "type": "string"
        }
      ],
      "stateMutability": "view",
      "type": "function",
      "constant": true
    },
    {
      "inputs": [],
      "name": "marketFeePercent",
      "outputs": [
        {
          "internalType": "uint256",
          "name": "",
          "type": "uint256"
        }
      ],
      "stateMutability": "view",
      "type": "function",
      "constant": true
    },
    {
      "inputs": [],
      "name": "owner",
      "outputs": [
        {
          "internalType": "address",
          "name": "",
          "type": "address"
        }
      ],
      "stateMutability": "view",
      "type": "function",
      "constant": true
    },
    {
      "inputs": [],
      "name": "renounceOwnership",
      "outputs": [],
      "stateMutability": "nonpayable",
      "type": "function"
    },
    {
      "inputs": [],
      "name": "totalGivenRewardsPerToken",
      "outputs": [
        {
          "internalType": "uint256",
          "name": "",
          "type": "uint256"
        }
      ],
      "stateMutability": "view",
      "type": "function",
      "constant": true
    },
    {
      "inputs": [],
      "name": "totalSales",
      "outputs": [
        {
          "internalType": "uint256",
          "name": "",
          "type": "uint256"
        }
      ],
      "stateMutability": "view",
      "type": "function",
      "constant": true
    },
    {
      "inputs": [],
      "name": "totalVolume",
      "outputs": [
        {
          "internalType": "uint256",
          "name": "",
          "type": "uint256"
        }
      ],
      "stateMutability": "view",
      "type": "function",
      "constant": true
    },
    {
      "inputs": [
        {
          "internalType": "address",
          "name": "newOwner",
          "type": "address"
        }
      ],
      "name": "transferOwnership",
      "outputs": [],
      "stateMutability": "nonpayable",
      "type": "function"
    },
    {
      "inputs": [
        {
          "internalType": "address",
          "name": "",
          "type": "address"
        },
        {
          "internalType": "uint256",
          "name": "",
          "type": "uint256"
        }
      ],
      "name": "userActiveListings",
      "outputs": [
        {
          "internalType": "uint256",
          "name": "",
          "type": "uint256"
        }
      ],
      "stateMutability": "view",
      "type": "function",
      "constant": true
    },
    {
      "inputs": [],
      "name": "openMarket",
      "outputs": [],
      "stateMutability": "nonpayable",
      "type": "function"
    },
    {
      "inputs": [],
      "name": "closeMarket",
      "outputs": [],
      "stateMutability": "nonpayable",
      "type": "function"
    },
    {
      "inputs": [],
      "name": "allowEmergencyDelisting",
      "outputs": [],
      "stateMutability": "nonpayable",
      "type": "function"
    },
    {
      "inputs": [],
      "name": "totalListings",
      "outputs": [
        {
          "internalType": "uint256",
          "name": "",
          "type": "uint256"
        }
      ],
      "stateMutability": "view",
      "type": "function",
      "constant": true
    },
    {
      "inputs": [],
      "name": "totalActiveListings",
      "outputs": [
        {
          "internalType": "uint256",
          "name": "",
          "type": "uint256"
        }
      ],
      "stateMutability": "view",
      "type": "function",
      "constant": true
    },
    {
      "inputs": [
        {
          "internalType": "uint256",
          "name": "from",
          "type": "uint256"
        },
        {
          "internalType": "uint256",
          "name": "length",
          "type": "uint256"
        }
      ],
      "name": "getActiveListings",
      "outputs": [
        {
          "components": [
            {
              "internalType": "bool",
              "name": "active",
              "type": "bool"
            },
            {
              "internalType": "uint256",
              "name": "id",
              "type": "uint256"
            },
            {
              "internalType": "uint256",
              "name": "tokenId",
              "type": "uint256"
            },
            {
              "internalType": "uint256",
              "name": "price",
              "type": "uint256"
            },
            {
              "internalType": "uint256",
              "name": "activeIndex",
              "type": "uint256"
            },
            {
              "internalType": "uint256",
              "name": "userActiveIndex",
              "type": "uint256"
            },
            {
              "internalType": "address",
              "name": "owner",
              "type": "address"
            },
            {
              "internalType": "string",
              "name": "tokenURI",
              "type": "string"
            }
          ],
          "internalType": "struct Market.Listing[]",
          "name": "listing",
          "type": "tuple[]"
        }
      ],
      "stateMutability": "view",
      "type": "function",
      "constant": true
    },
    {
      "inputs": [],
      "name": "getMyActiveListingsCount",
      "outputs": [
        {
          "internalType": "uint256",
          "name": "",
          "type": "uint256"
        }
      ],
      "stateMutability": "view",
      "type": "function",
      "constant": true
    },
    {
      "inputs": [
        {
          "internalType": "uint256",
          "name": "from",
          "type": "uint256"
        },
        {
          "internalType": "uint256",
          "name": "length",
          "type": "uint256"
        }
      ],
      "name": "getMyActiveListings",
      "outputs": [
        {
          "components": [
            {
              "internalType": "bool",
              "name": "active",
              "type": "bool"
            },
            {
              "internalType": "uint256",
              "name": "id",
              "type": "uint256"
            },
            {
              "internalType": "uint256",
              "name": "tokenId",
              "type": "uint256"
            },
            {
              "internalType": "uint256",
              "name": "price",
              "type": "uint256"
            },
            {
              "internalType": "uint256",
              "name": "activeIndex",
              "type": "uint256"
            },
            {
              "internalType": "uint256",
              "name": "userActiveIndex",
              "type": "uint256"
            },
            {
              "internalType": "address",
              "name": "owner",
              "type": "address"
            },
            {
              "internalType": "string",
              "name": "tokenURI",
              "type": "string"
            }
          ],
          "internalType": "struct Market.Listing[]",
          "name": "listing",
          "type": "tuple[]"
        }
      ],
      "stateMutability": "view",
      "type": "function",
      "constant": true
    },
    {
      "inputs": [
        {
          "internalType": "uint256",
          "name": "tokenId",
          "type": "uint256"
        },
        {
          "internalType": "uint256",
          "name": "price",
          "type": "uint256"
        }
      ],
      "name": "addListing",
      "outputs": [],
      "stateMutability": "nonpayable",
      "type": "function"
    },
    {
      "inputs": [
        {
          "internalType": "uint256",
          "name": "id",
          "type": "uint256"
        },
        {
          "internalType": "uint256",
          "name": "price",
          "type": "uint256"
        }
      ],
      "name": "updateListing",
      "outputs": [],
      "stateMutability": "nonpayable",
      "type": "function"
    },
    {
      "inputs": [
        {
          "internalType": "uint256",
          "name": "id",
          "type": "uint256"
        }
      ],
      "name": "cancelListing",
      "outputs": [],
      "stateMutability": "nonpayable",
      "type": "function"
    },
    {
      "inputs": [
        {
          "internalType": "uint256",
          "name": "id",
          "type": "uint256"
        }
      ],
      "name": "fulfillListing",
      "outputs": [],
      "stateMutability": "payable",
      "type": "function",
      "payable": true
    },
    {
      "inputs": [],
      "name": "getRewards",
      "outputs": [
        {
          "internalType": "uint256",
          "name": "amount",
          "type": "uint256"
        }
      ],
      "stateMutability": "view",
      "type": "function",
      "constant": true
    },
    {
      "inputs": [
        {
          "internalType": "uint256",
          "name": "from",
          "type": "uint256"
        },
        {
          "internalType": "uint256",
          "name": "length",
          "type": "uint256"
        }
      ],
      "name": "claimListedRewards",
      "outputs": [],
      "stateMutability": "nonpayable",
      "type": "function"
    },
    {
      "inputs": [
        {
          "internalType": "uint256",
          "name": "from",
          "type": "uint256"
        },
        {
          "internalType": "uint256",
          "name": "length",
          "type": "uint256"
        }
      ],
      "name": "claimOwnedRewards",
      "outputs": [],
      "stateMutability": "nonpayable",
      "type": "function"
    },
    {
      "inputs": [],
      "name": "claimRewards",
      "outputs": [],
      "stateMutability": "nonpayable",
      "type": "function"
    },
    {
      "inputs": [
        {
          "internalType": "uint256",
          "name": "newDistFee",
          "type": "uint256"
        },
        {
          "internalType": "uint256",
          "name": "newMarketFee",
          "type": "uint256"
        }
      ],
      "name": "adjustFees",
      "outputs": [],
      "stateMutability": "nonpayable",
      "type": "function"
    },
    {
      "inputs": [
        {
          "internalType": "uint256",
          "name": "listingID",
          "type": "uint256"
        }
      ],
      "name": "emergencyDelist",
      "outputs": [],
      "stateMutability": "nonpayable",
      "type": "function"
    },
    {
      "inputs": [],
      "name": "withdrawableBalance",
      "outputs": [
        {
          "internalType": "uint256",
          "name": "value",
          "type": "uint256"
        }
      ],
      "stateMutability": "view",
      "type": "function",
      "constant": true
    },
    {
      "inputs": [],
      "name": "withdrawBalance",
      "outputs": [],
      "stateMutability": "nonpayable",
      "type": "function"
    },
    {
      "inputs": [],
      "name": "emergencyWithdraw",
      "outputs": [],
      "stateMutability": "nonpayable",
      "type": "function"
    }
  ],
  "bytecode": "0x60806040526000600755600060085560006009556000600a556000600b556000600c556000600d556000600e60006101000a81548160ff0219169083151502179055506000600e60016101000a81548160ff0219169083151502179055503480156200006a57600080fd5b506040516200564a3803806200564a833981810160405281019062000090919062000348565b620000b0620000a4620001d760201b60201c565b620001df60201b60201c565b6064821115620000f7576040517f08c379a0000000000000000000000000000000000000000000000000000000008152600401620000ee906200042b565b60405180910390fd5b60648111156200013e576040517f08c379a000000000000000000000000000000000000000000000000000000000815260040162000135906200042b565b60405180910390fd5b82600160006101000a81548173ffffffffffffffffffffffffffffffffffffffff021916908373ffffffffffffffffffffffffffffffffffffffff16021790555082600260006101000a81548173ffffffffffffffffffffffffffffffffffffffff021916908373ffffffffffffffffffffffffffffffffffffffff16021790555081600881905550806009819055505050506200044d565b600033905090565b60008060009054906101000a900473ffffffffffffffffffffffffffffffffffffffff169050816000806101000a81548173ffffffffffffffffffffffffffffffffffffffff021916908373ffffffffffffffffffffffffffffffffffffffff1602179055508173ffffffffffffffffffffffffffffffffffffffff168173ffffffffffffffffffffffffffffffffffffffff167f8be0079c531659141344cd1fd0a4f28419497f9722a3daafe3b4186f6b6457e060405160405180910390a35050565b600080fd5b600073ffffffffffffffffffffffffffffffffffffffff82169050919050565b6000620002d582620002a8565b9050919050565b620002e781620002c8565b8114620002f357600080fd5b50565b6000815190506200030781620002dc565b92915050565b6000819050919050565b62000322816200030d565b81146200032e57600080fd5b50565b600081519050620003428162000317565b92915050565b600080600060608486031215620003645762000363620002a3565b5b60006200037486828701620002f6565b9350506020620003878682870162000331565b92505060406200039a8682870162000331565b9150509250925092565b600082825260208201905092915050565b7f4769766520612070657263656e746167652076616c75652066726f6d2030207460008201527f6f20313030000000000000000000000000000000000000000000000000000000602082015250565b600062000413602583620003a4565b91506200042082620003b5565b604082019050919050565b60006020820190508181036000830152620004468162000404565b9050919050565b6151ed806200045d6000396000f3fe60806040526004361061021a5760003560e01c8063741520b011610123578063c06d61f5116100ab578063db2e21bc1161006f578063db2e21bc14610732578063de74e57b14610749578063e62d64f61461078d578063f2fde38b146107b8578063f7cae643146107e15761021a565b8063c06d61f51461064b578063c128b23114610688578063c511ed5e146106c5578063c78b616c146106dc578063d4ce85f3146107075761021a565b8063aaf51b7e116100f2578063aaf51b7e14610566578063aca20f0714610591578063b2245558146105bc578063b59da06b146105f9578063b9d2326e146106225761021a565b8063741520b0146104bc57806374ee6d4f146104e7578063836cf6e9146105125780638da5cb5b1461053b5761021a565b80633fe1e117116101a657806361cf48631161017557806361cf4863146103e9578063632541b4146104265780636605ff661461044f5780636d0c689e1461047a578063715018a6146104a55761021a565b80633fe1e117146103655780635f81a57c146103905780635fd8c710146103bb578063607133a0146103d25761021a565b8063297dc18c116101ed578063297dc18c146102c7578063305a67a8146102f25780633606f5b91461031b578063372500ab146103325780633912fc85146103495761021a565b80630179ea881461021f5780630572b0cc1461024857806315f4d22a1461027357806325507cbe1461029e575b600080fd5b34801561022b57600080fd5b5061024660048036038101906102419190613cc5565b61081e565b005b34801561025457600080fd5b5061025d610a10565b60405161026a9190613d14565b60405180910390f35b34801561027f57600080fd5b50610288610ce6565b6040516102959190613d14565b60405180910390f35b3480156102aa57600080fd5b506102c560048036038101906102c09190613cc5565b610d30565b005b3480156102d357600080fd5b506102dc610faf565b6040516102e99190613d14565b60405180910390f35b3480156102fe57600080fd5b5061031960048036038101906103149190613d2f565b610fb5565b005b34801561032757600080fd5b50610330611346565b005b34801561033e57600080fd5b506103476113df565b005b610363600480360381019061035e9190613d2f565b611762565b005b34801561037157600080fd5b5061037a611f1b565b6040516103879190613d14565b60405180910390f35b34801561039c57600080fd5b506103a5611f21565b6040516103b29190613d14565b60405180910390f35b3480156103c757600080fd5b506103d0611f27565b005b3480156103de57600080fd5b506103e7612000565b005b3480156103f557600080fd5b50610410600480360381019061040b9190613d2f565b612099565b60405161041d9190613d14565b60405180910390f35b34801561043257600080fd5b5061044d60048036038101906104489190613d2f565b6120bd565b005b34801561045b57600080fd5b50610464612370565b6040516104719190613d14565b60405180910390f35b34801561048657600080fd5b5061048f612376565b60405161049c9190613d14565b60405180910390f35b3480156104b157600080fd5b506104ba61237c565b005b3480156104c857600080fd5b506104d1612404565b6040516104de9190613d14565b60405180910390f35b3480156104f357600080fd5b506104fc612411565b6040516105099190613d14565b60405180910390f35b34801561051e57600080fd5b5061053960048036038101906105349190613cc5565b612417565b005b34801561054757600080fd5b506105506128ab565b60405161055d9190613d9d565b60405180910390f35b34801561057257600080fd5b5061057b6128d4565b6040516105889190613d14565b60405180910390f35b34801561059d57600080fd5b506105a66128da565b6040516105b39190613dd3565b60405180910390f35b3480156105c857600080fd5b506105e360048036038101906105de9190613e1a565b6128ed565b6040516105f09190613d14565b60405180910390f35b34801561060557600080fd5b50610620600480360381019061061b9190613cc5565b61291e565b005b34801561062e57600080fd5b5061064960048036038101906106449190613cc5565b612b69565b005b34801561065757600080fd5b50610672600480360381019061066d9190613cc5565b612c7f565b60405161067f9190614092565b60405180910390f35b34801561069457600080fd5b506106af60048036038101906106aa9190613cc5565b613006565b6040516106bc9190614092565b60405180910390f35b3480156106d157600080fd5b506106da613313565b005b3480156106e857600080fd5b506106f16133ac565b6040516106fe9190613d14565b60405180910390f35b34801561071357600080fd5b5061071c6133b9565b6040516107299190613dd3565b60405180910390f35b34801561073e57600080fd5b506107476133cc565b005b34801561075557600080fd5b50610770600480360381019061076b9190613d2f565b613498565b6040516107849897969594939291906140fe565b60405180910390f35b34801561079957600080fd5b506107a26135a5565b6040516107af9190613d14565b60405180910390f35b3480156107c457600080fd5b506107df60048036038101906107da9190614183565b6135cd565b005b3480156107ed57600080fd5b5061080860048036038101906108039190613d2f565b6136c5565b6040516108159190613d14565b60405180910390f35b6003805490508210610865576040517f08c379a000000000000000000000000000000000000000000000000000000000815260040161085c906141fc565b60405180910390fd5b600382815481106108795761087861421c565b5b906000526020600020906008020160000160009054906101000a900460ff166108d7576040517f08c379a00000000000000000000000000000000000000000000000000000000081526004016108ce90614297565b60405180910390fd5b3373ffffffffffffffffffffffffffffffffffffffff16600383815481106109025761090161421c565b5b906000526020600020906008020160060160009054906101000a900473ffffffffffffffffffffffffffffffffffffffff1673ffffffffffffffffffffffffffffffffffffffff161461098a576040517f08c379a000000000000000000000000000000000000000000000000000000000815260040161098190614303565b60405180910390fd5b806003838154811061099f5761099e61421c565b5b9060005260206000209060080201600301819055507f6573c92d06624f1550d2e52db2c9ef1d734beffdbb4d55cc366e6a5a4302edbb600383815481106109e9576109e861421c565b5b9060005260206000209060080201604051610a0491906145a9565b60405180910390a15050565b600080600160009054906101000a900473ffffffffffffffffffffffffffffffffffffffff1673ffffffffffffffffffffffffffffffffffffffff166370a08231336040518263ffffffff1660e01b8152600401610a6e9190613d9d565b602060405180830381865afa158015610a8b573d6000803e3d6000fd5b505050506040513d601f19601f82011682018060405250810190610aaf91906145e0565b90506000805b82811015610bac576000600160009054906101000a900473ffffffffffffffffffffffffffffffffffffffff1673ffffffffffffffffffffffffffffffffffffffff16632f745c5933846040518363ffffffff1660e01b8152600401610b1c92919061460d565b602060405180830381865afa158015610b39573d6000803e3d6000fd5b505050506040513d601f19601f82011682018060405250810190610b5d91906145e0565b9050612710811015610b98576006600082815260200190815260200160002054600d54610b8a9190614665565b83610b959190614699565b92505b508080610ba4906146ef565b915050610ab5565b506000600560003373ffffffffffffffffffffffffffffffffffffffff1673ffffffffffffffffffffffffffffffffffffffff168152602001908152602001600020805480602002602001604051908101604052809291908181526020018280548015610c3857602002820191906000526020600020905b815481526020019060010190808311610c24575b5050505050905060005b8151811015610cdc5760006003838381518110610c6257610c6161421c565b5b602002602001015181548110610c7b57610c7a61421c565b5b9060005260206000209060080201600201549050612710811015610cc8576006600082815260200190815260200160002054600d54610cba9190614665565b84610cc59190614699565b93505b508080610cd4906146ef565b915050610c42565b5081935050505090565b6000600560003373ffffffffffffffffffffffffffffffffffffffff1673ffffffffffffffffffffffffffffffffffffffff16815260200190815260200160002080549050905090565b6000600160009054906101000a900473ffffffffffffffffffffffffffffffffffffffff1673ffffffffffffffffffffffffffffffffffffffff166370a08231336040518263ffffffff1660e01b8152600401610d8d9190613d9d565b602060405180830381865afa158015610daa573d6000803e3d6000fd5b505050506040513d601f19601f82011682018060405250810190610dce91906145e0565b9050808284610ddd9190614699565b1115610e1e576040517f08c379a0000000000000000000000000000000000000000000000000000000008152600401610e1590614784565b60405180910390fd5b600080600754905060005b84811015610f59576000600160009054906101000a900473ffffffffffffffffffffffffffffffffffffffff1673ffffffffffffffffffffffffffffffffffffffff16632f745c59338985610e7e9190614699565b6040518363ffffffff1660e01b8152600401610e9b92919061460d565b602060405180830381865afa158015610eb8573d6000803e3d6000fd5b505050506040513d601f19601f82011682018060405250810190610edc91906145e0565b9050612710811015610f455760006006600083815260200190815260200160002054600d54610f0b9190614665565b90508085610f199190614699565b94508084610f279190614665565b9350600d546006600084815260200190815260200160002081905550505b508080610f51906146ef565b915050610e29565b50806007819055503373ffffffffffffffffffffffffffffffffffffffff166108fc839081150290604051600060405180830381858888f19350505050158015610fa7573d6000803e3d6000fd5b505050505050565b60075481565b6003805490508110610ffc576040517f08c379a0000000000000000000000000000000000000000000000000000000008152600401610ff3906141fc565b60405180910390fd5b6000600382815481106110125761101161421c565b5b9060005260206000209060080201604051806101000160405290816000820160009054906101000a900460ff1615151515815260200160018201548152602001600282015481526020016003820154815260200160048201548152602001600582015481526020016006820160009054906101000a900473ffffffffffffffffffffffffffffffffffffffff1673ffffffffffffffffffffffffffffffffffffffff1673ffffffffffffffffffffffffffffffffffffffff1681526020016007820180546110df906143e4565b80601f016020809104026020016040519081016040528092919081815260200182805461110b906143e4565b80156111585780601f1061112d57610100808354040283529160200191611158565b820191906000526020600020905b81548152906001019060200180831161113b57829003601f168201915b505050505081525050905080600001516111a7576040517f08c379a000000000000000000000000000000000000000000000000000000000815260040161119e90614297565b60405180910390fd5b3373ffffffffffffffffffffffffffffffffffffffff168160c0015173ffffffffffffffffffffffffffffffffffffffff1614611219576040517f08c379a000000000000000000000000000000000000000000000000000000000815260040161121090614303565b60405180910390fd5b61122681608001516136dd565b611234338260a0015161382d565b60006003838154811061124a5761124961421c565b5b906000526020600020906008020160000160006101000a81548160ff0219169083151502179055507fe528a318be90ec19d902d617245e04bad4f16f80e3d921e41e967c502c366bf4816040516112a19190614854565b60405180910390a1600160009054906101000a900473ffffffffffffffffffffffffffffffffffffffff1673ffffffffffffffffffffffffffffffffffffffff166323b872dd308360c0015184604001516040518463ffffffff1660e01b815260040161131093929190614876565b600060405180830381600087803b15801561132a57600080fd5b505af115801561133e573d6000803e3d6000fd5b505050505050565b61134e613aaf565b73ffffffffffffffffffffffffffffffffffffffff1661136c6128ab565b73ffffffffffffffffffffffffffffffffffffffff16146113c2576040517f08c379a00000000000000000000000000000000000000000000000000000000081526004016113b9906148f9565b60405180910390fd5b6001600e60006101000a81548160ff021916908315150217905550565b6000600160009054906101000a900473ffffffffffffffffffffffffffffffffffffffff1673ffffffffffffffffffffffffffffffffffffffff166370a08231336040518263ffffffff1660e01b815260040161143c9190613d9d565b602060405180830381865afa158015611459573d6000803e3d6000fd5b505050506040513d601f19601f8201168201806040525081019061147d91906145e0565b9050600080600754905060005b838110156115af576000600160009054906101000a900473ffffffffffffffffffffffffffffffffffffffff1673ffffffffffffffffffffffffffffffffffffffff16632f745c5933846040518363ffffffff1660e01b81526004016114f192919061460d565b602060405180830381865afa15801561150e573d6000803e3d6000fd5b505050506040513d601f19601f8201168201806040525081019061153291906145e0565b905061271081101561159b5760006006600083815260200190815260200160002054600d546115619190614665565b9050808561156f9190614699565b9450808461157d9190614665565b9350600d546006600084815260200190815260200160002081905550505b5080806115a7906146ef565b91505061148a565b506000600560003373ffffffffffffffffffffffffffffffffffffffff1673ffffffffffffffffffffffffffffffffffffffff16815260200190815260200160002080548060200260200160405190810160405280929190818152602001828054801561163b57602002820191906000526020600020905b815481526020019060010190808311611627575b5050505050905060005b815181101561170d57600060038383815181106116655761166461421c565b5b60200260200101518154811061167e5761167d61421c565b5b90600052602060002090600802016002015490506127108110156116f95760006006600083815260200190815260200160002054600d546116bf9190614665565b905080866116cd9190614699565b955080856116db9190614665565b9450600d546006600084815260200190815260200160002081905550505b508080611705906146ef565b915050611645565b50816007819055503373ffffffffffffffffffffffffffffffffffffffff166108fc849081150290604051600060405180830381858888f1935050505015801561175b573d6000803e3d6000fd5b5050505050565b60038054905081106117a9576040517f08c379a00000000000000000000000000000000000000000000000000000000081526004016117a0906141fc565b60405180910390fd5b6000600382815481106117bf576117be61421c565b5b9060005260206000209060080201604051806101000160405290816000820160009054906101000a900460ff1615151515815260200160018201548152602001600282015481526020016003820154815260200160048201548152602001600582015481526020016006820160009054906101000a900473ffffffffffffffffffffffffffffffffffffffff1673ffffffffffffffffffffffffffffffffffffffff1673ffffffffffffffffffffffffffffffffffffffff16815260200160078201805461188c906143e4565b80601f01602080910402602001604051908101604052809291908181526020018280546118b8906143e4565b80156119055780601f106118da57610100808354040283529160200191611905565b820191906000526020600020905b8154815290600101906020018083116118e857829003601f168201915b50505050508152505090508060000151611954576040517f08c379a000000000000000000000000000000000000000000000000000000000815260040161194b90614297565b60405180910390fd5b806060015134101561199b576040517f08c379a000000000000000000000000000000000000000000000000000000000815260040161199290614965565b60405180910390fd5b8060c0015173ffffffffffffffffffffffffffffffffffffffff163373ffffffffffffffffffffffffffffffffffffffff161415611a0e576040517f08c379a0000000000000000000000000000000000000000000000000000000008152600401611a05906149d1565b60405180910390fd5b600080600260009054906101000a900473ffffffffffffffffffffffffffffffffffffffff1673ffffffffffffffffffffffffffffffffffffffff16632a55205a846040015185606001516040518363ffffffff1660e01b8152600401611a769291906149f1565b6040805180830381865afa158015611a92573d6000803e3d6000fd5b505050506040513d601f19601f82011682018060405250810190611ab69190614a2f565b91509150600060646008548560600151611ad09190614a6f565b611ada9190614af8565b9050600060646009548660600151611af29190614a6f565b611afc9190614af8565b905060008183858860600151611b129190614665565b611b1c9190614665565b611b269190614665565b9050600060038881548110611b3e57611b3d61421c565b5b906000526020600020906008020160000160006101000a81548160ff021916908315150217905550611b7386608001516136dd565b611b858660c001518760a0015161382d565b8560600151600a6000828254611b9b9190614699565b925050819055506001600b6000828254611bb59190614699565b92505081905550600c5486606001511115611bd6578560600151600c819055505b600061271084611be69190614af8565b905080600d6000828254611bfa9190614699565b9250508190555061271081611c0f9190614a6f565b60076000828254611c209190614699565b925050819055507f39291c34aa742133bb74dc9eff45ef96ee9d628242ab8e2bd2dc403f8679661a604051806040016040528060038b81548110611c6757611c6661421c565b5b9060005260206000209060080201604051806101000160405290816000820160009054906101000a900460ff1615151515815260200160018201548152602001600282015481526020016003820154815260200160048201548152602001600582015481526020016006820160009054906101000a900473ffffffffffffffffffffffffffffffffffffffff1673ffffffffffffffffffffffffffffffffffffffff1673ffffffffffffffffffffffffffffffffffffffff168152602001600782018054611d34906143e4565b80601f0160208091040260200160405190810160405280929190818152602001828054611d60906143e4565b8015611dad5780601f10611d8257610100808354040283529160200191611dad565b820191906000526020600020905b815481529060010190602001808311611d9057829003601f168201915b50505050508152505081526020013373ffffffffffffffffffffffffffffffffffffffff16815250604051611de29190614b66565b60405180910390a18660c0015173ffffffffffffffffffffffffffffffffffffffff166108fc839081150290604051600060405180830381858888f19350505050158015611e34573d6000803e3d6000fd5b508573ffffffffffffffffffffffffffffffffffffffff166108fc869081150290604051600060405180830381858888f19350505050158015611e7b573d6000803e3d6000fd5b50600160009054906101000a900473ffffffffffffffffffffffffffffffffffffffff1673ffffffffffffffffffffffffffffffffffffffff166323b872dd30338a604001516040518463ffffffff1660e01b8152600401611edf93929190614876565b600060405180830381600087803b158015611ef957600080fd5b505af1158015611f0d573d6000803e3d6000fd5b505050505050505050505050565b600c5481565b600a5481565b611f2f613aaf565b73ffffffffffffffffffffffffffffffffffffffff16611f4d6128ab565b73ffffffffffffffffffffffffffffffffffffffff1614611fa3576040517f08c379a0000000000000000000000000000000000000000000000000000000008152600401611f9a906148f9565b60405180910390fd5b6000611fad6135a5565b9050611fb7613aaf565b73ffffffffffffffffffffffffffffffffffffffff166108fc829081150290604051600060405180830381858888f19350505050158015611ffc573d6000803e3d6000fd5b5050565b612008613aaf565b73ffffffffffffffffffffffffffffffffffffffff166120266128ab565b73ffffffffffffffffffffffffffffffffffffffff161461207c576040517f08c379a0000000000000000000000000000000000000000000000000000000008152600401612073906148f9565b60405180910390fd5b6001600e60016101000a81548160ff021916908315150217905550565b600481815481106120a957600080fd5b906000526020600020016000915090505481565b600e60019054906101000a900460ff1680156120e65750600e60009054906101000a900460ff16155b612125576040517f08c379a000000000000000000000000000000000000000000000000000000000815260040161211c90614bd4565b60405180910390fd5b600380549050811061216c576040517f08c379a0000000000000000000000000000000000000000000000000000000008152600401612163906141fc565b60405180910390fd5b6000600382815481106121825761218161421c565b5b9060005260206000209060080201604051806101000160405290816000820160009054906101000a900460ff1615151515815260200160018201548152602001600282015481526020016003820154815260200160048201548152602001600582015481526020016006820160009054906101000a900473ffffffffffffffffffffffffffffffffffffffff1673ffffffffffffffffffffffffffffffffffffffff1673ffffffffffffffffffffffffffffffffffffffff16815260200160078201805461224f906143e4565b80601f016020809104026020016040519081016040528092919081815260200182805461227b906143e4565b80156122c85780601f1061229d576101008083540402835291602001916122c8565b820191906000526020600020905b8154815290600101906020018083116122ab57829003601f168201915b5050505050815250509050600160009054906101000a900473ffffffffffffffffffffffffffffffffffffffff1673ffffffffffffffffffffffffffffffffffffffff166323b872dd308360c0015184604001516040518463ffffffff1660e01b815260040161233a93929190614876565b600060405180830381600087803b15801561235457600080fd5b505af1158015612368573d6000803e3d6000fd5b505050505050565b600b5481565b600d5481565b612384613aaf565b73ffffffffffffffffffffffffffffffffffffffff166123a26128ab565b73ffffffffffffffffffffffffffffffffffffffff16146123f8576040517f08c379a00000000000000000000000000000000000000000000000000000000081526004016123ef906148f9565b60405180910390fd5b6124026000613ab7565b565b6000600480549050905090565b60085481565b600e60009054906101000a900460ff16612466576040517f08c379a000000000000000000000000000000000000000000000000000000000815260040161245d90614c40565b60405180910390fd5b61271082106124aa576040517f08c379a00000000000000000000000000000000000000000000000000000000081526004016124a190614cd2565b60405180910390fd5b600160009054906101000a900473ffffffffffffffffffffffffffffffffffffffff1673ffffffffffffffffffffffffffffffffffffffff16636352211e836040518263ffffffff1660e01b81526004016125059190613d14565b602060405180830381865afa158015612522573d6000803e3d6000fd5b505050506040513d601f19601f820116820180604052508101906125469190614cf2565b73ffffffffffffffffffffffffffffffffffffffff163373ffffffffffffffffffffffffffffffffffffffff16146125b3576040517f08c379a00000000000000000000000000000000000000000000000000000000081526004016125aa90614d6b565b60405180910390fd5b6000600380549050905060006040518061010001604052806001151581526020018381526020018581526020018481526020016004805490508152602001600560003373ffffffffffffffffffffffffffffffffffffffff1673ffffffffffffffffffffffffffffffffffffffff1681526020019081526020016000208054905081526020013373ffffffffffffffffffffffffffffffffffffffff168152602001604051806020016040528060008152508152509050600381908060018154018082558091505060019003906000526020600020906008020160009091909190915060008201518160000160006101000a81548160ff0219169083151502179055506020820151816001015560408201518160020155606082015181600301556080820151816004015560a0820151816005015560c08201518160060160006101000a81548173ffffffffffffffffffffffffffffffffffffffff021916908373ffffffffffffffffffffffffffffffffffffffff16021790555060e082015181600701908051906020019061274b929190613b7b565b505050600560003373ffffffffffffffffffffffffffffffffffffffff1673ffffffffffffffffffffffffffffffffffffffff16815260200190815260200160002082908060018154018082558091505060019003906000526020600020016000909190919091505560048290806001815401808255809150506001900390600052602060002001600090919091909150557ff8566eba27fcd34d4f5b8869ac3ea00164e8ad36697569f3671db38361d1cdb08160405161280c9190614854565b60405180910390a1600160009054906101000a900473ffffffffffffffffffffffffffffffffffffffff1673ffffffffffffffffffffffffffffffffffffffff166323b872dd3330876040518463ffffffff1660e01b815260040161287393929190614876565b600060405180830381600087803b15801561288d57600080fd5b505af11580156128a1573d6000803e3d6000fd5b5050505050505050565b60008060009054906101000a900473ffffffffffffffffffffffffffffffffffffffff16905090565b60095481565b600e60019054906101000a900460ff1681565b6005602052816000526040600020818154811061290957600080fd5b90600052602060002001600091509150505481565b600560003373ffffffffffffffffffffffffffffffffffffffff1673ffffffffffffffffffffffffffffffffffffffff16815260200190815260200160002080549050818361296d9190614699565b11156129ae576040517f08c379a00000000000000000000000000000000000000000000000000000000081526004016129a590614784565b60405180910390fd5b60008060075490506000600560003373ffffffffffffffffffffffffffffffffffffffff1673ffffffffffffffffffffffffffffffffffffffff168152602001908152602001600020805480602002602001604051908101604052809291908181526020018280548015612a4157602002820191906000526020600020905b815481526020019060010190808311612a2d575b5050505050905060005b8151811015612b135760006003838381518110612a6b57612a6a61421c565b5b602002602001015181548110612a8457612a8361421c565b5b9060005260206000209060080201600201549050612710811015612aff5760006006600083815260200190815260200160002054600d54612ac59190614665565b90508086612ad39190614699565b95508085612ae19190614665565b9450600d546006600084815260200190815260200160002081905550505b508080612b0b906146ef565b915050612a4b565b50816007819055503373ffffffffffffffffffffffffffffffffffffffff166108fc849081150290604051600060405180830381858888f19350505050158015612b61573d6000803e3d6000fd5b505050505050565b612b71613aaf565b73ffffffffffffffffffffffffffffffffffffffff16612b8f6128ab565b73ffffffffffffffffffffffffffffffffffffffff1614612be5576040517f08c379a0000000000000000000000000000000000000000000000000000000008152600401612bdc906148f9565b60405180910390fd5b6064821115612c29576040517f08c379a0000000000000000000000000000000000000000000000000000000008152600401612c2090614dfd565b60405180910390fd5b6064811115612c6d576040517f08c379a0000000000000000000000000000000000000000000000000000000008152600401612c6490614dfd565b60405180910390fd5b81600881905550806009819055505050565b60606000600560003373ffffffffffffffffffffffffffffffffffffffff1673ffffffffffffffffffffffffffffffffffffffff168152602001908152602001600020805490509050808385612cd59190614699565b1115612cea578381612ce79190614665565b92505b60008367ffffffffffffffff811115612d0657612d05614e1d565b5b604051908082528060200260200182016040528015612d3f57816020015b612d2c613c01565b815260200190600190039081612d245790505b50905060005b84811015612ffa5760006003600560003373ffffffffffffffffffffffffffffffffffffffff1673ffffffffffffffffffffffffffffffffffffffff1681526020019081526020016000208884612d9c9190614699565b81548110612dad57612dac61421c565b5b906000526020600020015481548110612dc957612dc861421c565b5b9060005260206000209060080201604051806101000160405290816000820160009054906101000a900460ff1615151515815260200160018201548152602001600282015481526020016003820154815260200160048201548152602001600582015481526020016006820160009054906101000a900473ffffffffffffffffffffffffffffffffffffffff1673ffffffffffffffffffffffffffffffffffffffff1673ffffffffffffffffffffffffffffffffffffffff168152602001600782018054612e96906143e4565b80601f0160208091040260200160405190810160405280929190818152602001828054612ec2906143e4565b8015612f0f5780601f10612ee457610100808354040283529160200191612f0f565b820191906000526020600020905b815481529060010190602001808311612ef257829003601f168201915b5050505050815250509050600160009054906101000a900473ffffffffffffffffffffffffffffffffffffffff1673ffffffffffffffffffffffffffffffffffffffff1663c87b56dd82604001516040518263ffffffff1660e01b8152600401612f799190613d14565b600060405180830381865afa158015612f96573d6000803e3d6000fd5b505050506040513d6000823e3d601f19601f82011682018060405250810190612fbf9190614f43565b8160e0018190525080838381518110612fdb57612fda61421c565b5b6020026020010181905250508080612ff2906146ef565b915050612d45565b50809250505092915050565b60606000600480549050905080838561301f9190614699565b11156130345783816130319190614665565b92505b60008367ffffffffffffffff8111156130505761304f614e1d565b5b60405190808252806020026020018201604052801561308957816020015b613076613c01565b81526020019060019003908161306e5790505b50905060005b848110156133075760006003600483896130a99190614699565b815481106130ba576130b961421c565b5b9060005260206000200154815481106130d6576130d561421c565b5b9060005260206000209060080201604051806101000160405290816000820160009054906101000a900460ff1615151515815260200160018201548152602001600282015481526020016003820154815260200160048201548152602001600582015481526020016006820160009054906101000a900473ffffffffffffffffffffffffffffffffffffffff1673ffffffffffffffffffffffffffffffffffffffff1673ffffffffffffffffffffffffffffffffffffffff1681526020016007820180546131a3906143e4565b80601f01602080910402602001604051908101604052809291908181526020018280546131cf906143e4565b801561321c5780601f106131f15761010080835404028352916020019161321c565b820191906000526020600020905b8154815290600101906020018083116131ff57829003601f168201915b5050505050815250509050600160009054906101000a900473ffffffffffffffffffffffffffffffffffffffff1673ffffffffffffffffffffffffffffffffffffffff1663c87b56dd82604001516040518263ffffffff1660e01b81526004016132869190613d14565b600060405180830381865afa1580156132a3573d6000803e3d6000fd5b505050506040513d6000823e3d601f19601f820116820180604052508101906132cc9190614f43565b8160e00181905250808383815181106132e8576132e761421c565b5b60200260200101819052505080806132ff906146ef565b91505061308f565b50809250505092915050565b61331b613aaf565b73ffffffffffffffffffffffffffffffffffffffff166133396128ab565b73ffffffffffffffffffffffffffffffffffffffff161461338f576040517f08c379a0000000000000000000000000000000000000000000000000000000008152600401613386906148f9565b60405180910390fd5b6000600e60006101000a81548160ff021916908315150217905550565b6000600380549050905090565b600e60009054906101000a900460ff1681565b6133d4613aaf565b73ffffffffffffffffffffffffffffffffffffffff166133f26128ab565b73ffffffffffffffffffffffffffffffffffffffff1614613448576040517f08c379a000000000000000000000000000000000000000000000000000000000815260040161343f906148f9565b60405180910390fd5b613450613aaf565b73ffffffffffffffffffffffffffffffffffffffff166108fc479081150290604051600060405180830381858888f19350505050158015613495573d6000803e3d6000fd5b50565b600381815481106134a857600080fd5b90600052602060002090600802016000915090508060000160009054906101000a900460ff16908060010154908060020154908060030154908060040154908060050154908060060160009054906101000a900473ffffffffffffffffffffffffffffffffffffffff1690806007018054613522906143e4565b80601f016020809104026020016040519081016040528092919081815260200182805461354e906143e4565b801561359b5780601f106135705761010080835404028352916020019161359b565b820191906000526020600020905b81548152906001019060200180831161357e57829003601f168201915b5050505050905088565b600060075447116135b957600090506135ca565b600754476135c79190614665565b90505b90565b6135d5613aaf565b73ffffffffffffffffffffffffffffffffffffffff166135f36128ab565b73ffffffffffffffffffffffffffffffffffffffff1614613649576040517f08c379a0000000000000000000000000000000000000000000000000000000008152600401613640906148f9565b60405180910390fd5b600073ffffffffffffffffffffffffffffffffffffffff168173ffffffffffffffffffffffffffffffffffffffff1614156136b9576040517f08c379a00000000000000000000000000000000000000000000000000000000081526004016136b090614ffe565b60405180910390fd5b6136c281613ab7565b50565b60066020528060005260406000206000915090505481565b600060048054905090506000811161372a576040517f08c379a00000000000000000000000000000000000000000000000000000000081526004016137219061506a565b60405180910390fd5b80821061376c576040517f08c379a0000000000000000000000000000000000000000000000000000000008152600401613763906150d6565b60405180910390fd5b600460018261377b9190614665565b8154811061378c5761378b61421c565b5b9060005260206000200154600483815481106137ab576137aa61421c565b5b9060005260206000200181905550816003600484815481106137d0576137cf61421c565b5b9060005260206000200154815481106137ec576137eb61421c565b5b9060005260206000209060080201600401819055506004805480613813576138126150f6565b5b600190038181906000526020600020016000905590555050565b6000600560008473ffffffffffffffffffffffffffffffffffffffff1673ffffffffffffffffffffffffffffffffffffffff168152602001908152602001600020805490509050600081116138b7576040517f08c379a00000000000000000000000000000000000000000000000000000000081526004016138ae90615197565b60405180910390fd5b8082106138f9576040517f08c379a00000000000000000000000000000000000000000000000000000000081526004016138f0906150d6565b60405180910390fd5b600560008473ffffffffffffffffffffffffffffffffffffffff1673ffffffffffffffffffffffffffffffffffffffff1681526020019081526020016000206001826139459190614665565b815481106139565761395561421c565b5b9060005260206000200154600560008573ffffffffffffffffffffffffffffffffffffffff1673ffffffffffffffffffffffffffffffffffffffff16815260200190815260200160002083815481106139b2576139b161421c565b5b9060005260206000200181905550816003600560008673ffffffffffffffffffffffffffffffffffffffff1673ffffffffffffffffffffffffffffffffffffffff1681526020019081526020016000208481548110613a1457613a1361421c565b5b906000526020600020015481548110613a3057613a2f61421c565b5b906000526020600020906008020160050181905550600560008473ffffffffffffffffffffffffffffffffffffffff1673ffffffffffffffffffffffffffffffffffffffff168152602001908152602001600020805480613a9457613a936150f6565b5b60019003818190600052602060002001600090559055505050565b600033905090565b60008060009054906101000a900473ffffffffffffffffffffffffffffffffffffffff169050816000806101000a81548173ffffffffffffffffffffffffffffffffffffffff021916908373ffffffffffffffffffffffffffffffffffffffff1602179055508173ffffffffffffffffffffffffffffffffffffffff168173ffffffffffffffffffffffffffffffffffffffff167f8be0079c531659141344cd1fd0a4f28419497f9722a3daafe3b4186f6b6457e060405160405180910390a35050565b828054613b87906143e4565b90600052602060002090601f016020900481019282613ba95760008555613bf0565b82601f10613bc257805160ff1916838001178555613bf0565b82800160010185558215613bf0579182015b82811115613bef578251825591602001919060010190613bd4565b5b509050613bfd9190613c5e565b5090565b6040518061010001604052806000151581526020016000815260200160008152602001600081526020016000815260200160008152602001600073ffffffffffffffffffffffffffffffffffffffff168152602001606081525090565b5b80821115613c77576000816000905550600101613c5f565b5090565b6000604051905090565b600080fd5b600080fd5b6000819050919050565b613ca281613c8f565b8114613cad57600080fd5b50565b600081359050613cbf81613c99565b92915050565b60008060408385031215613cdc57613cdb613c85565b5b6000613cea85828601613cb0565b9250506020613cfb85828601613cb0565b9150509250929050565b613d0e81613c8f565b82525050565b6000602082019050613d296000830184613d05565b92915050565b600060208284031215613d4557613d44613c85565b5b6000613d5384828501613cb0565b91505092915050565b600073ffffffffffffffffffffffffffffffffffffffff82169050919050565b6000613d8782613d5c565b9050919050565b613d9781613d7c565b82525050565b6000602082019050613db26000830184613d8e565b92915050565b60008115159050919050565b613dcd81613db8565b82525050565b6000602082019050613de86000830184613dc4565b92915050565b613df781613d7c565b8114613e0257600080fd5b50565b600081359050613e1481613dee565b92915050565b60008060408385031215613e3157613e30613c85565b5b6000613e3f85828601613e05565b9250506020613e5085828601613cb0565b9150509250929050565b600081519050919050565b600082825260208201905092915050565b6000819050602082019050919050565b613e8f81613db8565b82525050565b613e9e81613c8f565b82525050565b613ead81613d7c565b82525050565b600081519050919050565b600082825260208201905092915050565b60005b83811015613eed578082015181840152602081019050613ed2565b83811115613efc576000848401525b50505050565b6000601f19601f8301169050919050565b6000613f1e82613eb3565b613f288185613ebe565b9350613f38818560208601613ecf565b613f4181613f02565b840191505092915050565b600061010083016000830151613f656000860182613e86565b506020830151613f786020860182613e95565b506040830151613f8b6040860182613e95565b506060830151613f9e6060860182613e95565b506080830151613fb16080860182613e95565b5060a0830151613fc460a0860182613e95565b5060c0830151613fd760c0860182613ea4565b5060e083015184820360e0860152613fef8282613f13565b9150508091505092915050565b60006140088383613f4c565b905092915050565b6000602082019050919050565b600061402882613e5a565b6140328185613e65565b93508360208202850161404485613e76565b8060005b8581101561408057848403895281516140618582613ffc565b945061406c83614010565b925060208a01995050600181019050614048565b50829750879550505050505092915050565b600060208201905081810360008301526140ac818461401d565b905092915050565b600082825260208201905092915050565b60006140d082613eb3565b6140da81856140b4565b93506140ea818560208601613ecf565b6140f381613f02565b840191505092915050565b600061010082019050614114600083018b613dc4565b614121602083018a613d05565b61412e6040830189613d05565b61413b6060830188613d05565b6141486080830187613d05565b61415560a0830186613d05565b61416260c0830185613d8e565b81810360e083015261417481846140c5565b90509998505050505050505050565b60006020828403121561419957614198613c85565b5b60006141a784828501613e05565b91505092915050565b7f496e76616c6964204c697374696e670000000000000000000000000000000000600082015250565b60006141e6600f836140b4565b91506141f1826141b0565b602082019050919050565b60006020820190508181036000830152614215816141d9565b9050919050565b7f4e487b7100000000000000000000000000000000000000000000000000000000600052603260045260246000fd5b7f4c697374696e67206e6f206c6f6e676572206163746976650000000000000000600082015250565b60006142816018836140b4565b915061428c8261424b565b602082019050919050565b600060208201905081810360008301526142b081614274565b9050919050565b7f496e76616c6964204f776e657200000000000000000000000000000000000000600082015250565b60006142ed600d836140b4565b91506142f8826142b7565b602082019050919050565b6000602082019050818103600083015261431c816142e0565b9050919050565b60008160001c9050919050565b600060ff82169050919050565b600061435061434b83614323565b614330565b9050919050565b6000819050919050565b600061437461436f83614323565b614357565b9050919050565b600073ffffffffffffffffffffffffffffffffffffffff82169050919050565b60006143ae6143a983614323565b61437b565b9050919050565b7f4e487b7100000000000000000000000000000000000000000000000000000000600052602260045260246000fd5b600060028204905060018216806143fc57607f821691505b602082108114156144105761440f6143b5565b5b50919050565b60008190508160005260206000209050919050565b60008154614438816143e4565b6144428186613ebe565b9450600182166000811461445d576001811461446f576144a2565b60ff19831686526020860193506144a2565b61447885614416565b60005b8381101561449a5781548189015260018201915060208101905061447b565b808801955050505b50505092915050565b6000610100830160008084015490506144c38161433d565b6144d06000870182613e86565b50600184015490506144e181614361565b6144ee6020870182613e95565b50600284015490506144ff81614361565b61450c6040870182613e95565b506003840154905061451d81614361565b61452a6060870182613e95565b506004840154905061453b81614361565b6145486080870182613e95565b506005840154905061455981614361565b61456660a0870182613e95565b50600684015490506145778161439b565b61458460c0870182613ea4565b506007840185830360e087015261459b838261442b565b925050819250505092915050565b600060208201905081810360008301526145c381846144ab565b905092915050565b6000815190506145da81613c99565b92915050565b6000602082840312156145f6576145f5613c85565b5b6000614604848285016145cb565b91505092915050565b60006040820190506146226000830185613d8e565b61462f6020830184613d05565b9392505050565b7f4e487b7100000000000000000000000000000000000000000000000000000000600052601160045260246000fd5b600061467082613c8f565b915061467b83613c8f565b92508282101561468e5761468d614636565b5b828203905092915050565b60006146a482613c8f565b91506146af83613c8f565b9250827fffffffffffffffffffffffffffffffffffffffffffffffffffffffffffffffff038211156146e4576146e3614636565b5b828201905092915050565b60006146fa82613c8f565b91507fffffffffffffffffffffffffffffffffffffffffffffffffffffffffffffffff82141561472d5761472c614636565b5b600182019050919050565b7f4f7574206f6620696e6465780000000000000000000000000000000000000000600082015250565b600061476e600c836140b4565b915061477982614738565b602082019050919050565b6000602082019050818103600083015261479d81614761565b9050919050565b6000610100830160008301516147bd6000860182613e86565b5060208301516147d06020860182613e95565b5060408301516147e36040860182613e95565b5060608301516147f66060860182613e95565b5060808301516148096080860182613e95565b5060a083015161481c60a0860182613e95565b5060c083015161482f60c0860182613ea4565b5060e083015184820360e08601526148478282613f13565b9150508091505092915050565b6000602082019050818103600083015261486e81846147a4565b905092915050565b600060608201905061488b6000830186613d8e565b6148986020830185613d8e565b6148a56040830184613d05565b949350505050565b7f4f776e61626c653a2063616c6c6572206973206e6f7420746865206f776e6572600082015250565b60006148e36020836140b4565b91506148ee826148ad565b602082019050919050565b60006020820190508181036000830152614912816148d6565b9050919050565b7f56616c756520496e73756666696369656e740000000000000000000000000000600082015250565b600061494f6012836140b4565b915061495a82614919565b602082019050919050565b6000602082019050818103600083015261497e81614942565b9050919050565b7f4f776e65722063616e6e6f7420627579206f776e206c697374696e6700000000600082015250565b60006149bb601c836140b4565b91506149c682614985565b602082019050919050565b600060208201905081810360008301526149ea816149ae565b9050919050565b6000604082019050614a066000830185613d05565b614a136020830184613d05565b9392505050565b600081519050614a2981613dee565b92915050565b60008060408385031215614a4657614a45613c85565b5b6000614a5485828601614a1a565b9250506020614a65858286016145cb565b9150509250929050565b6000614a7a82613c8f565b9150614a8583613c8f565b9250817fffffffffffffffffffffffffffffffffffffffffffffffffffffffffffffffff0483118215151615614abe57614abd614636565b5b828202905092915050565b7f4e487b7100000000000000000000000000000000000000000000000000000000600052601260045260246000fd5b6000614b0382613c8f565b9150614b0e83613c8f565b925082614b1e57614b1d614ac9565b5b828204905092915050565b60006040830160008301518482036000860152614b468282613f4c565b9150506020830151614b5b6020860182613ea4565b508091505092915050565b60006020820190508181036000830152614b808184614b29565b905092915050565b7f4f6e6c7920696e20656d657267656e63792e0000000000000000000000000000600082015250565b6000614bbe6012836140b4565b9150614bc982614b88565b602082019050919050565b60006020820190508181036000830152614bed81614bb1565b9050919050565b7f4d61726b657420697320636c6f7365642e000000000000000000000000000000600082015250565b6000614c2a6011836140b4565b9150614c3582614bf4565b602082019050919050565b60006020820190508181036000830152614c5981614c1d565b9050919050565b7f486f6e6f72617279204150417320617265206e6f74206163636570746564206960008201527f6e20746865206d61726b6574706c616365000000000000000000000000000000602082015250565b6000614cbc6031836140b4565b9150614cc782614c60565b604082019050919050565b60006020820190508181036000830152614ceb81614caf565b9050919050565b600060208284031215614d0857614d07613c85565b5b6000614d1684828501614a1a565b91505092915050565b7f496e76616c6964206f776e657200000000000000000000000000000000000000600082015250565b6000614d55600d836140b4565b9150614d6082614d1f565b602082019050919050565b60006020820190508181036000830152614d8481614d48565b9050919050565b7f4769766520612070657263656e746167652076616c75652066726f6d2030207460008201527f6f20313030000000000000000000000000000000000000000000000000000000602082015250565b6000614de76025836140b4565b9150614df282614d8b565b604082019050919050565b60006020820190508181036000830152614e1681614dda565b9050919050565b7f4e487b7100000000000000000000000000000000000000000000000000000000600052604160045260246000fd5b600080fd5b600080fd5b614e5f82613f02565b810181811067ffffffffffffffff82111715614e7e57614e7d614e1d565b5b80604052505050565b6000614e91613c7b565b9050614e9d8282614e56565b919050565b600067ffffffffffffffff821115614ebd57614ebc614e1d565b5b614ec682613f02565b9050602081019050919050565b6000614ee6614ee184614ea2565b614e87565b905082815260208101848484011115614f0257614f01614e51565b5b614f0d848285613ecf565b509392505050565b600082601f830112614f2a57614f29614e4c565b5b8151614f3a848260208601614ed3565b91505092915050565b600060208284031215614f5957614f58613c85565b5b600082015167ffffffffffffffff811115614f7757614f76613c8a565b5b614f8384828501614f15565b91505092915050565b7f4f776e61626c653a206e6577206f776e657220697320746865207a65726f206160008201527f6464726573730000000000000000000000000000000000000000000000000000602082015250565b6000614fe86026836140b4565b9150614ff382614f8c565b604082019050919050565b6000602082019050818103600083015261501781614fdb565b9050919050565b7f546865726520617265206e6f20616374697665206c697374696e677300000000600082015250565b6000615054601c836140b4565b915061505f8261501e565b602082019050919050565b6000602082019050818103600083015261508381615047565b9050919050565b7f496e636f727265637420696e6465780000000000000000000000000000000000600082015250565b60006150c0600f836140b4565b91506150cb8261508a565b602082019050919050565b600060208201905081810360008301526150ef816150b3565b9050919050565b7f4e487b7100000000000000000000000000000000000000000000000000000000600052603160045260246000fd5b7f546865726520617265206e6f20616374697665206c697374696e677320666f7260008201527f207468697320757365722e000000000000000000000000000000000000000000602082015250565b6000615181602b836140b4565b915061518c82615125565b604082019050919050565b600060208201905081810360008301526151b081615174565b905091905056fea26469706673582212207d2911119214c15f79d077df792f9e994d21d526a934aa9b0204996bfd018f2864736f6c634300080c0033",
  "immutableReferences": {},
  "source": "// SPDX-License-Identifier: MIT\npragma solidity >=0.8.0 <0.9.0;\n\nimport \"@openzeppelin/contracts/token/ERC721/ERC721.sol\";\nimport \"@openzeppelin/contracts/token/ERC721/extensions/ERC721Enumerable.sol\";\nimport \"@openzeppelin/contracts/token/ERC721/extensions/IERC721Metadata.sol\";\nimport \"@openzeppelin/contracts/access/Ownable.sol\";\n\nabstract contract IERC721Full is IERC721, IERC721Enumerable, IERC721Metadata {}\n\ninterface IERC2981Royalties {\n    function royaltyInfo(uint256 _tokenId, uint256 _value)\n        external\n        view\n        returns (address _receiver, uint256 _royaltyAmount);\n}\n\ncontract Market is Ownable {\n    IERC721Full nftContract;\n    IERC2981Royalties royaltyInterface;\n\n    uint256 constant TOTAL_NFTS_COUNT = 10000;\n\n    struct Listing {\n        bool active;\n        uint256 id;\n        uint256 tokenId;\n        uint256 price;\n        uint256 activeIndex; // index where the listing id is located on activeListings\n        uint256 userActiveIndex; // index where the listing id is located on userActiveListings\n        address owner;\n        string tokenURI;\n    }\n\n    struct Purchase {\n        Listing listing;\n        address buyer;\n    }\n\n    event AddedListing(Listing listing);\n    event UpdateListing(Listing listing);\n    event FilledListing(Purchase listing);\n    event CanceledListing(Listing listing);\n\n    Listing[] public listings;\n    uint256[] public activeListings; // list of listingIDs which are active\n    mapping(address => uint256[]) public userActiveListings; // list of listingIDs which are active\n\n    mapping(uint256 => uint256) public communityRewards;\n\n    uint256 public communityHoldings = 0;\n    uint256 public communityFeePercent = 0;\n    uint256 public marketFeePercent = 0;\n\n    uint256 public totalVolume = 0;\n    uint256 public totalSales = 0;\n    uint256 public highestSalePrice = 0;\n    uint256 public totalGivenRewardsPerToken = 0;\n\n    bool public isMarketOpen = false;\n    bool public emergencyDelisting = false;\n\n    constructor(\n        address nft_address,\n        uint256 dist_fee,\n        uint256 market_fee\n    ) {\n        require(dist_fee <= 100, \"Give a percentage value from 0 to 100\");\n        require(market_fee <= 100, \"Give a percentage value from 0 to 100\");\n\n        nftContract = IERC721Full(nft_address);\n        royaltyInterface = IERC2981Royalties(nft_address);\n\n        communityFeePercent = dist_fee;\n        marketFeePercent = market_fee;\n    }\n\n    function openMarket() external onlyOwner {\n        isMarketOpen = true;\n    }\n\n    function closeMarket() external onlyOwner {\n        isMarketOpen = false;\n    }\n\n    function allowEmergencyDelisting() external onlyOwner {\n        emergencyDelisting = true;\n    }\n\n    function totalListings() external view returns (uint256) {\n        return listings.length;\n    }\n\n    function totalActiveListings() external view returns (uint256) {\n        return activeListings.length;\n    }\n\n    function getActiveListings(uint256 from, uint256 length)\n        external\n        view\n        returns (Listing[] memory listing)\n    {\n        uint256 numActive = activeListings.length;\n        if (from + length > numActive) {\n            length = numActive - from;\n        }\n\n        Listing[] memory _listings = new Listing[](length);\n        for (uint256 i = 0; i < length; i++) {\n            Listing memory _l = listings[activeListings[from + i]];\n            _l.tokenURI = nftContract.tokenURI(_l.tokenId);\n            _listings[i] = _l;\n        }\n        return _listings;\n    }\n\n    function removeActiveListing(uint256 index) internal {\n        uint256 numActive = activeListings.length;\n\n        require(numActive > 0, \"There are no active listings\");\n        require(index < numActive, \"Incorrect index\");\n\n        activeListings[index] = activeListings[numActive - 1];\n        listings[activeListings[index]].activeIndex = index;\n        activeListings.pop();\n    }\n\n    function removeOwnerActiveListing(address owner, uint256 index) internal {\n        uint256 numActive = userActiveListings[owner].length;\n\n        require(numActive > 0, \"There are no active listings for this user.\");\n        require(index < numActive, \"Incorrect index\");\n\n        userActiveListings[owner][index] = userActiveListings[owner][\n            numActive - 1\n        ];\n        listings[userActiveListings[owner][index]].userActiveIndex = index;\n        userActiveListings[owner].pop();\n    }\n\n    function getMyActiveListingsCount() external view returns (uint256) {\n        return userActiveListings[msg.sender].length;\n    }\n\n    function getMyActiveListings(uint256 from, uint256 length)\n        external\n        view\n        returns (Listing[] memory listing)\n    {\n        uint256 numActive = userActiveListings[msg.sender].length;\n\n        if (from + length > numActive) {\n            length = numActive - from;\n        }\n\n        Listing[] memory myListings = new Listing[](length);\n\n        for (uint256 i = 0; i < length; i++) {\n            Listing memory _l = listings[\n                userActiveListings[msg.sender][i + from]\n            ];\n            _l.tokenURI = nftContract.tokenURI(_l.tokenId);\n            myListings[i] = _l;\n        }\n        return myListings;\n    }\n\n    function addListing(uint256 tokenId, uint256 price) external {\n        require(isMarketOpen, \"Market is closed.\");\n        require(\n            tokenId < TOTAL_NFTS_COUNT,\n            \"Honorary APAs are not accepted in the marketplace\"\n        );\n        require(msg.sender == nftContract.ownerOf(tokenId), \"Invalid owner\");\n\n        uint256 id = listings.length;\n        Listing memory listing = Listing(\n            true,\n            id,\n            tokenId,\n            price,\n            activeListings.length, // activeIndex\n            userActiveListings[msg.sender].length, // userActiveIndex\n            msg.sender,\n            \"\"\n        );\n\n        listings.push(listing);\n        userActiveListings[msg.sender].push(id);\n        activeListings.push(id);\n\n        emit AddedListing(listing);\n\n        nftContract.transferFrom(msg.sender, address(this), tokenId);\n    }\n\n    function updateListing(uint256 id, uint256 price) external {\n        require(id < listings.length, \"Invalid Listing\");\n        require(listings[id].active, \"Listing no longer active\");\n        require(listings[id].owner == msg.sender, \"Invalid Owner\");\n\n        listings[id].price = price;\n        emit UpdateListing(listings[id]);\n    }\n\n    function cancelListing(uint256 id) external {\n        require(id < listings.length, \"Invalid Listing\");\n        Listing memory listing = listings[id];\n        require(listing.active, \"Listing no longer active\");\n        require(listing.owner == msg.sender, \"Invalid Owner\");\n\n        removeActiveListing(listing.activeIndex);\n        removeOwnerActiveListing(msg.sender, listing.userActiveIndex);\n\n        listings[id].active = false;\n\n        emit CanceledListing(listing);\n\n        nftContract.transferFrom(address(this), listing.owner, listing.tokenId);\n    }\n\n    function fulfillListing(uint256 id) external payable {\n        require(id < listings.length, \"Invalid Listing\");\n        Listing memory listing = listings[id];\n        require(listing.active, \"Listing no longer active\");\n        require(msg.value >= listing.price, \"Value Insufficient\");\n        require(msg.sender != listing.owner, \"Owner cannot buy own listing\");\n\n        (address originalMinter, uint256 royaltyAmount) = royaltyInterface\n            .royaltyInfo(listing.tokenId, listing.price);\n        uint256 community_cut = (listing.price * communityFeePercent) / 100;\n        uint256 market_cut = (listing.price * marketFeePercent) / 100;\n        uint256 holder_cut = listing.price -\n            royaltyAmount -\n            community_cut -\n            market_cut;\n\n        listings[id].active = false;\n\n        // Update active listings\n        removeActiveListing(listing.activeIndex);\n        removeOwnerActiveListing(listing.owner, listing.userActiveIndex);\n\n        // Update global stats\n        totalVolume += listing.price;\n        totalSales += 1;\n\n        if (listing.price > highestSalePrice) {\n            highestSalePrice = listing.price;\n        }\n\n        uint256 perToken = community_cut / TOTAL_NFTS_COUNT;\n        totalGivenRewardsPerToken += perToken;\n        communityHoldings += perToken * TOTAL_NFTS_COUNT;\n\n        emit FilledListing(\n            Purchase({listing: listings[id], buyer: msg.sender})\n        );\n\n        payable(listing.owner).transfer(holder_cut);\n        payable(originalMinter).transfer(royaltyAmount);\n        nftContract.transferFrom(address(this), msg.sender, listing.tokenId);\n    }\n\n    function getRewards() external view returns (uint256 amount) {\n        uint256 numTokens = nftContract.balanceOf(msg.sender);\n        uint256 rewards = 0;\n\n        // Rewards of tokens owned by the sender\n        for (uint256 i = 0; i < numTokens; i++) {\n            uint256 tokenId = nftContract.tokenOfOwnerByIndex(msg.sender, i);\n            if (tokenId < TOTAL_NFTS_COUNT) {\n                rewards +=\n                    totalGivenRewardsPerToken -\n                    communityRewards[tokenId];\n            }\n        }\n\n        // Rewards of tokens owned by the sender, but listed on this marketplace\n        uint256[] memory myListings = userActiveListings[msg.sender];\n        for (uint256 i = 0; i < myListings.length; i++) {\n            uint256 tokenId = listings[myListings[i]].tokenId;\n            if (tokenId < TOTAL_NFTS_COUNT) {\n                rewards +=\n                    totalGivenRewardsPerToken -\n                    communityRewards[tokenId];\n            }\n        }\n\n        return rewards;\n    }\n\n    function claimListedRewards(uint256 from, uint256 length) external {\n        require(\n            from + length <= userActiveListings[msg.sender].length,\n            \"Out of index\"\n        );\n\n        uint256 rewards = 0;\n        uint256 newCommunityHoldings = communityHoldings;\n\n        // Rewards of tokens owned by the sender, but listed on this marketplace\n        uint256[] memory myListings = userActiveListings[msg.sender];\n        for (uint256 i = 0; i < myListings.length; i++) {\n            uint256 tokenId = listings[myListings[i]].tokenId;\n            if (tokenId < TOTAL_NFTS_COUNT) {\n                uint256 tokenReward = totalGivenRewardsPerToken -\n                    communityRewards[tokenId];\n                rewards += tokenReward;\n                newCommunityHoldings -= tokenReward;\n                communityRewards[tokenId] = totalGivenRewardsPerToken;\n            }\n        }\n\n        communityHoldings = newCommunityHoldings;\n        payable(msg.sender).transfer(rewards);\n    }\n\n    function claimOwnedRewards(uint256 from, uint256 length) external {\n        uint256 numTokens = nftContract.balanceOf(msg.sender);\n        require(from + length <= numTokens, \"Out of index\");\n\n        uint256 rewards = 0;\n        uint256 newCommunityHoldings = communityHoldings;\n\n        // Rewards of tokens owned by the sender\n        for (uint256 i = 0; i < length; i++) {\n            uint256 tokenId = nftContract.tokenOfOwnerByIndex(\n                msg.sender,\n                i + from\n            );\n            if (tokenId < TOTAL_NFTS_COUNT) {\n                uint256 tokenReward = totalGivenRewardsPerToken -\n                    communityRewards[tokenId];\n                rewards += tokenReward;\n                newCommunityHoldings -= tokenReward;\n                communityRewards[tokenId] = totalGivenRewardsPerToken;\n            }\n        }\n\n        communityHoldings = newCommunityHoldings;\n        payable(msg.sender).transfer(rewards);\n    }\n\n    function claimRewards() external {\n        uint256 numTokens = nftContract.balanceOf(msg.sender);\n        uint256 rewards = 0;\n        uint256 newCommunityHoldings = communityHoldings;\n\n        // Rewards of tokens owned by the sender\n        for (uint256 i = 0; i < numTokens; i++) {\n            uint256 tokenId = nftContract.tokenOfOwnerByIndex(msg.sender, i);\n            if (tokenId < TOTAL_NFTS_COUNT) {\n                uint256 tokenReward = totalGivenRewardsPerToken -\n                    communityRewards[tokenId];\n                rewards += tokenReward;\n                newCommunityHoldings -= tokenReward;\n                communityRewards[tokenId] = totalGivenRewardsPerToken;\n            }\n        }\n\n        // Rewards of tokens owned by the sender, but listed on this marketplace\n        uint256[] memory myListings = userActiveListings[msg.sender];\n        for (uint256 i = 0; i < myListings.length; i++) {\n            uint256 tokenId = listings[myListings[i]].tokenId;\n            if (tokenId < TOTAL_NFTS_COUNT) {\n                uint256 tokenReward = totalGivenRewardsPerToken -\n                    communityRewards[tokenId];\n                rewards += tokenReward;\n                newCommunityHoldings -= tokenReward;\n                communityRewards[tokenId] = totalGivenRewardsPerToken;\n            }\n        }\n\n        communityHoldings = newCommunityHoldings;\n\n        payable(msg.sender).transfer(rewards);\n    }\n\n    function adjustFees(uint256 newDistFee, uint256 newMarketFee)\n        external\n        onlyOwner\n    {\n        require(newDistFee <= 100, \"Give a percentage value from 0 to 100\");\n        require(newMarketFee <= 100, \"Give a percentage value from 0 to 100\");\n\n        communityFeePercent = newDistFee;\n        marketFeePercent = newMarketFee;\n    }\n\n    function emergencyDelist(uint256 listingID) external {\n        require(emergencyDelisting && !isMarketOpen, \"Only in emergency.\");\n        require(listingID < listings.length, \"Invalid Listing\");\n        Listing memory listing = listings[listingID];\n\n        nftContract.transferFrom(address(this), listing.owner, listing.tokenId);\n    }\n\n    function withdrawableBalance() public view returns (uint256 value) {\n        if (address(this).balance <= communityHoldings) {\n            return 0;\n        }\n        return address(this).balance - communityHoldings;\n    }\n\n    function withdrawBalance() external onlyOwner {\n        uint256 withdrawable = withdrawableBalance();\n        payable(_msgSender()).transfer(withdrawable);\n    }\n\n    function emergencyWithdraw() external onlyOwner {\n        payable(_msgSender()).transfer(address(this).balance);\n    }\n}",
  "sourcePath": "/Users/shirui/nft-dapp/nft-demo-dapp/src/contracts/Market.sol",
  "compiler": {
    "name": "solc",
    "version": "0.8.12+commit.f00d7308.Emscripten.clang"
  },
  "schemaVersion": "3.4.6",
  "updatedAt": "2022-03-25T09:13:18.177Z",
  "networkType": "ethereum",
  "devdoc": {
    "kind": "dev",
    "methods": {
      "owner()": {
        "details": "Returns the address of the current owner."
      },
      "renounceOwnership()": {
        "details": "Leaves the contract without owner. It will not be possible to call `onlyOwner` functions anymore. Can only be called by the current owner. NOTE: Renouncing ownership will leave the contract without an owner, thereby removing any functionality that is only available to the owner."
      },
      "transferOwnership(address)": {
        "details": "Transfers ownership of the contract to a new account (`newOwner`). Can only be called by the current owner."
      }
    },
    "version": 1
  },
  "userdoc": {
    "kind": "user",
    "methods": {},
    "version": 1
  }
}