{
  "contractName": "Market",
  "abi": [
    {
      "inputs": [],
      "stateMutability": "nonpayable",
      "type": "constructor"
    },
    {
      "anonymous": false,
      "inputs": [
        {
          "indexed": true,
          "internalType": "address",
          "name": "owner",
          "type": "address"
        },
        {
          "indexed": true,
          "internalType": "address",
          "name": "approved",
          "type": "address"
        },
        {
          "indexed": true,
          "internalType": "uint256",
          "name": "tokenId",
          "type": "uint256"
        }
      ],
      "name": "Approval",
      "type": "event"
    },
    {
      "anonymous": false,
      "inputs": [
        {
          "indexed": true,
          "internalType": "address",
          "name": "owner",
          "type": "address"
        },
        {
          "indexed": true,
          "internalType": "address",
          "name": "operator",
          "type": "address"
        },
        {
          "indexed": false,
          "internalType": "bool",
          "name": "approved",
          "type": "bool"
        }
      ],
      "name": "ApprovalForAll",
      "type": "event"
    },
    {
      "anonymous": false,
      "inputs": [
        {
          "indexed": true,
          "internalType": "address",
          "name": "previousOwner",
          "type": "address"
        },
        {
          "indexed": true,
          "internalType": "address",
          "name": "newOwner",
          "type": "address"
        }
      ],
      "name": "OwnershipTransferred",
      "type": "event"
    },
    {
      "anonymous": false,
      "inputs": [
        {
          "indexed": true,
          "internalType": "address",
          "name": "from",
          "type": "address"
        },
        {
          "indexed": true,
          "internalType": "address",
          "name": "to",
          "type": "address"
        },
        {
          "indexed": true,
          "internalType": "uint256",
          "name": "tokenId",
          "type": "uint256"
        }
      ],
      "name": "Transfer",
      "type": "event"
    },
    {
      "inputs": [
        {
          "internalType": "uint256",
          "name": "",
          "type": "uint256"
        }
      ],
      "name": "allCryptoBoys",
      "outputs": [
        {
          "internalType": "uint256",
          "name": "tokenId",
          "type": "uint256"
        },
        {
          "internalType": "string",
          "name": "tokenName",
          "type": "string"
        },
        {
          "internalType": "string",
          "name": "tokenURI",
          "type": "string"
        },
        {
          "internalType": "address",
          "name": "mintedBy",
          "type": "address"
        },
        {
          "internalType": "address",
          "name": "currentOwner",
          "type": "address"
        },
        {
          "internalType": "address",
          "name": "previousOwner",
          "type": "address"
        },
        {
          "internalType": "uint256",
          "name": "price",
          "type": "uint256"
        },
        {
          "internalType": "uint256",
          "name": "numberOfTransfers",
          "type": "uint256"
        },
        {
          "internalType": "bool",
          "name": "forSale",
          "type": "bool"
        }
      ],
      "stateMutability": "view",
      "type": "function",
      "constant": true
    },
    {
      "inputs": [
        {
          "internalType": "address",
          "name": "to",
          "type": "address"
        },
        {
          "internalType": "uint256",
          "name": "tokenId",
          "type": "uint256"
        }
      ],
      "name": "approve",
      "outputs": [],
      "stateMutability": "nonpayable",
      "type": "function"
    },
    {
      "inputs": [
        {
          "internalType": "address",
          "name": "owner",
          "type": "address"
        }
      ],
      "name": "balanceOf",
      "outputs": [
        {
          "internalType": "uint256",
          "name": "",
          "type": "uint256"
        }
      ],
      "stateMutability": "view",
      "type": "function",
      "constant": true
    },
    {
      "inputs": [],
      "name": "collectionName",
      "outputs": [
        {
          "internalType": "string",
          "name": "",
          "type": "string"
        }
      ],
      "stateMutability": "view",
      "type": "function",
      "constant": true
    },
    {
      "inputs": [],
      "name": "collectionNameSymbol",
      "outputs": [
        {
          "internalType": "string",
          "name": "",
          "type": "string"
        }
      ],
      "stateMutability": "view",
      "type": "function",
      "constant": true
    },
    {
      "inputs": [],
      "name": "communityFeePercent",
      "outputs": [
        {
          "internalType": "uint256",
          "name": "",
          "type": "uint256"
        }
      ],
      "stateMutability": "view",
      "type": "function",
      "constant": true
    },
    {
      "inputs": [
        {
          "internalType": "uint256",
          "name": "",
          "type": "uint256"
        }
      ],
      "name": "communityRewards",
      "outputs": [
        {
          "internalType": "uint256",
          "name": "",
          "type": "uint256"
        }
      ],
      "stateMutability": "view",
      "type": "function",
      "constant": true
    },
    {
      "inputs": [],
      "name": "cryptoBoyCounter",
      "outputs": [
        {
          "internalType": "uint256",
          "name": "",
          "type": "uint256"
        }
      ],
      "stateMutability": "view",
      "type": "function",
      "constant": true
    },
    {
      "inputs": [],
      "name": "emergencyDelisting",
      "outputs": [
        {
          "internalType": "bool",
          "name": "",
          "type": "bool"
        }
      ],
      "stateMutability": "view",
      "type": "function",
      "constant": true
    },
    {
      "inputs": [
        {
          "internalType": "uint256",
          "name": "tokenId",
          "type": "uint256"
        }
      ],
      "name": "getApproved",
      "outputs": [
        {
          "internalType": "address",
          "name": "",
          "type": "address"
        }
      ],
      "stateMutability": "view",
      "type": "function",
      "constant": true
    },
    {
      "inputs": [
        {
          "internalType": "address",
          "name": "owner",
          "type": "address"
        },
        {
          "internalType": "address",
          "name": "operator",
          "type": "address"
        }
      ],
      "name": "isApprovedForAll",
      "outputs": [
        {
          "internalType": "bool",
          "name": "",
          "type": "bool"
        }
      ],
      "stateMutability": "view",
      "type": "function",
      "constant": true
    },
    {
      "inputs": [],
      "name": "isMarketOpen",
      "outputs": [
        {
          "internalType": "bool",
          "name": "",
          "type": "bool"
        }
      ],
      "stateMutability": "view",
      "type": "function",
      "constant": true
    },
    {
      "inputs": [],
      "name": "marketFeePercent",
      "outputs": [
        {
          "internalType": "uint256",
          "name": "",
          "type": "uint256"
        }
      ],
      "stateMutability": "view",
      "type": "function",
      "constant": true
    },
    {
      "inputs": [],
      "name": "name",
      "outputs": [
        {
          "internalType": "string",
          "name": "",
          "type": "string"
        }
      ],
      "stateMutability": "view",
      "type": "function",
      "constant": true
    },
    {
      "inputs": [],
      "name": "owner",
      "outputs": [
        {
          "internalType": "address",
          "name": "",
          "type": "address"
        }
      ],
      "stateMutability": "view",
      "type": "function",
      "constant": true
    },
    {
      "inputs": [
        {
          "internalType": "uint256",
          "name": "tokenId",
          "type": "uint256"
        }
      ],
      "name": "ownerOf",
      "outputs": [
        {
          "internalType": "address",
          "name": "",
          "type": "address"
        }
      ],
      "stateMutability": "view",
      "type": "function",
      "constant": true
    },
    {
      "inputs": [],
      "name": "renounceOwnership",
      "outputs": [],
      "stateMutability": "nonpayable",
      "type": "function"
    },
    {
      "inputs": [
        {
          "internalType": "address",
          "name": "from",
          "type": "address"
        },
        {
          "internalType": "address",
          "name": "to",
          "type": "address"
        },
        {
          "internalType": "uint256",
          "name": "tokenId",
          "type": "uint256"
        }
      ],
      "name": "safeTransferFrom",
      "outputs": [],
      "stateMutability": "nonpayable",
      "type": "function"
    },
    {
      "inputs": [
        {
          "internalType": "address",
          "name": "from",
          "type": "address"
        },
        {
          "internalType": "address",
          "name": "to",
          "type": "address"
        },
        {
          "internalType": "uint256",
          "name": "tokenId",
          "type": "uint256"
        },
        {
          "internalType": "bytes",
          "name": "_data",
          "type": "bytes"
        }
      ],
      "name": "safeTransferFrom",
      "outputs": [],
      "stateMutability": "nonpayable",
      "type": "function"
    },
    {
      "inputs": [
        {
          "internalType": "address",
          "name": "operator",
          "type": "address"
        },
        {
          "internalType": "bool",
          "name": "approved",
          "type": "bool"
        }
      ],
      "name": "setApprovalForAll",
      "outputs": [],
      "stateMutability": "nonpayable",
      "type": "function"
    },
    {
      "inputs": [
        {
          "internalType": "bytes4",
          "name": "interfaceId",
          "type": "bytes4"
        }
      ],
      "name": "supportsInterface",
      "outputs": [
        {
          "internalType": "bool",
          "name": "",
          "type": "bool"
        }
      ],
      "stateMutability": "view",
      "type": "function",
      "constant": true
    },
    {
      "inputs": [],
      "name": "symbol",
      "outputs": [
        {
          "internalType": "string",
          "name": "",
          "type": "string"
        }
      ],
      "stateMutability": "view",
      "type": "function",
      "constant": true
    },
    {
      "inputs": [
        {
          "internalType": "uint256",
          "name": "index",
          "type": "uint256"
        }
      ],
      "name": "tokenByIndex",
      "outputs": [
        {
          "internalType": "uint256",
          "name": "",
          "type": "uint256"
        }
      ],
      "stateMutability": "view",
      "type": "function",
      "constant": true
    },
    {
      "inputs": [
        {
          "internalType": "address",
          "name": "owner",
          "type": "address"
        },
        {
          "internalType": "uint256",
          "name": "index",
          "type": "uint256"
        }
      ],
      "name": "tokenOfOwnerByIndex",
      "outputs": [
        {
          "internalType": "uint256",
          "name": "",
          "type": "uint256"
        }
      ],
      "stateMutability": "view",
      "type": "function",
      "constant": true
    },
    {
      "inputs": [
        {
          "internalType": "uint256",
          "name": "tokenId",
          "type": "uint256"
        }
      ],
      "name": "tokenURI",
      "outputs": [
        {
          "internalType": "string",
          "name": "",
          "type": "string"
        }
      ],
      "stateMutability": "view",
      "type": "function",
      "constant": true
    },
    {
      "inputs": [],
      "name": "totalGivenRewardsPerToken",
      "outputs": [
        {
          "internalType": "uint256",
          "name": "",
          "type": "uint256"
        }
      ],
      "stateMutability": "view",
      "type": "function",
      "constant": true
    },
    {
      "inputs": [],
      "name": "totalSupply",
      "outputs": [
        {
          "internalType": "uint256",
          "name": "",
          "type": "uint256"
        }
      ],
      "stateMutability": "view",
      "type": "function",
      "constant": true
    },
    {
      "inputs": [
        {
          "internalType": "address",
          "name": "from",
          "type": "address"
        },
        {
          "internalType": "address",
          "name": "to",
          "type": "address"
        },
        {
          "internalType": "uint256",
          "name": "tokenId",
          "type": "uint256"
        }
      ],
      "name": "transferFrom",
      "outputs": [],
      "stateMutability": "nonpayable",
      "type": "function"
    },
    {
      "inputs": [
        {
          "internalType": "address",
          "name": "newOwner",
          "type": "address"
        }
      ],
      "name": "transferOwnership",
      "outputs": [],
      "stateMutability": "nonpayable",
      "type": "function"
    },
    {
      "inputs": [],
      "name": "openMarket",
      "outputs": [],
      "stateMutability": "nonpayable",
      "type": "function"
    },
    {
      "inputs": [],
      "name": "closeMarket",
      "outputs": [],
      "stateMutability": "nonpayable",
      "type": "function"
    },
    {
      "inputs": [],
      "name": "allowEmergencyDelisting",
      "outputs": [],
      "stateMutability": "nonpayable",
      "type": "function"
    },
    {
      "inputs": [
        {
          "internalType": "uint256",
          "name": "newDistFee",
          "type": "uint256"
        },
        {
          "internalType": "uint256",
          "name": "newMarketFee",
          "type": "uint256"
        }
      ],
      "name": "adjustFees",
      "outputs": [],
      "stateMutability": "nonpayable",
      "type": "function"
    },
    {
      "inputs": [
        {
          "internalType": "address",
          "name": "nftAddr",
          "type": "address"
        },
        {
          "internalType": "uint256",
          "name": "_tokenId",
          "type": "uint256"
        }
      ],
      "name": "emergencyDelist",
      "outputs": [],
      "stateMutability": "nonpayable",
      "type": "function"
    },
    {
      "inputs": [
        {
          "internalType": "uint256",
          "name": "tokenId",
          "type": "uint256"
        },
        {
          "internalType": "string",
          "name": "name",
          "type": "string"
        },
        {
          "internalType": "string",
          "name": "uri",
          "type": "string"
        },
        {
          "internalType": "address",
          "name": "mintedBy",
          "type": "address"
        },
        {
          "internalType": "address",
          "name": "currOwner",
          "type": "address"
        },
        {
          "internalType": "address",
          "name": "prevOwner",
          "type": "address"
        },
        {
          "internalType": "uint256",
          "name": "price",
          "type": "uint256"
        },
        {
          "internalType": "uint256",
          "name": "numOfTransfers",
          "type": "uint256"
        },
        {
          "internalType": "bool",
          "name": "forSale",
          "type": "bool"
        }
      ],
      "name": "appendCryptoBoy",
      "outputs": [],
      "stateMutability": "nonpayable",
      "type": "function"
    },
    {
      "inputs": [
        {
          "internalType": "address",
          "name": "nftAddr",
          "type": "address"
        },
        {
          "internalType": "uint256",
          "name": "_tokenId",
          "type": "uint256"
        }
      ],
      "name": "buyToken",
      "outputs": [],
      "stateMutability": "payable",
      "type": "function",
      "payable": true
    },
    {
      "inputs": [
        {
          "internalType": "uint256",
          "name": "_tokenId",
          "type": "uint256"
        },
        {
          "internalType": "uint256",
          "name": "_newPrice",
          "type": "uint256"
        }
      ],
      "name": "changeTokenPrice",
      "outputs": [],
      "stateMutability": "nonpayable",
      "type": "function"
    },
    {
      "inputs": [
        {
          "internalType": "uint256",
          "name": "_tokenId",
          "type": "uint256"
        }
      ],
      "name": "toggleForSale",
      "outputs": [],
      "stateMutability": "nonpayable",
      "type": "function"
    },
    {
      "inputs": [],
      "name": "getRewards",
      "outputs": [
        {
          "internalType": "uint256",
          "name": "amount",
          "type": "uint256"
        }
      ],
      "stateMutability": "view",
      "type": "function",
      "constant": true
    }
  ],
  "bytecode": "0x60806040526001600e556003600f55600060105560006011556001601460006101000a81548160ff0219169083151502179055506000601460016101000a81548160ff0219169083151502179055503480156200005b57600080fd5b506040518060400160405280601481526020017f54616977616e2043727970746f204d61726b65740000000000000000000000008152506040518060400160405280600381526020017f54434d00000000000000000000000000000000000000000000000000000000008152508160009080519060200190620000e0929190620003b5565b508060019080519060200190620000f9929190620003b5565b5050506200011c62000110620001b360201b60201c565b620001bb60201b60201c565b6200012c6200028160201b60201c565b600c908051906020019062000143929190620003b5565b50620001546200031b60201b60201c565b600d90805190602001906200016b929190620003b5565b5030600b60006101000a81548173ffffffffffffffffffffffffffffffffffffffff021916908373ffffffffffffffffffffffffffffffffffffffff160217905550620004ca565b600033905090565b6000600a60009054906101000a900473ffffffffffffffffffffffffffffffffffffffff16905081600a60006101000a81548173ffffffffffffffffffffffffffffffffffffffff021916908373ffffffffffffffffffffffffffffffffffffffff1602179055508173ffffffffffffffffffffffffffffffffffffffff168173ffffffffffffffffffffffffffffffffffffffff167f8be0079c531659141344cd1fd0a4f28419497f9722a3daafe3b4186f6b6457e060405160405180910390a35050565b606060008054620002929062000494565b80601f0160208091040260200160405190810160405280929190818152602001828054620002c09062000494565b8015620003115780601f10620002e55761010080835404028352916020019162000311565b820191906000526020600020905b815481529060010190602001808311620002f357829003601f168201915b5050505050905090565b6060600180546200032c9062000494565b80601f01602080910402602001604051908101604052809291908181526020018280546200035a9062000494565b8015620003ab5780601f106200037f57610100808354040283529160200191620003ab565b820191906000526020600020905b8154815290600101906020018083116200038d57829003601f168201915b5050505050905090565b828054620003c39062000494565b90600052602060002090601f016020900481019282620003e7576000855562000433565b82601f106200040257805160ff191683800117855562000433565b8280016001018555821562000433579182015b828111156200043257825182559160200191906001019062000415565b5b50905062000442919062000446565b5090565b5b808211156200046157600081600090555060010162000447565b5090565b7f4e487b7100000000000000000000000000000000000000000000000000000000600052602260045260246000fd5b60006002820490506001821680620004ad57607f821691505b60208210811415620004c457620004c362000465565b5b50919050565b615cad80620004da6000396000f3fe6080604052600436106102305760003560e01c806370a082311161012e578063b88d4fde116100ab578063d4ce85f31161006f578063d4ce85f314610810578063e5326ab11461083b578063e985e9c514610866578063f2fde38b146108a3578063f7cae643146108cc57610230565b8063b88d4fde1461073f578063b9d2326e14610768578063bffec20214610791578063c511ed5e146107bc578063c87b56dd146107d357610230565b806395d89b41116100f257806395d89b411461066c578063a22cb46514610697578063a32018b9146106c0578063aaf51b7e146106e9578063aca20f071461071457610230565b806370a0823114610599578063715018a6146105d657806374ee6d4f146105ed578063856e96b3146106185780638da5cb5b1461064157610230565b806342842e0e116101bc57806362e8e8ac1161018057806362e8e8ac146104c15780636352211e146104ea57806368f8fc10146105275780636d0c689e146105435780636f9507f91461056e57610230565b806342842e0e146103d657806344c0d7eb146103ff5780634f6ccce71461044457806358a28a0914610481578063607133a0146104aa57610230565b8063095ea7b311610203578063095ea7b31461030557806318160ddd1461032e57806323b872dd146103595780632f745c59146103825780633606f5b9146103bf57610230565b806301ffc9a7146102355780630572b0cc1461027257806306fdde031461029d578063081812fc146102c8575b600080fd5b34801561024157600080fd5b5061025c60048036038101906102579190614467565b610909565b60405161026991906144af565b60405180910390f35b34801561027e57600080fd5b50610287610983565b60405161029491906144e3565b60405180910390f35b3480156102a957600080fd5b506102b2610cad565b6040516102bf9190614597565b60405180910390f35b3480156102d457600080fd5b506102ef60048036038101906102ea91906145e5565b610d3f565b6040516102fc9190614653565b60405180910390f35b34801561031157600080fd5b5061032c6004803603810190610327919061469a565b610dc4565b005b34801561033a57600080fd5b50610343610edc565b60405161035091906144e3565b60405180910390f35b34801561036557600080fd5b50610380600480360381019061037b91906146da565b610ee9565b005b34801561038e57600080fd5b506103a960048036038101906103a4919061469a565b610f49565b6040516103b691906144e3565b60405180910390f35b3480156103cb57600080fd5b506103d4610fee565b005b3480156103e257600080fd5b506103fd60048036038101906103f891906146da565b611087565b005b34801561040b57600080fd5b50610426600480360381019061042191906145e5565b6110a7565b60405161043b9998979695949392919061472d565b60405180910390f35b34801561045057600080fd5b5061046b600480360381019061046691906145e5565b611272565b60405161047891906144e3565b60405180910390f35b34801561048d57600080fd5b506104a860048036038101906104a3919061469a565b6112e3565b005b3480156104b657600080fd5b506104bf61168e565b005b3480156104cd57600080fd5b506104e860048036038101906104e391906147c8565b611727565b005b3480156104f657600080fd5b50610511600480360381019061050c91906145e5565b611be2565b60405161051e9190614653565b60405180910390f35b610541600480360381019061053c919061469a565b611c94565b005b34801561054f57600080fd5b506105586124c2565b60405161056591906144e3565b60405180910390f35b34801561057a57600080fd5b506105836124c8565b6040516105909190614597565b60405180910390f35b3480156105a557600080fd5b506105c060048036038101906105bb9190614808565b612556565b6040516105cd91906144e3565b60405180910390f35b3480156105e257600080fd5b506105eb61260e565b005b3480156105f957600080fd5b50610602612696565b60405161060f91906144e3565b60405180910390f35b34801561062457600080fd5b5061063f600480360381019061063a9190614996565b61269c565b005b34801561064d57600080fd5b506106566128eb565b6040516106639190614653565b60405180910390f35b34801561067857600080fd5b50610681612915565b60405161068e9190614597565b60405180910390f35b3480156106a357600080fd5b506106be60048036038101906106b99190614a98565b6129a7565b005b3480156106cc57600080fd5b506106e760048036038101906106e291906145e5565b6129bd565b005b3480156106f557600080fd5b506106fe612ea8565b60405161070b91906144e3565b60405180910390f35b34801561072057600080fd5b50610729612eae565b60405161073691906144af565b60405180910390f35b34801561074b57600080fd5b5061076660048036038101906107619190614b79565b612ec1565b005b34801561077457600080fd5b5061078f600480360381019061078a91906147c8565b612f23565b005b34801561079d57600080fd5b506107a6613039565b6040516107b391906144e3565b60405180910390f35b3480156107c857600080fd5b506107d161303f565b005b3480156107df57600080fd5b506107fa60048036038101906107f591906145e5565b6130d8565b6040516108079190614597565b60405180910390f35b34801561081c57600080fd5b5061082561317f565b60405161083291906144af565b60405180910390f35b34801561084757600080fd5b50610850613192565b60405161085d9190614597565b60405180910390f35b34801561087257600080fd5b5061088d60048036038101906108889190614bfc565b613220565b60405161089a91906144af565b60405180910390f35b3480156108af57600080fd5b506108ca60048036038101906108c59190614808565b6132b4565b005b3480156108d857600080fd5b506108f360048036038101906108ee91906145e5565b6133ac565b60405161090091906144e3565b60405180910390f35b60007f780e9d63000000000000000000000000000000000000000000000000000000007bffffffffffffffffffffffffffffffffffffffffffffffffffffffff1916827bffffffffffffffffffffffffffffffffffffffffffffffffffffffff1916148061097c575061097b826133c4565b5b9050919050565b6000806000905060005b6010548111610ca55760006013600083815260200190815260200160002060405180610120016040529081600082015481526020016001820180546109d190614c6b565b80601f01602080910402602001604051908101604052809291908181526020018280546109fd90614c6b565b8015610a4a5780601f10610a1f57610100808354040283529160200191610a4a565b820191906000526020600020905b815481529060010190602001808311610a2d57829003601f168201915b50505050508152602001600282018054610a6390614c6b565b80601f0160208091040260200160405190810160405280929190818152602001828054610a8f90614c6b565b8015610adc5780601f10610ab157610100808354040283529160200191610adc565b820191906000526020600020905b815481529060010190602001808311610abf57829003601f168201915b505050505081526020016003820160009054906101000a900473ffffffffffffffffffffffffffffffffffffffff1673ffffffffffffffffffffffffffffffffffffffff1673ffffffffffffffffffffffffffffffffffffffff1681526020016004820160009054906101000a900473ffffffffffffffffffffffffffffffffffffffff1673ffffffffffffffffffffffffffffffffffffffff1673ffffffffffffffffffffffffffffffffffffffff1681526020016005820160009054906101000a900473ffffffffffffffffffffffffffffffffffffffff1673ffffffffffffffffffffffffffffffffffffffff1673ffffffffffffffffffffffffffffffffffffffff16815260200160068201548152602001600782015481526020016008820160009054906101000a900460ff16151515158152505090506000610c278260000151611be2565b90503373ffffffffffffffffffffffffffffffffffffffff168173ffffffffffffffffffffffffffffffffffffffff161415610c9057601260008360000151815260200190815260200160002054601154610c829190614ccc565b84610c8d9190614d00565b93505b50508080610c9d90614d56565b91505061098d565b508091505090565b606060008054610cbc90614c6b565b80601f0160208091040260200160405190810160405280929190818152602001828054610ce890614c6b565b8015610d355780601f10610d0a57610100808354040283529160200191610d35565b820191906000526020600020905b815481529060010190602001808311610d1857829003601f168201915b5050505050905090565b6000610d4a826134a6565b610d89576040517f08c379a0000000000000000000000000000000000000000000000000000000008152600401610d8090614e11565b60405180910390fd5b6004600083815260200190815260200160002060009054906101000a900473ffffffffffffffffffffffffffffffffffffffff169050919050565b6000610dcf82611be2565b90508073ffffffffffffffffffffffffffffffffffffffff168373ffffffffffffffffffffffffffffffffffffffff161415610e40576040517f08c379a0000000000000000000000000000000000000000000000000000000008152600401610e3790614ea3565b60405180910390fd5b8073ffffffffffffffffffffffffffffffffffffffff16610e5f613512565b73ffffffffffffffffffffffffffffffffffffffff161480610e8e5750610e8d81610e88613512565b613220565b5b610ecd576040517f08c379a0000000000000000000000000000000000000000000000000000000008152600401610ec490614f35565b60405180910390fd5b610ed7838361351a565b505050565b6000600880549050905090565b610efa610ef4613512565b826135d3565b610f39576040517f08c379a0000000000000000000000000000000000000000000000000000000008152600401610f3090614fc7565b60405180910390fd5b610f448383836136b1565b505050565b6000610f5483612556565b8210610f95576040517f08c379a0000000000000000000000000000000000000000000000000000000008152600401610f8c90615059565b60405180910390fd5b600660008473ffffffffffffffffffffffffffffffffffffffff1673ffffffffffffffffffffffffffffffffffffffff168152602001908152602001600020600083815260200190815260200160002054905092915050565b610ff6613512565b73ffffffffffffffffffffffffffffffffffffffff166110146128eb565b73ffffffffffffffffffffffffffffffffffffffff161461106a576040517f08c379a0000000000000000000000000000000000000000000000000000000008152600401611061906150c5565b60405180910390fd5b6001601460006101000a81548160ff021916908315150217905550565b6110a283838360405180602001604052806000815250612ec1565b505050565b60136020528060005260406000206000915090508060000154908060010180546110d090614c6b565b80601f01602080910402602001604051908101604052809291908181526020018280546110fc90614c6b565b80156111495780601f1061111e57610100808354040283529160200191611149565b820191906000526020600020905b81548152906001019060200180831161112c57829003601f168201915b50505050509080600201805461115e90614c6b565b80601f016020809104026020016040519081016040528092919081815260200182805461118a90614c6b565b80156111d75780601f106111ac576101008083540402835291602001916111d7565b820191906000526020600020905b8154815290600101906020018083116111ba57829003601f168201915b5050505050908060030160009054906101000a900473ffffffffffffffffffffffffffffffffffffffff16908060040160009054906101000a900473ffffffffffffffffffffffffffffffffffffffff16908060050160009054906101000a900473ffffffffffffffffffffffffffffffffffffffff16908060060154908060070154908060080160009054906101000a900460ff16905089565b600061127c610edc565b82106112bd576040517f08c379a00000000000000000000000000000000000000000000000000000000081526004016112b490615157565b60405180910390fd5b600882815481106112d1576112d0615177565b5b90600052602060002001549050919050565b601460019054906101000a900460ff16801561130c5750601460009054906101000a900460ff16155b61134b576040517f08c379a0000000000000000000000000000000000000000000000000000000008152600401611342906151f2565b60405180910390fd5b601054811115611390576040517f08c379a00000000000000000000000000000000000000000000000000000000081526004016113879061525e565b60405180910390fd5b60006013600083815260200190815260200160002060405180610120016040529081600082015481526020016001820180546113cb90614c6b565b80601f01602080910402602001604051908101604052809291908181526020018280546113f790614c6b565b80156114445780601f1061141957610100808354040283529160200191611444565b820191906000526020600020905b81548152906001019060200180831161142757829003601f168201915b5050505050815260200160028201805461145d90614c6b565b80601f016020809104026020016040519081016040528092919081815260200182805461148990614c6b565b80156114d65780601f106114ab576101008083540402835291602001916114d6565b820191906000526020600020905b8154815290600101906020018083116114b957829003601f168201915b505050505081526020016003820160009054906101000a900473ffffffffffffffffffffffffffffffffffffffff1673ffffffffffffffffffffffffffffffffffffffff1673ffffffffffffffffffffffffffffffffffffffff1681526020016004820160009054906101000a900473ffffffffffffffffffffffffffffffffffffffff1673ffffffffffffffffffffffffffffffffffffffff1673ffffffffffffffffffffffffffffffffffffffff1681526020016005820160009054906101000a900473ffffffffffffffffffffffffffffffffffffffff1673ffffffffffffffffffffffffffffffffffffffff1673ffffffffffffffffffffffffffffffffffffffff16815260200160068201548152602001600782015481526020016008820160009054906101000a900460ff16151515158152505090508273ffffffffffffffffffffffffffffffffffffffff166323b872dd30836080015184600001516040518463ffffffff1660e01b81526004016116579392919061527e565b600060405180830381600087803b15801561167157600080fd5b505af1158015611685573d6000803e3d6000fd5b50505050505050565b611696613512565b73ffffffffffffffffffffffffffffffffffffffff166116b46128eb565b73ffffffffffffffffffffffffffffffffffffffff161461170a576040517f08c379a0000000000000000000000000000000000000000000000000000000008152600401611701906150c5565b60405180910390fd5b6001601460016101000a81548160ff021916908315150217905550565b601460009054906101000a900460ff16611776576040517f08c379a000000000000000000000000000000000000000000000000000000000815260040161176d90615301565b60405180910390fd5b600073ffffffffffffffffffffffffffffffffffffffff163373ffffffffffffffffffffffffffffffffffffffff1614156117b057600080fd5b60006013600084815260200190815260200160002060405180610120016040529081600082015481526020016001820180546117eb90614c6b565b80601f016020809104026020016040519081016040528092919081815260200182805461181790614c6b565b80156118645780601f1061183957610100808354040283529160200191611864565b820191906000526020600020905b81548152906001019060200180831161184757829003601f168201915b5050505050815260200160028201805461187d90614c6b565b80601f01602080910402602001604051908101604052809291908181526020018280546118a990614c6b565b80156118f65780601f106118cb576101008083540402835291602001916118f6565b820191906000526020600020905b8154815290600101906020018083116118d957829003601f168201915b505050505081526020016003820160009054906101000a900473ffffffffffffffffffffffffffffffffffffffff1673ffffffffffffffffffffffffffffffffffffffff1673ffffffffffffffffffffffffffffffffffffffff1681526020016004820160009054906101000a900473ffffffffffffffffffffffffffffffffffffffff1673ffffffffffffffffffffffffffffffffffffffff1673ffffffffffffffffffffffffffffffffffffffff1681526020016005820160009054906101000a900473ffffffffffffffffffffffffffffffffffffffff1673ffffffffffffffffffffffffffffffffffffffff1673ffffffffffffffffffffffffffffffffffffffff16815260200160068201548152602001600782015481526020016008820160009054906101000a900460ff16151515158152505090503373ffffffffffffffffffffffffffffffffffffffff16816080015173ffffffffffffffffffffffffffffffffffffffff1614611a6e57600080fd5b818160c00181815250508060136000858152602001908152602001600020600082015181600001556020820151816001019080519060200190611ab2929190614358565b506040820151816002019080519060200190611acf929190614358565b5060608201518160030160006101000a81548173ffffffffffffffffffffffffffffffffffffffff021916908373ffffffffffffffffffffffffffffffffffffffff16021790555060808201518160040160006101000a81548173ffffffffffffffffffffffffffffffffffffffff021916908373ffffffffffffffffffffffffffffffffffffffff16021790555060a08201518160050160006101000a81548173ffffffffffffffffffffffffffffffffffffffff021916908373ffffffffffffffffffffffffffffffffffffffff16021790555060c0820151816006015560e082015181600701556101008201518160080160006101000a81548160ff021916908315150217905550905050505050565b6000806002600084815260200190815260200160002060009054906101000a900473ffffffffffffffffffffffffffffffffffffffff169050600073ffffffffffffffffffffffffffffffffffffffff168173ffffffffffffffffffffffffffffffffffffffff161415611c8b576040517f08c379a0000000000000000000000000000000000000000000000000000000008152600401611c8290615393565b60405180910390fd5b80915050919050565b601460009054906101000a900460ff16611ce3576040517f08c379a0000000000000000000000000000000000000000000000000000000008152600401611cda90615301565b60405180910390fd5b600073ffffffffffffffffffffffffffffffffffffffff163373ffffffffffffffffffffffffffffffffffffffff161415611d1d57600080fd5b6000601360008381526020019081526020016000206040518061012001604052908160008201548152602001600182018054611d5890614c6b565b80601f0160208091040260200160405190810160405280929190818152602001828054611d8490614c6b565b8015611dd15780601f10611da657610100808354040283529160200191611dd1565b820191906000526020600020905b815481529060010190602001808311611db457829003601f168201915b50505050508152602001600282018054611dea90614c6b565b80601f0160208091040260200160405190810160405280929190818152602001828054611e1690614c6b565b8015611e635780601f10611e3857610100808354040283529160200191611e63565b820191906000526020600020905b815481529060010190602001808311611e4657829003601f168201915b505050505081526020016003820160009054906101000a900473ffffffffffffffffffffffffffffffffffffffff1673ffffffffffffffffffffffffffffffffffffffff1673ffffffffffffffffffffffffffffffffffffffff1681526020016004820160009054906101000a900473ffffffffffffffffffffffffffffffffffffffff1673ffffffffffffffffffffffffffffffffffffffff1673ffffffffffffffffffffffffffffffffffffffff1681526020016005820160009054906101000a900473ffffffffffffffffffffffffffffffffffffffff1673ffffffffffffffffffffffffffffffffffffffff1673ffffffffffffffffffffffffffffffffffffffff16815260200160068201548152602001600782015481526020016008820160009054906101000a900460ff1615151515815250509050600081608001519050600073ffffffffffffffffffffffffffffffffffffffff168173ffffffffffffffffffffffffffffffffffffffff161415611fe257600080fd5b3373ffffffffffffffffffffffffffffffffffffffff168173ffffffffffffffffffffffffffffffffffffffff16141561201b57600080fd5b8160c00151341015612062576040517f08c379a0000000000000000000000000000000000000000000000000000000008152600401612059906153ff565b60405180910390fd5b8161010001516120a7576040517f08c379a000000000000000000000000000000000000000000000000000000000815260040161209e9061546b565b60405180910390fd5b600080600b60009054906101000a900473ffffffffffffffffffffffffffffffffffffffff1673ffffffffffffffffffffffffffffffffffffffff16632a55205a868660c001516040518363ffffffff1660e01b815260040161210b92919061548b565b6040805180830381865afa158015612127573d6000803e3d6000fd5b505050506040513d601f19601f8201168201806040525081019061214b91906154de565b9150915060006064600e548660c00151612165919061551e565b61216f91906155a7565b905060006064600f548760c00151612187919061551e565b61219191906155a7565b905060008183858960c001516121a79190614ccc565b6121b19190614ccc565b6121bb9190614ccc565b90508873ffffffffffffffffffffffffffffffffffffffff1663f5537ede87338b6040518463ffffffff1660e01b81526004016121fa9392919061527e565b600060405180830381600087803b15801561221457600080fd5b505af1158015612228573d6000803e3d6000fd5b5050505060008760800151905087608001518860a0019073ffffffffffffffffffffffffffffffffffffffff16908173ffffffffffffffffffffffffffffffffffffffff168152505033886080019073ffffffffffffffffffffffffffffffffffffffff16908173ffffffffffffffffffffffffffffffffffffffff168152505060018860e0018181516122bc9190614d00565b9150818152505087601360008b81526020019081526020016000206000820151816000015560208201518160010190805190602001906122fd929190614358565b50604082015181600201908051906020019061231a929190614358565b5060608201518160030160006101000a81548173ffffffffffffffffffffffffffffffffffffffff021916908373ffffffffffffffffffffffffffffffffffffffff16021790555060808201518160040160006101000a81548173ffffffffffffffffffffffffffffffffffffffff021916908373ffffffffffffffffffffffffffffffffffffffff16021790555060a08201518160050160006101000a81548173ffffffffffffffffffffffffffffffffffffffff021916908373ffffffffffffffffffffffffffffffffffffffff16021790555060c0820151816006015560e082015181600701556101008201518160080160006101000a81548160ff0219169083151502179055509050508073ffffffffffffffffffffffffffffffffffffffff166108fc839081150290604051600060405180830381858888f1935050505015801561246e573d6000803e3d6000fd5b508573ffffffffffffffffffffffffffffffffffffffff166108fc869081150290604051600060405180830381858888f193505050501580156124b5573d6000803e3d6000fd5b5050505050505050505050565b60115481565b600d80546124d590614c6b565b80601f016020809104026020016040519081016040528092919081815260200182805461250190614c6b565b801561254e5780601f106125235761010080835404028352916020019161254e565b820191906000526020600020905b81548152906001019060200180831161253157829003601f168201915b505050505081565b60008073ffffffffffffffffffffffffffffffffffffffff168273ffffffffffffffffffffffffffffffffffffffff1614156125c7576040517f08c379a00000000000000000000000000000000000000000000000000000000081526004016125be9061564a565b60405180910390fd5b600360008373ffffffffffffffffffffffffffffffffffffffff1673ffffffffffffffffffffffffffffffffffffffff168152602001908152602001600020549050919050565b612616613512565b73ffffffffffffffffffffffffffffffffffffffff166126346128eb565b73ffffffffffffffffffffffffffffffffffffffff161461268a576040517f08c379a0000000000000000000000000000000000000000000000000000000008152600401612681906150c5565b60405180910390fd5b6126946000613918565b565b600e5481565b601460009054906101000a900460ff166126eb576040517f08c379a00000000000000000000000000000000000000000000000000000000081526004016126e290615301565b60405180910390fd5b60006040518061012001604052808b81526020018a81526020018981526020018873ffffffffffffffffffffffffffffffffffffffff1681526020018773ffffffffffffffffffffffffffffffffffffffff1681526020018673ffffffffffffffffffffffffffffffffffffffff168152602001858152602001848152602001831515815250905080601360008c81526020019081526020016000206000820151816000015560208201518160010190805190602001906127ad929190614358565b5060408201518160020190805190602001906127ca929190614358565b5060608201518160030160006101000a81548173ffffffffffffffffffffffffffffffffffffffff021916908373ffffffffffffffffffffffffffffffffffffffff16021790555060808201518160040160006101000a81548173ffffffffffffffffffffffffffffffffffffffff021916908373ffffffffffffffffffffffffffffffffffffffff16021790555060a08201518160050160006101000a81548173ffffffffffffffffffffffffffffffffffffffff021916908373ffffffffffffffffffffffffffffffffffffffff16021790555060c0820151816006015560e082015181600701556101008201518160080160006101000a81548160ff0219169083151502179055509050508960108190555050505050505050505050565b6000600a60009054906101000a900473ffffffffffffffffffffffffffffffffffffffff16905090565b60606001805461292490614c6b565b80601f016020809104026020016040519081016040528092919081815260200182805461295090614c6b565b801561299d5780601f106129725761010080835404028352916020019161299d565b820191906000526020600020905b81548152906001019060200180831161298057829003601f168201915b5050505050905090565b6129b96129b2613512565b83836139de565b5050565b601460009054906101000a900460ff16612a0c576040517f08c379a0000000000000000000000000000000000000000000000000000000008152600401612a0390615301565b60405180910390fd5b600073ffffffffffffffffffffffffffffffffffffffff163373ffffffffffffffffffffffffffffffffffffffff161415612a4657600080fd5b6000601360008381526020019081526020016000206040518061012001604052908160008201548152602001600182018054612a8190614c6b565b80601f0160208091040260200160405190810160405280929190818152602001828054612aad90614c6b565b8015612afa5780601f10612acf57610100808354040283529160200191612afa565b820191906000526020600020905b815481529060010190602001808311612add57829003601f168201915b50505050508152602001600282018054612b1390614c6b565b80601f0160208091040260200160405190810160405280929190818152602001828054612b3f90614c6b565b8015612b8c5780601f10612b6157610100808354040283529160200191612b8c565b820191906000526020600020905b815481529060010190602001808311612b6f57829003601f168201915b505050505081526020016003820160009054906101000a900473ffffffffffffffffffffffffffffffffffffffff1673ffffffffffffffffffffffffffffffffffffffff1673ffffffffffffffffffffffffffffffffffffffff1681526020016004820160009054906101000a900473ffffffffffffffffffffffffffffffffffffffff1673ffffffffffffffffffffffffffffffffffffffff1673ffffffffffffffffffffffffffffffffffffffff1681526020016005820160009054906101000a900473ffffffffffffffffffffffffffffffffffffffff1673ffffffffffffffffffffffffffffffffffffffff1673ffffffffffffffffffffffffffffffffffffffff16815260200160068201548152602001600782015481526020016008820160009054906101000a900460ff16151515158152505090506000816080015190503373ffffffffffffffffffffffffffffffffffffffff168173ffffffffffffffffffffffffffffffffffffffff1614612d0957600080fd5b81610100015115612d2b57600082610100019015159081151581525050612d3e565b6001826101000190151590811515815250505b8160136000858152602001908152602001600020600082015181600001556020820151816001019080519060200190612d78929190614358565b506040820151816002019080519060200190612d95929190614358565b5060608201518160030160006101000a81548173ffffffffffffffffffffffffffffffffffffffff021916908373ffffffffffffffffffffffffffffffffffffffff16021790555060808201518160040160006101000a81548173ffffffffffffffffffffffffffffffffffffffff021916908373ffffffffffffffffffffffffffffffffffffffff16021790555060a08201518160050160006101000a81548173ffffffffffffffffffffffffffffffffffffffff021916908373ffffffffffffffffffffffffffffffffffffffff16021790555060c0820151816006015560e082015181600701556101008201518160080160006101000a81548160ff021916908315150217905550905050505050565b600f5481565b601460019054906101000a900460ff1681565b612ed2612ecc613512565b836135d3565b612f11576040517f08c379a0000000000000000000000000000000000000000000000000000000008152600401612f0890614fc7565b60405180910390fd5b612f1d84848484613b4b565b50505050565b612f2b613512565b73ffffffffffffffffffffffffffffffffffffffff16612f496128eb565b73ffffffffffffffffffffffffffffffffffffffff1614612f9f576040517f08c379a0000000000000000000000000000000000000000000000000000000008152600401612f96906150c5565b60405180910390fd5b6064821115612fe3576040517f08c379a0000000000000000000000000000000000000000000000000000000008152600401612fda906156dc565b60405180910390fd5b6064811115613027576040517f08c379a000000000000000000000000000000000000000000000000000000000815260040161301e906156dc565b60405180910390fd5b81600e8190555080600f819055505050565b60105481565b613047613512565b73ffffffffffffffffffffffffffffffffffffffff166130656128eb565b73ffffffffffffffffffffffffffffffffffffffff16146130bb576040517f08c379a00000000000000000000000000000000000000000000000000000000081526004016130b2906150c5565b60405180910390fd5b6000601460006101000a81548160ff021916908315150217905550565b60606130e3826134a6565b613122576040517f08c379a00000000000000000000000000000000000000000000000000000000081526004016131199061576e565b60405180910390fd5b600061312c613ba7565b9050600081511161314c5760405180602001604052806000815250613177565b8061315684613bbe565b6040516020016131679291906157ca565b6040516020818303038152906040525b915050919050565b601460009054906101000a900460ff1681565b600c805461319f90614c6b565b80601f01602080910402602001604051908101604052809291908181526020018280546131cb90614c6b565b80156132185780601f106131ed57610100808354040283529160200191613218565b820191906000526020600020905b8154815290600101906020018083116131fb57829003601f168201915b505050505081565b6000600560008473ffffffffffffffffffffffffffffffffffffffff1673ffffffffffffffffffffffffffffffffffffffff16815260200190815260200160002060008373ffffffffffffffffffffffffffffffffffffffff1673ffffffffffffffffffffffffffffffffffffffff16815260200190815260200160002060009054906101000a900460ff16905092915050565b6132bc613512565b73ffffffffffffffffffffffffffffffffffffffff166132da6128eb565b73ffffffffffffffffffffffffffffffffffffffff1614613330576040517f08c379a0000000000000000000000000000000000000000000000000000000008152600401613327906150c5565b60405180910390fd5b600073ffffffffffffffffffffffffffffffffffffffff168173ffffffffffffffffffffffffffffffffffffffff1614156133a0576040517f08c379a000000000000000000000000000000000000000000000000000000000815260040161339790615860565b60405180910390fd5b6133a981613918565b50565b60126020528060005260406000206000915090505481565b60007f80ac58cd000000000000000000000000000000000000000000000000000000007bffffffffffffffffffffffffffffffffffffffffffffffffffffffff1916827bffffffffffffffffffffffffffffffffffffffffffffffffffffffff1916148061348f57507f5b5e139f000000000000000000000000000000000000000000000000000000007bffffffffffffffffffffffffffffffffffffffffffffffffffffffff1916827bffffffffffffffffffffffffffffffffffffffffffffffffffffffff1916145b8061349f575061349e82613d1f565b5b9050919050565b60008073ffffffffffffffffffffffffffffffffffffffff166002600084815260200190815260200160002060009054906101000a900473ffffffffffffffffffffffffffffffffffffffff1673ffffffffffffffffffffffffffffffffffffffff1614159050919050565b600033905090565b816004600083815260200190815260200160002060006101000a81548173ffffffffffffffffffffffffffffffffffffffff021916908373ffffffffffffffffffffffffffffffffffffffff160217905550808273ffffffffffffffffffffffffffffffffffffffff1661358d83611be2565b73ffffffffffffffffffffffffffffffffffffffff167f8c5be1e5ebec7d5bd14f71427d1e84f3dd0314c0f7b2291e5b200ac8c7c3b92560405160405180910390a45050565b60006135de826134a6565b61361d576040517f08c379a0000000000000000000000000000000000000000000000000000000008152600401613614906158f2565b60405180910390fd5b600061362883611be2565b90508073ffffffffffffffffffffffffffffffffffffffff168473ffffffffffffffffffffffffffffffffffffffff16148061369757508373ffffffffffffffffffffffffffffffffffffffff1661367f84610d3f565b73ffffffffffffffffffffffffffffffffffffffff16145b806136a857506136a78185613220565b5b91505092915050565b8273ffffffffffffffffffffffffffffffffffffffff166136d182611be2565b73ffffffffffffffffffffffffffffffffffffffff1614613727576040517f08c379a000000000000000000000000000000000000000000000000000000000815260040161371e90615984565b60405180910390fd5b600073ffffffffffffffffffffffffffffffffffffffff168273ffffffffffffffffffffffffffffffffffffffff161415613797576040517f08c379a000000000000000000000000000000000000000000000000000000000815260040161378e90615a16565b60405180910390fd5b6137a2838383613d89565b6137ad60008261351a565b6001600360008573ffffffffffffffffffffffffffffffffffffffff1673ffffffffffffffffffffffffffffffffffffffff16815260200190815260200160002060008282546137fd9190614ccc565b925050819055506001600360008473ffffffffffffffffffffffffffffffffffffffff1673ffffffffffffffffffffffffffffffffffffffff16815260200190815260200160002060008282546138549190614d00565b92505081905550816002600083815260200190815260200160002060006101000a81548173ffffffffffffffffffffffffffffffffffffffff021916908373ffffffffffffffffffffffffffffffffffffffff160217905550808273ffffffffffffffffffffffffffffffffffffffff168473ffffffffffffffffffffffffffffffffffffffff167fddf252ad1be2c89b69c2b068fc378daa952ba7f163c4a11628f55a4df523b3ef60405160405180910390a4613913838383613e9d565b505050565b6000600a60009054906101000a900473ffffffffffffffffffffffffffffffffffffffff16905081600a60006101000a81548173ffffffffffffffffffffffffffffffffffffffff021916908373ffffffffffffffffffffffffffffffffffffffff1602179055508173ffffffffffffffffffffffffffffffffffffffff168173ffffffffffffffffffffffffffffffffffffffff167f8be0079c531659141344cd1fd0a4f28419497f9722a3daafe3b4186f6b6457e060405160405180910390a35050565b8173ffffffffffffffffffffffffffffffffffffffff168373ffffffffffffffffffffffffffffffffffffffff161415613a4d576040517f08c379a0000000000000000000000000000000000000000000000000000000008152600401613a4490615a82565b60405180910390fd5b80600560008573ffffffffffffffffffffffffffffffffffffffff1673ffffffffffffffffffffffffffffffffffffffff16815260200190815260200160002060008473ffffffffffffffffffffffffffffffffffffffff1673ffffffffffffffffffffffffffffffffffffffff16815260200190815260200160002060006101000a81548160ff0219169083151502179055508173ffffffffffffffffffffffffffffffffffffffff168373ffffffffffffffffffffffffffffffffffffffff167f17307eab39ab6107e8899845ad3d59bd9653f200f220920489ca2b5937696c3183604051613b3e91906144af565b60405180910390a3505050565b613b568484846136b1565b613b6284848484613ea2565b613ba1576040517f08c379a0000000000000000000000000000000000000000000000000000000008152600401613b9890615b14565b60405180910390fd5b50505050565b606060405180602001604052806000815250905090565b60606000821415613c06576040518060400160405280600181526020017f30000000000000000000000000000000000000000000000000000000000000008152509050613d1a565b600082905060005b60008214613c38578080613c2190614d56565b915050600a82613c3191906155a7565b9150613c0e565b60008167ffffffffffffffff811115613c5457613c5361483f565b5b6040519080825280601f01601f191660200182016040528015613c865781602001600182028036833780820191505090505b5090505b60008514613d1357600182613c9f9190614ccc565b9150600a85613cae9190615b34565b6030613cba9190614d00565b60f81b818381518110613cd057613ccf615177565b5b60200101907effffffffffffffffffffffffffffffffffffffffffffffffffffffffffffff1916908160001a905350600a85613d0c91906155a7565b9450613c8a565b8093505050505b919050565b60007f01ffc9a7000000000000000000000000000000000000000000000000000000007bffffffffffffffffffffffffffffffffffffffffffffffffffffffff1916827bffffffffffffffffffffffffffffffffffffffffffffffffffffffff1916149050919050565b613d9483838361402a565b600073ffffffffffffffffffffffffffffffffffffffff168373ffffffffffffffffffffffffffffffffffffffff161415613dd757613dd28161402f565b613e16565b8173ffffffffffffffffffffffffffffffffffffffff168373ffffffffffffffffffffffffffffffffffffffff1614613e1557613e148382614078565b5b5b600073ffffffffffffffffffffffffffffffffffffffff168273ffffffffffffffffffffffffffffffffffffffff161415613e5957613e54816141e5565b613e98565b8273ffffffffffffffffffffffffffffffffffffffff168273ffffffffffffffffffffffffffffffffffffffff1614613e9757613e9682826142b6565b5b5b505050565b505050565b6000613ec38473ffffffffffffffffffffffffffffffffffffffff16614335565b1561401d578373ffffffffffffffffffffffffffffffffffffffff1663150b7a02613eec613512565b8786866040518563ffffffff1660e01b8152600401613f0e9493929190615bba565b6020604051808303816000875af1925050508015613f4a57506040513d601f19601f82011682018060405250810190613f479190615c1b565b60015b613fcd573d8060008114613f7a576040519150601f19603f3d011682016040523d82523d6000602084013e613f7f565b606091505b50600081511415613fc5576040517f08c379a0000000000000000000000000000000000000000000000000000000008152600401613fbc90615b14565b60405180910390fd5b805181602001fd5b63150b7a0260e01b7bffffffffffffffffffffffffffffffffffffffffffffffffffffffff1916817bffffffffffffffffffffffffffffffffffffffffffffffffffffffff191614915050614022565b600190505b949350505050565b505050565b6008805490506009600083815260200190815260200160002081905550600881908060018154018082558091505060019003906000526020600020016000909190919091505550565b6000600161408584612556565b61408f9190614ccc565b9050600060076000848152602001908152602001600020549050818114614174576000600660008673ffffffffffffffffffffffffffffffffffffffff1673ffffffffffffffffffffffffffffffffffffffff168152602001908152602001600020600084815260200190815260200160002054905080600660008773ffffffffffffffffffffffffffffffffffffffff1673ffffffffffffffffffffffffffffffffffffffff168152602001908152602001600020600084815260200190815260200160002081905550816007600083815260200190815260200160002081905550505b6007600084815260200190815260200160002060009055600660008573ffffffffffffffffffffffffffffffffffffffff1673ffffffffffffffffffffffffffffffffffffffff16815260200190815260200160002060008381526020019081526020016000206000905550505050565b600060016008805490506141f99190614ccc565b905060006009600084815260200190815260200160002054905060006008838154811061422957614228615177565b5b90600052602060002001549050806008838154811061424b5761424a615177565b5b90600052602060002001819055508160096000838152602001908152602001600020819055506009600085815260200190815260200160002060009055600880548061429a57614299615c48565b5b6001900381819060005260206000200160009055905550505050565b60006142c183612556565b905081600660008573ffffffffffffffffffffffffffffffffffffffff1673ffffffffffffffffffffffffffffffffffffffff168152602001908152602001600020600083815260200190815260200160002081905550806007600084815260200190815260200160002081905550505050565b6000808273ffffffffffffffffffffffffffffffffffffffff163b119050919050565b82805461436490614c6b565b90600052602060002090601f01602090048101928261438657600085556143cd565b82601f1061439f57805160ff19168380011785556143cd565b828001600101855582156143cd579182015b828111156143cc5782518255916020019190600101906143b1565b5b5090506143da91906143de565b5090565b5b808211156143f75760008160009055506001016143df565b5090565b6000604051905090565b600080fd5b600080fd5b60007fffffffff0000000000000000000000000000000000000000000000000000000082169050919050565b6144448161440f565b811461444f57600080fd5b50565b6000813590506144618161443b565b92915050565b60006020828403121561447d5761447c614405565b5b600061448b84828501614452565b91505092915050565b60008115159050919050565b6144a981614494565b82525050565b60006020820190506144c460008301846144a0565b92915050565b6000819050919050565b6144dd816144ca565b82525050565b60006020820190506144f860008301846144d4565b92915050565b600081519050919050565b600082825260208201905092915050565b60005b8381101561453857808201518184015260208101905061451d565b83811115614547576000848401525b50505050565b6000601f19601f8301169050919050565b6000614569826144fe565b6145738185614509565b935061458381856020860161451a565b61458c8161454d565b840191505092915050565b600060208201905081810360008301526145b1818461455e565b905092915050565b6145c2816144ca565b81146145cd57600080fd5b50565b6000813590506145df816145b9565b92915050565b6000602082840312156145fb576145fa614405565b5b6000614609848285016145d0565b91505092915050565b600073ffffffffffffffffffffffffffffffffffffffff82169050919050565b600061463d82614612565b9050919050565b61464d81614632565b82525050565b60006020820190506146686000830184614644565b92915050565b61467781614632565b811461468257600080fd5b50565b6000813590506146948161466e565b92915050565b600080604083850312156146b1576146b0614405565b5b60006146bf85828601614685565b92505060206146d0858286016145d0565b9150509250929050565b6000806000606084860312156146f3576146f2614405565b5b600061470186828701614685565b935050602061471286828701614685565b9250506040614723868287016145d0565b9150509250925092565b600061012082019050614743600083018c6144d4565b8181036020830152614755818b61455e565b90508181036040830152614769818a61455e565b90506147786060830189614644565b6147856080830188614644565b61479260a0830187614644565b61479f60c08301866144d4565b6147ac60e08301856144d4565b6147ba6101008301846144a0565b9a9950505050505050505050565b600080604083850312156147df576147de614405565b5b60006147ed858286016145d0565b92505060206147fe858286016145d0565b9150509250929050565b60006020828403121561481e5761481d614405565b5b600061482c84828501614685565b91505092915050565b600080fd5b600080fd5b7f4e487b7100000000000000000000000000000000000000000000000000000000600052604160045260246000fd5b6148778261454d565b810181811067ffffffffffffffff821117156148965761489561483f565b5b80604052505050565b60006148a96143fb565b90506148b5828261486e565b919050565b600067ffffffffffffffff8211156148d5576148d461483f565b5b6148de8261454d565b9050602081019050919050565b82818337600083830152505050565b600061490d614908846148ba565b61489f565b9050828152602081018484840111156149295761492861483a565b5b6149348482856148eb565b509392505050565b600082601f83011261495157614950614835565b5b81356149618482602086016148fa565b91505092915050565b61497381614494565b811461497e57600080fd5b50565b6000813590506149908161496a565b92915050565b60008060008060008060008060006101208a8c0312156149b9576149b8614405565b5b60006149c78c828d016145d0565b99505060208a013567ffffffffffffffff8111156149e8576149e761440a565b5b6149f48c828d0161493c565b98505060408a013567ffffffffffffffff811115614a1557614a1461440a565b5b614a218c828d0161493c565b9750506060614a328c828d01614685565b9650506080614a438c828d01614685565b95505060a0614a548c828d01614685565b94505060c0614a658c828d016145d0565b93505060e0614a768c828d016145d0565b925050610100614a888c828d01614981565b9150509295985092959850929598565b60008060408385031215614aaf57614aae614405565b5b6000614abd85828601614685565b9250506020614ace85828601614981565b9150509250929050565b600067ffffffffffffffff821115614af357614af261483f565b5b614afc8261454d565b9050602081019050919050565b6000614b1c614b1784614ad8565b61489f565b905082815260208101848484011115614b3857614b3761483a565b5b614b438482856148eb565b509392505050565b600082601f830112614b6057614b5f614835565b5b8135614b70848260208601614b09565b91505092915050565b60008060008060808587031215614b9357614b92614405565b5b6000614ba187828801614685565b9450506020614bb287828801614685565b9350506040614bc3878288016145d0565b925050606085013567ffffffffffffffff811115614be457614be361440a565b5b614bf087828801614b4b565b91505092959194509250565b60008060408385031215614c1357614c12614405565b5b6000614c2185828601614685565b9250506020614c3285828601614685565b9150509250929050565b7f4e487b7100000000000000000000000000000000000000000000000000000000600052602260045260246000fd5b60006002820490506001821680614c8357607f821691505b60208210811415614c9757614c96614c3c565b5b50919050565b7f4e487b7100000000000000000000000000000000000000000000000000000000600052601160045260246000fd5b6000614cd7826144ca565b9150614ce2836144ca565b925082821015614cf557614cf4614c9d565b5b828203905092915050565b6000614d0b826144ca565b9150614d16836144ca565b9250827fffffffffffffffffffffffffffffffffffffffffffffffffffffffffffffffff03821115614d4b57614d4a614c9d565b5b828201905092915050565b6000614d61826144ca565b91507fffffffffffffffffffffffffffffffffffffffffffffffffffffffffffffffff821415614d9457614d93614c9d565b5b600182019050919050565b7f4552433732313a20617070726f76656420717565727920666f72206e6f6e657860008201527f697374656e7420746f6b656e0000000000000000000000000000000000000000602082015250565b6000614dfb602c83614509565b9150614e0682614d9f565b604082019050919050565b60006020820190508181036000830152614e2a81614dee565b9050919050565b7f4552433732313a20617070726f76616c20746f2063757272656e74206f776e6560008201527f7200000000000000000000000000000000000000000000000000000000000000602082015250565b6000614e8d602183614509565b9150614e9882614e31565b604082019050919050565b60006020820190508181036000830152614ebc81614e80565b9050919050565b7f4552433732313a20617070726f76652063616c6c6572206973206e6f74206f7760008201527f6e6572206e6f7220617070726f76656420666f7220616c6c0000000000000000602082015250565b6000614f1f603883614509565b9150614f2a82614ec3565b604082019050919050565b60006020820190508181036000830152614f4e81614f12565b9050919050565b7f4552433732313a207472616e736665722063616c6c6572206973206e6f74206f60008201527f776e6572206e6f7220617070726f766564000000000000000000000000000000602082015250565b6000614fb1603183614509565b9150614fbc82614f55565b604082019050919050565b60006020820190508181036000830152614fe081614fa4565b9050919050565b7f455243373231456e756d657261626c653a206f776e657220696e646578206f7560008201527f74206f6620626f756e6473000000000000000000000000000000000000000000602082015250565b6000615043602b83614509565b915061504e82614fe7565b604082019050919050565b6000602082019050818103600083015261507281615036565b9050919050565b7f4f776e61626c653a2063616c6c6572206973206e6f7420746865206f776e6572600082015250565b60006150af602083614509565b91506150ba82615079565b602082019050919050565b600060208201905081810360008301526150de816150a2565b9050919050565b7f455243373231456e756d657261626c653a20676c6f62616c20696e646578206f60008201527f7574206f6620626f756e64730000000000000000000000000000000000000000602082015250565b6000615141602c83614509565b915061514c826150e5565b604082019050919050565b6000602082019050818103600083015261517081615134565b9050919050565b7f4e487b7100000000000000000000000000000000000000000000000000000000600052603260045260246000fd5b7f4f6e6c7920696e20656d657267656e63792e0000000000000000000000000000600082015250565b60006151dc601283614509565b91506151e7826151a6565b602082019050919050565b6000602082019050818103600083015261520b816151cf565b9050919050565b7f496e76616c69642043727970746f426f79000000000000000000000000000000600082015250565b6000615248601183614509565b915061525382615212565b602082019050919050565b600060208201905081810360008301526152778161523b565b9050919050565b60006060820190506152936000830186614644565b6152a06020830185614644565b6152ad60408301846144d4565b949350505050565b7f4d61726b657420697320636c6f7365642e000000000000000000000000000000600082015250565b60006152eb601183614509565b91506152f6826152b5565b602082019050919050565b6000602082019050818103600083015261531a816152de565b9050919050565b7f4552433732313a206f776e657220717565727920666f72206e6f6e657869737460008201527f656e7420746f6b656e0000000000000000000000000000000000000000000000602082015250565b600061537d602983614509565b915061538882615321565b604082019050919050565b600060208201905081810360008301526153ac81615370565b9050919050565b7f5072696365204572720000000000000000000000000000000000000000000000600082015250565b60006153e9600983614509565b91506153f4826153b3565b602082019050919050565b60006020820190508181036000830152615418816153dc565b9050919050565b7f4e6f7420466f7253616c65204572720000000000000000000000000000000000600082015250565b6000615455600f83614509565b91506154608261541f565b602082019050919050565b6000602082019050818103600083015261548481615448565b9050919050565b60006040820190506154a060008301856144d4565b6154ad60208301846144d4565b9392505050565b6000815190506154c38161466e565b92915050565b6000815190506154d8816145b9565b92915050565b600080604083850312156154f5576154f4614405565b5b6000615503858286016154b4565b9250506020615514858286016154c9565b9150509250929050565b6000615529826144ca565b9150615534836144ca565b9250817fffffffffffffffffffffffffffffffffffffffffffffffffffffffffffffffff048311821515161561556d5761556c614c9d565b5b828202905092915050565b7f4e487b7100000000000000000000000000000000000000000000000000000000600052601260045260246000fd5b60006155b2826144ca565b91506155bd836144ca565b9250826155cd576155cc615578565b5b828204905092915050565b7f4552433732313a2062616c616e636520717565727920666f7220746865207a6560008201527f726f206164647265737300000000000000000000000000000000000000000000602082015250565b6000615634602a83614509565b915061563f826155d8565b604082019050919050565b6000602082019050818103600083015261566381615627565b9050919050565b7f4769766520612070657263656e746167652076616c75652066726f6d2030207460008201527f6f20313030000000000000000000000000000000000000000000000000000000602082015250565b60006156c6602583614509565b91506156d18261566a565b604082019050919050565b600060208201905081810360008301526156f5816156b9565b9050919050565b7f4552433732314d657461646174613a2055524920717565727920666f72206e6f60008201527f6e6578697374656e7420746f6b656e0000000000000000000000000000000000602082015250565b6000615758602f83614509565b9150615763826156fc565b604082019050919050565b600060208201905081810360008301526157878161574b565b9050919050565b600081905092915050565b60006157a4826144fe565b6157ae818561578e565b93506157be81856020860161451a565b80840191505092915050565b60006157d68285615799565b91506157e28284615799565b91508190509392505050565b7f4f776e61626c653a206e6577206f776e657220697320746865207a65726f206160008201527f6464726573730000000000000000000000000000000000000000000000000000602082015250565b600061584a602683614509565b9150615855826157ee565b604082019050919050565b600060208201905081810360008301526158798161583d565b9050919050565b7f4552433732313a206f70657261746f7220717565727920666f72206e6f6e657860008201527f697374656e7420746f6b656e0000000000000000000000000000000000000000602082015250565b60006158dc602c83614509565b91506158e782615880565b604082019050919050565b6000602082019050818103600083015261590b816158cf565b9050919050565b7f4552433732313a207472616e736665722066726f6d20696e636f72726563742060008201527f6f776e6572000000000000000000000000000000000000000000000000000000602082015250565b600061596e602583614509565b915061597982615912565b604082019050919050565b6000602082019050818103600083015261599d81615961565b9050919050565b7f4552433732313a207472616e7366657220746f20746865207a65726f2061646460008201527f7265737300000000000000000000000000000000000000000000000000000000602082015250565b6000615a00602483614509565b9150615a0b826159a4565b604082019050919050565b60006020820190508181036000830152615a2f816159f3565b9050919050565b7f4552433732313a20617070726f766520746f2063616c6c657200000000000000600082015250565b6000615a6c601983614509565b9150615a7782615a36565b602082019050919050565b60006020820190508181036000830152615a9b81615a5f565b9050919050565b7f4552433732313a207472616e7366657220746f206e6f6e20455243373231526560008201527f63656976657220696d706c656d656e7465720000000000000000000000000000602082015250565b6000615afe603283614509565b9150615b0982615aa2565b604082019050919050565b60006020820190508181036000830152615b2d81615af1565b9050919050565b6000615b3f826144ca565b9150615b4a836144ca565b925082615b5a57615b59615578565b5b828206905092915050565b600081519050919050565b600082825260208201905092915050565b6000615b8c82615b65565b615b968185615b70565b9350615ba681856020860161451a565b615baf8161454d565b840191505092915050565b6000608082019050615bcf6000830187614644565b615bdc6020830186614644565b615be960408301856144d4565b8181036060830152615bfb8184615b81565b905095945050505050565b600081519050615c158161443b565b92915050565b600060208284031215615c3157615c30614405565b5b6000615c3f84828501615c06565b91505092915050565b7f4e487b7100000000000000000000000000000000000000000000000000000000600052603160045260246000fdfea2646970667358221220646bfe3e62bee14b19a00d0fa0cb7d17070a30f10a16dcae852e705a92a5201e64736f6c634300080c0033",
  "immutableReferences": {},
  "source": "// SPDX-License-Identifier: MIT\npragma solidity >=0.8.0 <0.9.0;\n\nimport \"@openzeppelin/contracts/access/Ownable.sol\";\nimport \"@openzeppelin/contracts/token/ERC721/extensions/ERC721Enumerable.sol\";\nimport \"./CryptoBoys.sol\";\n\ninterface IERC2981Royalties {\n    function royaltyInfo(uint256 _tokenId, uint256 _value)\n        external\n        view\n        returns (address _receiver, uint256 _royaltyAmount);\n}\n\ncontract Market is ERC721Enumerable, Ownable {\n\n    IERC2981Royalties royaltyInterface;\n\n    // this contract's token collection name & symbol\n    string public collectionName;\n    string public collectionNameSymbol;\n    \n    uint256 public communityFeePercent = 1;\n    uint256 public marketFeePercent = 3;\n    uint256 public cryptoBoyCounter = 0;\n    uint256 public totalGivenRewardsPerToken = 0;\n    mapping (uint256 => uint256) public communityRewards;\n\n    // map cryptoboy's token id to crypto boy\n    mapping(uint256 => CryptoBoy) public allCryptoBoys;\n\n    struct CryptoBoy {\n        uint256 tokenId;\n        string tokenName;\n        string tokenURI;\n        address mintedBy;\n        address currentOwner;\n        address previousOwner;\n        uint256 price;\n        uint256 numberOfTransfers;\n        bool forSale;\n    }\n    // Feature\n    bool public isMarketOpen = true;\n    bool public emergencyDelisting = false;\n\n    // initialize contract while deployment with contract's collection name and token\n    constructor() ERC721(\"Taiwan Crypto Market\", \"TCM\") {\n        collectionName = name();\n        collectionNameSymbol = symbol();\n\n        royaltyInterface = IERC2981Royalties(address(this));\n    }\n\n    function openMarket() external onlyOwner {\n        isMarketOpen = true;\n    }\n\n    function closeMarket() external onlyOwner {\n        isMarketOpen = false;\n    }\n\n    function allowEmergencyDelisting() external onlyOwner {\n        emergencyDelisting = true;\n    }\n\n    function adjustFees(uint256 newDistFee, uint256 newMarketFee) external onlyOwner {\n        require(newDistFee <= 100, \"Give a percentage value from 0 to 100\");\n        require(newMarketFee <= 100, \"Give a percentage value from 0 to 100\");\n\n        communityFeePercent = newDistFee;\n        marketFeePercent = newMarketFee;\n    }\n\n    function emergencyDelist(address nftAddr, uint256 _tokenId) external {\n        require(emergencyDelisting && !isMarketOpen, \"Only in emergency.\");\n        require(_tokenId <= cryptoBoyCounter, \"Invalid CryptoBoy\");\n\n        CryptoBoy memory cryptoboy = allCryptoBoys[_tokenId];\n\n        CryptoBoys(nftAddr).transferFrom(address(this), cryptoboy.currentOwner, cryptoboy.tokenId);\n    }\n\n    // NFT\n    function appendCryptoBoy(\n        uint256 tokenId,\n        string memory name,\n        string memory uri,\n        address mintedBy,\n        address currOwner,\n        address prevOwner,\n        uint256 price,\n        uint256 numOfTransfers,\n        bool forSale\n    ) public {\n        require(isMarketOpen, \"Market is closed.\");\n        CryptoBoy memory newCryptoBoy = CryptoBoy(tokenId, name, uri, mintedBy, currOwner, prevOwner, price, numOfTransfers, forSale);\n\n        allCryptoBoys[tokenId] = newCryptoBoy;\n\n        cryptoBoyCounter = tokenId;\n    }\n\n    // by a token by passing in the token's id\n    function buyToken(address nftAddr, uint256 _tokenId) public payable {\n        require(isMarketOpen, \"Market is closed.\");\n        require(msg.sender != address(0));\n        // require(_exists(_tokenId));\n        \n        CryptoBoy memory cryptoboy = allCryptoBoys[_tokenId];\n\n        address tokenOwner = cryptoboy.currentOwner;\n        require(tokenOwner != address(0));\n        require(tokenOwner != msg.sender);\n\n        require(msg.value >= cryptoboy.price, \"Price Err\");\n        require(cryptoboy.forSale, \"Not ForSale Err\");\n\n        (address originalMinter, uint256 royaltyAmount) = royaltyInterface.royaltyInfo(_tokenId, cryptoboy.price);\n        uint256 community_cut = (cryptoboy.price * communityFeePercent) / 100;\n        uint256 market_cut = (cryptoboy.price * marketFeePercent) / 100;\n        uint256 holder_cut = cryptoboy.price - royaltyAmount - community_cut - market_cut;\n\n        // _transfer(tokenOwner, msg.sender, _tokenId);\n        CryptoBoys(nftAddr).transferToken(tokenOwner, msg.sender, _tokenId);\n\n        address sendTo = cryptoboy.currentOwner;\n        // payable(sendTo).transfer(msg.value);\n        cryptoboy.previousOwner = cryptoboy.currentOwner;\n        cryptoboy.currentOwner = msg.sender;\n        cryptoboy.numberOfTransfers += 1;\n        allCryptoBoys[_tokenId] = cryptoboy;\n\n        payable(sendTo).transfer(holder_cut);    \n        payable(originalMinter).transfer(royaltyAmount);\n    }\n\n    function changeTokenPrice(uint256 _tokenId, uint256 _newPrice) public {\n        require(isMarketOpen, \"Market is closed.\");\n        require(msg.sender != address(0));\n\n        CryptoBoy memory cryptoboy = allCryptoBoys[_tokenId];\n\n        require(cryptoboy.currentOwner == msg.sender);\n        cryptoboy.price = _newPrice;\n        allCryptoBoys[_tokenId] = cryptoboy;\n    }\n\n    // switch between set for sale and set not for sale\n    function toggleForSale(uint256 _tokenId) public {\n        require(isMarketOpen, \"Market is closed.\");\n        require(msg.sender != address(0));\n        // require(_exists(_tokenId));\n\n        CryptoBoy memory cryptoboy = allCryptoBoys[_tokenId];\n\n        address tokenOwner = cryptoboy.currentOwner;\n        require(tokenOwner == msg.sender);\n        \n        if(cryptoboy.forSale) {\n            cryptoboy.forSale = false;\n        } else {\n            cryptoboy.forSale = true;\n        }\n        \n        allCryptoBoys[_tokenId] = cryptoboy;\n    }\n\n    function getRewards() external view returns (uint256 amount) {\n        uint256 rewards = 0;\n\n        // Rewards of tokens owned by the sender\n        for (uint256 i = 0; i <= cryptoBoyCounter; i++) {\n            // uint256 tokenId = tokenOfOwnerByIndex(msg.sender, i);\n\n            CryptoBoy memory cryptoboy = allCryptoBoys[i];\n\n            address tokenOwner = ownerOf(cryptoboy.tokenId);\n\n            if ( tokenOwner == msg.sender) {\n                rewards += totalGivenRewardsPerToken - communityRewards[cryptoboy.tokenId];\n            }\n        }\n\n        return rewards;\n    }\n}",
  "sourcePath": "/Users/shirui/nft-dapp/nft-demo-dapp/src/contracts/Market.sol",
  "compiler": {
    "name": "solc",
    "version": "0.8.12+commit.f00d7308.Emscripten.clang"
  },
  "schemaVersion": "3.4.6",
  "updatedAt": "2022-03-23T07:02:19.255Z",
  "networkType": "ethereum",
  "devdoc": {
    "kind": "dev",
    "methods": {
      "approve(address,uint256)": {
        "details": "See {IERC721-approve}."
      },
      "balanceOf(address)": {
        "details": "See {IERC721-balanceOf}."
      },
      "getApproved(uint256)": {
        "details": "See {IERC721-getApproved}."
      },
      "isApprovedForAll(address,address)": {
        "details": "See {IERC721-isApprovedForAll}."
      },
      "name()": {
        "details": "See {IERC721Metadata-name}."
      },
      "owner()": {
        "details": "Returns the address of the current owner."
      },
      "ownerOf(uint256)": {
        "details": "See {IERC721-ownerOf}."
      },
      "renounceOwnership()": {
        "details": "Leaves the contract without owner. It will not be possible to call `onlyOwner` functions anymore. Can only be called by the current owner. NOTE: Renouncing ownership will leave the contract without an owner, thereby removing any functionality that is only available to the owner."
      },
      "safeTransferFrom(address,address,uint256)": {
        "details": "See {IERC721-safeTransferFrom}."
      },
      "safeTransferFrom(address,address,uint256,bytes)": {
        "details": "See {IERC721-safeTransferFrom}."
      },
      "setApprovalForAll(address,bool)": {
        "details": "See {IERC721-setApprovalForAll}."
      },
      "supportsInterface(bytes4)": {
        "details": "See {IERC165-supportsInterface}."
      },
      "symbol()": {
        "details": "See {IERC721Metadata-symbol}."
      },
      "tokenByIndex(uint256)": {
        "details": "See {IERC721Enumerable-tokenByIndex}."
      },
      "tokenOfOwnerByIndex(address,uint256)": {
        "details": "See {IERC721Enumerable-tokenOfOwnerByIndex}."
      },
      "tokenURI(uint256)": {
        "details": "See {IERC721Metadata-tokenURI}."
      },
      "totalSupply()": {
        "details": "See {IERC721Enumerable-totalSupply}."
      },
      "transferFrom(address,address,uint256)": {
        "details": "See {IERC721-transferFrom}."
      },
      "transferOwnership(address)": {
        "details": "Transfers ownership of the contract to a new account (`newOwner`). Can only be called by the current owner."
      }
    },
    "version": 1
  },
  "userdoc": {
    "kind": "user",
    "methods": {},
    "version": 1
  }
}