{
  "contractName": "Market",
  "abi": [
    {
      "inputs": [],
      "stateMutability": "nonpayable",
      "type": "constructor"
    },
    {
      "anonymous": false,
      "inputs": [
        {
          "indexed": true,
          "internalType": "address",
          "name": "owner",
          "type": "address"
        },
        {
          "indexed": true,
          "internalType": "address",
          "name": "approved",
          "type": "address"
        },
        {
          "indexed": true,
          "internalType": "uint256",
          "name": "tokenId",
          "type": "uint256"
        }
      ],
      "name": "Approval",
      "type": "event"
    },
    {
      "anonymous": false,
      "inputs": [
        {
          "indexed": true,
          "internalType": "address",
          "name": "owner",
          "type": "address"
        },
        {
          "indexed": true,
          "internalType": "address",
          "name": "operator",
          "type": "address"
        },
        {
          "indexed": false,
          "internalType": "bool",
          "name": "approved",
          "type": "bool"
        }
      ],
      "name": "ApprovalForAll",
      "type": "event"
    },
    {
      "anonymous": false,
      "inputs": [
        {
          "indexed": true,
          "internalType": "address",
          "name": "previousOwner",
          "type": "address"
        },
        {
          "indexed": true,
          "internalType": "address",
          "name": "newOwner",
          "type": "address"
        }
      ],
      "name": "OwnershipTransferred",
      "type": "event"
    },
    {
      "anonymous": false,
      "inputs": [
        {
          "indexed": true,
          "internalType": "address",
          "name": "from",
          "type": "address"
        },
        {
          "indexed": true,
          "internalType": "address",
          "name": "to",
          "type": "address"
        },
        {
          "indexed": true,
          "internalType": "uint256",
          "name": "tokenId",
          "type": "uint256"
        }
      ],
      "name": "Transfer",
      "type": "event"
    },
    {
      "inputs": [
        {
          "internalType": "uint256",
          "name": "",
          "type": "uint256"
        }
      ],
      "name": "allCryptoBoys",
      "outputs": [
        {
          "internalType": "uint256",
          "name": "tokenId",
          "type": "uint256"
        },
        {
          "internalType": "string",
          "name": "tokenName",
          "type": "string"
        },
        {
          "internalType": "string",
          "name": "tokenURI",
          "type": "string"
        },
        {
          "internalType": "address",
          "name": "mintedBy",
          "type": "address"
        },
        {
          "internalType": "address",
          "name": "currentOwner",
          "type": "address"
        },
        {
          "internalType": "address",
          "name": "previousOwner",
          "type": "address"
        },
        {
          "internalType": "uint256",
          "name": "price",
          "type": "uint256"
        },
        {
          "internalType": "uint256",
          "name": "numberOfTransfers",
          "type": "uint256"
        },
        {
          "internalType": "bool",
          "name": "forSale",
          "type": "bool"
        }
      ],
      "stateMutability": "view",
      "type": "function",
      "constant": true
    },
    {
      "inputs": [
        {
          "internalType": "address",
          "name": "to",
          "type": "address"
        },
        {
          "internalType": "uint256",
          "name": "tokenId",
          "type": "uint256"
        }
      ],
      "name": "approve",
      "outputs": [],
      "stateMutability": "nonpayable",
      "type": "function"
    },
    {
      "inputs": [
        {
          "internalType": "address",
          "name": "owner",
          "type": "address"
        }
      ],
      "name": "balanceOf",
      "outputs": [
        {
          "internalType": "uint256",
          "name": "",
          "type": "uint256"
        }
      ],
      "stateMutability": "view",
      "type": "function",
      "constant": true
    },
    {
      "inputs": [],
      "name": "collectionName",
      "outputs": [
        {
          "internalType": "string",
          "name": "",
          "type": "string"
        }
      ],
      "stateMutability": "view",
      "type": "function",
      "constant": true
    },
    {
      "inputs": [],
      "name": "collectionNameSymbol",
      "outputs": [
        {
          "internalType": "string",
          "name": "",
          "type": "string"
        }
      ],
      "stateMutability": "view",
      "type": "function",
      "constant": true
    },
    {
      "inputs": [],
      "name": "communityFeePercent",
      "outputs": [
        {
          "internalType": "uint256",
          "name": "",
          "type": "uint256"
        }
      ],
      "stateMutability": "view",
      "type": "function",
      "constant": true
    },
    {
      "inputs": [
        {
          "internalType": "uint256",
          "name": "",
          "type": "uint256"
        }
      ],
      "name": "communityRewards",
      "outputs": [
        {
          "internalType": "uint256",
          "name": "",
          "type": "uint256"
        }
      ],
      "stateMutability": "view",
      "type": "function",
      "constant": true
    },
    {
      "inputs": [],
      "name": "cryptoBoyCounter",
      "outputs": [
        {
          "internalType": "uint256",
          "name": "",
          "type": "uint256"
        }
      ],
      "stateMutability": "view",
      "type": "function",
      "constant": true
    },
    {
      "inputs": [
        {
          "internalType": "uint256",
          "name": "tokenId",
          "type": "uint256"
        }
      ],
      "name": "getApproved",
      "outputs": [
        {
          "internalType": "address",
          "name": "",
          "type": "address"
        }
      ],
      "stateMutability": "view",
      "type": "function",
      "constant": true
    },
    {
      "inputs": [
        {
          "internalType": "address",
          "name": "owner",
          "type": "address"
        },
        {
          "internalType": "address",
          "name": "operator",
          "type": "address"
        }
      ],
      "name": "isApprovedForAll",
      "outputs": [
        {
          "internalType": "bool",
          "name": "",
          "type": "bool"
        }
      ],
      "stateMutability": "view",
      "type": "function",
      "constant": true
    },
    {
      "inputs": [],
      "name": "marketFeePercent",
      "outputs": [
        {
          "internalType": "uint256",
          "name": "",
          "type": "uint256"
        }
      ],
      "stateMutability": "view",
      "type": "function",
      "constant": true
    },
    {
      "inputs": [],
      "name": "name",
      "outputs": [
        {
          "internalType": "string",
          "name": "",
          "type": "string"
        }
      ],
      "stateMutability": "view",
      "type": "function",
      "constant": true
    },
    {
      "inputs": [],
      "name": "owner",
      "outputs": [
        {
          "internalType": "address",
          "name": "",
          "type": "address"
        }
      ],
      "stateMutability": "view",
      "type": "function",
      "constant": true
    },
    {
      "inputs": [
        {
          "internalType": "uint256",
          "name": "tokenId",
          "type": "uint256"
        }
      ],
      "name": "ownerOf",
      "outputs": [
        {
          "internalType": "address",
          "name": "",
          "type": "address"
        }
      ],
      "stateMutability": "view",
      "type": "function",
      "constant": true
    },
    {
      "inputs": [],
      "name": "renounceOwnership",
      "outputs": [],
      "stateMutability": "nonpayable",
      "type": "function"
    },
    {
      "inputs": [
        {
          "internalType": "address",
          "name": "from",
          "type": "address"
        },
        {
          "internalType": "address",
          "name": "to",
          "type": "address"
        },
        {
          "internalType": "uint256",
          "name": "tokenId",
          "type": "uint256"
        }
      ],
      "name": "safeTransferFrom",
      "outputs": [],
      "stateMutability": "nonpayable",
      "type": "function"
    },
    {
      "inputs": [
        {
          "internalType": "address",
          "name": "from",
          "type": "address"
        },
        {
          "internalType": "address",
          "name": "to",
          "type": "address"
        },
        {
          "internalType": "uint256",
          "name": "tokenId",
          "type": "uint256"
        },
        {
          "internalType": "bytes",
          "name": "_data",
          "type": "bytes"
        }
      ],
      "name": "safeTransferFrom",
      "outputs": [],
      "stateMutability": "nonpayable",
      "type": "function"
    },
    {
      "inputs": [
        {
          "internalType": "address",
          "name": "operator",
          "type": "address"
        },
        {
          "internalType": "bool",
          "name": "approved",
          "type": "bool"
        }
      ],
      "name": "setApprovalForAll",
      "outputs": [],
      "stateMutability": "nonpayable",
      "type": "function"
    },
    {
      "inputs": [
        {
          "internalType": "bytes4",
          "name": "interfaceId",
          "type": "bytes4"
        }
      ],
      "name": "supportsInterface",
      "outputs": [
        {
          "internalType": "bool",
          "name": "",
          "type": "bool"
        }
      ],
      "stateMutability": "view",
      "type": "function",
      "constant": true
    },
    {
      "inputs": [],
      "name": "symbol",
      "outputs": [
        {
          "internalType": "string",
          "name": "",
          "type": "string"
        }
      ],
      "stateMutability": "view",
      "type": "function",
      "constant": true
    },
    {
      "inputs": [
        {
          "internalType": "uint256",
          "name": "index",
          "type": "uint256"
        }
      ],
      "name": "tokenByIndex",
      "outputs": [
        {
          "internalType": "uint256",
          "name": "",
          "type": "uint256"
        }
      ],
      "stateMutability": "view",
      "type": "function",
      "constant": true
    },
    {
      "inputs": [
        {
          "internalType": "address",
          "name": "owner",
          "type": "address"
        },
        {
          "internalType": "uint256",
          "name": "index",
          "type": "uint256"
        }
      ],
      "name": "tokenOfOwnerByIndex",
      "outputs": [
        {
          "internalType": "uint256",
          "name": "",
          "type": "uint256"
        }
      ],
      "stateMutability": "view",
      "type": "function",
      "constant": true
    },
    {
      "inputs": [
        {
          "internalType": "uint256",
          "name": "tokenId",
          "type": "uint256"
        }
      ],
      "name": "tokenURI",
      "outputs": [
        {
          "internalType": "string",
          "name": "",
          "type": "string"
        }
      ],
      "stateMutability": "view",
      "type": "function",
      "constant": true
    },
    {
      "inputs": [],
      "name": "totalGivenRewardsPerToken",
      "outputs": [
        {
          "internalType": "uint256",
          "name": "",
          "type": "uint256"
        }
      ],
      "stateMutability": "view",
      "type": "function",
      "constant": true
    },
    {
      "inputs": [],
      "name": "totalSupply",
      "outputs": [
        {
          "internalType": "uint256",
          "name": "",
          "type": "uint256"
        }
      ],
      "stateMutability": "view",
      "type": "function",
      "constant": true
    },
    {
      "inputs": [
        {
          "internalType": "address",
          "name": "from",
          "type": "address"
        },
        {
          "internalType": "address",
          "name": "to",
          "type": "address"
        },
        {
          "internalType": "uint256",
          "name": "tokenId",
          "type": "uint256"
        }
      ],
      "name": "transferFrom",
      "outputs": [],
      "stateMutability": "nonpayable",
      "type": "function"
    },
    {
      "inputs": [
        {
          "internalType": "address",
          "name": "newOwner",
          "type": "address"
        }
      ],
      "name": "transferOwnership",
      "outputs": [],
      "stateMutability": "nonpayable",
      "type": "function"
    },
    {
      "inputs": [
        {
          "internalType": "uint256",
          "name": "newDistFee",
          "type": "uint256"
        },
        {
          "internalType": "uint256",
          "name": "newMarketFee",
          "type": "uint256"
        }
      ],
      "name": "adjustFees",
      "outputs": [],
      "stateMutability": "nonpayable",
      "type": "function"
    },
    {
      "inputs": [
        {
          "internalType": "uint256",
          "name": "tokenId",
          "type": "uint256"
        },
        {
          "internalType": "string",
          "name": "name",
          "type": "string"
        },
        {
          "internalType": "string",
          "name": "uri",
          "type": "string"
        },
        {
          "internalType": "address",
          "name": "mintedBy",
          "type": "address"
        },
        {
          "internalType": "address",
          "name": "currOwner",
          "type": "address"
        },
        {
          "internalType": "address",
          "name": "prevOwner",
          "type": "address"
        },
        {
          "internalType": "uint256",
          "name": "price",
          "type": "uint256"
        },
        {
          "internalType": "uint256",
          "name": "numOfTransfers",
          "type": "uint256"
        },
        {
          "internalType": "bool",
          "name": "forSale",
          "type": "bool"
        }
      ],
      "name": "appendCryptoBoy",
      "outputs": [],
      "stateMutability": "nonpayable",
      "type": "function"
    },
    {
      "inputs": [
        {
          "internalType": "address",
          "name": "nftAddr",
          "type": "address"
        },
        {
          "internalType": "uint256",
          "name": "_tokenId",
          "type": "uint256"
        }
      ],
      "name": "buyToken",
      "outputs": [],
      "stateMutability": "payable",
      "type": "function",
      "payable": true
    },
    {
      "inputs": [
        {
          "internalType": "uint256",
          "name": "_tokenId",
          "type": "uint256"
        },
        {
          "internalType": "uint256",
          "name": "_newPrice",
          "type": "uint256"
        }
      ],
      "name": "changeTokenPrice",
      "outputs": [],
      "stateMutability": "nonpayable",
      "type": "function"
    },
    {
      "inputs": [
        {
          "internalType": "uint256",
          "name": "_tokenId",
          "type": "uint256"
        }
      ],
      "name": "toggleForSale",
      "outputs": [],
      "stateMutability": "nonpayable",
      "type": "function"
    },
    {
      "inputs": [],
      "name": "getRewards",
      "outputs": [
        {
          "internalType": "uint256",
          "name": "amount",
          "type": "uint256"
        }
      ],
      "stateMutability": "view",
      "type": "function",
      "constant": true
    }
  ],
  "bytecode": "0x60806040526001600e556003600f55600060105560006011553480156200002557600080fd5b506040518060400160405280601481526020017f54616977616e2043727970746f204d61726b65740000000000000000000000008152506040518060400160405280600381526020017f54434d00000000000000000000000000000000000000000000000000000000008152508160009080519060200190620000aa9291906200037f565b508060019080519060200190620000c39291906200037f565b505050620000e6620000da6200017d60201b60201c565b6200018560201b60201c565b620000f66200024b60201b60201c565b600c90805190602001906200010d9291906200037f565b506200011e620002e560201b60201c565b600d9080519060200190620001359291906200037f565b5030600b60006101000a81548173ffffffffffffffffffffffffffffffffffffffff021916908373ffffffffffffffffffffffffffffffffffffffff16021790555062000494565b600033905090565b6000600a60009054906101000a900473ffffffffffffffffffffffffffffffffffffffff16905081600a60006101000a81548173ffffffffffffffffffffffffffffffffffffffff021916908373ffffffffffffffffffffffffffffffffffffffff1602179055508173ffffffffffffffffffffffffffffffffffffffff168173ffffffffffffffffffffffffffffffffffffffff167f8be0079c531659141344cd1fd0a4f28419497f9722a3daafe3b4186f6b6457e060405160405180910390a35050565b6060600080546200025c906200045e565b80601f01602080910402602001604051908101604052809291908181526020018280546200028a906200045e565b8015620002db5780601f10620002af57610100808354040283529160200191620002db565b820191906000526020600020905b815481529060010190602001808311620002bd57829003601f168201915b5050505050905090565b606060018054620002f6906200045e565b80601f016020809104026020016040519081016040528092919081815260200182805462000324906200045e565b8015620003755780601f10620003495761010080835404028352916020019162000375565b820191906000526020600020905b8154815290600101906020018083116200035757829003601f168201915b5050505050905090565b8280546200038d906200045e565b90600052602060002090601f016020900481019282620003b15760008555620003fd565b82601f10620003cc57805160ff1916838001178555620003fd565b82800160010185558215620003fd579182015b82811115620003fc578251825591602001919060010190620003df565b5b5090506200040c919062000410565b5090565b5b808211156200042b57600081600090555060010162000411565b5090565b7f4e487b7100000000000000000000000000000000000000000000000000000000600052602260045260246000fd5b600060028204905060018216806200047757607f821691505b602082108114156200048e576200048d6200042f565b5b50919050565b61515280620004a46000396000f3fe6080604052600436106101ee5760003560e01c806370a082311161010d578063aaf51b7e116100a0578063c87b56dd1161006f578063c87b56dd146106f8578063e5326ab114610735578063e985e9c514610760578063f2fde38b1461079d578063f7cae643146107c6576101ee565b8063aaf51b7e14610650578063b88d4fde1461067b578063b9d2326e146106a4578063bffec202146106cd576101ee565b80638da5cb5b116100dc5780638da5cb5b146105a857806395d89b41146105d3578063a22cb465146105fe578063a32018b914610627576101ee565b806370a0823114610500578063715018a61461053d57806374ee6d4f14610554578063856e96b31461057f576101ee565b806342842e0e116101855780636352211e116101545780636352211e1461045157806368f8fc101461048e5780636d0c689e146104aa5780636f9507f9146104d5576101ee565b806342842e0e1461037d57806344c0d7eb146103a65780634f6ccce7146103eb57806362e8e8ac14610428576101ee565b8063095ea7b3116101c1578063095ea7b3146102c357806318160ddd146102ec57806323b872dd146103175780632f745c5914610340576101ee565b806301ffc9a7146101f35780630572b0cc1461023057806306fdde031461025b578063081812fc14610286575b600080fd5b3480156101ff57600080fd5b5061021a60048036038101906102159190613b3d565b610803565b6040516102279190613b85565b60405180910390f35b34801561023c57600080fd5b5061024561087d565b6040516102529190613bb9565b60405180910390f35b34801561026757600080fd5b50610270610ba7565b60405161027d9190613c6d565b60405180910390f35b34801561029257600080fd5b506102ad60048036038101906102a89190613cbb565b610c39565b6040516102ba9190613d29565b60405180910390f35b3480156102cf57600080fd5b506102ea60048036038101906102e59190613d70565b610cbe565b005b3480156102f857600080fd5b50610301610dd6565b60405161030e9190613bb9565b60405180910390f35b34801561032357600080fd5b5061033e60048036038101906103399190613db0565b610de3565b005b34801561034c57600080fd5b5061036760048036038101906103629190613d70565b610e43565b6040516103749190613bb9565b60405180910390f35b34801561038957600080fd5b506103a4600480360381019061039f9190613db0565b610ee8565b005b3480156103b257600080fd5b506103cd60048036038101906103c89190613cbb565b610f08565b6040516103e299989796959493929190613e03565b60405180910390f35b3480156103f757600080fd5b50610412600480360381019061040d9190613cbb565b6110d3565b60405161041f9190613bb9565b60405180910390f35b34801561043457600080fd5b5061044f600480360381019061044a9190613e9e565b611144565b005b34801561045d57600080fd5b5061047860048036038101906104739190613cbb565b6115b0565b6040516104859190613d29565b60405180910390f35b6104a860048036038101906104a39190613d70565b611662565b005b3480156104b657600080fd5b506104bf611cdf565b6040516104cc9190613bb9565b60405180910390f35b3480156104e157600080fd5b506104ea611ce5565b6040516104f79190613c6d565b60405180910390f35b34801561050c57600080fd5b5061052760048036038101906105229190613ede565b611d73565b6040516105349190613bb9565b60405180910390f35b34801561054957600080fd5b50610552611e2b565b005b34801561056057600080fd5b50610569611eb3565b6040516105769190613bb9565b60405180910390f35b34801561058b57600080fd5b506105a660048036038101906105a1919061406c565b611eb9565b005b3480156105b457600080fd5b506105bd6120b9565b6040516105ca9190613d29565b60405180910390f35b3480156105df57600080fd5b506105e86120e3565b6040516105f59190613c6d565b60405180910390f35b34801561060a57600080fd5b506106256004803603810190610620919061416e565b612175565b005b34801561063357600080fd5b5061064e60048036038101906106499190613cbb565b61218b565b005b34801561065c57600080fd5b5061066561263d565b6040516106729190613bb9565b60405180910390f35b34801561068757600080fd5b506106a2600480360381019061069d919061424f565b612643565b005b3480156106b057600080fd5b506106cb60048036038101906106c69190613e9e565b6126a5565b005b3480156106d957600080fd5b506106e26127bb565b6040516106ef9190613bb9565b60405180910390f35b34801561070457600080fd5b5061071f600480360381019061071a9190613cbb565b6127c1565b60405161072c9190613c6d565b60405180910390f35b34801561074157600080fd5b5061074a612868565b6040516107579190613c6d565b60405180910390f35b34801561076c57600080fd5b50610787600480360381019061078291906142d2565b6128f6565b6040516107949190613b85565b60405180910390f35b3480156107a957600080fd5b506107c460048036038101906107bf9190613ede565b61298a565b005b3480156107d257600080fd5b506107ed60048036038101906107e89190613cbb565b612a82565b6040516107fa9190613bb9565b60405180910390f35b60007f780e9d63000000000000000000000000000000000000000000000000000000007bffffffffffffffffffffffffffffffffffffffffffffffffffffffff1916827bffffffffffffffffffffffffffffffffffffffffffffffffffffffff19161480610876575061087582612a9a565b5b9050919050565b6000806000905060005b6010548111610b9f5760006013600083815260200190815260200160002060405180610120016040529081600082015481526020016001820180546108cb90614341565b80601f01602080910402602001604051908101604052809291908181526020018280546108f790614341565b80156109445780601f1061091957610100808354040283529160200191610944565b820191906000526020600020905b81548152906001019060200180831161092757829003601f168201915b5050505050815260200160028201805461095d90614341565b80601f016020809104026020016040519081016040528092919081815260200182805461098990614341565b80156109d65780601f106109ab576101008083540402835291602001916109d6565b820191906000526020600020905b8154815290600101906020018083116109b957829003601f168201915b505050505081526020016003820160009054906101000a900473ffffffffffffffffffffffffffffffffffffffff1673ffffffffffffffffffffffffffffffffffffffff1673ffffffffffffffffffffffffffffffffffffffff1681526020016004820160009054906101000a900473ffffffffffffffffffffffffffffffffffffffff1673ffffffffffffffffffffffffffffffffffffffff1673ffffffffffffffffffffffffffffffffffffffff1681526020016005820160009054906101000a900473ffffffffffffffffffffffffffffffffffffffff1673ffffffffffffffffffffffffffffffffffffffff1673ffffffffffffffffffffffffffffffffffffffff16815260200160068201548152602001600782015481526020016008820160009054906101000a900460ff16151515158152505090506000610b2182600001516115b0565b90503373ffffffffffffffffffffffffffffffffffffffff168173ffffffffffffffffffffffffffffffffffffffff161415610b8a57601260008360000151815260200190815260200160002054601154610b7c91906143a2565b84610b8791906143d6565b93505b50508080610b979061442c565b915050610887565b508091505090565b606060008054610bb690614341565b80601f0160208091040260200160405190810160405280929190818152602001828054610be290614341565b8015610c2f5780601f10610c0457610100808354040283529160200191610c2f565b820191906000526020600020905b815481529060010190602001808311610c1257829003601f168201915b5050505050905090565b6000610c4482612b7c565b610c83576040517f08c379a0000000000000000000000000000000000000000000000000000000008152600401610c7a906144e7565b60405180910390fd5b6004600083815260200190815260200160002060009054906101000a900473ffffffffffffffffffffffffffffffffffffffff169050919050565b6000610cc9826115b0565b90508073ffffffffffffffffffffffffffffffffffffffff168373ffffffffffffffffffffffffffffffffffffffff161415610d3a576040517f08c379a0000000000000000000000000000000000000000000000000000000008152600401610d3190614579565b60405180910390fd5b8073ffffffffffffffffffffffffffffffffffffffff16610d59612be8565b73ffffffffffffffffffffffffffffffffffffffff161480610d885750610d8781610d82612be8565b6128f6565b5b610dc7576040517f08c379a0000000000000000000000000000000000000000000000000000000008152600401610dbe9061460b565b60405180910390fd5b610dd18383612bf0565b505050565b6000600880549050905090565b610df4610dee612be8565b82612ca9565b610e33576040517f08c379a0000000000000000000000000000000000000000000000000000000008152600401610e2a9061469d565b60405180910390fd5b610e3e838383612d87565b505050565b6000610e4e83611d73565b8210610e8f576040517f08c379a0000000000000000000000000000000000000000000000000000000008152600401610e869061472f565b60405180910390fd5b600660008473ffffffffffffffffffffffffffffffffffffffff1673ffffffffffffffffffffffffffffffffffffffff168152602001908152602001600020600083815260200190815260200160002054905092915050565b610f0383838360405180602001604052806000815250612643565b505050565b6013602052806000526040600020600091509050806000015490806001018054610f3190614341565b80601f0160208091040260200160405190810160405280929190818152602001828054610f5d90614341565b8015610faa5780601f10610f7f57610100808354040283529160200191610faa565b820191906000526020600020905b815481529060010190602001808311610f8d57829003601f168201915b505050505090806002018054610fbf90614341565b80601f0160208091040260200160405190810160405280929190818152602001828054610feb90614341565b80156110385780601f1061100d57610100808354040283529160200191611038565b820191906000526020600020905b81548152906001019060200180831161101b57829003601f168201915b5050505050908060030160009054906101000a900473ffffffffffffffffffffffffffffffffffffffff16908060040160009054906101000a900473ffffffffffffffffffffffffffffffffffffffff16908060050160009054906101000a900473ffffffffffffffffffffffffffffffffffffffff16908060060154908060070154908060080160009054906101000a900460ff16905089565b60006110dd610dd6565b821061111e576040517f08c379a0000000000000000000000000000000000000000000000000000000008152600401611115906147c1565b60405180910390fd5b60088281548110611132576111316147e1565b5b90600052602060002001549050919050565b600073ffffffffffffffffffffffffffffffffffffffff163373ffffffffffffffffffffffffffffffffffffffff16141561117e57600080fd5b60006013600084815260200190815260200160002060405180610120016040529081600082015481526020016001820180546111b990614341565b80601f01602080910402602001604051908101604052809291908181526020018280546111e590614341565b80156112325780601f1061120757610100808354040283529160200191611232565b820191906000526020600020905b81548152906001019060200180831161121557829003601f168201915b5050505050815260200160028201805461124b90614341565b80601f016020809104026020016040519081016040528092919081815260200182805461127790614341565b80156112c45780601f10611299576101008083540402835291602001916112c4565b820191906000526020600020905b8154815290600101906020018083116112a757829003601f168201915b505050505081526020016003820160009054906101000a900473ffffffffffffffffffffffffffffffffffffffff1673ffffffffffffffffffffffffffffffffffffffff1673ffffffffffffffffffffffffffffffffffffffff1681526020016004820160009054906101000a900473ffffffffffffffffffffffffffffffffffffffff1673ffffffffffffffffffffffffffffffffffffffff1673ffffffffffffffffffffffffffffffffffffffff1681526020016005820160009054906101000a900473ffffffffffffffffffffffffffffffffffffffff1673ffffffffffffffffffffffffffffffffffffffff1673ffffffffffffffffffffffffffffffffffffffff16815260200160068201548152602001600782015481526020016008820160009054906101000a900460ff16151515158152505090503373ffffffffffffffffffffffffffffffffffffffff16816080015173ffffffffffffffffffffffffffffffffffffffff161461143c57600080fd5b818160c00181815250508060136000858152602001908152602001600020600082015181600001556020820151816001019080519060200190611480929190613a2e565b50604082015181600201908051906020019061149d929190613a2e565b5060608201518160030160006101000a81548173ffffffffffffffffffffffffffffffffffffffff021916908373ffffffffffffffffffffffffffffffffffffffff16021790555060808201518160040160006101000a81548173ffffffffffffffffffffffffffffffffffffffff021916908373ffffffffffffffffffffffffffffffffffffffff16021790555060a08201518160050160006101000a81548173ffffffffffffffffffffffffffffffffffffffff021916908373ffffffffffffffffffffffffffffffffffffffff16021790555060c0820151816006015560e082015181600701556101008201518160080160006101000a81548160ff021916908315150217905550905050505050565b6000806002600084815260200190815260200160002060009054906101000a900473ffffffffffffffffffffffffffffffffffffffff169050600073ffffffffffffffffffffffffffffffffffffffff168173ffffffffffffffffffffffffffffffffffffffff161415611659576040517f08c379a000000000000000000000000000000000000000000000000000000000815260040161165090614882565b60405180910390fd5b80915050919050565b600073ffffffffffffffffffffffffffffffffffffffff163373ffffffffffffffffffffffffffffffffffffffff16141561169c57600080fd5b60006013600083815260200190815260200160002060405180610120016040529081600082015481526020016001820180546116d790614341565b80601f016020809104026020016040519081016040528092919081815260200182805461170390614341565b80156117505780601f1061172557610100808354040283529160200191611750565b820191906000526020600020905b81548152906001019060200180831161173357829003601f168201915b5050505050815260200160028201805461176990614341565b80601f016020809104026020016040519081016040528092919081815260200182805461179590614341565b80156117e25780601f106117b7576101008083540402835291602001916117e2565b820191906000526020600020905b8154815290600101906020018083116117c557829003601f168201915b505050505081526020016003820160009054906101000a900473ffffffffffffffffffffffffffffffffffffffff1673ffffffffffffffffffffffffffffffffffffffff1673ffffffffffffffffffffffffffffffffffffffff1681526020016004820160009054906101000a900473ffffffffffffffffffffffffffffffffffffffff1673ffffffffffffffffffffffffffffffffffffffff1673ffffffffffffffffffffffffffffffffffffffff1681526020016005820160009054906101000a900473ffffffffffffffffffffffffffffffffffffffff1673ffffffffffffffffffffffffffffffffffffffff1673ffffffffffffffffffffffffffffffffffffffff16815260200160068201548152602001600782015481526020016008820160009054906101000a900460ff1615151515815250509050600081608001519050600073ffffffffffffffffffffffffffffffffffffffff168173ffffffffffffffffffffffffffffffffffffffff16141561196157600080fd5b3373ffffffffffffffffffffffffffffffffffffffff168173ffffffffffffffffffffffffffffffffffffffff16141561199a57600080fd5b8160c001513410156119e1576040517f08c379a00000000000000000000000000000000000000000000000000000000081526004016119d8906148ee565b60405180910390fd5b816101000151611a26576040517f08c379a0000000000000000000000000000000000000000000000000000000008152600401611a1d9061495a565b60405180910390fd5b8373ffffffffffffffffffffffffffffffffffffffff1663f5537ede8233866040518463ffffffff1660e01b8152600401611a639392919061497a565b600060405180830381600087803b158015611a7d57600080fd5b505af1158015611a91573d6000803e3d6000fd5b505050506000826080015190508073ffffffffffffffffffffffffffffffffffffffff166108fc349081150290604051600060405180830381858888f19350505050158015611ae4573d6000803e3d6000fd5b5082608001518360a0019073ffffffffffffffffffffffffffffffffffffffff16908173ffffffffffffffffffffffffffffffffffffffff168152505033836080019073ffffffffffffffffffffffffffffffffffffffff16908173ffffffffffffffffffffffffffffffffffffffff168152505060018360e001818151611b6c91906143d6565b915081815250508260136000868152602001908152602001600020600082015181600001556020820151816001019080519060200190611bad929190613a2e565b506040820151816002019080519060200190611bca929190613a2e565b5060608201518160030160006101000a81548173ffffffffffffffffffffffffffffffffffffffff021916908373ffffffffffffffffffffffffffffffffffffffff16021790555060808201518160040160006101000a81548173ffffffffffffffffffffffffffffffffffffffff021916908373ffffffffffffffffffffffffffffffffffffffff16021790555060a08201518160050160006101000a81548173ffffffffffffffffffffffffffffffffffffffff021916908373ffffffffffffffffffffffffffffffffffffffff16021790555060c0820151816006015560e082015181600701556101008201518160080160006101000a81548160ff0219169083151502179055509050505050505050565b60115481565b600d8054611cf290614341565b80601f0160208091040260200160405190810160405280929190818152602001828054611d1e90614341565b8015611d6b5780601f10611d4057610100808354040283529160200191611d6b565b820191906000526020600020905b815481529060010190602001808311611d4e57829003601f168201915b505050505081565b60008073ffffffffffffffffffffffffffffffffffffffff168273ffffffffffffffffffffffffffffffffffffffff161415611de4576040517f08c379a0000000000000000000000000000000000000000000000000000000008152600401611ddb90614a23565b60405180910390fd5b600360008373ffffffffffffffffffffffffffffffffffffffff1673ffffffffffffffffffffffffffffffffffffffff168152602001908152602001600020549050919050565b611e33612be8565b73ffffffffffffffffffffffffffffffffffffffff16611e516120b9565b73ffffffffffffffffffffffffffffffffffffffff1614611ea7576040517f08c379a0000000000000000000000000000000000000000000000000000000008152600401611e9e90614a8f565b60405180910390fd5b611eb16000612fee565b565b600e5481565b60006040518061012001604052808b81526020018a81526020018981526020018873ffffffffffffffffffffffffffffffffffffffff1681526020018773ffffffffffffffffffffffffffffffffffffffff1681526020018673ffffffffffffffffffffffffffffffffffffffff168152602001858152602001848152602001831515815250905080601360008c8152602001908152602001600020600082015181600001556020820151816001019080519060200190611f7b929190613a2e565b506040820151816002019080519060200190611f98929190613a2e565b5060608201518160030160006101000a81548173ffffffffffffffffffffffffffffffffffffffff021916908373ffffffffffffffffffffffffffffffffffffffff16021790555060808201518160040160006101000a81548173ffffffffffffffffffffffffffffffffffffffff021916908373ffffffffffffffffffffffffffffffffffffffff16021790555060a08201518160050160006101000a81548173ffffffffffffffffffffffffffffffffffffffff021916908373ffffffffffffffffffffffffffffffffffffffff16021790555060c0820151816006015560e082015181600701556101008201518160080160006101000a81548160ff0219169083151502179055509050508960108190555050505050505050505050565b6000600a60009054906101000a900473ffffffffffffffffffffffffffffffffffffffff16905090565b6060600180546120f290614341565b80601f016020809104026020016040519081016040528092919081815260200182805461211e90614341565b801561216b5780601f106121405761010080835404028352916020019161216b565b820191906000526020600020905b81548152906001019060200180831161214e57829003601f168201915b5050505050905090565b612187612180612be8565b83836130b4565b5050565b600073ffffffffffffffffffffffffffffffffffffffff163373ffffffffffffffffffffffffffffffffffffffff1614156121c557600080fd5b6121ce81612b7c565b6121d757600080fd5b60006121e2826115b0565b90503373ffffffffffffffffffffffffffffffffffffffff168173ffffffffffffffffffffffffffffffffffffffff161461221c57600080fd5b600060136000848152602001908152602001600020604051806101200160405290816000820154815260200160018201805461225790614341565b80601f016020809104026020016040519081016040528092919081815260200182805461228390614341565b80156122d05780601f106122a5576101008083540402835291602001916122d0565b820191906000526020600020905b8154815290600101906020018083116122b357829003601f168201915b505050505081526020016002820180546122e990614341565b80601f016020809104026020016040519081016040528092919081815260200182805461231590614341565b80156123625780601f1061233757610100808354040283529160200191612362565b820191906000526020600020905b81548152906001019060200180831161234557829003601f168201915b505050505081526020016003820160009054906101000a900473ffffffffffffffffffffffffffffffffffffffff1673ffffffffffffffffffffffffffffffffffffffff1673ffffffffffffffffffffffffffffffffffffffff1681526020016004820160009054906101000a900473ffffffffffffffffffffffffffffffffffffffff1673ffffffffffffffffffffffffffffffffffffffff1673ffffffffffffffffffffffffffffffffffffffff1681526020016005820160009054906101000a900473ffffffffffffffffffffffffffffffffffffffff1673ffffffffffffffffffffffffffffffffffffffff1673ffffffffffffffffffffffffffffffffffffffff16815260200160068201548152602001600782015481526020016008820160009054906101000a900460ff1615151515815250509050806101000151156124c0576000816101000190151590811515815250506124d3565b6001816101000190151590811515815250505b806013600085815260200190815260200160002060008201518160000155602082015181600101908051906020019061250d929190613a2e565b50604082015181600201908051906020019061252a929190613a2e565b5060608201518160030160006101000a81548173ffffffffffffffffffffffffffffffffffffffff021916908373ffffffffffffffffffffffffffffffffffffffff16021790555060808201518160040160006101000a81548173ffffffffffffffffffffffffffffffffffffffff021916908373ffffffffffffffffffffffffffffffffffffffff16021790555060a08201518160050160006101000a81548173ffffffffffffffffffffffffffffffffffffffff021916908373ffffffffffffffffffffffffffffffffffffffff16021790555060c0820151816006015560e082015181600701556101008201518160080160006101000a81548160ff021916908315150217905550905050505050565b600f5481565b61265461264e612be8565b83612ca9565b612693576040517f08c379a000000000000000000000000000000000000000000000000000000000815260040161268a9061469d565b60405180910390fd5b61269f84848484613221565b50505050565b6126ad612be8565b73ffffffffffffffffffffffffffffffffffffffff166126cb6120b9565b73ffffffffffffffffffffffffffffffffffffffff1614612721576040517f08c379a000000000000000000000000000000000000000000000000000000000815260040161271890614a8f565b60405180910390fd5b6064821115612765576040517f08c379a000000000000000000000000000000000000000000000000000000000815260040161275c90614b21565b60405180910390fd5b60648111156127a9576040517f08c379a00000000000000000000000000000000000000000000000000000000081526004016127a090614b21565b60405180910390fd5b81600e8190555080600f819055505050565b60105481565b60606127cc82612b7c565b61280b576040517f08c379a000000000000000000000000000000000000000000000000000000000815260040161280290614bb3565b60405180910390fd5b600061281561327d565b905060008151116128355760405180602001604052806000815250612860565b8061283f84613294565b604051602001612850929190614c0f565b6040516020818303038152906040525b915050919050565b600c805461287590614341565b80601f01602080910402602001604051908101604052809291908181526020018280546128a190614341565b80156128ee5780601f106128c3576101008083540402835291602001916128ee565b820191906000526020600020905b8154815290600101906020018083116128d157829003601f168201915b505050505081565b6000600560008473ffffffffffffffffffffffffffffffffffffffff1673ffffffffffffffffffffffffffffffffffffffff16815260200190815260200160002060008373ffffffffffffffffffffffffffffffffffffffff1673ffffffffffffffffffffffffffffffffffffffff16815260200190815260200160002060009054906101000a900460ff16905092915050565b612992612be8565b73ffffffffffffffffffffffffffffffffffffffff166129b06120b9565b73ffffffffffffffffffffffffffffffffffffffff1614612a06576040517f08c379a00000000000000000000000000000000000000000000000000000000081526004016129fd90614a8f565b60405180910390fd5b600073ffffffffffffffffffffffffffffffffffffffff168173ffffffffffffffffffffffffffffffffffffffff161415612a76576040517f08c379a0000000000000000000000000000000000000000000000000000000008152600401612a6d90614ca5565b60405180910390fd5b612a7f81612fee565b50565b60126020528060005260406000206000915090505481565b60007f80ac58cd000000000000000000000000000000000000000000000000000000007bffffffffffffffffffffffffffffffffffffffffffffffffffffffff1916827bffffffffffffffffffffffffffffffffffffffffffffffffffffffff19161480612b6557507f5b5e139f000000000000000000000000000000000000000000000000000000007bffffffffffffffffffffffffffffffffffffffffffffffffffffffff1916827bffffffffffffffffffffffffffffffffffffffffffffffffffffffff1916145b80612b755750612b74826133f5565b5b9050919050565b60008073ffffffffffffffffffffffffffffffffffffffff166002600084815260200190815260200160002060009054906101000a900473ffffffffffffffffffffffffffffffffffffffff1673ffffffffffffffffffffffffffffffffffffffff1614159050919050565b600033905090565b816004600083815260200190815260200160002060006101000a81548173ffffffffffffffffffffffffffffffffffffffff021916908373ffffffffffffffffffffffffffffffffffffffff160217905550808273ffffffffffffffffffffffffffffffffffffffff16612c63836115b0565b73ffffffffffffffffffffffffffffffffffffffff167f8c5be1e5ebec7d5bd14f71427d1e84f3dd0314c0f7b2291e5b200ac8c7c3b92560405160405180910390a45050565b6000612cb482612b7c565b612cf3576040517f08c379a0000000000000000000000000000000000000000000000000000000008152600401612cea90614d37565b60405180910390fd5b6000612cfe836115b0565b90508073ffffffffffffffffffffffffffffffffffffffff168473ffffffffffffffffffffffffffffffffffffffff161480612d6d57508373ffffffffffffffffffffffffffffffffffffffff16612d5584610c39565b73ffffffffffffffffffffffffffffffffffffffff16145b80612d7e5750612d7d81856128f6565b5b91505092915050565b8273ffffffffffffffffffffffffffffffffffffffff16612da7826115b0565b73ffffffffffffffffffffffffffffffffffffffff1614612dfd576040517f08c379a0000000000000000000000000000000000000000000000000000000008152600401612df490614dc9565b60405180910390fd5b600073ffffffffffffffffffffffffffffffffffffffff168273ffffffffffffffffffffffffffffffffffffffff161415612e6d576040517f08c379a0000000000000000000000000000000000000000000000000000000008152600401612e6490614e5b565b60405180910390fd5b612e7883838361345f565b612e83600082612bf0565b6001600360008573ffffffffffffffffffffffffffffffffffffffff1673ffffffffffffffffffffffffffffffffffffffff1681526020019081526020016000206000828254612ed391906143a2565b925050819055506001600360008473ffffffffffffffffffffffffffffffffffffffff1673ffffffffffffffffffffffffffffffffffffffff1681526020019081526020016000206000828254612f2a91906143d6565b92505081905550816002600083815260200190815260200160002060006101000a81548173ffffffffffffffffffffffffffffffffffffffff021916908373ffffffffffffffffffffffffffffffffffffffff160217905550808273ffffffffffffffffffffffffffffffffffffffff168473ffffffffffffffffffffffffffffffffffffffff167fddf252ad1be2c89b69c2b068fc378daa952ba7f163c4a11628f55a4df523b3ef60405160405180910390a4612fe9838383613573565b505050565b6000600a60009054906101000a900473ffffffffffffffffffffffffffffffffffffffff16905081600a60006101000a81548173ffffffffffffffffffffffffffffffffffffffff021916908373ffffffffffffffffffffffffffffffffffffffff1602179055508173ffffffffffffffffffffffffffffffffffffffff168173ffffffffffffffffffffffffffffffffffffffff167f8be0079c531659141344cd1fd0a4f28419497f9722a3daafe3b4186f6b6457e060405160405180910390a35050565b8173ffffffffffffffffffffffffffffffffffffffff168373ffffffffffffffffffffffffffffffffffffffff161415613123576040517f08c379a000000000000000000000000000000000000000000000000000000000815260040161311a90614ec7565b60405180910390fd5b80600560008573ffffffffffffffffffffffffffffffffffffffff1673ffffffffffffffffffffffffffffffffffffffff16815260200190815260200160002060008473ffffffffffffffffffffffffffffffffffffffff1673ffffffffffffffffffffffffffffffffffffffff16815260200190815260200160002060006101000a81548160ff0219169083151502179055508173ffffffffffffffffffffffffffffffffffffffff168373ffffffffffffffffffffffffffffffffffffffff167f17307eab39ab6107e8899845ad3d59bd9653f200f220920489ca2b5937696c31836040516132149190613b85565b60405180910390a3505050565b61322c848484612d87565b61323884848484613578565b613277576040517f08c379a000000000000000000000000000000000000000000000000000000000815260040161326e90614f59565b60405180910390fd5b50505050565b606060405180602001604052806000815250905090565b606060008214156132dc576040518060400160405280600181526020017f300000000000000000000000000000000000000000000000000000000000000081525090506133f0565b600082905060005b6000821461330e5780806132f79061442c565b915050600a826133079190614fa8565b91506132e4565b60008167ffffffffffffffff81111561332a57613329613f15565b5b6040519080825280601f01601f19166020018201604052801561335c5781602001600182028036833780820191505090505b5090505b600085146133e95760018261337591906143a2565b9150600a856133849190614fd9565b603061339091906143d6565b60f81b8183815181106133a6576133a56147e1565b5b60200101907effffffffffffffffffffffffffffffffffffffffffffffffffffffffffffff1916908160001a905350600a856133e29190614fa8565b9450613360565b8093505050505b919050565b60007f01ffc9a7000000000000000000000000000000000000000000000000000000007bffffffffffffffffffffffffffffffffffffffffffffffffffffffff1916827bffffffffffffffffffffffffffffffffffffffffffffffffffffffff1916149050919050565b61346a838383613700565b600073ffffffffffffffffffffffffffffffffffffffff168373ffffffffffffffffffffffffffffffffffffffff1614156134ad576134a881613705565b6134ec565b8173ffffffffffffffffffffffffffffffffffffffff168373ffffffffffffffffffffffffffffffffffffffff16146134eb576134ea838261374e565b5b5b600073ffffffffffffffffffffffffffffffffffffffff168273ffffffffffffffffffffffffffffffffffffffff16141561352f5761352a816138bb565b61356e565b8273ffffffffffffffffffffffffffffffffffffffff168273ffffffffffffffffffffffffffffffffffffffff161461356d5761356c828261398c565b5b5b505050565b505050565b60006135998473ffffffffffffffffffffffffffffffffffffffff16613a0b565b156136f3578373ffffffffffffffffffffffffffffffffffffffff1663150b7a026135c2612be8565b8786866040518563ffffffff1660e01b81526004016135e4949392919061505f565b6020604051808303816000875af192505050801561362057506040513d601f19601f8201168201806040525081019061361d91906150c0565b60015b6136a3573d8060008114613650576040519150601f19603f3d011682016040523d82523d6000602084013e613655565b606091505b5060008151141561369b576040517f08c379a000000000000000000000000000000000000000000000000000000000815260040161369290614f59565b60405180910390fd5b805181602001fd5b63150b7a0260e01b7bffffffffffffffffffffffffffffffffffffffffffffffffffffffff1916817bffffffffffffffffffffffffffffffffffffffffffffffffffffffff1916149150506136f8565b600190505b949350505050565b505050565b6008805490506009600083815260200190815260200160002081905550600881908060018154018082558091505060019003906000526020600020016000909190919091505550565b6000600161375b84611d73565b61376591906143a2565b905060006007600084815260200190815260200160002054905081811461384a576000600660008673ffffffffffffffffffffffffffffffffffffffff1673ffffffffffffffffffffffffffffffffffffffff168152602001908152602001600020600084815260200190815260200160002054905080600660008773ffffffffffffffffffffffffffffffffffffffff1673ffffffffffffffffffffffffffffffffffffffff168152602001908152602001600020600084815260200190815260200160002081905550816007600083815260200190815260200160002081905550505b6007600084815260200190815260200160002060009055600660008573ffffffffffffffffffffffffffffffffffffffff1673ffffffffffffffffffffffffffffffffffffffff16815260200190815260200160002060008381526020019081526020016000206000905550505050565b600060016008805490506138cf91906143a2565b90506000600960008481526020019081526020016000205490506000600883815481106138ff576138fe6147e1565b5b906000526020600020015490508060088381548110613921576139206147e1565b5b9060005260206000200181905550816009600083815260200190815260200160002081905550600960008581526020019081526020016000206000905560088054806139705761396f6150ed565b5b6001900381819060005260206000200160009055905550505050565b600061399783611d73565b905081600660008573ffffffffffffffffffffffffffffffffffffffff1673ffffffffffffffffffffffffffffffffffffffff168152602001908152602001600020600083815260200190815260200160002081905550806007600084815260200190815260200160002081905550505050565b6000808273ffffffffffffffffffffffffffffffffffffffff163b119050919050565b828054613a3a90614341565b90600052602060002090601f016020900481019282613a5c5760008555613aa3565b82601f10613a7557805160ff1916838001178555613aa3565b82800160010185558215613aa3579182015b82811115613aa2578251825591602001919060010190613a87565b5b509050613ab09190613ab4565b5090565b5b80821115613acd576000816000905550600101613ab5565b5090565b6000604051905090565b600080fd5b600080fd5b60007fffffffff0000000000000000000000000000000000000000000000000000000082169050919050565b613b1a81613ae5565b8114613b2557600080fd5b50565b600081359050613b3781613b11565b92915050565b600060208284031215613b5357613b52613adb565b5b6000613b6184828501613b28565b91505092915050565b60008115159050919050565b613b7f81613b6a565b82525050565b6000602082019050613b9a6000830184613b76565b92915050565b6000819050919050565b613bb381613ba0565b82525050565b6000602082019050613bce6000830184613baa565b92915050565b600081519050919050565b600082825260208201905092915050565b60005b83811015613c0e578082015181840152602081019050613bf3565b83811115613c1d576000848401525b50505050565b6000601f19601f8301169050919050565b6000613c3f82613bd4565b613c498185613bdf565b9350613c59818560208601613bf0565b613c6281613c23565b840191505092915050565b60006020820190508181036000830152613c878184613c34565b905092915050565b613c9881613ba0565b8114613ca357600080fd5b50565b600081359050613cb581613c8f565b92915050565b600060208284031215613cd157613cd0613adb565b5b6000613cdf84828501613ca6565b91505092915050565b600073ffffffffffffffffffffffffffffffffffffffff82169050919050565b6000613d1382613ce8565b9050919050565b613d2381613d08565b82525050565b6000602082019050613d3e6000830184613d1a565b92915050565b613d4d81613d08565b8114613d5857600080fd5b50565b600081359050613d6a81613d44565b92915050565b60008060408385031215613d8757613d86613adb565b5b6000613d9585828601613d5b565b9250506020613da685828601613ca6565b9150509250929050565b600080600060608486031215613dc957613dc8613adb565b5b6000613dd786828701613d5b565b9350506020613de886828701613d5b565b9250506040613df986828701613ca6565b9150509250925092565b600061012082019050613e19600083018c613baa565b8181036020830152613e2b818b613c34565b90508181036040830152613e3f818a613c34565b9050613e4e6060830189613d1a565b613e5b6080830188613d1a565b613e6860a0830187613d1a565b613e7560c0830186613baa565b613e8260e0830185613baa565b613e90610100830184613b76565b9a9950505050505050505050565b60008060408385031215613eb557613eb4613adb565b5b6000613ec385828601613ca6565b9250506020613ed485828601613ca6565b9150509250929050565b600060208284031215613ef457613ef3613adb565b5b6000613f0284828501613d5b565b91505092915050565b600080fd5b600080fd5b7f4e487b7100000000000000000000000000000000000000000000000000000000600052604160045260246000fd5b613f4d82613c23565b810181811067ffffffffffffffff82111715613f6c57613f6b613f15565b5b80604052505050565b6000613f7f613ad1565b9050613f8b8282613f44565b919050565b600067ffffffffffffffff821115613fab57613faa613f15565b5b613fb482613c23565b9050602081019050919050565b82818337600083830152505050565b6000613fe3613fde84613f90565b613f75565b905082815260208101848484011115613fff57613ffe613f10565b5b61400a848285613fc1565b509392505050565b600082601f83011261402757614026613f0b565b5b8135614037848260208601613fd0565b91505092915050565b61404981613b6a565b811461405457600080fd5b50565b60008135905061406681614040565b92915050565b60008060008060008060008060006101208a8c03121561408f5761408e613adb565b5b600061409d8c828d01613ca6565b99505060208a013567ffffffffffffffff8111156140be576140bd613ae0565b5b6140ca8c828d01614012565b98505060408a013567ffffffffffffffff8111156140eb576140ea613ae0565b5b6140f78c828d01614012565b97505060606141088c828d01613d5b565b96505060806141198c828d01613d5b565b95505060a061412a8c828d01613d5b565b94505060c061413b8c828d01613ca6565b93505060e061414c8c828d01613ca6565b92505061010061415e8c828d01614057565b9150509295985092959850929598565b6000806040838503121561418557614184613adb565b5b600061419385828601613d5b565b92505060206141a485828601614057565b9150509250929050565b600067ffffffffffffffff8211156141c9576141c8613f15565b5b6141d282613c23565b9050602081019050919050565b60006141f26141ed846141ae565b613f75565b90508281526020810184848401111561420e5761420d613f10565b5b614219848285613fc1565b509392505050565b600082601f83011261423657614235613f0b565b5b81356142468482602086016141df565b91505092915050565b6000806000806080858703121561426957614268613adb565b5b600061427787828801613d5b565b945050602061428887828801613d5b565b935050604061429987828801613ca6565b925050606085013567ffffffffffffffff8111156142ba576142b9613ae0565b5b6142c687828801614221565b91505092959194509250565b600080604083850312156142e9576142e8613adb565b5b60006142f785828601613d5b565b925050602061430885828601613d5b565b9150509250929050565b7f4e487b7100000000000000000000000000000000000000000000000000000000600052602260045260246000fd5b6000600282049050600182168061435957607f821691505b6020821081141561436d5761436c614312565b5b50919050565b7f4e487b7100000000000000000000000000000000000000000000000000000000600052601160045260246000fd5b60006143ad82613ba0565b91506143b883613ba0565b9250828210156143cb576143ca614373565b5b828203905092915050565b60006143e182613ba0565b91506143ec83613ba0565b9250827fffffffffffffffffffffffffffffffffffffffffffffffffffffffffffffffff0382111561442157614420614373565b5b828201905092915050565b600061443782613ba0565b91507fffffffffffffffffffffffffffffffffffffffffffffffffffffffffffffffff82141561446a57614469614373565b5b600182019050919050565b7f4552433732313a20617070726f76656420717565727920666f72206e6f6e657860008201527f697374656e7420746f6b656e0000000000000000000000000000000000000000602082015250565b60006144d1602c83613bdf565b91506144dc82614475565b604082019050919050565b60006020820190508181036000830152614500816144c4565b9050919050565b7f4552433732313a20617070726f76616c20746f2063757272656e74206f776e6560008201527f7200000000000000000000000000000000000000000000000000000000000000602082015250565b6000614563602183613bdf565b915061456e82614507565b604082019050919050565b6000602082019050818103600083015261459281614556565b9050919050565b7f4552433732313a20617070726f76652063616c6c6572206973206e6f74206f7760008201527f6e6572206e6f7220617070726f76656420666f7220616c6c0000000000000000602082015250565b60006145f5603883613bdf565b915061460082614599565b604082019050919050565b60006020820190508181036000830152614624816145e8565b9050919050565b7f4552433732313a207472616e736665722063616c6c6572206973206e6f74206f60008201527f776e6572206e6f7220617070726f766564000000000000000000000000000000602082015250565b6000614687603183613bdf565b91506146928261462b565b604082019050919050565b600060208201905081810360008301526146b68161467a565b9050919050565b7f455243373231456e756d657261626c653a206f776e657220696e646578206f7560008201527f74206f6620626f756e6473000000000000000000000000000000000000000000602082015250565b6000614719602b83613bdf565b9150614724826146bd565b604082019050919050565b600060208201905081810360008301526147488161470c565b9050919050565b7f455243373231456e756d657261626c653a20676c6f62616c20696e646578206f60008201527f7574206f6620626f756e64730000000000000000000000000000000000000000602082015250565b60006147ab602c83613bdf565b91506147b68261474f565b604082019050919050565b600060208201905081810360008301526147da8161479e565b9050919050565b7f4e487b7100000000000000000000000000000000000000000000000000000000600052603260045260246000fd5b7f4552433732313a206f776e657220717565727920666f72206e6f6e657869737460008201527f656e7420746f6b656e0000000000000000000000000000000000000000000000602082015250565b600061486c602983613bdf565b915061487782614810565b604082019050919050565b6000602082019050818103600083015261489b8161485f565b9050919050565b7f5072696365204572720000000000000000000000000000000000000000000000600082015250565b60006148d8600983613bdf565b91506148e3826148a2565b602082019050919050565b60006020820190508181036000830152614907816148cb565b9050919050565b7f4e6f7420466f7253616c65204572720000000000000000000000000000000000600082015250565b6000614944600f83613bdf565b915061494f8261490e565b602082019050919050565b6000602082019050818103600083015261497381614937565b9050919050565b600060608201905061498f6000830186613d1a565b61499c6020830185613d1a565b6149a96040830184613baa565b949350505050565b7f4552433732313a2062616c616e636520717565727920666f7220746865207a6560008201527f726f206164647265737300000000000000000000000000000000000000000000602082015250565b6000614a0d602a83613bdf565b9150614a18826149b1565b604082019050919050565b60006020820190508181036000830152614a3c81614a00565b9050919050565b7f4f776e61626c653a2063616c6c6572206973206e6f7420746865206f776e6572600082015250565b6000614a79602083613bdf565b9150614a8482614a43565b602082019050919050565b60006020820190508181036000830152614aa881614a6c565b9050919050565b7f4769766520612070657263656e746167652076616c75652066726f6d2030207460008201527f6f20313030000000000000000000000000000000000000000000000000000000602082015250565b6000614b0b602583613bdf565b9150614b1682614aaf565b604082019050919050565b60006020820190508181036000830152614b3a81614afe565b9050919050565b7f4552433732314d657461646174613a2055524920717565727920666f72206e6f60008201527f6e6578697374656e7420746f6b656e0000000000000000000000000000000000602082015250565b6000614b9d602f83613bdf565b9150614ba882614b41565b604082019050919050565b60006020820190508181036000830152614bcc81614b90565b9050919050565b600081905092915050565b6000614be982613bd4565b614bf38185614bd3565b9350614c03818560208601613bf0565b80840191505092915050565b6000614c1b8285614bde565b9150614c278284614bde565b91508190509392505050565b7f4f776e61626c653a206e6577206f776e657220697320746865207a65726f206160008201527f6464726573730000000000000000000000000000000000000000000000000000602082015250565b6000614c8f602683613bdf565b9150614c9a82614c33565b604082019050919050565b60006020820190508181036000830152614cbe81614c82565b9050919050565b7f4552433732313a206f70657261746f7220717565727920666f72206e6f6e657860008201527f697374656e7420746f6b656e0000000000000000000000000000000000000000602082015250565b6000614d21602c83613bdf565b9150614d2c82614cc5565b604082019050919050565b60006020820190508181036000830152614d5081614d14565b9050919050565b7f4552433732313a207472616e736665722066726f6d20696e636f72726563742060008201527f6f776e6572000000000000000000000000000000000000000000000000000000602082015250565b6000614db3602583613bdf565b9150614dbe82614d57565b604082019050919050565b60006020820190508181036000830152614de281614da6565b9050919050565b7f4552433732313a207472616e7366657220746f20746865207a65726f2061646460008201527f7265737300000000000000000000000000000000000000000000000000000000602082015250565b6000614e45602483613bdf565b9150614e5082614de9565b604082019050919050565b60006020820190508181036000830152614e7481614e38565b9050919050565b7f4552433732313a20617070726f766520746f2063616c6c657200000000000000600082015250565b6000614eb1601983613bdf565b9150614ebc82614e7b565b602082019050919050565b60006020820190508181036000830152614ee081614ea4565b9050919050565b7f4552433732313a207472616e7366657220746f206e6f6e20455243373231526560008201527f63656976657220696d706c656d656e7465720000000000000000000000000000602082015250565b6000614f43603283613bdf565b9150614f4e82614ee7565b604082019050919050565b60006020820190508181036000830152614f7281614f36565b9050919050565b7f4e487b7100000000000000000000000000000000000000000000000000000000600052601260045260246000fd5b6000614fb382613ba0565b9150614fbe83613ba0565b925082614fce57614fcd614f79565b5b828204905092915050565b6000614fe482613ba0565b9150614fef83613ba0565b925082614fff57614ffe614f79565b5b828206905092915050565b600081519050919050565b600082825260208201905092915050565b60006150318261500a565b61503b8185615015565b935061504b818560208601613bf0565b61505481613c23565b840191505092915050565b60006080820190506150746000830187613d1a565b6150816020830186613d1a565b61508e6040830185613baa565b81810360608301526150a08184615026565b905095945050505050565b6000815190506150ba81613b11565b92915050565b6000602082840312156150d6576150d5613adb565b5b60006150e4848285016150ab565b91505092915050565b7f4e487b7100000000000000000000000000000000000000000000000000000000600052603160045260246000fdfea264697066735822122057ecd27354113714cce398087306a56cde7694fd6efb426e6f07a4d7088f769364736f6c634300080c0033",
  "immutableReferences": {},
  "source": "// SPDX-License-Identifier: MIT\npragma solidity >=0.8.0 <0.9.0;\n\nimport \"@openzeppelin/contracts/access/Ownable.sol\";\nimport \"@openzeppelin/contracts/token/ERC721/extensions/ERC721Enumerable.sol\";\nimport \"./CryptoBoys.sol\";\n\ninterface IERC2981Royalties {\n    function royaltyInfo(uint256 _tokenId, uint256 _value)\n        external\n        view\n        returns (address _receiver, uint256 _royaltyAmount);\n}\n\ncontract Market is ERC721Enumerable, Ownable {\n\n    IERC2981Royalties royaltyInterface;\n\n    // this contract's token collection name & symbol\n    string public collectionName;\n    string public collectionNameSymbol;\n    \n    uint256 public communityFeePercent = 1;\n    uint256 public marketFeePercent = 3;\n    uint256 public cryptoBoyCounter = 0;\n    uint256 public totalGivenRewardsPerToken = 0;\n    mapping (uint256 => uint256) public communityRewards;\n\n    // map cryptoboy's token id to crypto boy\n    mapping(uint256 => CryptoBoy) public allCryptoBoys;\n\n    struct CryptoBoy {\n        uint256 tokenId;\n        string tokenName;\n        string tokenURI;\n        address mintedBy;\n        address currentOwner;\n        address previousOwner;\n        uint256 price;\n        uint256 numberOfTransfers;\n        bool forSale;\n    }\n\n    // initialize contract while deployment with contract's collection name and token\n    constructor() ERC721(\"Taiwan Crypto Market\", \"TCM\") {\n        collectionName = name();\n        collectionNameSymbol = symbol();\n\n        royaltyInterface = IERC2981Royalties(address(this));\n    }\n\n    function adjustFees(uint256 newDistFee, uint256 newMarketFee) external onlyOwner {\n        require(newDistFee <= 100, \"Give a percentage value from 0 to 100\");\n        require(newMarketFee <= 100, \"Give a percentage value from 0 to 100\");\n\n        communityFeePercent = newDistFee;\n        marketFeePercent = newMarketFee;\n    }\n\n    function appendCryptoBoy(\n        uint256 tokenId,\n        string memory name,\n        string memory uri,\n        address mintedBy,\n        address currOwner,\n        address prevOwner,\n        uint256 price,\n        uint256 numOfTransfers,\n        bool forSale\n    ) public {\n\n        CryptoBoy memory newCryptoBoy = CryptoBoy(tokenId, name, uri, mintedBy, currOwner, prevOwner, price, numOfTransfers, forSale);\n\n        allCryptoBoys[tokenId] = newCryptoBoy;\n\n        cryptoBoyCounter = tokenId;\n    }\n\n    // by a token by passing in the token's id\n    function buyToken(address nftAddr, uint256 _tokenId) public payable {\n        require(msg.sender != address(0));\n        // require(_exists(_tokenId));\n        \n        CryptoBoy memory cryptoboy = allCryptoBoys[_tokenId];\n\n        address tokenOwner = cryptoboy.currentOwner;\n        require(tokenOwner != address(0));\n        require(tokenOwner != msg.sender);\n\n        require(msg.value >= cryptoboy.price, \"Price Err\");\n        require(cryptoboy.forSale, \"Not ForSale Err\");\n\n        // _transfer(tokenOwner, msg.sender, _tokenId);\n        CryptoBoys(nftAddr).transferToken(tokenOwner, msg.sender, _tokenId);\n\n        address sendTo = cryptoboy.currentOwner;\n        payable(sendTo).transfer(msg.value);\n        cryptoboy.previousOwner = cryptoboy.currentOwner;\n        cryptoboy.currentOwner = msg.sender;\n        cryptoboy.numberOfTransfers += 1;\n        allCryptoBoys[_tokenId] = cryptoboy;\n    }\n\n    function changeTokenPrice(uint256 _tokenId, uint256 _newPrice) public {\n        require(msg.sender != address(0));\n\n        CryptoBoy memory cryptoboy = allCryptoBoys[_tokenId];\n\n        require(cryptoboy.currentOwner == msg.sender);\n        cryptoboy.price = _newPrice;\n        allCryptoBoys[_tokenId] = cryptoboy;\n    }\n\n    // switch between set for sale and set not for sale\n    function toggleForSale(uint256 _tokenId) public {\n        // require caller of the function is not an empty address\n        require(msg.sender != address(0));\n        // require that token should exist\n        require(_exists(_tokenId));\n        // get the token's owner\n        address tokenOwner = ownerOf(_tokenId);\n        // check that token's owner should be equal to the caller of the function\n        require(tokenOwner == msg.sender);\n        // get that token from all crypto boys mapping and create a memory of it defined as (struct => CryptoBoy)\n        CryptoBoy memory cryptoboy = allCryptoBoys[_tokenId];\n        // if token's forSale is false make it true and vice versa\n        if(cryptoboy.forSale) {\n            cryptoboy.forSale = false;\n        } else {\n            cryptoboy.forSale = true;\n        }\n        // set and update that token in the mapping\n        allCryptoBoys[_tokenId] = cryptoboy;\n    }\n\n    function getRewards() external view returns (uint256 amount) {\n        uint256 rewards = 0;\n\n        // Rewards of tokens owned by the sender\n        for (uint256 i = 0; i <= cryptoBoyCounter; i++) {\n            // uint256 tokenId = tokenOfOwnerByIndex(msg.sender, i);\n\n            CryptoBoy memory cryptoboy = allCryptoBoys[i];\n\n            address tokenOwner = ownerOf(cryptoboy.tokenId);\n\n            if ( tokenOwner == msg.sender) {\n                rewards += totalGivenRewardsPerToken - communityRewards[cryptoboy.tokenId];\n            }\n        }\n\n        return rewards;\n    }\n}",
  "sourcePath": "/Users/shirui/nft-dapp/nft-demo-dapp/src/contracts/Market.sol",
  "compiler": {
    "name": "solc",
    "version": "0.8.12+commit.f00d7308.Emscripten.clang"
  },
  "schemaVersion": "3.4.6",
  "updatedAt": "2022-03-23T05:59:22.556Z",
  "networkType": "ethereum",
  "devdoc": {
    "kind": "dev",
    "methods": {
      "approve(address,uint256)": {
        "details": "See {IERC721-approve}."
      },
      "balanceOf(address)": {
        "details": "See {IERC721-balanceOf}."
      },
      "getApproved(uint256)": {
        "details": "See {IERC721-getApproved}."
      },
      "isApprovedForAll(address,address)": {
        "details": "See {IERC721-isApprovedForAll}."
      },
      "name()": {
        "details": "See {IERC721Metadata-name}."
      },
      "owner()": {
        "details": "Returns the address of the current owner."
      },
      "ownerOf(uint256)": {
        "details": "See {IERC721-ownerOf}."
      },
      "renounceOwnership()": {
        "details": "Leaves the contract without owner. It will not be possible to call `onlyOwner` functions anymore. Can only be called by the current owner. NOTE: Renouncing ownership will leave the contract without an owner, thereby removing any functionality that is only available to the owner."
      },
      "safeTransferFrom(address,address,uint256)": {
        "details": "See {IERC721-safeTransferFrom}."
      },
      "safeTransferFrom(address,address,uint256,bytes)": {
        "details": "See {IERC721-safeTransferFrom}."
      },
      "setApprovalForAll(address,bool)": {
        "details": "See {IERC721-setApprovalForAll}."
      },
      "supportsInterface(bytes4)": {
        "details": "See {IERC165-supportsInterface}."
      },
      "symbol()": {
        "details": "See {IERC721Metadata-symbol}."
      },
      "tokenByIndex(uint256)": {
        "details": "See {IERC721Enumerable-tokenByIndex}."
      },
      "tokenOfOwnerByIndex(address,uint256)": {
        "details": "See {IERC721Enumerable-tokenOfOwnerByIndex}."
      },
      "tokenURI(uint256)": {
        "details": "See {IERC721Metadata-tokenURI}."
      },
      "totalSupply()": {
        "details": "See {IERC721Enumerable-totalSupply}."
      },
      "transferFrom(address,address,uint256)": {
        "details": "See {IERC721-transferFrom}."
      },
      "transferOwnership(address)": {
        "details": "Transfers ownership of the contract to a new account (`newOwner`). Can only be called by the current owner."
      }
    },
    "version": 1
  },
  "userdoc": {
    "kind": "user",
    "methods": {},
    "version": 1
  }
}