{
  "contractName": "ZombieToken",
  "abi": [
    {
      "inputs": [
        {
          "internalType": "string",
          "name": "_name",
          "type": "string"
        },
        {
          "internalType": "string",
          "name": "_symbol",
          "type": "string"
        }
      ],
      "stateMutability": "nonpayable",
      "type": "constructor"
    },
    {
      "anonymous": false,
      "inputs": [
        {
          "indexed": true,
          "internalType": "address",
          "name": "owner",
          "type": "address"
        },
        {
          "indexed": true,
          "internalType": "address",
          "name": "approved",
          "type": "address"
        },
        {
          "indexed": true,
          "internalType": "uint256",
          "name": "tokenId",
          "type": "uint256"
        }
      ],
      "name": "Approval",
      "type": "event"
    },
    {
      "anonymous": false,
      "inputs": [
        {
          "indexed": true,
          "internalType": "address",
          "name": "owner",
          "type": "address"
        },
        {
          "indexed": true,
          "internalType": "address",
          "name": "operator",
          "type": "address"
        },
        {
          "indexed": false,
          "internalType": "bool",
          "name": "approved",
          "type": "bool"
        }
      ],
      "name": "ApprovalForAll",
      "type": "event"
    },
    {
      "anonymous": false,
      "inputs": [
        {
          "indexed": true,
          "internalType": "address",
          "name": "owner",
          "type": "address"
        },
        {
          "indexed": false,
          "internalType": "uint256",
          "name": "id",
          "type": "uint256"
        },
        {
          "indexed": false,
          "internalType": "uint256",
          "name": "dna",
          "type": "uint256"
        }
      ],
      "name": "NewZombie",
      "type": "event"
    },
    {
      "anonymous": false,
      "inputs": [
        {
          "indexed": true,
          "internalType": "address",
          "name": "previousOwner",
          "type": "address"
        },
        {
          "indexed": true,
          "internalType": "address",
          "name": "newOwner",
          "type": "address"
        }
      ],
      "name": "OwnershipTransferred",
      "type": "event"
    },
    {
      "anonymous": false,
      "inputs": [
        {
          "indexed": true,
          "internalType": "address",
          "name": "from",
          "type": "address"
        },
        {
          "indexed": true,
          "internalType": "address",
          "name": "to",
          "type": "address"
        },
        {
          "indexed": true,
          "internalType": "uint256",
          "name": "tokenId",
          "type": "uint256"
        }
      ],
      "name": "Transfer",
      "type": "event"
    },
    {
      "inputs": [
        {
          "internalType": "address",
          "name": "to",
          "type": "address"
        },
        {
          "internalType": "uint256",
          "name": "tokenId",
          "type": "uint256"
        }
      ],
      "name": "approve",
      "outputs": [],
      "stateMutability": "nonpayable",
      "type": "function"
    },
    {
      "inputs": [
        {
          "internalType": "address",
          "name": "owner",
          "type": "address"
        }
      ],
      "name": "balanceOf",
      "outputs": [
        {
          "internalType": "uint256",
          "name": "",
          "type": "uint256"
        }
      ],
      "stateMutability": "view",
      "type": "function",
      "constant": true
    },
    {
      "inputs": [
        {
          "internalType": "uint256",
          "name": "tokenId",
          "type": "uint256"
        }
      ],
      "name": "getApproved",
      "outputs": [
        {
          "internalType": "address",
          "name": "",
          "type": "address"
        }
      ],
      "stateMutability": "view",
      "type": "function",
      "constant": true
    },
    {
      "inputs": [
        {
          "internalType": "address",
          "name": "owner",
          "type": "address"
        },
        {
          "internalType": "address",
          "name": "operator",
          "type": "address"
        }
      ],
      "name": "isApprovedForAll",
      "outputs": [
        {
          "internalType": "bool",
          "name": "",
          "type": "bool"
        }
      ],
      "stateMutability": "view",
      "type": "function",
      "constant": true
    },
    {
      "inputs": [
        {
          "internalType": "uint256",
          "name": "",
          "type": "uint256"
        }
      ],
      "name": "lips",
      "outputs": [
        {
          "internalType": "string",
          "name": "name",
          "type": "string"
        },
        {
          "internalType": "uint256",
          "name": "id",
          "type": "uint256"
        },
        {
          "internalType": "uint256",
          "name": "dna",
          "type": "uint256"
        },
        {
          "internalType": "uint8",
          "name": "level",
          "type": "uint8"
        },
        {
          "internalType": "uint8",
          "name": "rarity",
          "type": "uint8"
        }
      ],
      "stateMutability": "view",
      "type": "function",
      "constant": true
    },
    {
      "inputs": [],
      "name": "name",
      "outputs": [
        {
          "internalType": "string",
          "name": "",
          "type": "string"
        }
      ],
      "stateMutability": "view",
      "type": "function",
      "constant": true
    },
    {
      "inputs": [],
      "name": "owner",
      "outputs": [
        {
          "internalType": "address",
          "name": "",
          "type": "address"
        }
      ],
      "stateMutability": "view",
      "type": "function",
      "constant": true
    },
    {
      "inputs": [
        {
          "internalType": "uint256",
          "name": "tokenId",
          "type": "uint256"
        }
      ],
      "name": "ownerOf",
      "outputs": [
        {
          "internalType": "address",
          "name": "",
          "type": "address"
        }
      ],
      "stateMutability": "view",
      "type": "function",
      "constant": true
    },
    {
      "inputs": [],
      "name": "renounceOwnership",
      "outputs": [],
      "stateMutability": "nonpayable",
      "type": "function"
    },
    {
      "inputs": [
        {
          "internalType": "address",
          "name": "from",
          "type": "address"
        },
        {
          "internalType": "address",
          "name": "to",
          "type": "address"
        },
        {
          "internalType": "uint256",
          "name": "tokenId",
          "type": "uint256"
        }
      ],
      "name": "safeTransferFrom",
      "outputs": [],
      "stateMutability": "nonpayable",
      "type": "function"
    },
    {
      "inputs": [
        {
          "internalType": "address",
          "name": "from",
          "type": "address"
        },
        {
          "internalType": "address",
          "name": "to",
          "type": "address"
        },
        {
          "internalType": "uint256",
          "name": "tokenId",
          "type": "uint256"
        },
        {
          "internalType": "bytes",
          "name": "_data",
          "type": "bytes"
        }
      ],
      "name": "safeTransferFrom",
      "outputs": [],
      "stateMutability": "nonpayable",
      "type": "function"
    },
    {
      "inputs": [
        {
          "internalType": "address",
          "name": "operator",
          "type": "address"
        },
        {
          "internalType": "bool",
          "name": "approved",
          "type": "bool"
        }
      ],
      "name": "setApprovalForAll",
      "outputs": [],
      "stateMutability": "nonpayable",
      "type": "function"
    },
    {
      "inputs": [
        {
          "internalType": "bytes4",
          "name": "interfaceId",
          "type": "bytes4"
        }
      ],
      "name": "supportsInterface",
      "outputs": [
        {
          "internalType": "bool",
          "name": "",
          "type": "bool"
        }
      ],
      "stateMutability": "view",
      "type": "function",
      "constant": true
    },
    {
      "inputs": [],
      "name": "symbol",
      "outputs": [
        {
          "internalType": "string",
          "name": "",
          "type": "string"
        }
      ],
      "stateMutability": "view",
      "type": "function",
      "constant": true
    },
    {
      "inputs": [
        {
          "internalType": "uint256",
          "name": "tokenId",
          "type": "uint256"
        }
      ],
      "name": "tokenURI",
      "outputs": [
        {
          "internalType": "string",
          "name": "",
          "type": "string"
        }
      ],
      "stateMutability": "view",
      "type": "function",
      "constant": true
    },
    {
      "inputs": [
        {
          "internalType": "address",
          "name": "from",
          "type": "address"
        },
        {
          "internalType": "address",
          "name": "to",
          "type": "address"
        },
        {
          "internalType": "uint256",
          "name": "tokenId",
          "type": "uint256"
        }
      ],
      "name": "transferFrom",
      "outputs": [],
      "stateMutability": "nonpayable",
      "type": "function"
    },
    {
      "inputs": [
        {
          "internalType": "address",
          "name": "newOwner",
          "type": "address"
        }
      ],
      "name": "transferOwnership",
      "outputs": [],
      "stateMutability": "nonpayable",
      "type": "function"
    },
    {
      "inputs": [
        {
          "internalType": "uint256",
          "name": "_fee",
          "type": "uint256"
        }
      ],
      "name": "updateFee",
      "outputs": [],
      "stateMutability": "nonpayable",
      "type": "function"
    },
    {
      "inputs": [],
      "name": "withdraw",
      "outputs": [],
      "stateMutability": "payable",
      "type": "function",
      "payable": true
    },
    {
      "inputs": [
        {
          "internalType": "string",
          "name": "_name",
          "type": "string"
        }
      ],
      "name": "createRandomZombie",
      "outputs": [],
      "stateMutability": "payable",
      "type": "function",
      "payable": true
    },
    {
      "inputs": [],
      "name": "getZombies",
      "outputs": [
        {
          "components": [
            {
              "internalType": "string",
              "name": "name",
              "type": "string"
            },
            {
              "internalType": "uint256",
              "name": "id",
              "type": "uint256"
            },
            {
              "internalType": "uint256",
              "name": "dna",
              "type": "uint256"
            },
            {
              "internalType": "uint8",
              "name": "level",
              "type": "uint8"
            },
            {
              "internalType": "uint8",
              "name": "rarity",
              "type": "uint8"
            }
          ],
          "internalType": "struct ZombieToken.Zombie[]",
          "name": "",
          "type": "tuple[]"
        }
      ],
      "stateMutability": "view",
      "type": "function",
      "constant": true
    },
    {
      "inputs": [
        {
          "internalType": "address",
          "name": "_owner",
          "type": "address"
        }
      ],
      "name": "getOwnerZombies",
      "outputs": [
        {
          "components": [
            {
              "internalType": "string",
              "name": "name",
              "type": "string"
            },
            {
              "internalType": "uint256",
              "name": "id",
              "type": "uint256"
            },
            {
              "internalType": "uint256",
              "name": "dna",
              "type": "uint256"
            },
            {
              "internalType": "uint8",
              "name": "level",
              "type": "uint8"
            },
            {
              "internalType": "uint8",
              "name": "rarity",
              "type": "uint8"
            }
          ],
          "internalType": "struct ZombieToken.Zombie[]",
          "name": "",
          "type": "tuple[]"
        }
      ],
      "stateMutability": "view",
      "type": "function",
      "constant": true
    },
    {
      "inputs": [
        {
          "internalType": "address",
          "name": "_owner",
          "type": "address"
        }
      ],
      "name": "isOwner",
      "outputs": [
        {
          "internalType": "bool",
          "name": "",
          "type": "bool"
        }
      ],
      "stateMutability": "view",
      "type": "function",
      "constant": true
    },
    {
      "inputs": [
        {
          "internalType": "uint256",
          "name": "_lipId",
          "type": "uint256"
        }
      ],
      "name": "levelUp",
      "outputs": [],
      "stateMutability": "nonpayable",
      "type": "function"
    }
  ],
  "bytecode": "0x6080604052662386f26fc100006008553480156200001c57600080fd5b5060405162003f4a38038062003f4a8339818101604052810190620000429190620003bb565b818181600090805190602001906200005c9291906200016e565b508060019080519060200190620000759291906200016e565b505050620000986200008c620000a060201b60201c565b620000a860201b60201c565b5050620004a5565b600033905090565b6000600660009054906101000a900473ffffffffffffffffffffffffffffffffffffffff16905081600660006101000a81548173ffffffffffffffffffffffffffffffffffffffff021916908373ffffffffffffffffffffffffffffffffffffffff1602179055508173ffffffffffffffffffffffffffffffffffffffff168173ffffffffffffffffffffffffffffffffffffffff167f8be0079c531659141344cd1fd0a4f28419497f9722a3daafe3b4186f6b6457e060405160405180910390a35050565b8280546200017c906200046f565b90600052602060002090601f016020900481019282620001a05760008555620001ec565b82601f10620001bb57805160ff1916838001178555620001ec565b82800160010185558215620001ec579182015b82811115620001eb578251825591602001919060010190620001ce565b5b509050620001fb9190620001ff565b5090565b5b808211156200021a57600081600090555060010162000200565b5090565b6000604051905090565b600080fd5b600080fd5b600080fd5b600080fd5b6000601f19601f8301169050919050565b7f4e487b7100000000000000000000000000000000000000000000000000000000600052604160045260246000fd5b62000287826200023c565b810181811067ffffffffffffffff82111715620002a957620002a86200024d565b5b80604052505050565b6000620002be6200021e565b9050620002cc82826200027c565b919050565b600067ffffffffffffffff821115620002ef57620002ee6200024d565b5b620002fa826200023c565b9050602081019050919050565b60005b83811015620003275780820151818401526020810190506200030a565b8381111562000337576000848401525b50505050565b6000620003546200034e84620002d1565b620002b2565b90508281526020810184848401111562000373576200037262000237565b5b6200038084828562000307565b509392505050565b600082601f830112620003a0576200039f62000232565b5b8151620003b28482602086016200033d565b91505092915050565b60008060408385031215620003d557620003d462000228565b5b600083015167ffffffffffffffff811115620003f657620003f56200022d565b5b620004048582860162000388565b925050602083015167ffffffffffffffff8111156200042857620004276200022d565b5b620004368582860162000388565b9150509250929050565b7f4e487b7100000000000000000000000000000000000000000000000000000000600052602260045260246000fd5b600060028204905060018216806200048857607f821691505b602082108114156200049f576200049e62000440565b5b50919050565b613a9580620004b56000396000f3fe60806040526004361061014b5760003560e01c806370a08231116100b6578063a22cb4651161006f578063a22cb4651461048a578063b88d4fde146104b3578063c87b56dd146104dc578063e985e9c514610519578063f2fde38b14610556578063fb471bd51461057f5761014b565b806370a082311461039b578063715018a6146103d85780637bff0a01146103ef5780638da5cb5b1461040b5780639012c4a81461043657806395d89b411461045f5761014b565b80632f53d9c7116101085780632f53d9c7146102705780632f54bf6e146102ad5780633ccfd60b146102ea57806342842e0e146102f45780635ec163db1461031d5780636352211e1461035e5761014b565b806301ffc9a71461015057806306fdde031461018d578063081812fc146101b8578063095ea7b3146101f55780630ce90ec21461021e57806323b872dd14610247575b600080fd5b34801561015c57600080fd5b5061017760048036038101906101729190612510565b6105aa565b6040516101849190612558565b60405180910390f35b34801561019957600080fd5b506101a261068c565b6040516101af919061260c565b60405180910390f35b3480156101c457600080fd5b506101df60048036038101906101da9190612664565b61071e565b6040516101ec91906126d2565b60405180910390f35b34801561020157600080fd5b5061021c60048036038101906102179190612719565b6107a3565b005b34801561022a57600080fd5b5061024560048036038101906102409190612664565b6108bb565b005b34801561025357600080fd5b5061026e60048036038101906102699190612759565b61095f565b005b34801561027c57600080fd5b50610297600480360381019061029291906127ac565b6109bf565b6040516102a49190612986565b60405180910390f35b3480156102b957600080fd5b506102d460048036038101906102cf91906127ac565b610bc6565b6040516102e19190612558565b60405180910390f35b6102f2610c16565b005b34801561030057600080fd5b5061031b60048036038101906103169190612759565b610ce8565b005b34801561032957600080fd5b50610344600480360381019061033f9190612664565b610d08565b6040516103559594939291906129c6565b60405180910390f35b34801561036a57600080fd5b5061038560048036038101906103809190612664565b610df0565b60405161039291906126d2565b60405180910390f35b3480156103a757600080fd5b506103c260048036038101906103bd91906127ac565b610ea2565b6040516103cf9190612a20565b60405180910390f35b3480156103e457600080fd5b506103ed610f5a565b005b61040960048036038101906104049190612b70565b610fe2565b005b34801561041757600080fd5b50610420610ffd565b60405161042d91906126d2565b60405180910390f35b34801561044257600080fd5b5061045d60048036038101906104589190612664565b611027565b005b34801561046b57600080fd5b506104746110ad565b604051610481919061260c565b60405180910390f35b34801561049657600080fd5b506104b160048036038101906104ac9190612be5565b61113f565b005b3480156104bf57600080fd5b506104da60048036038101906104d59190612cc6565b611155565b005b3480156104e857600080fd5b5061050360048036038101906104fe9190612664565b6111b7565b604051610510919061260c565b60405180910390f35b34801561052557600080fd5b50610540600480360381019061053b9190612d49565b61125e565b60405161054d9190612558565b60405180910390f35b34801561056257600080fd5b5061057d600480360381019061057891906127ac565b6112f2565b005b34801561058b57600080fd5b506105946113ea565b6040516105a19190612986565b60405180910390f35b60007f80ac58cd000000000000000000000000000000000000000000000000000000007bffffffffffffffffffffffffffffffffffffffffffffffffffffffff1916827bffffffffffffffffffffffffffffffffffffffffffffffffffffffff1916148061067557507f5b5e139f000000000000000000000000000000000000000000000000000000007bffffffffffffffffffffffffffffffffffffffffffffffffffffffff1916827bffffffffffffffffffffffffffffffffffffffffffffffffffffffff1916145b80610685575061068482611529565b5b9050919050565b60606000805461069b90612db8565b80601f01602080910402602001604051908101604052809291908181526020018280546106c790612db8565b80156107145780601f106106e957610100808354040283529160200191610714565b820191906000526020600020905b8154815290600101906020018083116106f757829003601f168201915b5050505050905090565b600061072982611593565b610768576040517f08c379a000000000000000000000000000000000000000000000000000000000815260040161075f90612e5c565b60405180910390fd5b6004600083815260200190815260200160002060009054906101000a900473ffffffffffffffffffffffffffffffffffffffff169050919050565b60006107ae82610df0565b90508073ffffffffffffffffffffffffffffffffffffffff168373ffffffffffffffffffffffffffffffffffffffff16141561081f576040517f08c379a000000000000000000000000000000000000000000000000000000000815260040161081690612eee565b60405180910390fd5b8073ffffffffffffffffffffffffffffffffffffffff1661083e6115ff565b73ffffffffffffffffffffffffffffffffffffffff16148061086d575061086c816108676115ff565b61125e565b5b6108ac576040517f08c379a00000000000000000000000000000000000000000000000000000000081526004016108a390612f80565b60405180910390fd5b6108b68383611607565b505050565b3373ffffffffffffffffffffffffffffffffffffffff166108db82610df0565b73ffffffffffffffffffffffffffffffffffffffff16146108fb57600080fd5b60006009828154811061091157610910612fa0565b5b9060005260206000209060040201905080600301600081819054906101000a900460ff168092919061094290612ffe565b91906101000a81548160ff021916908360ff160217905550505050565b61097061096a6115ff565b826116c0565b6109af576040517f08c379a00000000000000000000000000000000000000000000000000000000081526004016109a69061309a565b60405180910390fd5b6109ba83838361179e565b505050565b606060006109cc83610ea2565b67ffffffffffffffff8111156109e5576109e4612a45565b5b604051908082528060200260200182016040528015610a1e57816020015b610a0b6123cc565b815260200190600190039081610a035790505b5090506000805b600980549050811015610bbb578473ffffffffffffffffffffffffffffffffffffffff16610a5282610df0565b73ffffffffffffffffffffffffffffffffffffffff161415610ba85760098181548110610a8257610a81612fa0565b5b90600052602060002090600402016040518060a0016040529081600082018054610aab90612db8565b80601f0160208091040260200160405190810160405280929190818152602001828054610ad790612db8565b8015610b245780601f10610af957610100808354040283529160200191610b24565b820191906000526020600020905b815481529060010190602001808311610b0757829003601f168201915b5050505050815260200160018201548152602001600282015481526020016003820160009054906101000a900460ff1660ff1660ff1681526020016003820160019054906101000a900460ff1660ff1660ff1681525050838381518110610b8e57610b8d612fa0565b5b60200260200101819052508180610ba4906130ba565b9250505b8080610bb3906130ba565b915050610a25565b508192505050919050565b6000610bd0610ffd565b73ffffffffffffffffffffffffffffffffffffffff168273ffffffffffffffffffffffffffffffffffffffff161415610c0c5760019050610c11565b600090505b919050565b610c1e6115ff565b73ffffffffffffffffffffffffffffffffffffffff16610c3c610ffd565b73ffffffffffffffffffffffffffffffffffffffff1614610c92576040517f08c379a0000000000000000000000000000000000000000000000000000000008152600401610c899061314f565b60405180910390fd5b6000610c9c610ffd565b90508073ffffffffffffffffffffffffffffffffffffffff166108fc479081150290604051600060405180830381858888f19350505050158015610ce4573d6000803e3d6000fd5b5050565b610d0383838360405180602001604052806000815250611155565b505050565b60098181548110610d1857600080fd5b9060005260206000209060040201600091509050806000018054610d3b90612db8565b80601f0160208091040260200160405190810160405280929190818152602001828054610d6790612db8565b8015610db45780601f10610d8957610100808354040283529160200191610db4565b820191906000526020600020905b815481529060010190602001808311610d9757829003601f168201915b5050505050908060010154908060020154908060030160009054906101000a900460ff16908060030160019054906101000a900460ff16905085565b6000806002600084815260200190815260200160002060009054906101000a900473ffffffffffffffffffffffffffffffffffffffff169050600073ffffffffffffffffffffffffffffffffffffffff168173ffffffffffffffffffffffffffffffffffffffff161415610e99576040517f08c379a0000000000000000000000000000000000000000000000000000000008152600401610e90906131e1565b60405180910390fd5b80915050919050565b60008073ffffffffffffffffffffffffffffffffffffffff168273ffffffffffffffffffffffffffffffffffffffff161415610f13576040517f08c379a0000000000000000000000000000000000000000000000000000000008152600401610f0a90613273565b60405180910390fd5b600360008373ffffffffffffffffffffffffffffffffffffffff1673ffffffffffffffffffffffffffffffffffffffff168152602001908152602001600020549050919050565b610f626115ff565b73ffffffffffffffffffffffffffffffffffffffff16610f80610ffd565b73ffffffffffffffffffffffffffffffffffffffff1614610fd6576040517f08c379a0000000000000000000000000000000000000000000000000000000008152600401610fcd9061314f565b60405180910390fd5b610fe06000611a05565b565b600854341015610ff157600080fd5b610ffa81611acb565b50565b6000600660009054906101000a900473ffffffffffffffffffffffffffffffffffffffff16905090565b61102f6115ff565b73ffffffffffffffffffffffffffffffffffffffff1661104d610ffd565b73ffffffffffffffffffffffffffffffffffffffff16146110a3576040517f08c379a000000000000000000000000000000000000000000000000000000000815260040161109a9061314f565b60405180910390fd5b8060088190555050565b6060600180546110bc90612db8565b80601f01602080910402602001604051908101604052809291908181526020018280546110e890612db8565b80156111355780601f1061110a57610100808354040283529160200191611135565b820191906000526020600020905b81548152906001019060200180831161111857829003601f168201915b5050505050905090565b61115161114a6115ff565b8383611c3e565b5050565b6111666111606115ff565b836116c0565b6111a5576040517f08c379a000000000000000000000000000000000000000000000000000000000815260040161119c9061309a565b60405180910390fd5b6111b184848484611dab565b50505050565b60606111c282611593565b611201576040517f08c379a00000000000000000000000000000000000000000000000000000000081526004016111f890613305565b60405180910390fd5b600061120b611e07565b9050600081511161122b5760405180602001604052806000815250611256565b8061123584611e1e565b604051602001611246929190613361565b6040516020818303038152906040525b915050919050565b6000600560008473ffffffffffffffffffffffffffffffffffffffff1673ffffffffffffffffffffffffffffffffffffffff16815260200190815260200160002060008373ffffffffffffffffffffffffffffffffffffffff1673ffffffffffffffffffffffffffffffffffffffff16815260200190815260200160002060009054906101000a900460ff16905092915050565b6112fa6115ff565b73ffffffffffffffffffffffffffffffffffffffff16611318610ffd565b73ffffffffffffffffffffffffffffffffffffffff161461136e576040517f08c379a00000000000000000000000000000000000000000000000000000000081526004016113659061314f565b60405180910390fd5b600073ffffffffffffffffffffffffffffffffffffffff168173ffffffffffffffffffffffffffffffffffffffff1614156113de576040517f08c379a00000000000000000000000000000000000000000000000000000000081526004016113d5906133f7565b60405180910390fd5b6113e781611a05565b50565b60606009805480602002602001604051908101604052809291908181526020016000905b8282101561152057838290600052602060002090600402016040518060a001604052908160008201805461144190612db8565b80601f016020809104026020016040519081016040528092919081815260200182805461146d90612db8565b80156114ba5780601f1061148f576101008083540402835291602001916114ba565b820191906000526020600020905b81548152906001019060200180831161149d57829003601f168201915b5050505050815260200160018201548152602001600282015481526020016003820160009054906101000a900460ff1660ff1660ff1681526020016003820160019054906101000a900460ff1660ff1660ff16815250508152602001906001019061140e565b50505050905090565b60007f01ffc9a7000000000000000000000000000000000000000000000000000000007bffffffffffffffffffffffffffffffffffffffffffffffffffffffff1916827bffffffffffffffffffffffffffffffffffffffffffffffffffffffff1916149050919050565b60008073ffffffffffffffffffffffffffffffffffffffff166002600084815260200190815260200160002060009054906101000a900473ffffffffffffffffffffffffffffffffffffffff1673ffffffffffffffffffffffffffffffffffffffff1614159050919050565b600033905090565b816004600083815260200190815260200160002060006101000a81548173ffffffffffffffffffffffffffffffffffffffff021916908373ffffffffffffffffffffffffffffffffffffffff160217905550808273ffffffffffffffffffffffffffffffffffffffff1661167a83610df0565b73ffffffffffffffffffffffffffffffffffffffff167f8c5be1e5ebec7d5bd14f71427d1e84f3dd0314c0f7b2291e5b200ac8c7c3b92560405160405180910390a45050565b60006116cb82611593565b61170a576040517f08c379a000000000000000000000000000000000000000000000000000000000815260040161170190613489565b60405180910390fd5b600061171583610df0565b90508073ffffffffffffffffffffffffffffffffffffffff168473ffffffffffffffffffffffffffffffffffffffff16148061178457508373ffffffffffffffffffffffffffffffffffffffff1661176c8461071e565b73ffffffffffffffffffffffffffffffffffffffff16145b806117955750611794818561125e565b5b91505092915050565b8273ffffffffffffffffffffffffffffffffffffffff166117be82610df0565b73ffffffffffffffffffffffffffffffffffffffff1614611814576040517f08c379a000000000000000000000000000000000000000000000000000000000815260040161180b9061351b565b60405180910390fd5b600073ffffffffffffffffffffffffffffffffffffffff168273ffffffffffffffffffffffffffffffffffffffff161415611884576040517f08c379a000000000000000000000000000000000000000000000000000000000815260040161187b906135ad565b60405180910390fd5b61188f838383611f7f565b61189a600082611607565b6001600360008573ffffffffffffffffffffffffffffffffffffffff1673ffffffffffffffffffffffffffffffffffffffff16815260200190815260200160002060008282546118ea91906135cd565b925050819055506001600360008473ffffffffffffffffffffffffffffffffffffffff1673ffffffffffffffffffffffffffffffffffffffff16815260200190815260200160002060008282546119419190613601565b92505081905550816002600083815260200190815260200160002060006101000a81548173ffffffffffffffffffffffffffffffffffffffff021916908373ffffffffffffffffffffffffffffffffffffffff160217905550808273ffffffffffffffffffffffffffffffffffffffff168473ffffffffffffffffffffffffffffffffffffffff167fddf252ad1be2c89b69c2b068fc378daa952ba7f163c4a11628f55a4df523b3ef60405160405180910390a4611a00838383611f84565b505050565b6000600660009054906101000a900473ffffffffffffffffffffffffffffffffffffffff16905081600660006101000a81548173ffffffffffffffffffffffffffffffffffffffff021916908373ffffffffffffffffffffffffffffffffffffffff1602179055508173ffffffffffffffffffffffffffffffffffffffff168173ffffffffffffffffffffffffffffffffffffffff167f8be0079c531659141344cd1fd0a4f28419497f9722a3daafe3b4186f6b6457e060405160405180910390a35050565b6000611ad76064611f89565b90506000611aeb662386f26fc10000611f89565b905060006040518060a001604052808581526020016007548152602001838152602001600160ff1681526020018460ff16815250905060098190806001815401808255809150506001900390600052602060002090600402016000909190919091506000820151816000019080519060200190611b69929190612401565b50602082015181600101556040820151816002015560608201518160030160006101000a81548160ff021916908360ff16021790555060808201518160030160016101000a81548160ff021916908360ff1602179055505050611bce33600754611fce565b3373ffffffffffffffffffffffffffffffffffffffff167f1a172701b8bb209b113d0fedbbdf13b4da0b81bb965131e8d93c93bfd1a14ab660075484604051611c18929190613657565b60405180910390a260076000815480929190611c33906130ba565b919050555050505050565b8173ffffffffffffffffffffffffffffffffffffffff168373ffffffffffffffffffffffffffffffffffffffff161415611cad576040517f08c379a0000000000000000000000000000000000000000000000000000000008152600401611ca4906136cc565b60405180910390fd5b80600560008573ffffffffffffffffffffffffffffffffffffffff1673ffffffffffffffffffffffffffffffffffffffff16815260200190815260200160002060008473ffffffffffffffffffffffffffffffffffffffff1673ffffffffffffffffffffffffffffffffffffffff16815260200190815260200160002060006101000a81548160ff0219169083151502179055508173ffffffffffffffffffffffffffffffffffffffff168373ffffffffffffffffffffffffffffffffffffffff167f17307eab39ab6107e8899845ad3d59bd9653f200f220920489ca2b5937696c3183604051611d9e9190612558565b60405180910390a3505050565b611db684848461179e565b611dc284848484611fec565b611e01576040517f08c379a0000000000000000000000000000000000000000000000000000000008152600401611df89061375e565b60405180910390fd5b50505050565b606060405180602001604052806000815250905090565b60606000821415611e66576040518060400160405280600181526020017f30000000000000000000000000000000000000000000000000000000000000008152509050611f7a565b600082905060005b60008214611e98578080611e81906130ba565b915050600a82611e9191906137ad565b9150611e6e565b60008167ffffffffffffffff811115611eb457611eb3612a45565b5b6040519080825280601f01601f191660200182016040528015611ee65781602001600182028036833780820191505090505b5090505b60008514611f7357600182611eff91906135cd565b9150600a85611f0e91906137de565b6030611f1a9190613601565b60f81b818381518110611f3057611f2f612fa0565b5b60200101907effffffffffffffffffffffffffffffffffffffffffffffffffffffffffffff1916908160001a905350600a85611f6c91906137ad565b9450611eea565b8093505050505b919050565b505050565b505050565b6000804233604051602001611f9f929190613878565b6040516020818303038152906040528051906020012060001c90508281611fc691906137de565b915050919050565b611fe8828260405180602001604052806000815250612174565b5050565b600061200d8473ffffffffffffffffffffffffffffffffffffffff166121cf565b15612167578373ffffffffffffffffffffffffffffffffffffffff1663150b7a026120366115ff565b8786866040518563ffffffff1660e01b815260040161205894939291906138f9565b6020604051808303816000875af192505050801561209457506040513d601f19601f82011682018060405250810190612091919061395a565b60015b612117573d80600081146120c4576040519150601f19603f3d011682016040523d82523d6000602084013e6120c9565b606091505b5060008151141561210f576040517f08c379a00000000000000000000000000000000000000000000000000000000081526004016121069061375e565b60405180910390fd5b805181602001fd5b63150b7a0260e01b7bffffffffffffffffffffffffffffffffffffffffffffffffffffffff1916817bffffffffffffffffffffffffffffffffffffffffffffffffffffffff19161491505061216c565b600190505b949350505050565b61217e83836121f2565b61218b6000848484611fec565b6121ca576040517f08c379a00000000000000000000000000000000000000000000000000000000081526004016121c19061375e565b60405180910390fd5b505050565b6000808273ffffffffffffffffffffffffffffffffffffffff163b119050919050565b600073ffffffffffffffffffffffffffffffffffffffff168273ffffffffffffffffffffffffffffffffffffffff161415612262576040517f08c379a0000000000000000000000000000000000000000000000000000000008152600401612259906139d3565b60405180910390fd5b61226b81611593565b156122ab576040517f08c379a00000000000000000000000000000000000000000000000000000000081526004016122a290613a3f565b60405180910390fd5b6122b760008383611f7f565b6001600360008473ffffffffffffffffffffffffffffffffffffffff1673ffffffffffffffffffffffffffffffffffffffff16815260200190815260200160002060008282546123079190613601565b92505081905550816002600083815260200190815260200160002060006101000a81548173ffffffffffffffffffffffffffffffffffffffff021916908373ffffffffffffffffffffffffffffffffffffffff160217905550808273ffffffffffffffffffffffffffffffffffffffff16600073ffffffffffffffffffffffffffffffffffffffff167fddf252ad1be2c89b69c2b068fc378daa952ba7f163c4a11628f55a4df523b3ef60405160405180910390a46123c860008383611f84565b5050565b6040518060a00160405280606081526020016000815260200160008152602001600060ff168152602001600060ff1681525090565b82805461240d90612db8565b90600052602060002090601f01602090048101928261242f5760008555612476565b82601f1061244857805160ff1916838001178555612476565b82800160010185558215612476579182015b8281111561247557825182559160200191906001019061245a565b5b5090506124839190612487565b5090565b5b808211156124a0576000816000905550600101612488565b5090565b6000604051905090565b600080fd5b600080fd5b60007fffffffff0000000000000000000000000000000000000000000000000000000082169050919050565b6124ed816124b8565b81146124f857600080fd5b50565b60008135905061250a816124e4565b92915050565b600060208284031215612526576125256124ae565b5b6000612534848285016124fb565b91505092915050565b60008115159050919050565b6125528161253d565b82525050565b600060208201905061256d6000830184612549565b92915050565b600081519050919050565b600082825260208201905092915050565b60005b838110156125ad578082015181840152602081019050612592565b838111156125bc576000848401525b50505050565b6000601f19601f8301169050919050565b60006125de82612573565b6125e8818561257e565b93506125f881856020860161258f565b612601816125c2565b840191505092915050565b6000602082019050818103600083015261262681846125d3565b905092915050565b6000819050919050565b6126418161262e565b811461264c57600080fd5b50565b60008135905061265e81612638565b92915050565b60006020828403121561267a576126796124ae565b5b60006126888482850161264f565b91505092915050565b600073ffffffffffffffffffffffffffffffffffffffff82169050919050565b60006126bc82612691565b9050919050565b6126cc816126b1565b82525050565b60006020820190506126e760008301846126c3565b92915050565b6126f6816126b1565b811461270157600080fd5b50565b600081359050612713816126ed565b92915050565b600080604083850312156127305761272f6124ae565b5b600061273e85828601612704565b925050602061274f8582860161264f565b9150509250929050565b600080600060608486031215612772576127716124ae565b5b600061278086828701612704565b935050602061279186828701612704565b92505060406127a28682870161264f565b9150509250925092565b6000602082840312156127c2576127c16124ae565b5b60006127d084828501612704565b91505092915050565b600081519050919050565b600082825260208201905092915050565b6000819050602082019050919050565b600082825260208201905092915050565b600061282182612573565b61282b8185612805565b935061283b81856020860161258f565b612844816125c2565b840191505092915050565b6128588161262e565b82525050565b600060ff82169050919050565b6128748161285e565b82525050565b600060a08301600083015184820360008601526128978282612816565b91505060208301516128ac602086018261284f565b5060408301516128bf604086018261284f565b5060608301516128d2606086018261286b565b5060808301516128e5608086018261286b565b508091505092915050565b60006128fc838361287a565b905092915050565b6000602082019050919050565b600061291c826127d9565b61292681856127e4565b935083602082028501612938856127f5565b8060005b85811015612974578484038952815161295585826128f0565b945061296083612904565b925060208a0199505060018101905061293c565b50829750879550505050505092915050565b600060208201905081810360008301526129a08184612911565b905092915050565b6129b18161262e565b82525050565b6129c08161285e565b82525050565b600060a08201905081810360008301526129e081886125d3565b90506129ef60208301876129a8565b6129fc60408301866129a8565b612a0960608301856129b7565b612a1660808301846129b7565b9695505050505050565b6000602082019050612a3560008301846129a8565b92915050565b600080fd5b600080fd5b7f4e487b7100000000000000000000000000000000000000000000000000000000600052604160045260246000fd5b612a7d826125c2565b810181811067ffffffffffffffff82111715612a9c57612a9b612a45565b5b80604052505050565b6000612aaf6124a4565b9050612abb8282612a74565b919050565b600067ffffffffffffffff821115612adb57612ada612a45565b5b612ae4826125c2565b9050602081019050919050565b82818337600083830152505050565b6000612b13612b0e84612ac0565b612aa5565b905082815260208101848484011115612b2f57612b2e612a40565b5b612b3a848285612af1565b509392505050565b600082601f830112612b5757612b56612a3b565b5b8135612b67848260208601612b00565b91505092915050565b600060208284031215612b8657612b856124ae565b5b600082013567ffffffffffffffff811115612ba457612ba36124b3565b5b612bb084828501612b42565b91505092915050565b612bc28161253d565b8114612bcd57600080fd5b50565b600081359050612bdf81612bb9565b92915050565b60008060408385031215612bfc57612bfb6124ae565b5b6000612c0a85828601612704565b9250506020612c1b85828601612bd0565b9150509250929050565b600067ffffffffffffffff821115612c4057612c3f612a45565b5b612c49826125c2565b9050602081019050919050565b6000612c69612c6484612c25565b612aa5565b905082815260208101848484011115612c8557612c84612a40565b5b612c90848285612af1565b509392505050565b600082601f830112612cad57612cac612a3b565b5b8135612cbd848260208601612c56565b91505092915050565b60008060008060808587031215612ce057612cdf6124ae565b5b6000612cee87828801612704565b9450506020612cff87828801612704565b9350506040612d108782880161264f565b925050606085013567ffffffffffffffff811115612d3157612d306124b3565b5b612d3d87828801612c98565b91505092959194509250565b60008060408385031215612d6057612d5f6124ae565b5b6000612d6e85828601612704565b9250506020612d7f85828601612704565b9150509250929050565b7f4e487b7100000000000000000000000000000000000000000000000000000000600052602260045260246000fd5b60006002820490506001821680612dd057607f821691505b60208210811415612de457612de3612d89565b5b50919050565b7f4552433732313a20617070726f76656420717565727920666f72206e6f6e657860008201527f697374656e7420746f6b656e0000000000000000000000000000000000000000602082015250565b6000612e46602c8361257e565b9150612e5182612dea565b604082019050919050565b60006020820190508181036000830152612e7581612e39565b9050919050565b7f4552433732313a20617070726f76616c20746f2063757272656e74206f776e6560008201527f7200000000000000000000000000000000000000000000000000000000000000602082015250565b6000612ed860218361257e565b9150612ee382612e7c565b604082019050919050565b60006020820190508181036000830152612f0781612ecb565b9050919050565b7f4552433732313a20617070726f76652063616c6c6572206973206e6f74206f7760008201527f6e6572206e6f7220617070726f76656420666f7220616c6c0000000000000000602082015250565b6000612f6a60388361257e565b9150612f7582612f0e565b604082019050919050565b60006020820190508181036000830152612f9981612f5d565b9050919050565b7f4e487b7100000000000000000000000000000000000000000000000000000000600052603260045260246000fd5b7f4e487b7100000000000000000000000000000000000000000000000000000000600052601160045260246000fd5b60006130098261285e565b915060ff82141561301d5761301c612fcf565b5b600182019050919050565b7f4552433732313a207472616e736665722063616c6c6572206973206e6f74206f60008201527f776e6572206e6f7220617070726f766564000000000000000000000000000000602082015250565b600061308460318361257e565b915061308f82613028565b604082019050919050565b600060208201905081810360008301526130b381613077565b9050919050565b60006130c58261262e565b91507fffffffffffffffffffffffffffffffffffffffffffffffffffffffffffffffff8214156130f8576130f7612fcf565b5b600182019050919050565b7f4f776e61626c653a2063616c6c6572206973206e6f7420746865206f776e6572600082015250565b600061313960208361257e565b915061314482613103565b602082019050919050565b600060208201905081810360008301526131688161312c565b9050919050565b7f4552433732313a206f776e657220717565727920666f72206e6f6e657869737460008201527f656e7420746f6b656e0000000000000000000000000000000000000000000000602082015250565b60006131cb60298361257e565b91506131d68261316f565b604082019050919050565b600060208201905081810360008301526131fa816131be565b9050919050565b7f4552433732313a2062616c616e636520717565727920666f7220746865207a6560008201527f726f206164647265737300000000000000000000000000000000000000000000602082015250565b600061325d602a8361257e565b915061326882613201565b604082019050919050565b6000602082019050818103600083015261328c81613250565b9050919050565b7f4552433732314d657461646174613a2055524920717565727920666f72206e6f60008201527f6e6578697374656e7420746f6b656e0000000000000000000000000000000000602082015250565b60006132ef602f8361257e565b91506132fa82613293565b604082019050919050565b6000602082019050818103600083015261331e816132e2565b9050919050565b600081905092915050565b600061333b82612573565b6133458185613325565b935061335581856020860161258f565b80840191505092915050565b600061336d8285613330565b91506133798284613330565b91508190509392505050565b7f4f776e61626c653a206e6577206f776e657220697320746865207a65726f206160008201527f6464726573730000000000000000000000000000000000000000000000000000602082015250565b60006133e160268361257e565b91506133ec82613385565b604082019050919050565b60006020820190508181036000830152613410816133d4565b9050919050565b7f4552433732313a206f70657261746f7220717565727920666f72206e6f6e657860008201527f697374656e7420746f6b656e0000000000000000000000000000000000000000602082015250565b6000613473602c8361257e565b915061347e82613417565b604082019050919050565b600060208201905081810360008301526134a281613466565b9050919050565b7f4552433732313a207472616e736665722066726f6d20696e636f72726563742060008201527f6f776e6572000000000000000000000000000000000000000000000000000000602082015250565b600061350560258361257e565b9150613510826134a9565b604082019050919050565b60006020820190508181036000830152613534816134f8565b9050919050565b7f4552433732313a207472616e7366657220746f20746865207a65726f2061646460008201527f7265737300000000000000000000000000000000000000000000000000000000602082015250565b600061359760248361257e565b91506135a28261353b565b604082019050919050565b600060208201905081810360008301526135c68161358a565b9050919050565b60006135d88261262e565b91506135e38361262e565b9250828210156135f6576135f5612fcf565b5b828203905092915050565b600061360c8261262e565b91506136178361262e565b9250827fffffffffffffffffffffffffffffffffffffffffffffffffffffffffffffffff0382111561364c5761364b612fcf565b5b828201905092915050565b600060408201905061366c60008301856129a8565b61367960208301846129a8565b9392505050565b7f4552433732313a20617070726f766520746f2063616c6c657200000000000000600082015250565b60006136b660198361257e565b91506136c182613680565b602082019050919050565b600060208201905081810360008301526136e5816136a9565b9050919050565b7f4552433732313a207472616e7366657220746f206e6f6e20455243373231526560008201527f63656976657220696d706c656d656e7465720000000000000000000000000000602082015250565b600061374860328361257e565b9150613753826136ec565b604082019050919050565b600060208201905081810360008301526137778161373b565b9050919050565b7f4e487b7100000000000000000000000000000000000000000000000000000000600052601260045260246000fd5b60006137b88261262e565b91506137c38361262e565b9250826137d3576137d261377e565b5b828204905092915050565b60006137e98261262e565b91506137f48361262e565b9250826138045761380361377e565b5b828206905092915050565b6000819050919050565b61382a6138258261262e565b61380f565b82525050565b60008160601b9050919050565b600061384882613830565b9050919050565b600061385a8261383d565b9050919050565b61387261386d826126b1565b61384f565b82525050565b60006138848285613819565b6020820191506138948284613861565b6014820191508190509392505050565b600081519050919050565b600082825260208201905092915050565b60006138cb826138a4565b6138d581856138af565b93506138e581856020860161258f565b6138ee816125c2565b840191505092915050565b600060808201905061390e60008301876126c3565b61391b60208301866126c3565b61392860408301856129a8565b818103606083015261393a81846138c0565b905095945050505050565b600081519050613954816124e4565b92915050565b6000602082840312156139705761396f6124ae565b5b600061397e84828501613945565b91505092915050565b7f4552433732313a206d696e7420746f20746865207a65726f2061646472657373600082015250565b60006139bd60208361257e565b91506139c882613987565b602082019050919050565b600060208201905081810360008301526139ec816139b0565b9050919050565b7f4552433732313a20746f6b656e20616c7265616479206d696e74656400000000600082015250565b6000613a29601c8361257e565b9150613a34826139f3565b602082019050919050565b60006020820190508181036000830152613a5881613a1c565b905091905056fea2646970667358221220ea70931a1fa5b0044a38f707ae3ff33792f76f4de292af1fb52090293cbaadb464736f6c634300080c0033",
  "immutableReferences": {},
  "source": "// SPDX-License-Identifier: MIT\n\npragma solidity ^0.8.0;\n\nimport \"@openzeppelin/contracts/token/ERC721/ERC721.sol\";\nimport \"@openzeppelin/contracts/access/Ownable.sol\";\n\ncontract ZombieToken is ERC721, Ownable {\n    constructor(string memory _name, string memory _symbol)\n    ERC721(_name, _symbol)\n    {}\n\n    uint256 COUNTER;\n\n    uint256 fee = 0.01 ether;\n\n    struct Zombie {\n        string name;\n        uint256 id;\n        uint256 dna;\n        uint8 level;\n        uint8 rarity;\n    }\n\n    Zombie[] public lips;\n\n    event NewZombie(address indexed owner, uint256 id, uint256 dna);\n\n    // Helpers\n    function _createRandomNum(uint256 _mod) internal view returns (uint256) {\n        uint256 randomNum = uint256(\n            keccak256(abi.encodePacked(block.timestamp, msg.sender))\n        );\n        return randomNum % _mod;\n    }\n\n    function updateFee(uint256 _fee) external onlyOwner {\n        fee = _fee;\n    }\n\n    function withdraw() external payable onlyOwner {\n        address payable _owner = payable(owner());\n        _owner.transfer(address(this).balance);\n    }\n\n    // Creation\n    function _createZombie(string memory _name) internal {\n        uint8 randRarity = uint8(_createRandomNum(100));\n        uint256 randDna = _createRandomNum(10**16);\n        Zombie memory newZombie = Zombie(_name, COUNTER, randDna, 1, randRarity);\n        lips.push(newZombie);\n        _safeMint(msg.sender, COUNTER);\n        emit NewZombie(msg.sender, COUNTER, randDna);\n        COUNTER++;\n    }\n\n    function createRandomZombie(string memory _name) public payable {\n        require(msg.value >= fee);\n        _createZombie(_name);\n    }\n\n    // Getters\n    function getZombies() public view returns (Zombie[] memory) {\n        return lips;\n    }\n\n    function getOwnerZombies(address _owner) public view returns (Zombie[] memory) {\n        Zombie[] memory result = new Zombie[](balanceOf(_owner));\n        uint256 counter = 0;\n        for (uint256 i = 0; i < lips.length; i++) {\n            if (ownerOf(i) == _owner) {\n            result[counter] = lips[i];\n            counter++;\n            }\n        }\n        return result;\n    }\n\n    function isOwner(address _owner) public view returns (bool) {\n        if (_owner == owner()) {\n            return true;\n        }\n        return false;\n    }\n\n    // Actions\n    function levelUp(uint256 _lipId) public {\n        require(ownerOf(_lipId) == msg.sender);\n        Zombie storage lip = lips[_lipId];\n        lip.level++;\n    }\n}\n",
  "sourcePath": "/Users/shirui/nft-dapp/nft-demo-dapp/contracts/ZombieToken.sol",
  "compiler": {
    "name": "solc",
    "version": "0.8.12+commit.f00d7308.Emscripten.clang"
  },
  "schemaVersion": "3.4.6",
  "updatedAt": "2022-03-17T02:40:16.899Z",
  "networkType": "ethereum",
  "devdoc": {
    "kind": "dev",
    "methods": {
      "approve(address,uint256)": {
        "details": "See {IERC721-approve}."
      },
      "balanceOf(address)": {
        "details": "See {IERC721-balanceOf}."
      },
      "getApproved(uint256)": {
        "details": "See {IERC721-getApproved}."
      },
      "isApprovedForAll(address,address)": {
        "details": "See {IERC721-isApprovedForAll}."
      },
      "name()": {
        "details": "See {IERC721Metadata-name}."
      },
      "owner()": {
        "details": "Returns the address of the current owner."
      },
      "ownerOf(uint256)": {
        "details": "See {IERC721-ownerOf}."
      },
      "renounceOwnership()": {
        "details": "Leaves the contract without owner. It will not be possible to call `onlyOwner` functions anymore. Can only be called by the current owner. NOTE: Renouncing ownership will leave the contract without an owner, thereby removing any functionality that is only available to the owner."
      },
      "safeTransferFrom(address,address,uint256)": {
        "details": "See {IERC721-safeTransferFrom}."
      },
      "safeTransferFrom(address,address,uint256,bytes)": {
        "details": "See {IERC721-safeTransferFrom}."
      },
      "setApprovalForAll(address,bool)": {
        "details": "See {IERC721-setApprovalForAll}."
      },
      "supportsInterface(bytes4)": {
        "details": "See {IERC165-supportsInterface}."
      },
      "symbol()": {
        "details": "See {IERC721Metadata-symbol}."
      },
      "tokenURI(uint256)": {
        "details": "See {IERC721Metadata-tokenURI}."
      },
      "transferFrom(address,address,uint256)": {
        "details": "See {IERC721-transferFrom}."
      },
      "transferOwnership(address)": {
        "details": "Transfers ownership of the contract to a new account (`newOwner`). Can only be called by the current owner."
      }
    },
    "version": 1
  },
  "userdoc": {
    "kind": "user",
    "methods": {},
    "version": 1
  }
}